:020000040800F2
:10000000B8C70020710200088732000839260008AE
:100010008532000815120008553F00080000000056
:10002000000000000000000000000000B101000816
:10003000E9170008000000000D020008153A00084A
:100040008B0200088B0200088B0200088B0200085C
:100050008B0200088B0200088B0200088B0200084C
:100060008B0200088B0200088B0200088B0200083C
:100070008B0200088B0200088B0200088B0200082C
:100080008B0200088B020008FD0900080000000038
:100090000000000000000000000000008B020008CB
:1000A0008B020008D13A00088B0200088B0200087E
:1000B000DD3A00088B0200088B0200088B02000862
:1000C0008B0200088B0200088B0200088B020008DC
:1000D0008B020008A93C0008B53C000800000000A5
:1000E0008B0200088B0200088B0200080000000051
:1000F0000000000000000000000000008B0200086B
:10010000000000008B0200088B0200088B02000830
:1001100000000000000000000000000000000000DF
:100120008B0200088B0200088B0200088B0200087B
:100130008B0200080000000000000000000000002A
:100140000000000000000000000000008B0200081A
:100150008B0200088B0200088B020008C13C0008DB
:100160008B0200088B020008000000000000000065
:10017000000000000000000000000000000000007F
:10018000000000008B0200080000000000000000DA
:100190008B0200088B020008DFF810D000F0DEFBB5
:1001A00000480047BD520008AFF30080B8C70020E8
:1001B0002C4B19680868B0E8F04F80F30988BFF34A
:1001C0006F8F4FF0000080F311887047000000002F
:1001D00008480068006880F308884FF0000080F34A
:1001E000148862B661B6BFF34F8FBFF36F8F00DF25
:1001F00000BF00BF08ED00E0DFF80C00016841F42B
:1002000070010160704700BF88ED00E0EFF30980E6
:10021000BFF36F8F134B1A681EF0100F08BF20ED4D
:10022000108A20E9F04F106009B44FF0100080F3FD
:100230001188BFF34F8FBFF36F8F06F025FA4FF091
:10024000000080F3118809BC19680868B0E8F04F15
:100250001EF0100F08BFB0EC108A80F30988BFF3BE
:100260006F8F7047DC000020EFF3058070470000BF
:100270000648804706480047FEE7FEE7FEE7FEE740
:10028000FEE7FEE7FEE7FEE7FEE7FEE7C13A00080D
:10029000990100082DE9F05F0546002092469B4633
:1002A00088460646814640241BE02846414647468C
:1002B000224600F038F953465A46C01A914110D3ED
:1002C00011461846224600F01FF92D1A67EB010867
:1002D0004F4622460120002100F016F917EB0009D5
:1002E0004E41201EA4F10104DFDC484631462A4677
:1002F0004346BDE8F09F40EA01039B0703D009E0B5
:1003000008C9121F08C0042AFAD203E011F8013B01
:1003100000F8013B521EF9D27047D2B201E000F85A
:10032000012B491EFBD270470022F6E710B5134699
:100330000A4604461946FFF7F0FF204610BD421C4E
:1003400010F8011B0029FBD1801A704710B500225C
:1003500000E0521C835C8C5CA34201D1002BF8D1DD
:10036000D8B2E1B2401A10BD034611F8012B00F8D3
:10037000012B002AF9D1184670472DE9FE4F81EA7A
:10038000030404F0004421F0004100944FF0000BFE
:1003900023F0004350EA01045ED052EA03045BD02C
:1003A000C3F30A54C1F30A552C44A4F2F334019464
:1003B000A0FB0254C1F3130141F48011C3F31303F2
:1003C00043F4801301FB024400FB034E840A970AA6
:1003D00044EA815447EA8357A4FB076802958D0AD3
:1003E00005FB07854FEA932C04FB0C542705029D5F
:1003F0004FEA065847EA1637B5EB08056EEB070CCF
:10040000870E920E47EA811742EA8312A7FB020188
:10041000B6EB0B0164EB00042B0D43EA0C335E18C2
:1004200044EB1C50DA465146E7FB0201C5F31304C6
:100430004FEA0B3343EA14534FEA0432019C43EA78
:100440000603A4F10C040294009CCDE900B400F072
:10045000C0F803B0BDE8F08F00200146F9E70EB503
:1004600040F2334102910021CDE900110A460B46CA
:1004700000F0AFF803B000BDC1F30A5210B5C1F3EC
:10048000130140F2FF3341F480119A4201DA002057
:1004900010BD40F233439A42A2F2334203DC52428F
:1004A00000F041F810BD904010BD00F0004230F067
:1004B00000400AD0C10D01F56071C0F3160042EA98
:1004C0000151C208400711437047002001467047A0
:1004D00001F0004330B421F0004150EA010206D09F
:1004E0000A0DA2F56072C1F31301002A02DC30BCD0
:1004F00000207047440F44EAC104C100E01830BC3A
:1005000000EBC25000F01FB8202A04DB203A00FAAA
:1005100002F1002070479140C2F1200320FA03F35A
:10052000194390407047202A04DB203A21FA02F058
:100530000021704721FA02F3D040C2F1200291401D
:100540000843194670470029A8BF7047401C49005E
:1005500008BF20F00100704710B4B0FA80FC00FA28
:100560000CF050EA010404BF10BC704749B1CCF153
:10057000200421FA04F411FA0CF118BF01212143DF
:100580000843A3EB0C01CB1D4FEA00614FEA10209A
:1005900042BF002010BC704700EBC350104400293C
:1005A000A4BF10BC7047401C490008BF20F00100E8
:1005B00010BC704710B5141E73F1000408DA401C1B
:1005C00041F1000192185B411A4301D120F0010072
:1005D00010BD2DE9F04D92469B4611B1B1FA81F262
:1005E00002E0B0FA80F220329046FFF78DFF044619
:1005F0000F4640EA0A0041EA0B0153465A460843B7
:1006000013D0114653EA010019D0C8F140025046F8
:10061000FFF789FF05460E46504659464246FFF70A
:1006200073FF084305D0012004E020463946BDE8A9
:10063000F08D0020054346EAE0762C4337430A98C4
:100640006305E40AA0EB08000022FD0A44EA4754CF
:100650000A3002D500200146E9E701051019694179
:10066000DDE9084500196941BDE8F04DA2E72DE933
:10067000FE4F804681EA0300C00F0C46009021F037
:10068000004123F00045B8EB0200A94105D24046E5
:10069000214690461C460B46024623F0004010437C
:1006A00047D0270DC7F30A00C3F30A510290401A3E
:1006B000019040286BDAC3F3130040F4801B0098CC
:1006C000924620B10023D2EB030A63EB0B0B019897
:1006D0005946C0F140025046FFF716FF06460D4648
:1006E00050465946019A00F04BF910EB0800614161
:1006F000002487EA115284EAE7731A4340D0009A33
:1007000062B3019A012A4FEA075215DC001B61EB24
:1007100002014FF0004202EA0752CDE90042001CFC
:1007200041F5801132462B46FFF753FF03B0BDE879
:10073000F08F40462146F9E7001B61EB0201001CE7
:1007400041F5801300185B412018A2F5001747EB14
:10075000030140EAD570B6196D4111E06D084FEA0A
:10076000360645EAC0754FEA0752001B61EB0201ED
:10077000001C41F5801149084FEA30000019514131
:1007800032462B4603B0BDE8F04FFFF713BF009889
:10079000012240000023D0EB020263EBE0730098DB
:1007A00021464FEAE074B8EB000061EB0401E9E791
:1007B00083F000435BE781F0004158E72DE9F04DFD
:1007C00081EA030404F0004B21F0004514464FF089
:1007D000000A23F0004150EA050220D054EA010249
:1007E0001DD0C5F30A570246C5F31303C1F3130026
:1007F000C1F30A5640F4801543F48013A7EB0608B2
:10080000101BD64608F2FD3873EB050002D308F141
:10081000010801E092185B41B8F1000F03DA0020F3
:100820000146BDE8F08D00204FF480110646844655
:100830000EE0171B73EB050705D3121B63EB0503D3
:1008400006434CEA010C49084FEA300092185B411C
:1008500050EA0107EDD152EA030012D082EA040007
:1008600083EA0501084305D0101BAB4106D20122E3
:10087000002306E000224FF0004302E06FF0010287
:1008800053101AEB06004CEB085110EB0A0041EB39
:100890000B01BDE8F04DFFF78DBE0EB5C10F80EA2C
:1008A000E0700844CA07002140F233438DE80E008F
:1008B0000A460B46FFF78DFE03B000BD70B5C1F3CD
:1008C0000A5201F000450024C1F3130140F2FF3346
:1008D00041F480119A4201DA002070BD40F23343A6
:1008E0009A42A2F2334203DC5242FFF71CFE00E0C0
:1008F00090402C43F1D0404270BD000030B5041E42
:1009000071F1000404DB4FF00044404264EB01014C
:10091000141E73F1000405DB1C464FF000435242E5
:1009200063EB04038B4208BF824230BD30B5041E26
:1009300071F1000404DB4FF00044404264EB01011C
:10094000141E73F1000405DB1C464FF000435242B5
:1009500063EB0403994208BF904230BD064C074D3B
:1009600006E0E06840F0010394E80700984710347F
:10097000AC42F6D3FFF714FC987D0008B87D000860
:10098000202A06DBCB17203A41FA02F043EAE07353
:1009900006E041FA02F3D040C2F120029140084340
:1009A0001946704770B58C1810F8015B15F00703F5
:1009B00001D110F8013B2A1106D110F8012B03E0F8
:1009C00010F8016B01F8016B5B1EF9D12B0705D400
:1009D0000023521E0DD401F8013BFAE710F8013B49
:1009E000CB1A921C03E013F8015B01F8015B521E65
:1009F000F9D5A142D8D3002070BD00000448416859
:100A0000C1F34011002902D06FF00201016070476C
:100A1000002001402DE9F0470025DFF84480114C0B
:100A20004FF40079EF1E42464946204602F060FA34
:100A3000A06840F08040A0606068C0F340100028CB
:100A4000FAD02760A06820F48060A060E06C16FAFD
:100A500080F66D1CEDB2102DE5D33009BDE8F087AE
:100A600001003002002001400A4C4FF0FF35A06B1E
:100A70000028FCD0294606F07FFA0128F7D1064865
:100A800000F0B8FD411C03490D225E31022004F044
:100A9000A1FBECE7000000206C03002008B503F088
:100AA00039FA104C4FF4C87512E0684603F040FA6A
:100AB0009DF800000A280BD103F0FAF901280DD1A6
:100AC000A06B58B100231A46194606F0A9F805E0B4
:100AD0006946002004F057FB0028E6D1284604F0C0
:100AE000FEFBF5E7000000202DED028B94B001F035
:100AF0008FFF01F0AFFD01F03FFE6D4C4FF0FF3670
:100B00009FED6C8ADFF8B0916C4D0DF10C0A00235B
:100B100000961A460221686D05F080FE8007F6D522
:100B200004E000BF9DF8480003F0D8FA12A90120A4
:100B300004F029FB0028F5D1B9F8000000287DD089
:100B400002F06AF8002007AA0AAB0DAF0DF1400CC5
:100B5000B3EE000ADFED5A0A9FED5A1ADFED5A1A7A
:100B600004EB4001B1F9688002EE108A02EB8008C4
:100B7000B8EEC22A22EE082A22EE002A22EE202A0D
:100B800088ED002AB1F96E8002EE108A03EB80082E
:100B9000B8EEC22A22EE082A22EE012A88ED002AA7
:100BA000B1F97A8002EE108A07EB8008B8EEC22A0B
:100BB00022EE082A22EE212A88ED002AB1F87410CC
:100BC0002CF81010401C0328CADBB4F98A00B4F8D2
:100BD0008C1040EA0143B4F98E00B4F8901040EA5A
:100BE000014200204FEA0A0104EB4007B7F9A27066
:100BF00000EE107A01EB8007401CB8EEC00A042812
:100C000020EE080A87ED000AEEDBB9F800704846CE
:100C1000FF0703D0078827F0010707800788BF0771
:100C200003D5078827F00207078007887F0703D5C9
:100C3000078827F004070780078800E026E03F07C1
:100C400003D5078827F0080707800788FF0603D524
:100C5000078827F0100707800788BF0603D5078895
:100C600027F02007078007887F0603D5078827F02D
:100C70004007078000270780CDE90032CDF808A0A3
:100C800063460DAA0AA907A801F0DAFE01F0D6FC16
:100C9000012809D101F054FF401C05D000231A4659
:100CA0001946286C05F0BCFF062004F018FB2EE75F
:100CB0002C66002000000038B20000200000002058
:100CC000CDCC1C410000FA440000344308B50F4D60
:100CD0004FF0FF3702263946286C06F04DF90128FF
:100CE000F9D1002300961A460321286D05F096FDE0
:100CF0008007F0D50024204601F0D4FC01F0B8FDB7
:100D0000641CE4B20A2CF6D3E5E7000000000020E2
:100D1000084D4FF400544FF47A76696924EA0100D3
:100D200001F4005140EA0140A861304604F0D7FACE
:100D3000F3E70000000802401CB502F0CDFA02F013
:100D400057FC02F05DFB294D4FF0FF3605F15804CA
:100D5000002300961A460121686D05F05FFDC0076B
:100D6000F6D0207890B1012836D0022825D003286B
:100D70002CD005F051F905F06FF9A0884FF47A7185
:100D80004843B0FBF1F004F0AAFAE1E702F06CFC92
:100D900000F08EF91648017C491C017402F090FAAB
:100DA0000128EAD102F00EFC401CE6D000231A46CE
:100DB0001946E86B05F034FFDFE73146A86C06F012
:100DC000DBF80128D9D102F01BF8D6E73146686C70
:100DD00006F0D2F80128D0D1A178607801AA02F0FB
:100DE00099FD01A802F0D2FDC7E700000000002035
:100DF000C05D002008B5114D4FF0FF37022639467F
:100E0000E86B06F0B9F80128F9D1002300961A46DC
:100E10000321286D05F002FD8007F0D5084802F097
:100E20002FFC0128EBD10024204602F0C3FA02F087
:100E3000FDFA641CE4B20A2CF6D3E0E700000020BF
:100E40003C6D00200D4C4FF0FF354FF4C876E06C40
:100E50000028FCD0294606F08FF80128F7D131464A
:100E60000748FFF761FA064805F084FA05A003F089
:100E700035FB03490AA003F031FBE8E7000000203E
:100E8000790300205461736B090952756E54696DC2
:100E900065090950657263656E746167650D0A00C6
:100EA00025730D0A000000004FF4FA7004F017FAE1
:100EB00001F0CEFA012830D022A000BF03F00EFBD3
:100EC000264F274C4FF400764FF47A780021206D9E
:100ED00005F01AFC05463146384602F0C8F805F020
:100EE000010188422AD1142004F0F9F9314638462C
:100EF00002F0BDF84FF0010188B1206D05F004FC4F
:100F00000221206D05F000FC0121606D05F0FCFB65
:100F10000221606D05F0F8FB10E012A0CEE7606DD5
:100F200005F036FC0221606D05F032FC0121206DD8
:100F300005F02EFC0221206D05F02AFC404604F04D
:100F4000CEF9C3E753505020696E69742066616919
:100F50006C65642121200D0A00000000000402409D
:100F60000000002053505020696E6974207375632F
:100F70006365656465642121200D0A0008B502F0EF
:100F800057FC174C4FF4C875206BC0B1642105F0B5
:100F9000F3FF012807D012E0684602F057FC9DF8E5
:100FA00000000A280FD06946022004F0ECF800285F
:100FB000F2D100231A461946206B05F031FE28466F
:100FC00004F08DF9E0E702F001FC0128F1D1A06BFB
:100FD0000028EED000231A46194605F021FEE8E766
:100FE0000000002010B5254A0021254804F048FAE9
:100FF000244C224A002160602432234804F040FA45
:101000001E4AA06048320021204804F039FA1B4AE9
:10101000E0606C3200211E4804F032FA174A206169
:10102000903200211B4804F02BFA144A6061B4325C
:101030000021194804F024FA104AA061D832002196
:10104000164804F01DFA0D4AE061FC3200211448F4
:1010500004F016FA2062134A0021134804F010FA33
:10106000104A606224320021104804F009FAA0629C
:10107000BDE81040002005F0F9B800001C7600081B
:10108000110D0008000000209D0A00087D0F0008D7
:10109000690A0008390D0008E90A0008F50D000882
:1010A000CD0C00083C770008A90E0008450E00088A
:1010B0002DE9F0410024DFF87C80264608EB440748
:1010C00018F814502BE0204602F03AFB284600F0B6
:1010D00045FAC82000BF401E10F0FF00FAD1FFF70C
:1010E00099FC80B2FFF7BBF99FED131B53EC112B5A
:1010F000FFF743F99FED121B53EC112BFFF73DF95E
:10110000FFF7BAF910495A230A7C12FB03F202EBEB
:1011100046024968761C6D1C8852F6B2EDB27878AA
:10112000A842D0D2641CE4B20A2CC7D30120BDE887
:10113000F0810000347800086666666666664A3F9D
:101140000000000000408F40C05D00202DE9F84302
:101150000124DFF868801A4D002700BF58F82410DA
:10116000012004F04BF802266F800321342002F0A6
:101170000BFF642004F0B3F804E000BF9DF800000A
:1011800002F0ACFF6946012003F0FDFF0028F5D115
:10119000688830B158F824100AA003F09FF9BDE820
:1011A000F883761EE0D1641C0A2CD7DB0BA003F079
:1011B00095F910A003F092F9F1E700005C7A0008BD
:1011C000B0000020256420626175642066696E6449
:1011D0002073656E736F720D0A0D0A0063616E20D5
:1011E0006E6F742066696E642073656E736F720D26
:1011F0000A000000706C6561736520636865636B4D
:1012000020796F757220636F6E6E656374696F6E9F
:101210000D0A0000FEE7000070B501000B484FF01A
:1012200001044FF0FF3500684FF0020104D005F0D3
:10123000AFFA40B906A003E005F066FA18B90FA0AE
:1012400003F04CF92C46204670BD000050000020F1
:101250004661696C656420746F20656E61626C65BF
:1012600020626C7565746F6F7468207472616E7340
:101270006D697373696F6E200A0D00004661696CB9
:10128000656420746F2064697361626C6520626CB0
:101290007565746F6F7468207472616E736D6973B5
:1012A00073696F6E200A0D0010B5012403F048F831
:1012B00000B1A41E204610BD70B50124A51E20B1AA
:1012C000012804D0022804D007E0062002E0022012
:1012D00000E0002002F08CFF00B12C46204670BDDB
:1012E00070B50124A51E30B101280BD0022810D002
:1012F000032815D018E0022002F0F8FFA0B94FF43F
:10130000165116E0062002F0F1FF68B94FF4E13102
:101310000FE0082002F0EAFF30B94FF4E12108E0C5
:10132000092002F0E3FF10B12C46204670BD4FF4B7
:101330006121012003F062FFF7E770B50124A51ECB
:1013400020B1012804D0022804D008E0022003E0E4
:101350001E2001E040F25E2002F074FF00B12C4636
:10136000204670BD70B50124A51E10B1012803D020
:1013700005E003F021F801E003F000F800B12C468D
:10138000204670BD70B50124A51E20B1012804D0EF
:10139000022804D007E0062002E0092000E00B202C
:1013A00002F07AFF00B12C46204670BD70B50100F6
:1013B0000B484FF001044FF0FF3500684FF0020179
:1013C00004D005F0E5F940B906A003E005F09CF96A
:1013D00018B90DA003F082F82C46204670BD00001D
:1013E000540000204661696C656420746F20656E4E
:1013F00061626C6520494D552073616D706C696E3A
:1014000067200A0D000000004661696C6564207465
:101410006F2064697361626C6520494D552073616A
:101420006D706C696E67200A0D00000002F030B824
:1014300002F0A0B870B501000A484FF001044FF067
:10144000FF350068214604D005F0A2F940B906A096
:1014500003E005F059F918B90DA003F03FF82C4648
:10146000204670BD540000204661696C656420749C
:101470006F20656E61626C6520706C616E74617264
:101480002073616D706C696E67200A0D00000000AA
:101490004661696C656420746F2064697361626C75
:1014A0006520706C616E7461722073616D706C691F
:1014B0006E67200A0D0000002DE9F04100F00F07D3
:1014C000060901243946304601F05EFFA51E0128B9
:1014D00001D009A006E03946304601F00FFF01288F
:1014E00004D00BA002F0FAFF2C4602E00FA002F09D
:1014F000F5FF2046BDE8F08153656C656374696F44
:101500006E20696E707574206572726F72000000D3
:101510004368616E6765207468652073656C6563F8
:1015200074696F6E206661696C6564004368616E02
:101530006765207468652073656C656374696F6E98
:10154000207375636365656400000000884203DBF7
:10155000904201DC012070470020704770B50E4DAD
:10156000044600F001020821284601F0D3FDC4F32F
:1015700040024FF40041094801F0CCFDC4F3800261
:101580000121284601F0C6FD2846BDE87040012231
:10159000202101F0BFBD0000000402400000024015
:1015A00028B1012805D0022805D000207047034843
:1015B000704703487047034870470000001001401F
:1015C000004400400014014010B538B1012807D094
:1015D000022807D000F010F9002010BD024810BD0D
:1015E000024810BD024810BD0C0500203025002027
:1015F0005441002070B504460020451E215C71292D
:1016000008D1401C40B20528F8DB00202118097AD7
:10161000682904D039A002F061FF284670BD401C43
:1016200040B20528F2DB3AA002F058FF6279A179B6
:10163000E079102A04D0202A11D0302A33D00CE0CF
:10164000102902D0112904D007E0BDE87040FFF74F
:10165000E3BDBDE8704002F00BB9002070BD102959
:101660000DD011290FD0122911D0132913D014290C
:1016700015D01529F1D1BDE8704001F0D9BFBDE802
:101680007040FFF7D7BEBDE87040FFF7CFBEBDE8A2
:101690007040FFF711BFBDE87040FFF7C9BEBDE85D
:1016A000704001F0F1BD10290FD0112911D012297D
:1016B00013D0132915D0142917D0152919D016299C
:1016C000CBD1BDE87040FFF74DBEBDE87040FFF7DD
:1016D0006DBEBDE87040FFF730BEBDE87040FFF75B
:1016E00051BEBDE87040FFF7FBBDBDE87040FFF79D
:1016F000E3BDBDE87040FFF7D7BD0000436F6D6DDF
:10170000616E64206572726F72200A0D0000000025
:10171000526563656976656420636F6D6D616E64A3
:10172000200A0D00024A00211160516001F04CBDF9
:10173000700000202DE9F04700270425DFF8A08085
:10174000DFF8A09050383E4601F1060A102845D235
:10175000DFE800F01108130C1517191B1D1F214499
:101760004444442334240325402702E03D24032538
:101770002E27012613E0302411E037242BE03A24F1
:1017800029E041240BE0452409E0492407E04D24E9
:1017900005E0512403E0552401E0D8F82440032A51
:1017A00019D04DB16A0009EB4400FEF7A4FDD8F84A
:1017B0001420294620469047002E0FD0720009EBD6
:1017C00047005146FEF797FD31463846D8F81420B9
:1017D000BDE8F047104703250026E3E7BDE8F087A2
:1017E000880000202C66002070474FF47A7148432F
:1017F000B0FBF1F003F073BD72B6FEE72DE9F84FD0
:10180000DFF8B8A1002201240AF1040B03254FF0F0
:101810000F090BF1040E00BF0B6804FA02F6334007
:10182000B34273D10F7907F00307012F01D0022FC4
:1018300016D187684FEA420805FA08FC27EA0C0728
:10184000D1F80CC00CFA08FC4CEA070CC0F808C030
:101850004768B7430E79C6F3001696403E4346608C
:101860000E79F643B6070DD0C768560005FA06FC98
:1018700027EA0C07D1F808C00CFA06FC4CEA070C62
:10188000C0F80CC00E7906F00306022E10D1D6085F
:1018900000EB8608D8F8206057074FEAD76C09FAA2
:1018A0000CF7BE430F6907FA0CF73743C8F82070EE
:1018B00006684FEA420C05FA0CF7BE430F7907F0B1
:1018C000030707FA0CF7374307604E6816F4403FEA
:1018D0006DD03B4E376847F480473760366822F05A
:1018E000030706F480460096364E07EB060CDCF83C
:1018F000086897073F0F09FA07F826EA0806DFF895
:10190000C880404503D14FF000081EE04FE0DFF8EB
:10191000BC80404502D14FF0010816E0DFF8B080EE
:10192000404502D14FF002080FE0DFF8A8804045A3
:1019300002D14FF0030808E0DFF89C80404502D157
:101940004FF0040801E04FF0070808FA07F848EAEA
:101950000608CCF80888DAF800605746D1F804C0C9
:101960009E435FEACC3C00D51E433E60DBF800603E
:101970005F46D1F804C09E435FEA8C3C00D51E430D
:101980003E60DEF800607746D1F804C09E435FEA0F
:10199000CC2C00D51E433E60084F0C373E68D1F872
:1019A00004C09E435FEA8C2C00D51E433E60521C4F
:1019B000102AFFF431AFBDE8F88F0000003C014071
:1019C0004438024000300140000002400004024060
:1019D00000080240000C02400010024001488068EC
:1019E00070470000CC000020024881680278114452
:1019F00081607047CC0000200B4810B5016841F4AD
:101A000000710160016841F480610160016841F486
:101A100080710160032000F08DF80F2000F006F8BF
:101A200000F03EF8002010BD003C024010B5014619
:101A300088B00022192000F05DF8192000F04CF861
:101A400013480024016841F001010160006805A904
:101A500000F001000690684600F018F900F046F921
:101A60000C490D4AB0FBF1F10C48491E026040F2EE
:101A7000E732C0E90324C0E9011400F031FB10B1E2
:101A8000012008B010BD054800F058FBF9E7000040
:101A90004438024040420F0000000140785D0020C1
:101AA0000C4882B0016841F480410160006800F494
:101AB000804000900748001F016841F0805101609C
:101AC0000068002200F0805000900F21901E02B0AC
:101AD00000F010B844380240002809DB00F01F0273
:101AE000012191404009800000F1E020C0F8001180
:101AF00070470000F0B40E4B1B680C46C3F3022382
:101B0000C3F10705042D00D90425191D072901D2A9
:101B1000002300E0DB1E012606FA05F1491E2140E4
:101B200099409E40761E16403143F0BC02F028BD1D
:101B30000CED00E0064900F0070208684FF6FF03CD
:101B4000184040EA0220034A104308607047000032
:101B50000CED00E00000FA052DE9F0470E46050007
:101B600065D0DFF81481D8F80000F7B200F0070064
:101B7000B04207D288F80070D8F8000000F00700E3
:101B8000B04254D128683D4C810712D5400703D597
:101B9000206840F4E05020602878000703D52068D2
:101BA00040F4604020602068A96820F0F0000843FD
:101BB00020602878C0072DD030496868083901288E
:101BC00012D0022813D0032811D0096889070029F0
:101BD0002DDA216821F0030101432160FFF7FEFEA9
:101BE000814641F2883A0EE009688903EFE7096807
:101BF0008901ECE7FFF7F2FEA0EB0901514502D99C
:101C00000320BDE8F0872068696800F00C00B0EBA5
:101C1000810FEFD1D8F80010404601F00701B14222
:101C200007D90770006800F00700B04201D001201A
:101C3000E7E72878400705D52068E96820F4E050F8
:101C4000084320602878000706D52068296920F419
:101C5000604040EAC100206000F058F82168084A5E
:101C6000C1F30311515CC84006490860064800688A
:101C7000FFF7DCFE0020C4E7003C024008380240C9
:101C8000D87B0008D8000020D00000200F2202607E
:101C90000C4A136803F003034360136803F0F00376
:101CA0008360136803F4E053C36012684FF4E05399
:101CB00003EAD20202610448006800F007000860ED
:101CC0007047000008380240003C024004480549C3
:101CD00000680968044AC1F38221515CC84070471A
:101CE000D800002008380240E87B00080448054975
:101CF00000680968044AC1F34231515CC84070472A
:101D0000D800002008380240E87B0008154810B5CC
:101D1000006810F00C02144813D01449042A0FD0A4
:101D2000082A0ED10F4C241F2268236802F03F02BC
:101D30005B0207D52068C0F38810A0FB010106E014
:101D4000084610BD2168C1F38811A1FB00010023E2
:101D5000FEF7A0FA2168C1F30141491C4900B0FB1C
:101D6000F1F010BD083802400024F40040787D01F5
:101D70002DE9F84F04006ED02078DFF84C93C007AF
:101D8000A9F104054AD009F104000168C1F38101F9
:101D9000012908D00068C0F3810002280AD1D9F8CF
:101DA0000000400206D52868800337D56068002807
:101DB000E1D033E06068B0F5803F10D0B0F5A02FDF
:101DC000286810D020F480302860286820F4802013
:101DD00028606068A8B1FFF701FE06460DE028689C
:101DE00040F48030F4E740F480202860F7E700BF3B
:101DF000FFF7F4FD801B642873D828688003F7D5AB
:101E00000CE0FFF7EBFD064605E000BFFFF7E6FD3F
:101E1000801B6428F0D828688003F7D42078DFF886
:101E2000AC8280074FF0000A3ED5A748001D01682C
:101E300011F00C0F08D00068C0F3810002280BD10C
:101E4000D9F80000400207D42868800716D5E0685A
:101E5000012800D112E033E1E068B8B10120C8F8F0
:101E60000000FFF7BBFD064605E000BFFFF7B6FD2B
:101E7000801B0228C0D828688007F7D52868216908
:101E800020F0F80040EAC10028600DE0C8F800A08A
:101E9000FFF7A4FD064604E0FFF7A0FD801B022823
:101EA0001FD828688007F7D42078000722D5864FEE
:101EB00087486169703771B101210160FFF78EFDBC
:101EC000064604E0FFF78AFD801B022809D838681F
:101ED0008007F7D50EE0C0F800A0FFF77FFD0646AB
:101EE00005E082E0FFF77AFD801B02287DD8386884
:101EF0008007F7D42078400768D5DFF8CCB10027F9
:101F00000BF13C0BDBF80000C0000BD4DBF8001039
:101F100041F08051CBF80010DBF80000012700F001
:101F2000805000906B4E3068C00510D4306840F48B
:101F300080703060FFF752FD009005E0FFF74EFD26
:101F40000099401A022850D83068C005F6D55E4E78
:101F5000A0686C3601280FD00528306810D020F01A
:101F600001003060306820F004003060A068B8B133
:101F7000FFF734FD00900FE0306840F00100F4E717
:101F800040F004003060F7E7FFF728FD0099411AA0
:101F900041F28830814266D830688007F4D50EE07F
:101FA000FFF71CFD009007E0FFF718FD0099411AAC
:101FB00041F28830814256D830688007F4D42FB17E
:101FC000DBF8001021F08051CBF80010A069C8B3F5
:101FD0003D49091D0968C1F3810102294AD002283F
:101FE000504607D0C8F8600000E03CE0FFF7F6FC80
:101FF00004463BE04746C8F86000FFF7EFFC0646A2
:1020000005E000BFFFF7EAFC801B02282BD82868F8
:102010008001F7D4D4E907010843A16A2E4A490890
:1020200002EB0141626A41EA8211084394F82C10E4
:1020300040EA0161C9F8001001203866FFF7CEFCC4
:10204000044606E03EE000BFFFF7C8FC001B022884
:1020500009D828688001F7D534E000BFFFF7BEFC3F
:10206000001B022802D90320BDE8F88F28688001F0
:10207000F4D427E00128F7D0D9F80000E26900F491
:10208000800191421CD1226A00F03F01914217D198
:1020900047F6C071626A0140B1EB821F10D1A26A9B
:1020A0004FF0FF3300F4403103EB5202B1EB024F2B
:1020B00006D194F82C1000F07060B0EB016F01D0E5
:1020C0000120D1E70020CFE704380240000047425A
:1020D000800E4742007000400000FFFF70477047CD
:1020E00010B5040003D094F83D0010B107E00120C2
:1020F00010BD002084F83C00204600F01EF80220AD
:1021000084F83D00211D206801F0FCFC012084F8CA
:10211000460084F83E0084F83F0084F8400084F8CC
:10212000410084F8420084F8430084F8440084F8B5
:10213000450084F83D00002010BD704790F83D1028
:10214000012901D001207047022180F83D1001686B
:10215000CA6842F00102CA6000680E4988420ED087
:10216000B0F1804F0BD00C49884208D00B4988420F
:1021700005D00B49884202D00A49884204D18168BF
:1021800001F00701062903D0016841F00101016057
:10219000002070470000014000040040000800409B
:1021A000000C004000400140704770B504460068D4
:1021B00001694FF00005C943890715D4C168C943B7
:1021C000890711D4E91E0161012020772068806908
:1021D0008007204602D0FFF7E7FF04E000F098F800
:1021E000204600F096F8257720680169C943490721
:1021F00017D4C168C943490713D46FF004010161C2
:10220000022020772068806910F4407F204602D0A9
:10221000FFF7CAFF04E000F07BF8204600F079F8F1
:10222000257720680169C943090716D4C168C943E5
:10223000090712D46FF0080101610420207720689B
:10224000C0698007204602D0FFF7AEFF04E000F02F
:102250005FF8204600F05DF8257720680169C943E2
:10226000C90617D4C168C943C90613D46FF0100159
:102270000161082020772068C06910F4407F204663
:1022800002D0FFF791FF04E000F042F8204600F092
:1022900040F8257720680169C943C90708D1C1689A
:1022A000C943C90704D1891E0161204600F032F8F4
:1022B00020680169C943090609D4C168C9430906F0
:1022C00005D46FF0800101612046FFF707FF206809
:1022D0000169C943490609D4C168C943490605D4FF
:1022E0006FF040010161204600F01EF8206801698E
:1022F000C94389060BD4C168C943890607D46FF066
:10230000200101612046BDE87040FFF7E8BE70BDC6
:102310007047704700680349884201D1FFF764BBEA
:102320007047000000000140704770B5040004D001
:1023300094F83D00002510B106E0012070BD84F83E
:102340003C50204600F022F8242084F83D0020680C
:10235000C16821F40051C160204601F01FFC2068D3
:10236000016921F4904101612068416921F02A014D
:1023700041612068C16841F40051C160256420209A
:1023800084F83D0084F83E00002070BD70470000D6
:102390002DE9F05F21484FF0FF368246FDF7CFFF71
:1023A000DFF878901E4F09F120091FFA80FB002406
:1023B000A9F13408022002F0DCFE40211848FDF7A4
:1023C000B3FF58F82410022002F018FF5A46514675
:1023D000022002F0FFFE514612A002F07FF86420B6
:1023E00002F07DFF002501E06D1CEDB2791902209D
:1023F00002F0C9FE0028F7D109490FA002F06EF8DB
:1024000049460748FDF7A2FF30B1641CE4B2052C31
:10241000D0D33046BDE8F09F0126FAE7987A00084D
:102420009A760020436F6D6D616E642073656E64F3
:102430003A2573200A0D0000436F6D6D616E6420B4
:10244000726563656976653A2573200A0D000000A0
:102450002DE9F05F5B4A4FF0FF35106800287DD012
:102460006421914604F088FD01280AD056A002F0AC
:1024700035F800231A461946D9F8000004F0D0FBBD
:102480009DE0FFF785FF0128F3D1574C2046FDF76B
:1024900056FF86B204F12007022002F06AFE4021B6
:1024A0005248FDF741FF32462146022002F092FEDB
:1024B00021464FA002F012F84FF44878404602F04F
:1024C0000EFF0026494C01E0761CF6B2A11902204D
:1024D00002F059FE0028F7D144494AA001F0FEFF5E
:1024E00039464248FDF732FF20B94FF4E12102207E
:1024F00002F084FE3C4E40363046FDF720FF87B2A6
:1025000006F1200A022002F034FE40213748FDF790
:102510000BFF3A463146022002F05CFE314634A001
:1025200001F0DCFFC346404602F0D9FE002601E080
:10253000761CF6B2A119022002F025FE0028F7D180
:102540002A4930A001F0CAFF51462848FDF7FEFE97
:10255000254EC0363046FDF7F2FE00E02CE087B293
:1025600006F12008022002F004FE40211F48FDF77A
:10257000DBFE3A463146022002F02CFE31461CA01A
:1025800001F0ACFF584602F0AAFE002601E0761CDE
:10259000F6B2A119022002F0F6FD0028F7D1134986
:1025A00018A001F09BFF41461048FDF7CFFE002820
:1025B0007FF45FAF01255CE718A001F08FFF28468C
:1025C000BDE8F09F300000204170706C6963617459
:1025D000696F6E20666F72206D7574657820666114
:1025E000696C6564200D0A00D87A00089A7600208C
:1025F000436F6D6D616E642073656E643A25732060
:102600000D0A0000436F6D6D616E64207265636535
:102610006976653A2573200D0A000000546865202C
:102620006D75746578206E6F742063726561746572
:1026300064200D0A00000000FEE70000044890F846
:1026400040000A2801D3012070474FF0FF30704747
:10265000806700201249A1F1440041607831016097
:102660007831C160783181607831416178310161C0
:102670007831C1613C3181613C3141622831016274
:102680002831C1622831816228314163A031016360
:10269000A031C16328318163002180F84010704768
:1026A000C46700202DE9F05F304E05463049B06B1D
:1026B00050F8250003F0E6FB05EB45004FEA400922
:1026C000DFF8ACB0DFF8ACA005EB450000240BF15F
:1026D0000C0B4FEA800800BF306808EB84073918FC
:1026E0000AEB8400002202F0CFFDB0680022391806
:1026F00020480C3000EB840002F0C6FD3069002257
:1027000039181C48183000EB840002F0BDFDB16997
:1027100009EB4400085A0BEB440103F0AFFB641CC7
:10272000E4B2032CD8D3306A114950F82500091DB2
:1027300003F0A8FBB06A0E4950F82500083103F0F9
:10274000A1FB0C4F00242D0117F12407316B05EB81
:102750008400014407EB8400002202F095FD641C14
:10276000E4B2042CF2D3BDE8F09F000080670020A3
:10277000B8000020F874002010B500203B4B7121F8
:102780001954401CC0B20528FAD3502058710022B9
:1027900068209C18521CD2B2A075052AF9D3334B7D
:1027A00000221B339954521CD2B2052AFAD351226B
:1027B0005A7100229C18521CD2B2A075052AF9D376
:1027C0002A4B002236339954521CD2B2052AFAD32E
:1027D00052225A7100229C18521CD2B2A075052AAE
:1027E000F9D3224B002251339954521CD2B2052AFC
:1027F000FAD353225A7100229C18521CD2B2207470
:10280000052AF9D3194B002266339954521CD2B2CF
:10281000052AFAD354225A7100229C18521CD2B2B3
:10282000A073052AF9D3114B002279339954521C15
:10283000D2B2052AFAD355225A7100229C18521C92
:10284000D2B2A073052AF9D3084B00228C339954D5
:10285000521CD2B2052AFAD35621597100215A18B6
:10286000491CC9B290760529F9D310BDEF75002037
:1028700070B5644D286800287ED0142104F07CFBDC
:10288000012879D16049614C00200B18225C401C62
:10289000C0B29A710428F8D35B4A0020F73A0E18A8
:1028A000135C401CC0B2B3720C28F8D31B225649EB
:1028B000022002F08FFC544900201B31225C0B18CF
:1028C000401CC0B29A710428F8D34F4A0020EB3A5A
:1028D0000E18135C401CC0B2B3720C28F8D34A49DE
:1028E0001B221B31022002F075FC474900203631C3
:1028F000225C0B18401CC0B29A710428F8D3424ADB
:102900000020DF3A0E18135C401CC0B2B3720C28D2
:10291000F8D33D491B223631022002F05BFC3A49D4
:1029200000205131225C0B18401CC0B29A7104285F
:10293000F8D3364A00200C320E18135C401CC0B28B
:10294000B3720628F8D3304915225131022002F023
:1029500041FC2D4900206631225C0B18401CC0B29E
:102960009A710428F8D3294A0020121D0E18135C0E
:10297000401CB372C0B200E043E00428F6D3224901
:1029800013226631022002F025FC1F490020793114
:10299000225C0B18401CC0B29A710428F8D31B4A61
:1029A000002008320E18135C401CC0B2B372042819
:1029B000F8D3154913227931022002F00BFC124999
:1029C00000208C31225C0B18401CC0B29A71042884
:1029D000F8D30D4A0020D33A0C18135C401CC0B247
:1029E000A3721028F8D308491F228C31022002F06C
:1029F000F1FB2868BDE8704000231A46194604F030
:102A00000FB970BD34000020EF750020B800002021
:102A100010B55021002001F0A9FA064801F0DEFBB4
:102A2000054801F051FB054801F096FABDE8104059
:102A3000FEF78CBB0939000891380008EB17000835
:102A40002DE9F0473D4DDDE909A62F680024DDF8AA
:102A50002090002F6ED0AF68EFB32F69DFB3AF695E
:102A6000CFB300BF00EB8407D5F800C097ED000A94
:102A700095F8407007EB4707BF0007EB84076744F2
:102A800087ED000A01EB8407D5F808C097ED000A2E
:102A900095F8407007EB4707BF0007EB84076744D2
:102AA00087ED000A02EB8407D5F810C097ED000A05
:102AB00095F8407007EB4707BF0007EB84076744B2
:102AC00087ED000A95F840C033F814700CEB4C0CFD
:102AD0004FEA4C0C00E02DE00CEB440CD5F81880CC
:102AE000641CE4B228F80C70032CBBD395F840208A
:102AF000296A5FF0000041F8229095F84020A96A09
:102B000041F822A006EB80012A6B91ED000A95F8AE
:102B10004010090101EB80011144401CC0B281ED5D
:102B2000000A0428EED315F8400F401C287001203D
:102B3000BDE8F0874FF0FF30FAE700008067002023
:102B40002DE9FF4F334A4FF0FF30D2F804C0BCF1FB
:102B5000000F5BD0D2F80080B8F1000F56D0D768D4
:102B6000002F53D09168002950D056698A46002E14
:102B70004CD01169002949D0D4698946002C45D030
:102B80009569002D42D0516A00293FD0136A002B6D
:102B90003CD093460391D26A002A37D0DBF8281044
:102BA000002933D0CDE90021DBF83420002A2DD0D4
:102BB000DBF83010002929D096460291DBF83C2042
:102BC000002A23D0DBF8381000291FD0584693463E
:102BD000C0F804A0C0F81490C0F80C80C56143622E
:102BE000019AC262029AC0F808C007600661846157
:102BF0004263C163039901620099C0F830E0C0F8F4
:102C000038B08162002180F84010012004B0BDE896
:102C1000F08F00008067002010B5FEF7DFFE03494B
:102C2000CA6B91F8401042F8210010BD8067002067
:102C30002DE9F04F6D4C87B0206840F00100206016
:102C4000206800F001000590206840F0010020603D
:102C50002068664E00F0010014360590306840F0A0
:102C6000100030603068072700F0100005906015F4
:102C70004FF002084FF001094FF0030A04978DE866
:102C8000010769465A48FEF7B9FD201500906946CC
:102C900004975748FEF7B2FD002204212520FEF7D5
:102CA00029FF2520FEF718FF524D4FF4E12B0C238E
:102CB00000225946284602F048FA286820F04000D1
:102CC0002860286820F020002860E86840F0200094
:102CD000E860206840F001002060206800F00100FA
:102CE0000590206840F001002060206800F001009D
:102CF0000590301F016841F40031016000680497BD
:102D000000F40030059004208DE80107694638483A
:102D1000FEF774FD08256946354804970095FEF7CF
:102D20006DFD002202212620FEF7E4FE2620FEF79C
:102D3000D3FE314F0C2300224FF4E131384602F02C
:102D400004FA386820F040003860386820F020002D
:102D5000386029480C30016841F02001016020688A
:102D600040F001002060206800F00100059020681C
:102D700040F001002060206800F0010005903068FC
:102D800040F0200030603068049500F0200005908D
:102D9000E0148DE8010769461548FEF72FFDA014E1
:102DA0000090694604951248FEF728FD0022012193
:102DB0004720FEF79FFE4720FEF78EFE0F4C0C23A8
:102DC00000225946204602F0C0F9206820F0400059
:102DD0002060206820F02000206008480C30016846
:102DE00041F02001016007B0BDE8F08F30380240AB
:102DF0000000024000100140004400400014014067
:102E00002DE9F0410F4E002406EB440716F814504C
:102E10000DE0204600F094FC2846FEF79FFBC820FA
:102E200000BF401E10F0FF00FAD16D1CEDB27878A3
:102E3000A842EED2641CE4B20A2CE5D30120BDE81E
:102E4000F081000034780008074B024600209B68A0
:102E500013F0010F01D0012070470968536823F473
:102E600040330B43536070470020014030B5836806
:102E7000002213F0010F02D00122104630BD8C68F1
:102E80000B6823434468054D2C402343436083680B
:102E9000496823F400630B438360EEE7FFFEFFFC09
:102EA00030B54B688468002214F0010F02D0012273
:102EB000104630BD002B436823F4684301D08C6872
:102EC00023434360D1E9033423438468074D2C40F6
:102ED0000D6805F070652C43234383604968C36A1D
:102EE00023F470030B43C362E2E70000FDFCFFC064
:102EF00010B54FF4407494FAA4F401F44073B4FA9A
:102F000084F4E34000EB8300C36A01F01F011F2437
:102F10008C4002F01F02A3438A401343C36210BDDA
:102F2000044908B50A6802430A6009680140009133
:102F300008BD000030380240F0B50A680F2692FA4A
:102F4000A2F2B2FA82F303248AE001279F4015EA35
:102F500007027DD04D68012D01D0022D1BD18D6857
:102F6000876892FAA2FCBCFA8CFC4FEA4C0C04FA7B
:102F70000CFC27EA0C0792FAA2FCBCFA8CFC4FEA84
:102F80004C0C05FA0CF52F438760CD684768554314
:102F900097432F4347600F69D0F80CC092FAA2F50F
:102FA000B5FA85F54FEA450E04FA0EF52CEA050C44
:102FB00092FAA2F5B5FA85F56D00AF404CEA070C20
:102FC000C0F80CC04D68022D33D192FAA2F5B5FAC3
:102FD00085F5082D15D2D1F814C0056A92FAA2F72A
:102FE000B7FA87F7BF0006FA07F7BD4392FAA2F7D0
:102FF000B7FA87F7BF000CFA07FC45EA0C05056233
:1030000017E0D1F814E0476A150A95FAA5FCBCFA56
:103010008CFC4FEA8C0C06FA0CFC95FAA5F5B5FA77
:1030200085F5AD0027EA0C070EFA05FE47EA0E0704
:1030300047624D68076892FAA2FCBCFA8CFC4FEA22
:103040004C0C04FA0CFE27EA0E0792FAA2F200E0FA
:1030500005E0B2FA82F2520095402F4307605B1CF4
:103060000A681546DA407FF470AF0020F0BD0069B1
:10307000814301D00020704701207047F0B50268FD
:103080001D4B1E4C9F031E4D1E4E984207D0B8424A
:1030900005D0A04203D0A84201D0B04205D1D1F85A
:1030A00004C022F0700242EA0C02984210D0B842EA
:1030B0000ED0A0420CD0A8420AD0B04208D0124C88
:1030C000A04205D0114CA04202D0114CA04203D125
:1030D000CC6822F44072224302608A68C2620A8885
:1030E0008262984201D109690163416941F001019D
:1030F00041610020F0BD00000000014000040040DC
:1031000000080040000C0040004001400044014025
:10311000004801400AB1816170470904FBE70000E3
:1031200010B5254802F02CF9244CE06222481030FA
:1031300002F026F920632048203002F021F91E4ACF
:10314000606330320021012002F04EF91A4AA06378
:1031500040320021012002F047F9174AE063503263
:103160000021012002F040F9134A2064603200215E
:10317000012002F039F9104A606470320021012008
:1031800002F032F90C4AA06480320021012002F0E2
:103190002BF9E0640848903002F0AEF8206506484C
:1031A000A03002F0A9F86065054A0021054802F048
:1031B00067F9206010BD000084770008000000203F
:1031C000F8750008E50F000810B586B014216846B0
:1031D000FDF7AAF82848016841F001010160006884
:1031E00000F00100059025480068C0F30220C0F1FE
:1031F0000701042900D90421021D072A01D2002059
:1032000000E0C01E01228A40521E02F001018140EE
:103210001B4A0020090182F800144FF0E0224FF011
:103220008051C2F800116321ADF800103121CDE9C1
:1032300001014FF08044039069462046FFF71EFFCE
:10324000206820F080002060A06844F207018843D5
:10325000A060606820F070006060A06820F08000CE
:10326000A060E06840F00100E060206840F00100EC
:10327000206006B010BD0000403802400CED00E0B8
:103280001CE000E0FEE7FEE710B50B49012431F831
:1032900010004FF47A714843B0FBF1F002F01FF8D0
:1032A000064800231A461946006803F0B9FC0128B5
:1032B00000D0A41E204610BD487800084800002019
:1032C0000448007C0A2801D3012070474FF0FF30EA
:1032D00070470000C05D00200749A1F11400416063
:1032E00000F56671016000F21C71C16028318160D7
:1032F0000021017470470000D45D00202DE9F041E9
:10330000104E0746012430688846A51EB8B16421D6
:1033100003F032FE012805D00BA000BF01F0DEF85B
:103320002C4609E0104800231A46477080F80280B6
:103330001946306803F074FC2046BDE8F0810BA00C
:10334000ECE700002C0000204170706C6963617430
:10335000696F6E20666F72206D7574657820666186
:10336000696C6564200A0D005800002054686520CF
:103370006D75746578206E6F742063726561746515
:1033800064200A0D0000000010B54FF0FF330A283A
:1033900009D2074A12F810408C4204D802EB4000D0
:1033A0004078884201D2184610BD012010BD0000AF
:1033B0003478000870B505460E480F49806850F80B
:1033C000250002F05FFD0D49C5EB051000EB400044
:1033D000002401EB800501F5E16600BF05EB8401E7
:1033E00006EB8400002201F04FFF641CE4B22D2C98
:1033F000F4D370BDC05D0020B40000203C6D0020FF
:103400000020094971220A54401CC0B20528FAD391
:1034100040204871002068220B18401CC0B283F87D
:10342000BE200528F8D370472C75002070B5154CC8
:103430002068002825D0142103F09EFD012820D10A
:10344000114A124900200D18135C401C80B2AB7168
:103450000428F8D30D4A0020E83A0D18135C401CEC
:1034600080B2AB72B428F8D3C3220849022001F01D
:10347000B1FE2068BDE8704000231A46194603F0EB
:10348000CFBB70BD34000020B40000202C7500209C
:10349000F0B5184F04460125386889B0AE1E20B13A
:1034A000642103F069FD012803D0354609B02846A0
:1034B000F0BD11480178032913D8047034B1012CF0
:1034C00006D0022C06D0032C06D00BE00BA104E0A2
:1034D0000FA102E015A100E01CA1684601F00EF862
:1034E00000E0354600231A461946386803F098FB79
:1034F000DCE700002C0000205800002041727261BF
:10350000792053616D706C696E676D6F6465000042
:1035100053696E676C65706F696E742053616D706E
:103520006C696E676D6F646500000000496E7374AE
:1035300072756374696F6E73204172726179205382
:10354000616D706C696E676D6F646500496E737450
:1035500072756374696F6E732053696E676C657002
:103560006F696E742053616D706C696E676D6F6406
:10357000650000002DE9F0410F4E07460124306838
:10358000A51E20B1642103F0F7FC012803D02C46CE
:103590002046BDE8F081094881880A2904D80849F5
:1035A00031F81710818000E02C4600231A46194696
:1035B000306803F035FBEBE72C00002058000020BA
:1035C00048780008094810B542685AB1016849B105
:1035D000D0E90243C0E90021C0E9023400210174AE
:1035E000012010BD4FF0FF3010BD0000C05D002075
:1035F00010B50C4800210C4C0170417081700A21FB
:103600008180002220212046FFF784FD0022102126
:103610002046FFF77FFD0022A115BDE810400348BA
:10362000FFF778BD5800002000040240000002406F
:1036300010B50B49012431F810004FF47A7148435A
:10364000B0FBF1F001F04BFE064800231A46194684
:10365000006803F0E5FA012800D0A41E204610BD42
:10366000487800084400002010B5FEF7B7F9034978
:10367000CA68097C42F8210010BD0000C05D00202E
:103680002DE9F041264E05462DED088B3068E8B354
:103690009FED248A9FED24AA9FED24BADFED248AB2
:1036A000DFED24BA9FED249B0024F7EE00AA4FF42F
:1036B000E177306830F8140000EE100AF8EE400AA6
:1036C00080EE880AC0EE0A0A70EEEA0A80EE8B0AE3
:1036D000F0EE680A50EE080A80EEAB0A20EE400ACF
:1036E00010EE100AFCF7E1FE41EC100B00F058FF61
:1036F00053EC192B51EC100BFCF73FFEFCF7E8FEE6
:1037000045F82400641CA4B2BC4200E005E0D0D31C
:103710000120BDEC088BBDE8F0814FF0FF30F8E7E9
:10372000C05D002000007A44E17A143F00E0924539
:10373000DB8A2D3F4BC8873E000000C0CC80834011
:103740002DE9F0411F4D204FAE150446052818D233
:1037500004F0010202212846FFF7DCFCC4F340021A
:1037600029152846FFF7D6FCC4F38002A914284681
:10377000FFF7D0FC012210212846FFF7CBFC0022E6
:103780001AE0441F04F001024FF480412846FFF77D
:10379000C1FCC4F340024FF400412846FFF7BAFCD5
:1037A000C4F3800240212846FFF7B4FC0022102118
:1037B0002846FFF7AFFC012231463846BDE8F0410C
:1037C000FFF7A8BC000402400000024070B50E4D97
:1037D000E8880F2804D200F01FF84FF0FF3070BDCA
:1037E0000A4E0024E98828680144A4F10E00095C0F
:1037F000315507A000F072FE641CA4B20D2CF1D369
:1038000000F00AF8012070BD800000206C03002049
:10381000253032582000000010B5044CA1882068E3
:10382000FCF782FD0020E08010BD00008000002039
:103830000548044901604FF4807181800021C180F6
:10384000704700006C0200208000002001780748CB
:10385000C3880268D154C188491C89B2C18082885A
:10386000914201D30021C1807047000080000020F8
:1038700010B50648002301241A461946006803F0D3
:10388000CFF9012800D0A41E204610BD4C00002016
:1038900010B500231B4A1DE03F2822D006DC362845
:1038A0000ED0392810D03C2806D116E046281CD06E
:1038B00048281ED0542820D0548844F0800406E0C4
:1038C000548844F0010402E0548844F00204548017
:1038D000401C5B1C8B42DFD310BD548844F00804AD
:1038E000F5E7548844F00404F1E7548844F01004E8
:1038F000EDE7548844F02004E9E7548844F040049C
:10390000E5E70000B00000208AB20146012001F086
:1039100061BC000070B50D4614004FF0FF3107D0B8
:103920000A2805D8144A02EB40025278AA4201D272
:10393000084670BDFFF704FF2846FDF70FFEC820BC
:1039400000BF401E10F0FF00FAD1FDF763F880B20F
:10395000FCF785FD9FED091B53EC112BFCF70DFDCA
:103960009FED081B53EC112BFCF707FDFCF784FDC2
:103970002080012070BD000034780008666666660D
:1039800066664A3F0000000000408F4010B5008886
:1039900000EE100AB8EE401A9FED170AC1EE000AB9
:1039A0009FED161AC0EE811AF7EE000A31EEE01A0A
:1039B000DFED131AC1EE210A9FED121A10EE801AE4
:1039C000DFED110A81EE200A20EE400A10EE100A07
:1039D000FCF76BFD41EC100B00F0E2FD9FED0B1BC3
:1039E00051EC100B53EC112BFCF7C7FCFCF770FDEE
:1039F00000EE100A10BD000000007A44E17A143F86
:103A000000E09245DB8A2D3F4BC8873E000000C096
:103A1000CC80834010B54FF0E020006903F0FAFB42
:103A2000012803D0BDE8104002F0F6BF10BD000031
:103A300030B593B030216846FCF776FC14210CA811
:103A4000FCF772FC1C480025016841F080510160C0
:103A5000006800F0805011901848016841F440411E
:103A600001600068022400F44040119001200090A1
:103A7000000401908001CDE9064019200890C8207B
:103A8000CDE9090404200B906846FEF771F908B1EE
:103A900072B6FEE70CA90F2081E831004FF4805088
:103AA000CDE90F0503210CA8FEF756F8002801D038
:103AB00072B6FEE713B030BD4038024000700040DF
:103AC0000248016841F470010160704788ED00E030
:103AD0000148FEF76ABB0000785D00204FF080408F
:103AE000016911F0010F07D005490A684B68521CA3
:103AF00043F100030A604B606FF001010161704700
:103B000070000020F0B502681D4B1E4C9F031E4D37
:103B10001E4E984207D0B84205D0A04203D0A8421A
:103B200001D0B04204D122F0700C4A6842EA0C0283
:103B3000984210D0B8420ED0A0420CD0A8420AD071
:103B4000B04208D0124CA04205D0124CA04202D084
:103B5000114CA04203D122F44074CA6822434C693C
:103B600022F08002224302608A68C2620A6882628E
:103B7000984201D10969016301214161F0BD000052
:103B8000000001400004004000080040000C00401C
:103B900000400140004401400048014070B5044627
:103BA00000680169E26821F4405111430161216913
:103BB000A068E26908436169114308432168CA6843
:103BC00049F20C639A430243CA6020684169A269C2
:103BD00021F440711143416131492068884202D08B
:103BE0003049884202D1FEF781F801E0FEF76EF815
:103BF000E2690023192164253226B2F5004F62687C
:103C000028D0A0FB0101930F9200FCF743FB014673
:103C1000B0FBF5F06FF01802504301EB800006EBAB
:103C20000010B0FBF5F000F0F002B1FBF5F002EB94
:103C30000012B1FBF5F06FF01803584301EB800060
:103C400006EB0010B0FBF5F000F00F002168104407
:103C5000886070BDA0FB010192185B41FCF71AFB64
:103C60000146B0FBF5F00201B1FBF5F06FF018036F
:103C7000584301EB800006EBC000B0FBF5F000F00C
:103C8000F80002EB4002B1FBF5F0584301EB800075
:103C900006EBC000B0FBF5F000F00700D6E700002F
:103CA0000010014000140140014800F00FB800006E
:103CB0000C050020014800F009B800003025002064
:103CC000014800F003B80000544100202DE9F04104
:103CD000044600680568C6684169A9064FF00007F8
:103CE00015D54068E28AA168C0B28854E18A491CAF
:103CF0008AB2E282E1898A4200D3E782628B8A42F9
:103D000002D2618B491C6183E16901B188472806B1
:103D100016D5300614D5A08A50B3012084F82000AF
:103D2000618A6068405C21684860608A401C80B29B
:103D30006082A189884200D36782A08A401EA08247
:103D4000680613D5700611D5A08AE0B1618A606853
:103D5000405C21684860608A401C80B26082A18912
:103D6000884200D36782A08A401EA082BDE8F0810D
:103D70002068C16821F08001C1602068C16841F0FD
:103D80004001C160DCE72068C16821F04001C160EA
:103D9000ECE7F8B516460F460446002521E002F090
:103DA0003BF9A08AADF8000002F056F9A089BDF8F1
:103DB000001088421DD9795D208A6268115402F092
:103DC0002BF9208A401C80B22082A189884201D32D
:103DD00000202082A08A401CA08202F03DF96D1CC8
:103DE000ADB2B542DBD32068C16841F08001C1604B
:103DF000F8BDBDF800108842D1D12068C16809061D
:103E0000CDD4C16841F08001C160C8E7234910B535
:103E10002148086001F12400486000F58050886066
:103E20004FF480508881C881002008824882C8826F
:103E3000088348838882C86181F820001949184A9C
:103E40004FF4C0530A6001F124024A6001F2244297
:103E50008A604FF480628A81CB8108824882C8825E
:103E6000088348838882C86181F820000F490E4C7E
:103E70000C6001F124044C6004F5C0548C608B810B
:103E8000CA8108824882C882088348838882C861C0
:103E900081F8200010BD0000001001400C0500203A
:103EA000004400403025002000140140544100200F
:103EB00070B50E4DE8880F2804D200F01FF84FF0BF
:103EC000FF3070BD0A4E0024E98828680144A4F13F
:103ED0000F00095C315507A000F000FB641CA4B280
:103EE0000D2CF1D300F00AF8012070BD78000020FD
:103EF0006C030020253032582000000010B5044C1F
:103F0000A1882068FCF710FA0020E08010BD0000B6
:103F1000780000200548044901604FF480718180D9
:103F20000021C180704700006C0100207800002053
:103F300001780748C3880268D154C188491C89B2F6
:103F4000C1808288914201D30021C1807047000066
:103F500078000020FEE7000018B1034988610020C6
:103F600070476FF00500704788000020032802D9D1
:103F70006FF005007047034A106211700020D06195
:103F800070470000880000202DE9FC5F0D460646C2
:103F900028446FF0050C90287CD2494C6FF004093E
:103FA0002046D4F8208042684FF0FF0A4FF0AA0B59
:103FB0004FF0270EF7B2C6F30721B8F1000F0FD06C
:103FC0004FF6FF7000EA45032046B8F1010F007874
:103FD00016D0B8F1020F33D0B8F1030F6ED142E022
:103FE000042D6BD8F2B38DF800A08DF801B08DF8D8
:103FF00002E08DF804108DF803700521684659E041
:1040000082B35B1DB3F5807F32D88DF800000320AA
:104010008DF80100280A8DF802108DF804008DF843
:1040200003708DF805500621684600F093FA010AE6
:104030008DF806108DF8070008216846626839E09F
:10404000032D3BD823696BB18DF800A08DF801B02A
:104050008DF802E08DF804108DF803700522694692
:10406000984728E017E0E768AFB1B3F5807F03D940
:104070006FF00300BDE8FC9F4006F1B2000E114A4C
:10408000B847012817D162692AB10E49002001F50D
:1040900080730BE012E04846ECE700BF31F8107087
:1040A00000EB060C401C23F81C7080B2A842F5D32C
:1040B00029463046904700206662DBE76046D9E734
:1040C000880000202C65002018B1034948610020B9
:1040D00070476FF005007047880000202DE9FC4113
:1040E0003B4C6169002955D03A49E2698854521C19
:1040F000E261206A002630B101282FD0022865D065
:10410000032860D162E00878552804D0521E314857
:10411000491CE2613CE00B2A55D30A252D4F0020B3
:104120004FEA000317F803C05B1C6044C0B2AB4207
:10413000F8D38B7A8342E9D14888ADF800008888AB
:10414000ADF80200C888ADF804000889ADF8060093
:10415000487804226946FDF7EDFA37E0022A32D9A1
:1041600048780328D2D18878401D904212D8881808
:104170000D4630F8020C921E47BA91B2154800F075
:10418000E9F9874208D0E269691C521E1148E261D0
:10419000FCF7B1F8BDE8FC81A8780F4B420800217C
:1041A000606A0AE005EB410701EB000CB7F8037009
:1041B000491C7FBA23F81C7089B29142F2D3114690
:1041C0006269904702E0B2F5807FE3D1E661E1E702
:1041D000880000202C6500202C66002018B10349BF
:1041E0004860002070476FF005007047880000208D
:1041F00070B504460622002100B2FDF7A7F940B1D0
:104200004BF28851692000F0F5F86FF00205A0B973
:1042100002E06FF0050070BD0949086A012801D06D
:1042200010B104E0142000E0012089698847A1B2A0
:104230001F2000F0DFF80028EDD0284670BD0000F8
:104240008800002070B5044640F6FF72012100B2DC
:10425000FDF77CF940B14BF28851692000F0CAF8B3
:104260006FF00205A0B902E06FF0050070BD0949CA
:10427000086A012801D010B104E0142000E00120F8
:1042800089698847A1B2022000F0B4F80028EDD077
:10429000284670BD8800002070B504460D2201211B
:1042A00000B2FDF753F940B14BF28851692000F09C
:1042B000A1F86FF00205A0B902E06FF0050070BD33
:1042C0000949086A012801D010B104E0142000E077
:1042D000012089698847A1B2032000F08BF80028EB
:1042E000EDD0284670BD00008800002070B504465F
:1042F0000722012100B2FDF729F940B14BF28851A4
:10430000692000F077F86FF00205A0B902E06FF0C5
:10431000050070BD0949086A012801D010B104E008
:10432000142000E0012089698847A1B2042000F030
:1043300061F80028EDD0284670BD000088000020FC
:1043400010B54BF28851692000F054F86FF0020468
:1043500080B909490A6A012A01D012B104E0142087
:1043600000E00120896988470121084600F042F8F1
:10437000002800D0204610BD8800002010B54BF268
:104380008851692000F036F86FF0020480B90949BD
:104390000A6A012A01D012B104E0142000E00120D1
:1043A000896988470721012000F024F8002800D0FF
:1043B000204610BD8800002010B54BF288516920BE
:1043C00000F018F86FF0020480B909490A6A012A5E
:1043D00001D012B104E0142000E00120896988476F
:1043E0000021012000F006F8002800D0204610BD72
:1043F000880000202DE9FC476FF0050A90281AD2AA
:10440000354CCAB22346D4F82080FF27090A5B68DE
:104410006FF0040C4FF0AA09C6B2B8F1000F0DD02E
:104420002546B8F1010F2D7817D0B8F1020F31D021
:10443000B8F1030F40D05046BDE8FC87DBB38DF8E0
:1044400000708DF801908DF802608DF804108DF8E1
:1044500003200521684698473AE063B306238DF8A8
:1044600000508DF80130000A8DF802008DF804101C
:104470008DF803608DF805201946684600F06AF84B
:10448000010A8DF806108DF8070062680821684659
:1044900090471DE0236973B18DF800708DF801908D
:1044A0008DF802608DF803208DF80410052269460E
:1044B000284698470CE00DE0A4685CB18DF8002018
:1044C0008DF80110C1B26806000E02236A46A047AB
:1044D0000020B1E76046AFE7880000200FB4054B2D
:1044E00010B503A9044A029800F0C4FA10BC5DF8A4
:1044F00014FB0000AD520008640100200FB4084B0B
:1045000010B504A902AA039800F0B4FA044602A95F
:10451000002000F0DAFC204610BC5DF814FB00001F
:10452000CB4E000803B401984100009850EAC12026
:1045300018BF04204A0D18BF40F0010040F2FF727E
:10454000B2EB515F08BF40F00200012808BF052010
:1045500002B07047F0B5FF23084E1C46002206F556
:10456000807705E0855C5D40735D63407C5D521C37
:104570008A42F7DB44EA0320F0BD00005C780008C3
:104580000907090E002804DB00F1E02080F8001480
:10459000704700F00F0000F1E02080F8141D704714
:1045A00070B52DED020B2DED0A8B82B00D98C40F66
:1045B00020F00045AE48854248D3AE48854219D325
:1045C0000C99C5F31300084309D09DED0C0B02B004
:1045D000BDEC0A8B02B0BDE8704000F009BA002CB7
:1045E00014BF9FEDA50B9DED0C0B02B0BDEC0A8B2B
:1045F00002B070BD9FEDA20B53EC102B9DED0C0B88
:1046000051EC100BFCF792F90AD2022000F02CFAC0
:1046100002B0BDEC0A8B02B0BDE8704000F0F4B906
:104620009FED990B53EC102B9DED0C0B51EC100BE7
:10463000FCF764F90AD2022000F016FA02B0BDECD1
:104640000A8B02B0BDE8704000F0EEB990489FEDD3
:1046500092BBA8425CD29248854219D291487844D4
:1046600000EBC40090ED000B53EC102B9DED0C0BF8
:1046700051EC100BFCF79CF841EC1A0B8A4878447B
:1046800000EBC40090ED009BC4F10100041B36E078
:104690009FED870B53EC102B9DED0C0B51EC100B89
:1046A000FBF76BFE41EC100B8348784400EBC40031
:1046B00090ED001B51EC100B53EC112BFBF7D7FFC7
:1046C000FCF7FCF80446FCF7E8F841EC180B9FED0A
:1046D0007C0B53EC102BFBF750FE9DED0C1B53ECA9
:1046E000112BFCF768F841EC1A0B9FED770B51EC9E
:1046F000180B53EC102BFBF740FE41EC190B51EC5F
:104700001A0B53EC192BFCF753F8CDE90C011BE005
:104710006F48854217D29FED700B53EC102B9DED27
:104720000C0B51EC100BFBF7A2FF53EC1B2BFCF70F
:10473000FDF808D29DED0C0B53EC1B2B51EC100B2C
:10474000FBF795FF6EE000249DED0C0B53EC102B56
:1047500051EC100BFBF711FE41EC180B60480521E2
:10476000B0EE480AF0EE680A784400F0C5F853EC61
:10477000182B51EC100BFBF700FE9DED0C1B53ECBE
:10478000112BFCF718F841EC180B9FED570B5CB39D
:1047900053EC182B51EC100BFCF70AF89DED0C0BA9
:1047A00041EC1C0B53EC182B51EC100BFBF7E5FD07
:1047B00053EC1C2BFCF702F853EC192BFBF7FBFF17
:1047C00053EC1A2BFBF7F4FF53EC1B2BFBF7F3FF17
:1047D000CDE900016FF47F70844226DB01EB0450C9
:1047E00001909DED000B00E753EC102B51EC180BE2
:1047F000FBF7DEFF9DED0C0B41EC190B53EC182B76
:1048000051EC100BFBF7B9FD53EC192BFBF7D6FF5E
:104810009DED0C1B53EC112BFBF7CAFF53EC1B2B2C
:10482000FBF7C9FF41EC100BDFE608464FF07A5169
:1048300001EB04519FED2E0B084453EC102B01901B
:104840009DED000B51EC100BFBF797FD0D4645EC71
:10485000100B044651EC100BFFF764FE042808BF50
:1048600000F0E2F845EC104BBFE60000000000004D
:10487000422E86400000F07F000000000000000093
:10488000EF39FAFE422E864051302DD5104987C0AF
:10489000422ED63F00000000000000000000F03F64
:1048A000B2A2F03F9E3500008E35000000000000EF
:1048B000FE822B654715F73F4235000000000000DF
:1048C0000000E0FE422EE63F763C7935EF39EA3DC6
:1048D0000000303E000000009C7500883CE4377EFC
:1048E000B4340000000000000000000000000040A0
:1048F000000000000000700170B504462DED028B31
:104900004D1E00EBC500B0EE408AF0EE608A90EDDF
:10491000000B35F0060017D053EC182B51EC100BA0
:10492000FBF72BFD41EC100B6D1E04EBC50090ED69
:10493000001B51EC100B53EC112BFBF798FE41ECD4
:10494000100B35F00600E7D1022D36D0042D1CD017
:10495000062D1CBFBDEC028B70BD53EC182B51EC27
:10496000100BFBF70AFD94ED0A1B53EC112BFBF720
:104970007EFE53EC182BFBF700FD94ED081B53EC67
:10498000112BFBF774FE41EC100B53EC182B51EC80
:10499000100BFBF7F2FC94ED061B53EC112BFBF70D
:1049A00066FE53EC182BFBF7E8FC94ED040B53EC7C
:1049B000102BFBF75CFE41EC100B53EC182B51EC69
:1049C000100BFBF7DAFC94ED021B53EC112BFBF7F9
:1049D0004EFE53EC182BFBF7D0FC94ED001B53EC70
:1049E000112BFBF744FEBDEC028B41EC100B70BDAC
:1049F00010B553EC102B51EC100BFBF738FE41ECCB
:104A0000100B10BD000000009FED050B10B553EC1E
:104A1000102B51EC100BFBF7B0FC41EC100B10BD50
:104A200000000000000000709FED050B10B553EC76
:104A3000102B51EC100BFBF7A0FC41EC100B10BD40
:104A4000000000000000001002E008C8121F08C1AA
:104A5000002AFAD170477047002001E001C1121FFF
:104A6000002AFBD170470000014908607047000030
:104A7000680100202DE9FF4F8DB00F460546002646
:104A800006E025280BD0DDE90F1290476D1C761C3F
:104A900028780028F5D111B03046BDE8F08F002409
:104AA000A246A1460122E94900E0044315F8013F6E
:104AB000203B02FA03F00842F7D128782A2810D0C8
:104AC0006FF02F022878A0F13001092914D80AEBE1
:104AD0008A0102EB410144F0020400EB010A6D1C63
:104AE000F0E701CF5FEA000A03D544F40054CAF1AD
:104AF000000A44F002046D1C28782E2817D115F8FE
:104B0000010F44F004042A280ED06FF02F022878F9
:104B1000A0F1300109290AD809EB890102EB410112
:104B200000EB01096D1CF2E757F8049B6D1C287817
:104B30006C280FD006DC4C2817D068280DD06A28C6
:104B400014D104E0742810D07A280FD10DE044F479
:104B500000140AE044F4801401E044F4401469783D
:104B6000814202D104F580146D1C6D1C28786E28DA
:104B70001ED00CDC632830D004DC00288BD05828F1
:104B800011D19FE0642867D069280CD164E07328B4
:104B90002DD004DC6F2872D0702804D194E07528E1
:104BA0006ED078286DD0DDE90F129047761C4BE16E
:104BB000C4F30250022806D0032809D0042801CFEC
:104BC00009D0066040E101CFF117C0E900613BE187
:104BD00001CF068038E1067036E117F8040B8DF836
:104BE000000000208DF80100EB46012003E057F89B
:104BF00004BB4FF0FF3061074FF0000102D40DE01D
:104C000008F10101884649450FDA8045F8DB1BF8B9
:104C100008100029F4D108E008F10101884681421A
:104C2000FADB1BF808100029F6D1DDE90F23AAEB07
:104C300008008146214600F031F9304400EB0806B7
:104C400004E0DDE90F121BF8010B9047B8F10108F1
:104C5000F7D221464846F2E00A21C4F302524FF04F
:104C6000000B0891022A04D001CFC117032A09D0F2
:104C70000AE0FF1D27F00707F7E8020108E02CE033
:104C80001EE01FE000B2C117042A01D140B2C117D3
:104C9000021E71F1000206DA0023D0EB030063EB81
:104CA00001012D2202E0220504D52B228DF82420BB
:104CB000012203E0E20701D02022F7E7904653E00B
:104CC0000A210BE0102109E010214FF0000B44F005
:104CD00004044FF00809089103E008214FF0000B8D
:104CE0000891C4F30252022A04D001CF0021032A02
:104CF00006D006E0FF1D27F00707F7E8020103E0F2
:104D000080B2042A00D1C0B24FF0000822072BD590
:104D10002A78702A07D0DDF820C08CF0100C5CEAED
:104D20000B0C05D00EE040228DF82420012208E073
:104D300050EA010306D030238DF824308DF8252069
:104D400002229046089B83F0080353EA0B030BD121
:104D500050EA010201D1620706D530228DF82420E5
:104D60004FF00108A9F101092A78582A04D038A285
:104D70000B9208AA0A920BE03AA2F9E75B46089A5E
:104D8000FBF788FA0B9B9B5C0A9A521E0A921370DF
:104D900050EA0102F2D10A98ADEB000000F1200BBD
:104DA000600702D524F4803401E04FF00109D945B1
:104DB00002DDA9EB0B0000E0002000EB0B014144F9
:104DC0000890AAEB010AE00306D4DDE90F2321468F
:104DD000504600F063F806444FF0000908E009A9C6
:104DE00011F80900DDE90F12904709F10109761C5D
:104DF000C145F4DBE0030CD5DDE90F232146504625
:104E000000F04CF8064404E0DDE90F123020904732
:104E1000761C0899481E08900029F5DC08E00A98DD
:104E20000A990078491C0A91DDE90F129047761C17
:104E3000BBF10001ABF1010BF1DC21465046DDE98D
:104E40000F2300F019F806446D1C21E60928010023
:104E500030313233343536373839616263646566F0
:104E600000000000303132333435363738394142B2
:104E700043444546000000002DE9F041044600256A
:104E80001E461746880404D405E039462020B04762
:104E90006D1C641EF9D52846BDE8F0812DE9F0416E
:104EA000044600251E469046C80301D5302700E081
:104EB0002027880404D505E041463846B0476D1CDC
:104EC000641EF9D52846BDE8F0810A68531C0B60C2
:104ED000107070472DE9F04190B000244FF47A75BE
:104EE0000B940C94142168460D94FBF71DFA1821BD
:104EF00005A80E94FBF718FA4A48016841F480713E
:104F00000160006800F480700F9046481438016812
:104F100041F0010101600068022600F001000F90DD
:104F200003200994CDE9056005A93F48FEF704F880
:104F30003E480068C0F30220C0F10701042900D9EF
:104F40000421021D072A01D2002000E0C01E4FF0FC
:104F5000010808FA01F2521E02F003018140080123
:104F6000334981F800044FF0E0214FF48020C1F86C
:104F70000001304F0B940C940BA938460D94FDF7AB
:104F800075FFCDE9024600940194694638460494C1
:104F9000FDF786FFB86840F48060B8604FF4403099
:104FA0000E900EA92448FDF74FFF244A7915384684
:104FB000FDF79EFF4FF0007090FAA0F1B1FA81F179
:104FC000C84007EB8001CA684FF0F87393FAA3F466
:104FD0004FF44010B4FA84F420FA04F40726A640F3
:104FE00093FAA3F3B3FA83F3D840B24308FA00F379
:104FF0001A43CA60786840F020007860B86840F0D2
:105000000100B860B86810F0010F01D00CA004E0F6
:1050100015B16D1EADB2F5E70EA0FFF75FFA10B047
:10502000BDE8F08144380240000002400CED00E091
:1050300012E000E0002001400023014001003002A6
:1050400041444320656E61626C65207375636365DE
:105050006564000041444320656E61626C652066B2
:1050600061696C65640000002DE9F04186B018218B
:105070006846FBF759F90420FDF752FF0120FDF7C0
:105080004FFF0220FDF74CFF4FF40056012500248E
:105090000096CDE90154254F03946946384604949F
:1050A000FDF74AFFBE61CDE90054DFF88480694610
:1050B00040460494FDF740FF0420CDE900041D4F55
:1050C000694638460494FDF737FF6802CDE90004CD
:1050D000694604953846FDF72FFF10200326CDE9D9
:1050E0000005CDE90264694604944046FDF724FFBB
:1050F0004DF27A50CDE90005CDE902646946049489
:105100003846FDF719FF4FF40140CDE90005CDE920
:105110000264694604944046FDF70EFFB903C8F8DF
:1051200018100548B86106B0BDE8F08100080240DB
:10513000000002400004024000007AD510B5FEF7DE
:1051400065FEBDE81040FDF773BD00B591B0CDE937
:10515000000100200290CDE90302CDE9053007905F
:105160006846FDF7E2F8002801D0FCF745FB11B0D6
:1051700000BD10B5FCF728FA002803D00021C18239
:105180000183418310BD2DE9F0410E46FCF71CFA66
:1051900000281BD0044600F03FFF678B00F05CFF47
:1051A0000025AFB1218BA068405C307000F034FF67
:1051B000208B401C80B22083E189884200D3258364
:1051C000608B401E608300F047FF0120BDE8F08146
:1051D0002846FBE770B514460D46FCF7F5F90028A4
:1051E00005D022462946BDE87040FEF7D2BD70BD0D
:1051F00013B5012201A9FFF7EDFF1CBD10B5FCF7A7
:10520000CFF9002805D00C23BDE810400022FFF79D
:105210009CBF10BD2DE9F041040006D0184E306847
:1052200084420AD10020BDE8F081102080F311886B
:10523000BFF34F8FBFF36F8FFEE700F0EDFE6569A0
:10524000F76B366C00F008FFBD4201D0B54201D1CA
:105250000220E8E70B48854208D1A06A0028F7D170
:1052600094F85C000128F3D00320DCE705481438EB
:10527000854202D00DB10120D5E70420D3E700001C
:10528000DC000020CC7B002009683AB1C1700A0A1A
:1052900082700A0C4270090E0170704701700A0A90
:1052A00042700A0C8270090EC170704710B5044636
:1052B000C1B20020FFF79CFF204610BDFCF79CFB0D
:1052C000FEF7B6FBFFF7D0FEFFF738FFFFF702FE51
:1052D00000F028F8FDF724FF00F036F8FEE710B5DF
:1052E000EFF3058111B16FF0050403E0002408B16C
:1052F00000F096FF204610BD10B54FF00001EFF30F
:1053000005826AB948B1D0E902202AB1202807D322
:10531000104601F027FA02E010B901F015FA014633
:10532000084610BDEFF3058010B16FF0050070471F
:105330000448016811B14FF0FF307047012101604E
:10534000002070473401002010B5EFF3058010B144
:105350006FF0050010BD08480168012902D04FF028
:10536000FF3010BD054A002182F8141D02210160A2
:1053700001F03CF9002010BD340100200BE000E0FA
:1053800070B505464FF00004EFF3058050BB0DB13A
:10539000686800E00020C10701D0012600E0002677
:1053A00000071FD46DB1D5E9021021B1502819D3DF
:1053B0001EB1042002E020B114E0012001F08AFBBC
:1053C00005E00EB1042000E0012001F078FB0400AC
:1053D00008D00DB1296800E0002100F0BFFE0EB139
:1053E00044F00104204670BDF8B5144603460E464D
:1053F0004FF00005EFF3058098BB93B39E423DD874
:105400004CB1A0680028E06803D0502836D30120B2
:1054100002E008B132E00020012B05D010B318469D
:10542000A26801F02CFB20E040B103200090002294
:1054300011460120A36801F07BFB04E00322002158
:10544000012001F054FB050018D086B100231A4654
:10545000194601F0E5FB012809D0284600F092FE2C
:1054600000250BE0184601F0EDFA050006D00CB15E
:10547000216800E00021284600F070FE2846F8BDB3
:105480002DE9FF414FEA01034FF00005EFF30581DD
:10549000039549BB40B38027182100244AB31668FE
:1054A00006B1344696691EB13146761E382E02D2B8
:1054B0001679F60703D0002004B0BDE8F0815669E4
:1054C00006B1B708D2F808C0BCF1000F0DD0D568FE
:1054D000602D18D312693AB136B18DE806103A46FC
:1054E000214601F06CFE03900DE0D6685EB91269AA
:1054F0004AB903AACDE90012BAB2214601F032FE40
:10550000012800D003950398D6E700002DE9F0416B
:10551000134C0F460546E6682068001D00F0BAFCF3
:10552000681C07D137B12168BDE8F0410D48091D5D
:1055300000F066BD20683544B5424560216805D25B
:10554000206CBDE8F041091D00F042BDE06B091D73
:1055500000F03EFDA06A854200D2A562BDE8F08160
:10556000DC000020CC7B00202DE9F041054600F056
:1055700053FD2D4CA068401CA06020682B4F10B13B
:10558000606930B32BE02560A068012827D1002690
:1055900006EB860007EB800000F00CFD761C382E31
:1055A000F6D3234800F006FD2148143000F002FD38
:1055B0001F48283000F0FEFC1D483C3000F0FAFC8B
:1055C0001B48503000F0F6FC1948E06314302064AA
:1055D00005E02068E96AC06A884200D82560606AF0
:1055E000401C60626864E86A2169884200D92061D1
:1055F00000EB800007EB8000291D00F001FD00F0AA
:105600002BFD606900280CD02068E96AC06A8842D6
:1056100007D208494FF080500860BFF34F8FBFF3A7
:105620006F8FBDE8F0810000DC0000201C770020B7
:105630007C7B002004ED00E038B500F0EDFC104C60
:105640002068C8B90F4800F0B5FC0E48143000F0CF
:10565000B1FC0C48E060143020610A4B0020F03BA4
:10566000009003F1500210210A2001F061FA20603D
:1056700010B105A100F072FDBDE8384000F0ECBCAF
:1056800020010020D07C0020546D725100000000E9
:1056900030B4026C0B46002A0BD0C1681144C160C3
:1056A0008468A14201D30168C16030BC1846FAF792
:1056B00022BE30BC70472DE9F041856B1746044689
:1056C0000026026C82B1C7B1E068FAF714FEE16807
:1056D000206C091AE1602268914202D2A168081A7E
:1056E000E060022F16D017E02068A8B9A06801F08A
:1056F00009FE06460020A0600EE06068FAF7FBFD98
:10570000216C606808446060A168884204D3206806
:10571000606001E005B16D1E6D1CA5633046BDE8FB
:10572000F08110B5044690F85D0058B101280CD006
:1057300002280FD0102080F31188BFF34F8FBFF3E2
:105740006F8FFEE7206B00F09BFC2046BDE8104009
:1057500000F096BC10BD000010484FF47051420795
:1057600006D0C01D0D4920F00700411AC1F5705147
:105770000B4A00230144C2E900030839183A21F01A
:10578000070111604B600B600B1AC0E900139360B6
:105790004FF000405360506170470000B883002014
:1057A00050010020144E154CA6F29C474FF0805833
:1057B000DFF84C9012E000BF00F02EFCF068C568E6
:1057C000281D00F067FBA068401EA0606068401EB6
:1057D000606000F041FC2846FFF7A3FF60680028E6
:1057E000EAD138680128F9D9C9F80080BFF34F8F92
:1057F000BFF36F8FF2E70000B87B0020DC000020D1
:1058000004ED00E0002807D00021816001600B4614
:105810000A46C16001F004BA7047000070B51D4629
:10582000049C51B1C4F80020C4E90F0101212046B5
:1058300001F0B2F984F84C5070BD2460F4E7000028
:105840002DE9F05F8846DDE90B941546834691000B
:105850009A460A9EA522206BFAF75FFD6FF00301BE
:10586000206B01EB8501084420F00707780707D07B
:10587000102080F31188BFF34F8FBFF36F8FFEE7C7
:105880000025B8F1000F0FD05FF00000221818F8C3
:10589000001082F8341018F8001011B1401C1028C4
:1058A000F4D384F8435001E084F83450382E00D308
:1058B0003726E662C4E91365201D00F086FB04F17B
:1058C000180000F082FB2461C6F138006462A06118
:1058D0006565A56584F85C5052465946384600F027
:1058E000B7FA2060B9F1000F01D0C9F80040BDE857
:1058F000F09F000030B5114900E011460A6882426D
:10590000FBD34B685C18844203D14068184448605C
:10591000084643681C18944209D1084C183C246876
:10592000A24209D052681A4442600A6812680260B2
:10593000814200D0086030BD0460F9E750010020CA
:1059400070B5002441600B4D0061914206D8D11A18
:105950008269914206D2011D286907E09A4203D26A
:10596000994201D3012403E0011DE86800F030FBF7
:10597000204670BD2001002010B5044600F04CFB0D
:10598000A06B28B15FF0000400F066FB204610BD5C
:105990000124F9E72DE9F0478146086892460C4654
:1059A000002600B3606804F1080540686060A84202
:1059B00001D1416861606068D0F80C80606840681F
:1059C0006060A84201D141686160606806EBC60171
:1059D00009EB8101C76853460122384600F08EFC6E
:1059E000761C4745EAD13046BDE8F08730B589B02E
:1059F0003C4D6EE00498002806DADDE90601059AC0
:105A000090470498002864DB069C606910B1201D53
:105A100000F040FA03A800F0D7F8024604980A28DC
:105A200057D2DFE800F00505052D334A05052D3373
:105A300094F8280040F0010084F828000599A06936
:105A4000059B01442046FFF77BFF68B3216A20468F
:105A5000884794F8280040073BD50020009005981F
:105A6000A169002342181946204601F091FDD8B9DA
:105A7000102080F31188BFF34F8FBFF36F8FFEE7C5
:105A800014F8280F20F00100207022E094F828007C
:105A900040F0010084F828000598A06128B1811821
:105AA00013462046FFF74CFF13E0102080F31188C7
:105AB000BFF34F8FBFF36F8FFEE794F82800810785
:105AC00003D4204600F0DCFA03E020F0010084F863
:105AD0002800002204A9286801F0B2F9002889D121
