:020000040800F2
:10000000A0C50020710200082F2F000861270008FA
:100010002D2F000821130008393A000800000000C5
:10002000000000000000000000000000B101000816
:1000300005190008000000000D0200082136000824
:100040008B0200088B0200088B0200088B0200085C
:100050008B0200088B0200088B0200088B0200084C
:100060008B0200088B0200088B0200088B0200083C
:100070008B0200088B0200088B0200088B0200082C
:100080008B0200088B020008450A000800000000EF
:100090000000000000000000000000008B020008CB
:1000A0008B020008E13600088B0200088B02000872
:1000B000ED3600088B0200088B0200088B02000856
:1000C0008B0200088B0200088B0200088B020008DC
:1000D0008B020008A9380008B538000800000000AD
:1000E0008B0200088B0200088B0200080000000051
:1000F0000000000000000000000000008B0200086B
:10010000000000008B0200088B0200088B02000830
:1001100000000000000000000000000000000000DF
:100120008B0200088B0200088B0200088B0200087B
:100130008B0200080000000000000000000000002A
:100140000000000000000000000000008B0200081A
:100150008B0200088B0200088B020008C1380008DF
:100160008B0200088B020008000000000000000065
:10017000000000000000000000000000000000007F
:10018000000000008B0200080000000000000000DA
:100190008B0200088B020008DFF810D000F002FC90
:1001A000004800478D4C0008AFF30080A0C5002038
:1001B0002C4B19680868B0E8F04F80F30988BFF34A
:1001C0006F8F4FF0000080F311887047000000002F
:1001D00008480068006880F308884FF0000080F34A
:1001E000148862B661B6BFF34F8FBFF36F8F00DF25
:1001F00000BF00BF08ED00E0DFF80C00016841F42B
:1002000070010160704700BF88ED00E0EFF30980E6
:10021000BFF36F8F134B1A681EF0100F08BF20ED4D
:10022000108A20E9F04F106009B44FF0100080F3FD
:100230001188BFF34F8FBFF36F8F05F057FF4FF05B
:10024000000080F3118809BC19680868B0E8F04F15
:100250001EF0100F08BFB0EC108A80F30988BFF3BE
:100260006F8F7047E0000020EFF3058070470000BB
:100270000648804706480047FEE7FEE7FEE7FEE740
:10028000FEE7FEE7FEE7FEE7FEE7FEE7D136000801
:10029000990100082DE9F05F0546002092469B4633
:1002A00088460646814640241BE02846414647468C
:1002B000224600F05CF953465A46C01A914110D3C9
:1002C00011461846224600F043F92D1A67EB010843
:1002D0004F4622460120002100F03AF917EB0009B1
:1002E0004E41201EA4F10104DFDC484631462A4677
:1002F0004346BDE8F09F10B5431A934209D28318D4
:10030000881803E010F8011D03F8011D521EF9D2F0
:1003100010BD40EA01039B0703D009E008C9121F82
:1003200008C0042AFAD203E011F8013B00F8013BAF
:10033000521EF9D210BDD2B201E000F8012B491EC5
:10034000FBD270470022F6E710B513460A46044672
:100350001946FFF7F0FF204610BD421C10F8011BA4
:100360000029FBD1801A704710B5002200E0521C12
:10037000835C8C5CA34201D1002BF8D1D8B2E1B2EE
:10038000401A10BD034611F8012B00F8012B002A7A
:10039000F9D1184670472DE9FE4F81EA030404F0B5
:1003A000004421F0004100944FF0000B23F0004383
:1003B00050EA01045ED052EA03045BD0C3F30A544E
:1003C000C1F30A552C44A4F2F3340194A0FB025467
:1003D000C1F3130141F48011C3F3130343F48013F9
:1003E00001FB024400FB034E840A970A44EA81544D
:1003F00047EA8357A4FB076802958D0A05FB07852A
:100400004FEA932C04FB0C542705029D4FEA065833
:1004100047EA1637B5EB08056EEB070C870E920E10
:1004200047EA811742EA8312A7FB0201B6EB0B01F0
:1004300064EB00042B0D43EA0C335E1844EB1C50B4
:10044000DA465146E7FB0201C5F313044FEA0B33CA
:1004500043EA14534FEA0432019C43EA0603A4F131
:100460000C040294009CCDE900B400F0D6F803B06F
:10047000BDE8F08F00200146F9E70EB540F23341A8
:1004800002910021CDE900110A460B4600F0C5F8A3
:1004900003B000BDC1F30A5210B5C1F3130140F21D
:1004A000FF3341F480119A4201DA002010BD40F27E
:1004B00033439A42A2F2334203DC524200F057F82F
:1004C00010BD904010BD00F0004230F000400AD056
:1004D000C10D01F56071C0F3160042EA0151C20876
:1004E00040071143704700200146704701F0004368
:1004F00030B421F0004150EA010206D00A0DA2F505
:100500006072C1F31301002A02DC30BC0020704786
:10051000440F44EAC104C100E01830BC00EBC250F3
:1005200000F035B830B50B460146002020220124EA
:1005300009E021FA02F59D4205D303FA02F5491BB1
:1005400004FA02F52844151EA2F10102F1DC30BDC7
:10055000202A04DB203A00FA02F100207047914083
:10056000C2F1200320FA03F3194390407047202A78
:1005700004DB203A21FA02F00021704721FA02F34D
:10058000D040C2F12002914008431946704700292B
:10059000A8BF7047401C490008BF20F00100704709
:1005A00010B4B0FA80FC00FA0CF050EA010404BF69
:1005B00010BC704749B1CCF1200421FA04F411FABF
:1005C0000CF118BF012121430843A3EB0C01CB1D03
:1005D0004FEA00614FEA102042BF002010BC704774
:1005E00000EBC35010440029A4BF10BC7047401C4E
:1005F000490008BF20F0010010BC704710B5141E60
:1006000073F1000408DA401C41F1000192185B41CB
:100610001A4301D120F0010010BD2DE9F04D9246A2
:100620009B4611B1B1FA81F202E0B0FA80F22032B9
:100630009046FFF78DFF04460F4640EA0A0041EA64
:100640000B0153465A46084313D0114653EA0100A2
:1006500019D0C8F140025046FFF789FF05460E4603
:10066000504659464246FFF773FF084305D0012024
:1006700004E020463946BDE8F08D0020054346EAF7
:10068000E0762C4337430A986305E40AA0EB0800A0
:100690000022FD0A44EA47540A3002D500200146F0
:1006A000E9E7010510196941DDE9084500196941CB
:1006B000BDE8F04DA2E72DE9FE4F804681EA030038
:1006C000C00F0C46009021F0004123F00045B8EB2C
:1006D0000200A94105D24046214690461C460B46E1
:1006E000024623F00040104347D0270DC7F30A000D
:1006F000C3F30A510290401A019040286BDAC3F309
:10070000130040F4801B0098924620B10023D2EBE6
:10071000030A63EB0B0B01985946C0F140025046A7
:10072000FFF716FF06460D4650465946019A00F05F
:100730004BF910EB08006141002487EA115284EA6A
:10074000E7731A4340D0009A62B3019A012A4FEA34
:10075000075215DC001B61EB02014FF0004202EA78
:100760000752CDE90042001C41F5801132462B466C
:10077000FFF753FF03B0BDE8F08F40462146F9E78D
:10078000001B61EB0201001C41F5801300185B4166
:100790002018A2F5001747EB030140EAD570B619FF
:1007A0006D4111E06D084FEA360645EAC0754FEA23
:1007B0000752001B61EB0201001C41F58011490842
:1007C0004FEA30000019514132462B4603B0BDE8D4
:1007D000F04FFFF713BF0098012240000023D0EB39
:1007E000020263EBE073009821464FEAE074B8EB35
:1007F000000061EB0401E9E783F000435BE781F06F
:10080000004158E72DE9F04D81EA030404F0004B64
:1008100021F0004514464FF0000A23F0004150EA51
:10082000050220D054EA01021DD0C5F30A57024642
:10083000C5F31303C1F31300C1F30A5640F4801546
:1008400043F48013A7EB0608101BD64608F2FD38C8
:1008500073EB050002D308F1010801E092185B4137
:10086000B8F1000F03DA00200146BDE8F08D00204A
:100870004FF48011064684460EE0171B73EB050704
:1008800005D3121B63EB050306434CEA010C490830
:100890004FEA300092185B4150EA0107EDD152EA6D
:1008A000030012D082EA040083EA0501084305D060
:1008B000101BAB4106D20122002306E000224FF0BC
:1008C000004302E06FF0010253101AEB06004CEBFC
:1008D000085110EB0A0041EB0B01BDE8F04DFFF7AA
:1008E0008DBE0EB5C10F80EAE0700844CA07002132
:1008F00040F233438DE80E000A460B46FFF78DFEAB
:1009000003B000BD70B5C1F30A5201F000450024E8
:10091000C1F3130140F2FF3341F480119A4201DA2E
:10092000002070BD40F233439A42A2F2334203DC0E
:100930005242FFF71CFE00E090402C43F1D04042B1
:1009400070BD000030B5041E71F1000404DB4FF0EF
:100950000044404264EB0101141E73F1000405DB06
:100960001C464FF00043524263EB04038B4208BF26
:10097000824230BD30B5041E71F1000404DB4FF03B
:100980000044404264EB0101141E73F1000405DBD6
:100990001C464FF00043524263EB0403994208BFE8
:1009A000904230BD064C074D06E0E06840F0010380
:1009B00094E8070098471034AC42F6D3FFF7F0FBF9
:1009C000A47B0008C47B0008202A06DBCB17203A52
:1009D00041FA02F043EAE07306E041FA02F3D04044
:1009E000C2F12002914008431946704770B58C1837
:1009F00010F8015B15F0070301D110F8013B2A1133
:100A000006D110F8012B03E010F8016B01F8016B1F
:100A10005B1EF9D12B0705D40023521E0DD401F81B
:100A2000013BFAE710F8013BCB1A921C03E013F8E4
:100A3000015B01F8015B521EF9D5A142D8D3002019
:100A400070BD00000448416811F0200F1CBF6FF01A
:100A500002010160704700000020014070B40022D4
:100A600015484FF4007C4FF44074D51E94FAA4F15D
:100A7000B1FA81F12CFA01F100EB8101CE6A26F086
:100A80001F0646F00106CE62816841F08041816018
:100A9000416811F0200FFBD00560816821F480616E
:100AA0008160C16C13FA81F3511CCAB2102ADDD3E4
:100AB00070BC18097047000000200140144C606BA6
:100AC0000028FCD04FF0FF3106F032F80128F6D1B3
:100AD000104800F043FDB0F1FF3F0AD04FF00D0287
:100AE00080B10D49022003F0EFFF0CA003F03EF9A6
:100AF000E5E70D221249022003F0E6FF11A003F002
:100B000035F9DCE70E49022003F0DEFF14A0EDE723
:100B100000000020700300205A000020436F6D6D1C
:100B2000616E6420657865637574656420737563B0
:100B30006365737366756C6C79200D0A00000000A4
:100B400067000020436F6D6D616E64207061727389
:100B5000696E67206661696C757265200D0A000018
:100B6000496E76616C696420636F6D6D616E64209F
:100B70000D0A000082B002F03FFF174C69460020CA
:100B800003F064FF60B1684602F044FF9DF8000086
:100B90000A280AD06946002003F058FF0028F2D145
:100BA0004FF4C87004F083F8E8E702F0FDFE012876
:100BB00018BF0AA003D000BF03F0D8F8F0E7606BBD
:100BC0000028EDD000231A46194605F08DFD0128B6
:100BD00018BF07A0E4D0EFE700000020436F6D6D61
:100BE000616E64206572726F72200A0D0000000051
:100BF0004661696C656420746F2072656C65617311
:100C000065207468652073656D6170686F7265201A
:100C10000A0D0000104D82B05FF002064FF0FF3168
:100C2000E86B05F085FF0128F8D1002300961A46ED
:100C30000321E86C05F030FB10F0020F18BF002410
:100C4000ECD0204601F08EFD01F0F8FD601CC4B22E
:100C50000A2CF6D3E2E7000000000020074C00BF9A
:100C600060694FF40051814300F4005041EA0040B4
:100C7000A0614FF47A7004F01AF8F1E7000802401E
:100C800082B002F05FF902F00FFB02F0EDF9364D91
:100C9000344E4FF0FF3705F154044FF47A780023B7
:100CA00000971A460121286D05F0F6FA10F0010FA1
:100CB000F5D02078A8B1012846D0022833D00328E7
:100CC0003BD004F0A7FE29A003F050F804F0C2FEC8
:100CD000A1884FF47A704843B0FBF8F003F0E7FFC7
:100CE000DDE702F0F9FA00F04FFA307C401C307476
:100CF00002F01EF90128EBD126A003F037F802F02C
:100D0000BBFAB0F1FF3F08BF29A009D000231A4663
:100D10001946A86B05F0E8FC012818BF2CA0D7D015
:100D200003F024F8D4E74FF0FF31686C05F000FFC2
:100D3000012808BF01F044FECAE74FF0FF31286CDC
:100D400005F0F6FE0128C3D1A178607801AA02F06F
:100D5000C3FB01A802F01CFCBDF8041025A003F0A1
:100D600005F8B5E7C45D0020000000205468652048
:100D700073616D706C696E67206D6F646520697357
:100D800020696E636F72726563746C792073657429
:100D9000200D0A00506C616E746172207772697464
:100DA0006520627566662066756C6C200D0A000011
:100DB000506C616E7461722062756666207377692B
:100DC000746368206661696C6564200D0A00000028
:100DD0004661696C656420746F2072656C6561732F
:100DE00065207468652073656D6170686F72652039
:100DF0000D0A0000766F6C746167653A2564206D9A
:100E000056200D0A00000000124D82B05FF002066D
:100E10004FF0FF31A86B05F08BFE0128F8D10023BD
:100E200000961A460321E86C05F036FA10F0020F1E
:100E3000EED0094802F05CFA012808BF0024E7D18F
:100E4000204602F0EBF802F021F9601CC4B20A2C33
:100E5000F6D3DDE700000020206B0020094CA06CD9
:100E60000028FCD04FF0FF3105F062FE0128F6D1DA
:100E70004FF4C8710448FFF765FA034804F086FF91
:100E8000EDE70000000000207D0300204FF4FA7021
:100E900003F00DFF01F07AFB324D334C0021E06C82
:100EA00005F06AF9296800F00100C1F34021884289
:100EB00040F05280142003F0FAFE286810F4007FFE
:100EC00024D02AA002F052FF0121E06C05F054F971
:100ED000002804BF2AA002F049FF0221E06C05F0BF
:100EE0004BF9002804BF26A002F040FF0121206D2D
:100EF00005F042F9002804BF21A002F037FF0221CB
:100F0000206D05F039F9002826D122E025A002F055
:100F10002DFF0121206D05F074F9002804BF18A0F1
:100F200002F024FF0221206D05F06BF9002804BFB8
:100F300013A002F01BFF0121E06C05F062F900280C
:100F400004BF0FA002F012FF0221E06C05F059F976
:100F500010B90BA002F00AFF4FF47A7003F0A7FE5D
:100F60009CE7000010040240000000205350502075
:100F7000646973636F6E6E6563742121200D0A00CE
:100F80004661696C656420746F20736574207468B1
:100F900065206576656E742067726F7570200D0A26
:100FA0000000000053505020636F6E6E6563742123
:100FB00021200D0A0000000082B002F06BFA214CE3
:100FC000E06A002808BF20A006D0642105F0B0FD2B
:100FD000012818BF23A002D002F0C8FE17E069461E
:100FE000022003F033FD60B1684602F061FA9DF81B
:100FF00000000A2810D06946022003F027FD0028CF
:10100000F2D100231A461946E06A05F06DFB4FF451
:10101000C87003F04CFED3E702F014FA012818BFA1
:1010200018A002D002F0A2FEEBE7606B0028E8D027
:1010300000231A46194605F057FB012818BF16A0D1
:10104000DFD0EFE700000020546865206D757465FF
:1010500078206E6F742063726561746564200A0D78
:10106000000000004170706C69636174696F6E20EC
:10107000666F72206D75746578206661696C656451
:10108000200A0D00436F6D6D616E64206572726F92
:1010900072200A0D000000004661696C65642074CE
:1010A0006F2072656C656173652074686520736577
:1010B0006D6170686F7265200A0D000010B51E4AE0
:1010C00000211E4803F0D0FE1D4C1E4A0021606026
:1010D0001D4803F0C9FEA0601C4A00211C4803F013
:1010E000C3FEE0601B4A00211B4803F0BDFE2061E7
:1010F0001A4A00211A4803F0B7FE6061194A00211C
:10110000194803F0B1FEA061184A0021184803F005
:10111000ABFEE061174A0021174803F0A5FE2062EC
:10112000164A0021164803F09FFE6062BDE8104099
:10113000002004F0BDBD0000787400085D0C0008BC
:10114000000000209C740008750B0008C0740008A3
:10115000B90F0008E4740008BD0A0008087500080B
:10116000810C00082C750008090E00085075000855
:10117000150C0008747500088D0E0008987500089D
:101180005D0E0008000000002DE9F04F00252DED58
:10119000048B83B02F46DFF868915A4C9FED5A8B31
:1011A0009FED5B9B5C4800EB450B10F815609BF8CE
:1011B0000100B0427AD3C5F340000290C5F380002D
:1011C000A5F105080190C8F34000C8F3800A00901B
:1011D000052D77D2022115F0010F12BFA1614FF446
:1011E0000030A0614FF480610298002812BFA16115
:1011F0004FF08060A0614FF480510198002812BF29
:10120000A1614FF08050A0611020A0615FEA005002
:10121000C9F81800082016F0010F08BF4FF400208D
:10122000A061C6F340004FF40041002812BFC9F886
:1012300018104FF00040C9F818000121C6F38000D3
:10124000002812BFA1614FF48030A0612020A0616E
:10125000C82000BF401E10F0FF00FAD1FFF7FEFBD0
:1012600080B2FFF70AF9B0EE481AF0EE681A53ECB4
:10127000112BFFF790F8B0EE491AF0EE691A53EC13
:10128000112BFFF788F8FFF705F924495A230A7C48
:1012900012FB03F2496802EB47028852781CC7B27E
:1012A000701CC6B29BF80100B04291D2681CC5B256
:1012B0000A2DFFF477AF03B00120BDEC048BBDE82D
:1012C000F08FFFE74FF4804118F0010F12BFA161CA
:1012D0004FF08040A0614FF400410098002812BFF9
:1012E000A1614FF00040A0614020BAF1000F08BF9B
:1012F0004FF48000A0614FF48010A061001387E7D5
:1013000000000240000402406666666666664A3F68
:101310000000000000408F406C760008C45D002093
:10132000FEE7000001000D4810B500684FF0010411
:101330004FF0020107D004F064FF60B908A002F08A
:1013400015FDA41E07E004F017FF20B90FA002F05E
:101350000DFD4FF0FF34204610BD00004C00002072
:101360004661696C656420746F20656E61626C65AE
:1013700020626C7565746F6F7468207472616E732F
:101380006D697373696F6E200A0D00004661696CA8
:10139000656420746F2064697361626C6520626C9F
:1013A0007565746F6F7468207472616E736D6973A4
:1013B00073696F6E200A0D0001000D4810B50068BA
:1013C0004FF001044FF0020107D004F01AFF60B99A
:1013D00008A002F0CBFCA41E07E004F0CDFE20B96B
:1013E0000DA002F0C3FC4FF0FF34204610BD0000FA
:1013F000500000204661696C656420746F20656E42
:1014000061626C6520494D552073616D706C696E29
:1014100067200A0D000000004661696C6564207455
:101420006F2064697361626C6520494D552073615A
:101430006D706C696E67200A0D000000010010B528
:101440000B484FF001042146006807D004F0D9FE94
:1014500060B908A002F08AFCA41E07E004F08CFE2C
:1014600020B90EA002F082FC4FF0FF34204610BDE0
:10147000500000204661696C656420746F20656EC1
:1014800061626C6520706C616E7461722073616D55
:10149000706C696E67200A0D000000004661696C7F
:1014A000656420746F2064697361626C6520706C80
:1014B000616E7461722073616D706C696E67200A71
:1014C0000D00000070B500F00F060509012431463B
:1014D000284601F08FFD012805D00BA002F046FC44
:1014E000A41E204670BD3146284601F03DFD01286E
:1014F00005D00BA002F03AFC4FF0FF34F1E70FA04B
:1015000002F034FCEDE7000053656C656374696FAD
:101510006E20696E707574206572726F72000000C3
:101520004368616E6765207468652073656C6563E8
:1015300074696F6E206661696C6564004368616EF2
:101540006765207468652073656C656374696F6E88
:1015500020737563636565640000000070B5044620
:101560000078712804BF6078712817D1A07871289D
:1015700004BFE078712811D12079712804BF207A46
:1015800068280BD1607A682804BFA07A682805D142
:10159000E07A682804BF207B682805D0BCA002F050
:1015A000E5FB4FF0FF3070BDBEA002F0DFFB6379BA
:1015B000A179E079102B06D0BF4A202B2FD0302BF9
:1015C00000F0A28029E0102902D0112918D024E0CF
:1015D000BA4A0124002810684FF0020107D004F035
:1015E00010FEC0B9B64802F0C1FBA41E13E004F01F
:1015F000C3FD80B9B34802F0B9FB4FF0FF340AE0F5
:10160000B148002301241A461946006805F06CF819
:10161000012840F0C180204670BD002070BD102917
:101620001FD0112935D0122937D0132954D0A74BF8
:101630004FF47A72142953D01529EED133F81000E3
:1016400011464843B0FBF2F0012403F030FBA04800
:1016500000231A461946006805F046F8012867D1AC
:10166000D9E7012400281068214608D004F0C9FDFC
:101670000028D0D1974802F079FBA41ECBE704F0F4
:101680007BFD0028C7D1944802F070FB4FF0FF3477
:10169000C1E7BDE8704001F04BBD00F00F06050941
:1016A00001243146284601F0A5FC012804D08B48CE
:1016B00002F05CFBA41EAEE73146284601F054FC64
:1016C000012805D0864802F051FB4FF0FF34A2E715
:1016D000844802F04BFB9EE7BDE8704001F0A4BDDA
:1016E00033F810004FF47A714843B0FBF2F0012454
:1016F00003F0DDFA7C4800231A461946006804F01E
:10170000F3FF012848D186E7102912D011292BD0E8
:10171000122944D013295AD0142976D0152975D00E
:1017200016297FF47AAF0124002870D001286FD0E9
:1017300032E00124002810684FF0020109D004F0C3
:1017400060FD00287FF467AF684802F00FFBA41E1D
:1017500061E704F011FD00287FF45DAF644802F0FA
:1017600005FB4FF0FF3456E7012420B1012807D0D4
:1017700002280AD010E0022002F08AF960B94AE794
:101780001E2002F085F938B945E740F25E2002F0EC
:101790007FF900283FF43FAF4FF0FF343BE70124CF
:1017A00048B101280DD00228F6D10B2002F09AF999
:1017B0000028F1D12FE7062002F094F90028EBD1A0
:1017C00029E7092002F08EF90028E5D123E701245A
:1017D00080B101281DD0022826D00328DCD10920A1
:1017E00002F0AAF90028D7D14FF46121012003F0BB
:1017F000C9F910E7022002F09FF90028CCD14FF47C
:101800001651012003F0BEF905E718E02FE034E09F
:1018100038E0062002F090F90028BDD14FF4E13104
:10182000012003F0AFF9F6E6082002F085F9002860
:10183000B2D14FF4E121012003F0A4F9EBE6012439
:1018400048B101280DD00228A6D1002002F0F6F8F8
:101850000028A1D1DFE6062002F0F0F800289BD195
:10186000D9E6022002F0EAF8002895D1D3E6012457
:1018700002F08CF900288FD1CDE602F0C7F90028DC
:101880008AD1C8E602F0A2F9002885D1C3E600009B
:10189000436F6D6D616E64206572726F72200A0D08
:1018A00000000000526563656976656420636F6DB2
:1018B0006D616E64200A0D00500000204C00002075
:1018C000601300088C130008480000208076000890
:1018D00040000020741400089C140008081500083B
:1018E000201500083C15000844000020F4130008EF
:1018F00018140008024A00211160516001F0B8BAC2
:1019000078000020704772B6FEE700002DE9F84F1E
:101910006E4D6D4C00224FF001094FF0030C4FF05B
:101920000F0A05F1040E00BF0B6809FA02F63340F6
:10193000B3427DD10F7907F00307012F18BF022FA3
:1019400019D1D0F808804FEA42070CFA07FB28EAC1
:101950000B08D1F80CB00BFA07F747EA08078760C5
:10196000476827EA06060F79C7F3001707FA02F758
:1019700047EA060646604E683CEA06060BD0C76892
:1019800056000CFA06F827EA0807D1F8088008FA8A
:1019900006F63E43C6600E7906F00306022E11D10C
:1019A000D60800EB8607D7F820805607F60E0AFA0D
:1019B00006FB28EA0B08D1F810B00BFA06F646EA47
:1019C00008063E62076856000CFA06F827EA080780
:1019D00091F8048008F0030808FA06F63E43066012
:1019E0004E6816F4403F69D0266846F4804626606B
:1019F000266806F48046009622F0030606F180472A
:101A000007F59837D7F808889607360F0AFA06FBC5
:101A100028EA0B08A0F1804BBBF5003B22D0A0F1D7
:101A2000804BBBF5013B08BF4FF0010B1AD000E023
:101A300044E0A0F1804BBBF5023B08BF4FF0020B26
:101A400010D0A0F1804BBBF5033B08BF4FF0030B58
:101A500008D0A0F1804BBBF5043B0CBF4FF0040B4A
:101A60004FF0070B0BFA06F646EA0806C7F80868B7
:101A70002E684F689E4317F4803F18BF1E432E60A8
:101A8000DEF800604F689E4317F4003F18BF1E4306
:101A9000CEF800600E4F3E68D1F804809E4318F4E3
:101AA000801F18BF1E433E600A4F3E68D1F8048075
:101AB0009E4318F4001F18BF1E433E60521C102A9C
:101AC000FFF432AFBDE8F88F44380240003C0140DB
:101AD000083C01400C3C0140014880687047000010
:101AE000D00000200248816802781144816070476C
:101AF000D00000200B4810B5016841F4007101606E
:101B0000016841F480610160016841F48071016005
:101B1000032000F0A3F80F2000F006F800F03EF8D4
:101B2000002010BD003C024010B5014688B00022E4
:101B3000192000F061F8192000F04EF81348002435
:101B4000016841F001010160006805A900F0010091
:101B50000690684600F042F900F070F90C490D4A11
:101B6000B0FBF1F0411E0C48026040F2E732C0E9E0
:101B70000324C0E9011400F0AFFB00280ABF0648A7
:101B8000012000F0D7FB08B010BD0000443802402F
:101B900040420F00000001407C5D00200C4882B0F4
:101BA000016841F480410160006800F480400090C9
:101BB0000848016841F0805101600068002200F08F
:101BC000805000900F21901E02B000F015B8000068
:101BD00044380240403802400028B8BF704700F047
:101BE0001F01012202FA01F14009800000F1E0200A
:101BF000C0F8001170470000174B10B41B68C3F306
:101C00000223C3F1070CBCF1040F88BF4FF0040C92
:101C10001C1D072C34BF0023DB1E012404FA0CFC1E
:101C2000ACF1010C0CEA0101994004FA03F35B1ECC
:101C30001A40114300284FEA0111A1BF00F1E02032
:101C400080F8001410BC704700F00F0000F1E02095
:101C500080F8141D10BC70470CED00E0074900F03F
:101C600007000A684FF6FF031A4042EA002040F0DE
:101C7000FD7040F080600860704700000CED00E0EF
:101C8000002804BF012070472DE9F0474D4E04465F
:101C90000F46306801F0FF0800F00700B84206D296
:101CA00086F80080306800F00700B84261D12068F3
:101CB000454D10F0020F14D010F0040F03D0286827
:101CC00040F4E0502860207810F0080F03D0286816
:101CD00040F4604028602868A16820F0F0000843C4
:101CE0002860207810F0010F37D06068374901284C
:101CF00023D0022818BF0328096823D011F0020F4F
:101D000037D0296821F0030141EA00002860FFF77D
:101D1000E3FE81462868616800F00C00B0EB810F9B
:101D200018BF41F2883A18D0FFF7D6FEA0EB0900A1
:101D300050450BD90320BDE8F087096811F4003F36
:101D4000DFD116E011F0007FDBD112E02868616876
:101D500000F00C00B0EB810FE6D1306800F0070016
:101D6000B84209D986F80080306800F00700B84210
:101D700002D00120BDE8F087207810F0040F05D0D4
:101D80002868E16820F4E05008432860207810F0CB
:101D9000080F06D02868216920F4604040EAC1009D
:101DA000286000F05BF82968094AC1F30311515C0F
:101DB000C8400849086008480068FFF7B5FE0020E1
:101DC000BDE8F087003C024008380240003802407D
:101DD000E8790008DC000020D40000200F22026017
:101DE0000C4A136803F003034360136803F0F00325
:101DF0008360136803F4E053C36012684FF4E05348
:101E000003EAD20202610448006800F0070008609B
:101E10007047000008380240003C02400448054971
:101E200000680968044AC1F38221515CC8407047C8
:101E3000DC00002008380240F87900080448054911
:101E400000680968044AC1F34231515CC8407047D8
:101E5000DC00002008380240F879000818480068C3
:101E600010F00C02174808BF70471749042A04BF36
:101E700008467047082A18BF704710B5134C2268EF
:101E8000236802F03F0213F4800F08D0206800237B
:101E9000C0F38810A0FB0101FEF7FCF907E0216800
:101EA0000023C1F38811A1FB0001FEF7F3F92168BB
:101EB000C1F30141491C4900B0FBF1F010BD000025
:101EC000083802400024F40040787D0104380240C4
:101ED000002804BF012070472DE9F84F0446007820
:101EE000DFF8CC8310F0010FA8F1040558D008F1F9
:101EF0000400016801F00C01042909D0006800F019
:101F00000C0008280DD1D8F8000010F4800F08D07C
:101F1000286810F4003F43D06068002800F0C181B9
:101F20003EE06068B0F5803F19D0B0F5A02F28687A
:101F30000CBF40F4802020F48030286028680CBF5B
:101F400040F4803020F4802028606068B8B1FFF74A
:101F5000C3FD0646286810F4003F05D020E028683D
:101F600040F480302860F0E7FFF7B6FD801B64285E
:101F700000F22F81286810F4003FF5D010E0FFF741
:101F8000ABFD0646286810F4003F09D0FFF7A4FD1A
:101F9000801B642800F21D81286810F4003FF5D1F1
:101FA0002078C44F10F0020F47D0C349086810F0E2
:101FB0000C0F16D0086800F00C00082804BFD8F8F1
:101FC000000010F4800F0CD0E06820B34FF0010047
:101FD0003860FFF781FD0646286810F0020F09D02F
:101FE00011E0286810F0020F1CBFE06801280AD039
:101FF00000F057B9FFF770FD801B02287ED82868D3
:1020000010F0020FF6D02868216920F0F80040EAAD
:10201000C100286011E000203860FFF75DFD064632
:10202000286810F0020F08D0FFF756FD801B022829
:1020300064D8286810F0020FF6D1207810F0080F4D
:102040002AD09E489E4E616999B101210160FFF737
:1020500043FD8146306810F0020F1DD1FFF73CFDB3
:10206000A0EB0900022849D8306810F0020FF5D023
:1020700012E000210160FFF72FFD8146306810F06B
:10208000020F09D0FFF728FDA0EB0900022835D880
:10209000306810F0020FF5D1207810F0040F7FD0D7
:1020A00088484FF0000B006810F0805F0AD1854827
:1020B000016841F08051016000684FF0010B00F0B1
:1020C00080500090DFF80092D9F8000010F4807F73
:1020D0001AD1D9F8000040F48070C9F80000FFF769
:1020E000FBFC0646D9F8000010F4807F0CD100BF3D
:1020F000FFF7F2FC801B02286BD800E069E0D9F8FA
:10210000000010F4807FF3D0A068704E01281BD02F
:10211000052830680CBF40F0040020F0010030605A
:1021200030680CBF40F0010020F00400C6F8000049
:10213000A06841F2883AB8B1FFF7CEFC814630681A
:1021400010F0020F05D021E0306840F0010030604F
:10215000EEE7FFF7C1FCA0EB0900504539D8306825
:1021600010F0020FF5D011E0FFF7B6FC81463068A1
:1021700010F0020F0AD000BFFFF7AEFCA0EB090081
:10218000504526D8306810F0020FF5D1BBF1000F92
:1021900006D04C48016821F0805100E000E0016069
:1021A000A069E8B34449096801F00C01082950D03E
:1021B00002284FF0000038660ED0FFF78DFC044671
:1021C000286810F0007F6FD0FFF786FC001B022804
:1021D0003AD90320BDE8F88FFFF77EFC0646286851
:1021E00010F0007F09D000BFFFF776FC801B0228AB
:1021F000EFD8286810F0007FF6D1D4E90701084332
:10220000A16A334A490802EB0141626A41EA82113C
:10221000084394F82C1040EA0160C8F8000000E080
:1022200042E001203866FFF757FC0446286810F0AA
:10223000007F39D1FFF750FC001B0228C9D828685D
:1022400010F0007FF6D02FE0286810F0007FBBD19F
:102250002AE0012808BFBDE8F88FD8F80000E2693D
:1022600000F4800191421CD1226A00F03F019142AA
:1022700017D147F6C071626A0140B1EB821F10D1DD
:10228000A26A4FF0FF3300F4403103EB5202B1EB8E
:10229000024F06D194F82C1000F07060B0EB016F83
:1022A00002D00120BDE8F88F0020BDE8F88F0000C3
:1022B000043802400000474208380240800E47427E
:1022C00074380240403802400070004070380240CC
:1022D0000000FFFF70477047002804BF01207047CF
:1022E00010B5044690F83D0028B9002084F83C0061
:1022F000204600F01EF8022084F83D00211D2068D1
:1023000001F008FA012084F8460084F83E0084F8C1
:102310003F0084F8400084F8410084F8420084F8CB
:10232000430084F8440084F8450084F83D00002010
:1023300010BD704790F83D1001291CBF0120704767
:10234000022180F83D100168CA6842F00102CA60AB
:102350000068A0F18041B1F5803118BFB0F1804F25
:1023600013D0A0F18041B1F580611CBFA0F1804184
:10237000B1F5006109D0A0F18041B1F540611CBF09
:10238000A0F18041B1F5A03104D1816801F00701CD
:10239000062903D0016841F0010101600020704767
:1023A000704770B50446006801694FF0000511F0F0
:1023B000020F1CBFC16811F0020F13D06FF00201B1
:1023C0000161012020772068806910F0030F20460A
:1023D00002D0FFF7E5FF04E000F099F8204600F096
:1023E00097F825772068016911F0040F1CBFC168B8
:1023F00011F0040F13D06FF0040101610220207767
:102400002068806910F4407F204602D0FFF7C8FFA3
:1024100004E000F07CF8204600F07AF82577206888
:10242000016911F0080F1CBFC16811F0080F13D02B
:102430006FF008010161042020772068C06910F066
:10244000030F204602D0FFF7ABFF04E000F05FF877
:10245000204600F05DF825772068016911F0100F23
:102460001CBFC16811F0100F13D06FF01001016193
:10247000082020772068C06910F4407F204602D0F1
:10248000FFF78EFF04E000F042F8204600F040F82D
:1024900025772068016911F0010F1CBFC16811F098
:1024A000010F05D06FF001010161204600F031F805
:1024B0002068016911F0800F1CBFC16811F0800F06
:1024C00005D06FF0800101612046FFF703FF20680F
:1024D000016911F0400F1CBFC16811F0400F05D019
:1024E0006FF040010161204600F01CF8206801698E
:1024F00011F0200F1ABFC16811F0200F70BD6FF0EE
:10250000200101612046BDE87040FFF7E4BE70473E
:1025100070470068A0F18041B1F5803118BF704765
:10252000FFF7E0BA7047002804BF0120704770B57C
:10253000044690F83D00002520B984F83C50204620
:1025400000F022F8242084F83D002068C16821F4BE
:102550000051C160204601F02FF92068016921F483
:10256000904101612068416921F02A0141612068A0
:10257000C16841F40051C1602564202084F83D0009
:1025800084F83E00002070BD704700002DE9F04F38
:10259000DFF8C09183B04FF0FF38D9F80000002871
:1025A00045D0642104F0C4FA012839D1DFF8A8A18C
:1025B0005046FDF7D2FE80B25746019007F1200049
:1025C000664D0026A7F1140B0090022002F022FABB
:1025D00040216248FDF7B6FE5BF82610022002F0AB
:1025E000D1FA51460220019A02F06EFA642002F0FC
:1025F0005EFB00242946022002F028FA38B1601C54
:10260000C4B22919022002F021FA0028F7D1534858
:102610000099FDF7A9FE70B1701CC6B2052ED4D387
:1026200000231A461946D9F8000004F05DF803B0FB
:102630004046BDE8F08F07F140042046FDF78DFECF
:102640001FFA80F807F16006022002F0E3F940214A
:102650004248FDF777FE42462146022002F034FA56
:102660004FF4487002F023FB00242946022002F0B8
:10267000EDF938B1601CC4B22919022002F0E6F964
:102680000028F7D131463548FDF76EFE20B94FF4EA
:10269000E121022002F076FA07F180042046FDF7DE
:1026A0005CFE1FFA80F807F1A006022002F0B2F9E2
:1026B00040212A48FDF746FE42462146022002F00C
:1026C00003FA4FF4487002F0F2FA0024294602207F
:1026D00002F0BCF938B1601CC4B22919022002F022
:1026E000B5F90028F7D131461C48FDF73DFE07F546
:1026F00080742046FDF731FE1FFA80F807F59076CA
:10270000022002F087F940211448FDF71BFE4246E3
:102710002146022002F0D8F94FF4487002F0C7FABF
:1027200000242946022002F091F938B1601CC4B29D
:102730002919022002F08AF90028F7D1314607480A
:10274000FDF712FE00280CBF4FF001084FF0FF38D4
:1027500066E700002C000020A87800087E740020A6
:10276000FEE700002DE9F05F2C4E07462C49B06BC8
:1027700050F8270003F07AF807EB4700DFF8A4A031
:102780004FEA400907EB470000240AF10C0B4FEA1F
:10279000800800BF306808EB840529180AEB840024
:1027A000002202F017FAB068002229180BEB84000F
:1027B00002F010FA3069002229181B4800EB84004F
:1027C00002F008FAB16909EB4400085A174901EB15
:1027D000440103F047F8601CC4B2032CDAD3306A1A
:1027E000134950F8270003F041F8B06A114950F836
:1027F000270003F03BF800243D010F4F316B05EB40
:102800008400014407EB8400002202F0E3F9601C1D
:10281000C4B2042CF2D3BDE8F09F00006465002030
:10282000BC000020DC720020F4720020C8000020F0
:10283000C0000020C4000020007300202DE9F041FA
:102840004D4F386800287DD0142104F071F901281B
:1028500004D0BDE8F04149A001F088BA4F4C504D7A
:10286000A4F580661B226868C4F8B900D6F8BC03DA
:10287000C4F8BD00D6F8C003C4F8C100D6F8C4033C
:10288000C4F8C50004F1B301022002F01DF9686824
:10289000C4F8D400D6E9F201D6F8D023C4F8D800A1
:1028A000C4E937121B2204F1CE01022002F00CF918
:1028B0006868C4F8EF00D6F8D403C4F8F300D6F87B
:1028C000D803C4F8F700D6F8DC03C4F8FB001B22D9
:1028D00004F1E901022002F0F7F86868C4F80A017F
:1028E0002869C4F80E01A88AA4F81201152204F57B
:1028F0008271022002F0E8F86868C4F81F01A86835
:10290000C4F82301132204F21911022002F0DCF8AA
:102910006868C4F83201E868C4F83601132204F587
:102920009671022002F0D0F86868C4F84501D6F824
:10293000E003C4F84901D6F8E403C4F84D01D6F821
:10294000E80300E013E0C4F85101D6F8EC03C4F842
:1029500055011F2204F23F11022002F0B5F8386839
:10296000BDE8F04100231A46194603F0BDBEBDE89C
:10297000F0410CA001F0FAB9300000204170706CF9
:1029800069636174696F6E20666F72206D7574651E
:1029900078206661696C6564200A0D002073002050
:1029A000B8000020546865206D75746578206E6FDE
:1029B000742063726561746564200A0D0000000074
:1029C0002DE9F04FDFF828C14A4800214FF0807E02
:1029D0004FF0004A484B13F8112003EB410393F8E2
:1029E00001B093455BD34B1FC1F34007C1F3800691
:1029F000C3F34005C3F38004052957D24FF0020802
:102A000011F0010F08BF4FF40038C0F818804FF4E0
:102A10008068002F08BF4FF08068C0F818804FF41E
:102A20008058002E08BF4FF08058C0F818804FF033
:102A30001008C0F81880CCF818E000BF4FF0080963
:102A400012F0010F12BFC0F818904FF40028C0F820
:102A500018804FF40049C2F34008B8F1000F14BFCA
:102A6000CCF81890CCF818A04FF00108C2F38009F8
:102A7000B9F1000F08BF4FF48038C0F818804FF04C
:102A80002008C0F818804FF0C80800BFA8F101085E
:102A900018F0FF08F9D1521CD2B29345ACD2491CB0
:102AA000C9B20A2996D30120BDE8F08F4FF48048BF
:102AB00013F0010F08BF4FF08048C0F818804FF4A2
:102AC0000048002D14BFC0F81880C0F818A04FF0BF
:102AD0004008002C08BF4FF48008C0F818804FF45D
:102AE0008018C0F818804FF48078CCF81880A5E7DB
:102AF00000000240000402406C760008084B0022EF
:102B00009B6813F0010F18BF012201D010467047D7
:102B10000968436823F4403319434160F6E7000035
:102B2000002001408368002213F0010F18BF01222A
:102B300001D010467047D1F808C00B6843EA0C0377
:102B4000D0F804C02CF4807C2CF0407C43EA0C03C9
:102B500043608368496823F4006319438160E8E7B0
:102B600010B44B68D0F808C000221CF0010F18BF49
:102B7000012202D010BC10467047002B436823F49A
:102B800068431CBFD1F808C043EA0C034360D1E995
:102B9000033C43EA0C03D0F808C0094C0CEA040CCF
:102BA0000C6804F070644CEA040C43EA0C03836084
:102BB0004968C36A23F470031943C162DAE700006D
:102BC000FDFCFFC02DE9F0030A6892FAA2F3B3FA04
:102BD00083F3DA407DD001250F244FF0030C00BFB2
:102BE0000E6805FA03F2324074D04E68012E18BF09
:102BF000022E20D18E68D0F8088092FAA2F7B7FA98
:102C000087F74FEA47070CFA07F728EA070792FA0F
:102C1000A2F8B8FA88F84FEA480806FA08F647EA30
:102C200006068660CE68476802FB06F627EA0207BA
:102C300047EA060646600E69D0F80C8092FAA2F7C1
:102C4000B7FA87F74FEA47070CFA07F728EA0707AA
:102C500092FAA2F8B8FA88F84FEA480806FA08F695
:102C600047EA0606C6604E68022E37D192FAA2F6EF
:102C7000B6FA86F6082E16D24E69076A92FAA2F8BC
:102C8000B8FA88F84FEA880804FA08F827EA08072B
:102C900092FAA2F8B8FA88F84FEA880806FA08F615
:102CA0003E4306621AE04F69D0F82480160A96FA6D
:102CB000A6F9B9FA89F94FEA890904FA09F996FAE5
:102CC000A6F6B6FA86F6B60028EA090807FA06F666
:102CD00001E01DE017E048EA060646624E68076814
:102CE00092FAA2F8B8FA88F84FEA48080CFA08F8FD
:102CF00092FAA2F2B2FA82F2520027EA080706FA22
:102D000002F23A4302600A685B1CDA407FF468AF63
:102D1000BDE8F0030020704770B40268214BDFF873
:102D200088C0224C224D984218BFB0F1804F04D089
:102D300060451CBFA042A84204D14E6822F0700238
:102D400042EA0602984218BFB0F1804F14D06045A5
:102D500018BFA04210D0A8421CBFA0F1804CBCF507
:102D6000A03C09D0A0F1804CBCF5A23C1CBFA0F156
:102D7000804CBCF5A43C05D1D1F80CC022F44072C3
:102D800042EA0C0202608A68C2620A888262984241
:102D900004BF09690163416941F00101416170BCEF
:102DA000002070470000014000040040000800407F
:102DB000000C004010B5204801F0D0FF1F4CA0626D
:102DC0001F4801F0CBFFE0621E4801F0C7FF2063FF
:102DD0001D4A0021012001F0F7FF60631B4A00211A
:102DE000012001F0F1FFA063194A0021012001F048
:102DF000EBFFE063174A0021012001F0E5FF2064AA
:102E0000154A0021012001F0DFFF6064134A002110
:102E1000012001F0D9FFA064114801F057FFE064E0
:102E2000104801F053FF20650F4A00210F4802F0BF
:102E30001BF8206010BD0000BC75000800000020D9
:102E4000CC750008DC750008EC750008FC750008FE
:102E50000C7600081C7600082C7600083C760008EA
:102E60004C7600085C76000854740008BD10000819
:102E700000B587B00020009001900290039004906C
:102E80002748016841F001010160006800F001007D
:102E9000059024480068C0F30220C0F1070104290E
:102EA00088BF0421021D072A34BF0020C01E012252
:102EB00002FA01F1491E01F0010101FA00F01A497C
:102EC000000181F800044FF0E0211007C1F8000173
:102ED0006320ADF800003120029069468007FFF7BB
:102EE0001BFF4FF08040016821F080010160816884
:102EF00021F0070121F480418160416821F07001D7
:102F00004160816821F080018160C16841F0010168
:102F1000C160016841F00101016007B000BD00001F
:102F2000403802400CED00E01CE000E0FEE7FEE768
:102F30000348007C0A282CBF01204FF0FF30704767
:102F4000C45D00200749A1F11400416000F56671DD
:102F5000016000F21C71C16000F2447181600021C7
:102F600001747047D85D00202DE9F041104D0746EF
:102F70000E462868012498B1642103F0D9FD012888
:102F800004D00CA000F0F2FEA41E0EE011480023B5
:102F90001A46477086701946286803F0A5FB04E0BE
:102FA0000DA000F0E3FE4FF0FF342046BDE8F081B5
:102FB000280000204170706C69636174696F6E2035
:102FC000666F72206D75746578206661696C6564E2
:102FD000200A0D0054000020546865206D7574654A
:102FE00078206E6F742063726561746564200A0DC9
:102FF000000000000A280BD2074A12F8103099424C
:1030000006D302EB4000407881429CBF012070470C
:103010004FF0FF30704700006C76000870B5054631
:103020000E480F49806850F8250002F01FFC0D493A
:10303000C5EB051000EB4000002401EB800501F515
:10304000E16600BF05EB840106EB8400002201F07D
:10305000C1FD601CC4B22D2CF4D370BDC45D002032
:10306000B8000020206B002010B5074C71212046CD
:1030700000F0A0FE4020607104F1BE00BDE81040E9
:10308000682100F097BE00001073002010B5154CA9
:10309000206810B3142103F04BFD012804D0BDE8D3
:1030A000104011A000F062BE18491748B422096808
:1030B000C0F8F61300F5427100F2FA30FDF71BF983
:1030C000C3221349022001F0FFFC00232068BDE861
:1030D00010401A46194603F007BBBDE810400DA08A
:1030E00000F044BE300000204170706C6963617470
:1030F000696F6E20666F72206D75746578206661E9
:10310000696C6564200A0D00206F0020B800002063
:1031100010730020546865206D75746578206E6F9B
:10312000742063726561746564200A0D00000000FC
:1031300070B51D4E044688B03068012520B1642169
:1031400003F0F6FC012804D04FF0FF3508B0284604
:1031500070BD16480178032988BF4FF0FF351BD892
:10316000047034B1012C09D0022C0CD0032C0FD0E8
:1031700012E00FA1684600F009FE0DE011A16846BB
:1031800000F004FE08E016A1684600F0FFFD03E031
:103190001BA1684600F0FAFD00231A461946306864
:1031A00003F0A2FAD2E7000028000020540000201B
:1031B00041727261792053616D706C696E676D6FD9
:1031C0006465000053696E676C65706F696E74208A
:1031D00053616D706C696E676D6F6465000000000F
:1031E000496E737472756374696F6E732041727285
:1031F00061792053616D706C696E676D6F646500F5
:10320000496E737472756374696F6E732053696E5F
:10321000676C65706F696E742053616D706C696E58
:10322000676D6F646500000070B5104E054601249F
:10323000306820B1642103F07BFC012803D04FF0FB
:10324000FF34204670BD0A4881880A2988BF4FF0A4
:10325000FF3403D8074931F81510818000231A463E
:103260001946306803F040FAEBE700002800002020
:1032700054000020807600080A484268002A19BFDE
:10328000016800294FF0FF307047D0E902C3C0E960
:103290000021C0E9023C4FF0000101744FF0010031
:1032A00070470000C45D0020084800210170417093
:1032B00081700A21818006484FF400118161491014
:1032C00081610801034988617047000054000020B3
:1032D000000402400000024010B5FEF7FDFB034968
:1032E000CA68097C42F8210010BD0000C45D0020BE
:1032F00070B525492DED088B0C68002C02BF4FF0EE
:10330000FF30BDEC088B70BD05464FF4E1769FEDB4
:103310001F8A9FED1FAA9FED1FBADFED1F8ADFED09
:103320001FBA9FED1F9BF7EE00AA00BF34F8020BF7
:1033300000EE100AF8EE400A80EE880AC0EE0A0A93
:1033400070EEEA0A80EE8B0AF0EE680A50EE080A88
:1033500080EEAB0A20EE400A10EE100AFDF7B3F83B
:1033600041EC100B00F048FD53EC192B51EC100B05
:10337000FDF711F8FDF7BAF845F8040B761ED5D124
:10338000BDEC088B012070BDC45D002000007A44B4
:10339000E17A143F00E09245DB8A2D3F4BC8873E1F
:1033A000000000C0CC808340244A2549052820D253
:1033B000022310F0010F08BF4FF400338B61C0F3FC
:1033C00040034FF4806C002B12BFC1F818C04FF0BF
:1033D00080638B614FF48053C0F38000002812BFDC
:1033E0008B614FF0805088611020886100059061EA
:1033F0007047401FC0B24FF4804C10F0010F12BF55
:10340000C1F818C04FF080438B614FF4004CC0F3FB
:103410004003002B12BFC1F818C04FF000438B616E
:103420004023C0F38000002812BF8B614FF480005E
:1034300088614FF4801088610013D8E700000240D3
:103440000004024070B5114C00252146E28808684E
:1034500089880F2A04D2FCF775FFE580681E70BDCD
:1034600002440B4B52F80ECCC3F800C052F80ACC01
:10347000C3F804C052F806CCC3F808C012F8022CF6
:103480001A73FCF75FFFE580012070BD8800002003
:10349000700300200548044901604FF48071818069
:1034A0000021C180704700007002002088000020C9
:1034B00001780748C3880268D154C188491C89B281
:1034C000C1808288914224BF0021C18070470000E2
:1034D000880000200000000070B515000C4607D0E1
:1034E0000A2805D8224901EB400149788C4202D9CB
:1034F0004FF0FF3070BDFFF757FF08211D4814F053
:10350000010F08BF4FF400218161C4F340021A4B40
:103510004FF40041002A08BF4FF00041996101219A
:10352000C4F38002002A08BF4FF48031816120215A
:103530008161C82000BF401E10F0FF00FAD1FDF7E6
:103540008DFA80B2FCF799FF9FED0D1B53EC112B08
:10355000FCF721FF9FED0C1B53EC112BFCF71BFF1D
:10356000FCF798FF2880012070BD000000000000DB
:103570006C760008000402400000024000000000D9
:103580006666666666664A3F0000000000408F403F
:1035900010B5008800EE100AB8EE401A9FED180A28
:1035A000C1EE000A9FED171AC0EE811AF7EE000A6D
:1035B00031EEE01ADFED141AC1EE210A9FED131A65
:1035C00010EE801ADFED120A81EE200A20EE400A8A
:1035D00010EE100AFCF777FF41EC100B00F00CFC2A
:1035E0009FED0D1B51EC100B53EC112BFCF7D3FE90
:1035F000FCF77CFF00EE100A10BD00000000000088
:1036000000007A44E17A143F00E09245DB8A2D3FC6
:103610004BC8873E00000000000000C0CC80834003
:1036200010B54FF0E020006903F062FC012808BFEC
:1036300010BDBDE8104002F03BBF000030B593B0B4
:103640000024214802940394049405940C940D944E
:103650000E940F941094016841F08051016000684D
:1036600000F0805011901948016841F44041016018
:103670000068022500F440401190012000900004F1
:1036800001908001CDE9065019200890C820CDE9AD
:10369000090504200B906846FEF71AFC08B172B6C3
:1036A000FEE70F20CDE90C054FF48050CDE90E4028
:1036B00003210CA81094FEF7E3FA002804BF13B00E
:1036C00030BD72B6FEE70000403802400070004096
:1036D0000248016841F470010160704788ED00E024
:1036E0000148FEF75EBE00007C5D00204FF0804088
:1036F000016911F0010F07D005490B684A685B1C8E
:1037000042F100020B604A606FF0010101617047F5
:103710007800002070B40268234BDFF890C0244C7E
:10372000244D984218BFB0F1804F04D060451CBFB3
:10373000A042A84204D14E6822F0700246EA02027A
:10374000984218BFB0F1804F14D0604518BFA04216
:1037500010D0A8421CBFA0F1804CBCF5A03C09D001
:10376000A0F1804CBCF5A23C1CBFA0F1804CBCF584
:10377000A43C05D1D1F80CC022F440724CEA0202FC
:10378000D1F814C022F0800242EA0C0202608A687A
:10379000C2620A688262984204BF0969016301211A
:1037A000416170BC7047000000000140000400400F
:1037B00000080040000C004070B504460068016934
:1037C000E26821F44051114301612169A068E26976
:1037D00008436169114301432068C26822F40372FF
:1037E00022F414421143C16020684169A26921F4A6
:1037F0004071114341612068A0F18041B1F58831E9
:103800001CBFA0F18041B1F58A3128D0FEF706FB3C
:10381000E269002319213226B2F5004F214D62687A
:1038200020D0A0FB0101930F9200FCF733FD01466D
:10383000A5FB012040096FF01802424301EB820111
:1038400006EB0111A5FB0121490901F0F00202EB91
:10385000001001F00F0108442168886070BDFEF778
:10386000EDFAD5E7A0FB010192185B41FCF712FDD0
:103870000146A5FB0120420908466FF0180151439B
:1038800000EB810006EBC000A5FB0010130140090E
:1038900000F0F80103EB410100F007000844216843
:1038A000886070BD1F85EB51014800F00FB8000023
:1038B00010050020014800F009B800003425002060
:1038C000014800F003B80000584100202DE9F04104
:1038D000044600680568C668416915F0200F4FF07E
:1038E000000716D04068E28AA168C0B28854E18A15
:1038F000491C8AB2E282E189914298BFE782628BD9
:103900008A4202D2618B491C6183E169002918BF98
:10391000884715F0800F18BF16F0800F17D0A08AC7
:1039200000282FD04FF0010084F82000618A6068E1
:10393000405C21684860608A00F1010080B26082CA
:10394000A189884228BF6782A08A401EA08215F004
:10395000400F14BF16F0400FBDE8F081A08AE0B11F
:10396000618A6068405C21684860608A401C80B25F
:103970006082A189884228BF6782A08A401EA082F7
:10398000BDE8F0812068C16821F08001C160206835
:10399000C16841F04001C160D9E72068C16821F0E9
:1039A0004001C160BDE8F08170B5114C0025214691
:1039B000E288086889880F2A04D2FCF7C3FCE580F6
:1039C000681E70BD02440B4B52F80FCCC3F800C008
:1039D00052F80BCCC3F804C052F807CCC3F808C0A7
:1039E00012F8032C1A73FCF7ADFCE580012070BDC2
:1039F00080000020700300200548044901604FF456
:103A0000807181800021C18070470000700100201A
:103A10008000002001780748C3880268D154C1881B
:103A2000491C89B2C1808288914224BF0021C18093
:103A30007047000080000020FEE7000010B504463B
:103A400000B2002808DB062806DC4BF2885169200A
:103A500000F0FCF8B8B902E06FF0050010BD0B49AA
:103A6000086A012801D020B106E08969142088473E
:103A700002E0896901208847A1B21F2000F0E6F822
:103A8000002808BF10BD6FF0020010BD900000209C
:103A900010B5044600B240F6FF710128AEBF814266
:103AA0006FF0050010BD4BF28851692000F0CEF890
:103AB00098B90B49086A012801D020B106E089694C
:103AC0001420884702E0896901208847A1B20220BA
:103AD00000F0BCF8002808BF10BD6FF0020010BD58
:103AE0009000002010B5044600B2012808DB0D2824
:103AF00006DC4BF28851692000F0A8F8B8B902E062
:103B00006FF0050010BD0B49086A012801D020B1F3
:103B100006E089691420884702E089690120884706
:103B2000A1B2032000F092F8002808BF10BD6FF08A
:103B3000020010BD9000002010B5044600B201281C
:103B400008DB072806DC4BF28851692000F07EF87C
:103B5000B8B902E06FF0050010BD0B49086A0128F2
:103B600001D020B106E089691420884702E0896904
:103B700001208847A1B2042000F068F8002808BF9F
:103B800010BD6FF0020010BD9000002010B54BF288
:103B90008851692000F05AF898B90B49086A012841
:103BA00001D020B106E089691420884702E08969C4
:103BB000012088470121084600F048F8002808BF86
:103BC00010BD6FF0020010BD9000002010B54BF248
:103BD0008851692000F03AF898B90B49086A012821
:103BE00001D020B106E089691420884702E0896984
:103BF000012088470721012000F028F8002808BF8D
:103C000010BD6FF0020010BD9000002010B54BF207
:103C10008851692000F01AF898B90B49086A012800
:103C200001D020B106E089691420884702E0896943
:103C3000012088470021012000F008F8002808BF73
:103C400010BD6FF0020010BD90000020902824BF2E
:103C50006FF0050070472DE9F043424ECBB24FEABA
:103C6000112C3146D6F82090FF274A6883B04FF0D8
:103C7000AA08C5B2B9F1000F1FD00C78B9F1010F35
:103C80002BD0B9F1020F55D0B9F1030F1EBF6FF061
:103C9000050003B0BDE8F083B568002D5CD0C1B26B
:103CA0008DF800306006000E8DF801C002236A46D0
:103CB000A84703B00020BDE8F083002A4CD08DF85F
:103CC00000708DF801808DF802508DF803308DF86A
:103CD00004C0052168469047EBE7E2B306218DF862
:103CE00000408DF80110000A8DF802008DF804C024
:103CF0001D4E8DF803508DF805304FF0FF0C6846CF
:103D0000634606F5807500BF10F8014B491E84EA32
:103D10000C0416F804C08CEA030C2B5DF4D143EAC2
:103D20000C20010A8DF806108DF80700082168465E
:103D30009047BEE7366976B18DF800708DF8018046
:103D40008DF802508DF803308DF804C005226946C5
:103D50002046B047ADE7FFE703B06FF00400BDE8D1
:103D6000F083000090000020947600080FB4054B0B
:103D700010B503A9044A029800F0A8FA10BC5DF837
:103D800014FB0000F94B0008680100200FB4084B39
:103D900010B504A902AA039800F098FA044602A9F3
:103DA000002000F06FFB204610BC5DF814FB000003
:103DB00085440008C9B241EA012141EA014101609C
:103DC0000171704703B401984100009850EAC12086
:103DD00018BF04204A0D18BF40F0010040F2FF72E6
:103DE000B2EB515F08BF40F00200012808BF052078
:103DF00002B070470000000070B52DED020B2DEDF4
:103E00000A8B82B00D98C40F20F00045AE48854261
:103E100048D3AE48854219D30C99C5F31300084323
:103E200009D09DED0C0B02B0BDEC0A8B02B0BDE8D1
:103E3000704000F009BA002C14BF9FEDA50B9DED5A
:103E40000C0B02B0BDEC0A8B02B070BD9FEDA20B53
:103E500053EC102B9DED0C0B51EC100BFCF78AFD75
:103E60000AD2022000F02CFA02B0BDEC0A8B02B09C
:103E7000BDE8704000F0F4B99FED990B53EC102BA6
:103E80009DED0C0B51EC100BFCF75CFD0AD20220EF
:103E900000F016FA02B0BDEC0A8B02B0BDE870402B
:103EA00000F0EEB990489FED92BBA8425CD29248D8
:103EB000854219D29148784400EBC40090ED000B84
:103EC00053EC102B9DED0C0B51EC100BFCF794FCFC
:103ED00041EC1A0B8A48784400EBC40090ED009B3B
:103EE000C4F10100041B36E09FED870B53EC102B4F
:103EF0009DED0C0B51EC100BFCF74DFA41EC100B47
:103F00008348784400EBC40090ED001B51EC100B8B
:103F100053EC112BFCF7CFFBFCF7F4FC0446FCF749
:103F2000E0FC41EC180B9FED7C0B53EC102BFCF7E5
:103F300032FA9DED0C1B53EC112BFCF760FC41ECAD
:103F40001A0B9FED770B51EC180B53EC102BFCF771
:103F500022FA41EC190B51EC1A0B53EC192BFCF71C
:103F60004BFCCDE90C011BE06F48854217D29FED59
:103F7000700B53EC102B9DED0C0B51EC100BFCF760
:103F80009AFB53EC1B2BFCF7F5FC08D29DED0C0BB8
:103F900053EC1B2B51EC100BFCF78DFB6EE0002457
:103FA0009DED0C0B53EC102B51EC100BFCF7F3F9BF
:103FB00041EC180B60480521B0EE480AF0EE680AA3
:103FC000784400F0C5F853EC182B51EC100BFCF7BB
:103FD000E2F99DED0C1B53EC112BFCF710FC41ECAE
:103FE000180B9FED570B5CB353EC182B51EC100BD7
:103FF000FCF702FC9DED0C0B41EC1C0B53EC182B59
:1040000051EC100BFCF7C7F953EC1C2BFCF7FAFB37
:1040100053EC192BFCF7F3FB53EC1A2BFCF7ECFBDE
:1040200053EC1B2BFCF7EBFBCDE900016FF47F7029
:10403000844226DB01EB045001909DED000B00E76C
:1040400053EC102B51EC180BFCF7D6FB9DED0C0B31
:1040500041EC190B53EC182B51EC100BFCF79BF9AE
:1040600053EC192BFCF7CEFB9DED0C1B53EC112BE5
:10407000FCF7C2FB53EC1B2BFCF7C1FB41EC100B14
:10408000DFE608464FF07A5101EB04519FED2E0B0D
:10409000084453EC102B01909DED000B51EC100BDC
:1040A000FCF779F90D4645EC100B044651EC100B6A
:1040B000FFF788FE042808BF00F0E2F845EC104B3B
:1040C000BFE6000000000000422E86400000F07FA6
:1040D0000000000000000000EF39FAFE422E86408A
:1040E00051302DD5104987C0422ED63F0000000028
:1040F000000000000000F03FB2A2F03F563B00007D
:10410000463B000000000000FE822B654715F73F8C
:10411000FA3A0000000000000000E0FE422EE63FF8
:10412000763C7935EF39EA3D0000303E0000000072
:104130009C7500883CE4377E6C3A0000000000006B
:1041400000000000000000400000000000007001BE
:1041500070B504462DED028B4D1E00EBC500B0EE90
:10416000408AF0EE608A90ED000B35F0060017D023
:1041700053EC182B51EC100BFCF70DF941EC100B24
:104180006D1E04EBC50090ED001B51EC100B53ECC1
:10419000112BFCF790FA41EC100B35F00600E7D13B
:1041A000022D36D0042D1CD0062D1CBFBDEC028B79
:1041B00070BD53EC182B51EC100BFCF7ECF894EDA0
:1041C0000A1B53EC112BFCF776FA53EC182BFCF777
:1041D000E2F894ED081B53EC112BFCF76CFA41EC60
:1041E000100B53EC182B51EC100BFCF7D4F894ED9A
:1041F000061B53EC112BFCF75EFA53EC182BFCF763
:10420000CAF894ED040B53EC102BFCF754FA41EC74
:10421000100B53EC182B51EC100BFCF7BCF894ED81
:10422000021B53EC112BFCF746FA53EC182BFCF74E
:10423000B2F894ED001B53EC112BFCF73CFABDECEB
:10424000028B41EC100B70BD10B553EC102B51ECF0
:10425000100BFCF730FA41EC100B10BD0000000011
:104260009FED050B10B553EC102B51EC100BFCF728
:1042700092F841EC100B10BD00000000000000702F
:104280009FED050B10B553EC102B51EC100BFCF708
:1042900082F841EC100B10BD00000000000000107F
:1042A00002E008C8121F08C1002AFAD170477047FF
:1042B000002001E001C1121F002AFBD1704700005D
:1042C00001490860704700006C0100202DE9FF4F94
:1042D0008BB09A460F460546002606E025280BD0EF
:1042E00052460D9990476D1C761C28780028F5D110
:1042F0000FB03046BDE8F08F0024A046012260498F
:1043000000E0044315F8013F203B02FA03F00842A5
:10431000F7D128782E2817D115F8010F44F004049E
:104320002A280ED06FF02F022878A0F13001092939
:104330000AD808EB880102EB410100EB01086D1C73
:10434000F2E757F8048B6D1C287869283ED006DC0C
:104350000028CDD063280BD0642804D136E0732820
:1043600010D075284BD052460D999047761C85E0A9
:1043700017F8040B8DF8000000208DF80100E946C5
:10438000012003E057F8049B4FF0FF3061074FF026
:10439000000401D40AE0641C44450DDA8442FADBCF
:1043A00019F804100029F6D106E0641C8442FCDBF5
:1043B00019F804100029F8D1264404E019F8010B7B
:1043C00052460D999047641EF8D257E001CF4FF046
:1043D0000A0B002802DA40422D2102E0210504D513
:1043E0002B218DF82410012103E0E10705D02021C5
:1043F000F7E70DF1200908910CE00021F9E701CF62
:104400004FF00A0BF9E75946FCF78CF801F130023E
:1044100009F8012D0028F6D1ADEB090000F1200BC1
:10442000600701D44FF00108D84502DDA8EB0B006E
:1044300000E000208046002406E009A85246005D06
:104440000D999047641C761C08988442F5DB04E0C3
:10445000302052460D999047761CB8F10001A8F122
:104460000108F5DC05E019F8010B52460D9990475B
:10447000761CBBF10001ABF1010BF4DC6D1C34E7E1
:10448000092801000A68531C0B6010707047000077
:104490002DE9F04192B000260D960E9605965848EB
:1044A0000C960196039604960F9602960896099626
:1044B0000A960B9601684FF47A7541F48071016099
:1044C000006800F4807010904E48016841F00101CE
:1044D00001600068022700F0010010900320CDE980
:1044E000067006A94848FEF76DFB48480068C0F30F
:1044F0000220C0F10701042988BF0421021D072AF8
:1045000034BF0020C01E4FF0010808FA01F1491E17
:1045100001F0030101FA00F03D49000181F80004B7
:104520004FF0E0214FF48020C1F80001394C0C9687
:104530000D960CA920460E96FEF7F4FA0196029607
:10454000CDE9036701A920460596FEF709FBA0689F
:1045500040F48060A0604FF440300F900FA92E48C7
:10456000FEF7CCFA4FF4407191FAA1F16015B1FA5F
:1045700081F1C84004EB8000C16A21F01F0141F0C5
:104580000101C1624FF0007090FAA0F1B1FA81F11F
:10459000C84004EB8000C3684FF0F87292FAA2FCA6
:1045A0004FF44011BCFA8CFC21FA0CFC072606FAE9
:1045B0000CFC92FAA2F2B2FA82F2D14023EA0C0386
:1045C00008FA01F11943C160606840F020006060A2
:1045D000A06840F00100A060A06810F0010F02D0B8
:1045E0000EA008E035B1681E85B2A06810F0010F7A
:1045F000F8D0F5E70EA0FFF7B9FB12B0BDE8F081E7
:104600004438024030380240000002400CED00E027
:1046100012E000E00020014000230140414443201B
:10462000656E61626C652073756363656564000027
:1046300041444320656E61626C65206661696C650A
:10464000640000002DE9F04188B000243548029450
:10465000039404940594016841F004010160016829
:1046600001F004010691016841F001010160016857
:1046700001F001010691016841F00201016000684A
:104680004FF4005600F0020006900125264FCDE9B8
:10469000006569463846FEF795FABE61CDE90054DB
:1046A000224F694638460494FEF78CFA0420CDE97F
:1046B0000004DFF87C80694640460494FEF782FAE5
:1046C0006802CDE90004694604954046FEF77AFA8F
:1046D00010200326CDE90005CDE902646946049463
:1046E0003846FEF76FFA4DF27A50CDE90005CDE974
:1046F0000264694604944046FEF764FA4FF40140B0
:10470000CDE90005CDE90264694604943846FEF718
:1047100059FA4FF00140B86107490648086008B0EF
:10472000BDE8F0813038024000080240000002403D
:104730000004024000007AD5180402402DE9F04F31
:10474000A94897B0A749016000F12401416001F533
:10475000805181604FF480518181C181002707829F
:104760004782C782078347838782C76180F82070AA
:104770009F489E494FF4806B016000F12401416025
:1047800000F224418160A0F80CB04FF4C051C18107
:1047900007824782C782078347838782C76180F881
:1047A000207095489349016000F12401416001F5B2
:1047B000C05181604FF4C0518181A0F80EB00782D2
:1047C0004782C7820783478387828C4CC76180F802
:1047D0002070206840F001002060206800F0010097
:1047E0000590206840F0010020602068844D00F0B2
:1047F00001000590286840F010002860286807260E
:1048000000F01000059060154FF002084FF001090C
:104810004FF0030A04968DE8010769467948FDF7D1
:1048200075F869467748CDF800B00496FDF76EF844
:10483000002204212520FDF7DFF92520FDF7CCF922
:104840004FF4E131CDE90617664A0C200592CDE917
:104850000A070897099705A80C97FDF764FE00283A
:1048600018BFFDF750F85F48016821F04001016072
:10487000016821F020010160C16841F02001C160A0
:104880002068002740F001002060206800F001004F
:104890000590206840F001002060206800F00100D1
:1048A00005905948016841F4003101600068CDF875
:1048B000089000F4003005900420CDE900080320A2
:1048C000CDE90306DFF83CB169465846FDF71EF80E
:1048D0004FF0080A69465846CDF800A00496FDF747
:1048E00015F8002202212620FDF786F92620FDF783
:1048F00073F94FF4E121CDE906173C4E0C200596E3
:10490000CDE90A070897099705A80C97FDF70BFE54
:10491000002818BFFCF7F7FF306820F04000306037
:10492000306820F0200030603848016841F02001F4
:104930000160206840F001002060206800F0010064
:104940000590206840F001002060206800F0010020
:104950000590286840F0200028602868694600F02B
:10496000200005904FF40060CDE900080320CDE958
:104970000290CDF810A05846FCF7C8FF4FF48050C5
:1049800000906946CDF810A05846FCF7BFFF002202
:1049900001214720FDF730F94720FDF71DF94FF4BD
:1049A000E120CDE90607134C0C210594CDE90A1747
:1049B0000897099705A80C97FDF7B5FD002818BFC3
:1049C000FCF7A1FF206820F040002060206820F064
:1049D000200020600E48016841F02001016017B0FE
:1049E000BDE8F08F00100140100500200044004099
:1049F0003425002000140140584100203038024086
:104A00004438024000000240403802400C4400405C
:104A10000C1401400021002808BF094809D00128D2
:104A200008BF084805D0022808BF074801D0FCF796
:104A30006ABF002808BF7047C18201834183704765
:104A40001005002034250020584100202DE9F041B8
:104A500000250E46002808BF184C0AD0012808BFC0
:104A6000174C06D0022808BF164C02D0FCF74BFFAB
:104A700020E0FCB100F0CEFF678B00F0EBFF002FD1
:104A800004BF2846BDE8F081218BA068405C3070EF
:104A900000F0C0FF208B401C80B22083E189884257
:104AA00028BF2583608B401E608300F0D3FF012068
:104AB000BDE8F0810020BDE8F08100001005002075
:104AC00034250020584100202DE9F8434FF000081C
:104AD000002808BF284C0BD0012808BF274C07D05E
:104AE000022808BF264C03D0BDE8F843FCF70BBFF3
:104AF000002C08BFBDE8F8830F4615004FF00006F4
:104B000024D000BF00F086FFA08AADF8000000F0BE
:104B1000A1FFA089BDF8001088421ED9B85D228A85
:104B20006168885400F076FF208A401C80B22082A1
:104B3000A189814298BFA4F81080A08A401CA0825D
:104B400000F088FF701C86B2AE42DBD32068C168DB
:104B500041F08001C160BDE8F883BDF800108842D3
:104B6000D0D12068C16811F0800FCBD1C16841F06D
:104B70008001C160C6E70000100500203425002038
:104B80005841002000B5002291B0002808BF0E480F
:104B900008D0012808BF0D4804D002280EBF0C48D9
:104BA00011B000BD0C230090CDE9011203920492D4
:104BB000CDE9053268460792FDF7B5FC002818BF1D
:104BC000FCF7A1FE11B000BD001001400044004000
:104BD0000014014009683AB1C1700A0A82700A0CD7
:104BE0004270090E0170704701700A0A42700A0C87
:104BF0008270090EC17070472DE9F04383B0002523
:104C000080468DF8040001AF01261F4C4FEA0509CC
:104C100000F000FFA08AADF8000000F01BFFA189A2
:104C2000BDF80000814220D9785D228A61688854ED
:104C300000F0F0FE208A401C80B22082A1898142CF
:104C400098BFA4F81090A08A401CA08200F002FF38
:104C5000681C85B2B542DBD32068C16841F0800191
:104C6000C16003B04046BDE8F083BDF8000081425A
:104C7000CED12068C16811F0800FC9D1C16841F060
:104C80008001C160C4E7000010050020FCF732FF7E
:104C9000FEF7D4FCFFF7D6FCFFF750FDFFF7F8FB5B
:104CA00000F02AF8FEF786F800F03AF8FEE710B5B3
:104CB000EFF30581002918BF6FF0050404D100242B
:104CC000002818BF00F0CEFF204610BD10B54FF0F1
:104CD0000001EFF305826AB948B18268C0682AB161
:104CE000202807D3104601F076FA02E010B901F04F
:104CF00064FA0146084610BDEFF3058000281CBF8A
:104D00006FF0050070470548016800291CBF4FF08F
:104D1000FF307047012101600020704738010020FA
:104D200010B5EFF3058000281CBF6FF0050010BD23
:104D30000848016801291CBF4FF0FF3010BD002159
:104D4000054A82F8141D0221016001F07FF900205C
:104D500010BD0000380100200BE000E070B50446F3
:104D60004FF00005EFF30580002822D1002C14BF7E
:104D70006068002010F0010F14BF0126002610F01B
:104D8000080F16D1CCB1A168E068A1B1502810D3AA
:104D9000002E14BF0420012001F0EFFB050008D015
:104DA000211C18BF216800F0FBFE002E18BF45F043
:104DB0000105284670BD0028FBD1002E14BF042039
:104DC000012001F0C8FBE9E7F8B5144603460E469A
:104DD0004FF00005EFF30580002843D1002B41D0B0
:104DE0009E423FD8002C08BF002009D0A0680028B0
:104DF000E06804D0502828BF012001D232E020BB57
:104E0000012B05D010B31846A26801F084FB20E006
:104E100040B103200090002211460120A36801F058
:104E200007FC04E003220021012001F0BAFB050089
:104E300018D086B100231A46194601F055FC012806
:104E400009D0284600F0C0FE00250BE0184601F00E
:104E500045FB050006D0002C14BF21680021284620
:104E600000F09EFE2846F8BDF0B585B04FEA01037C
:104E70004FF00006EFF30581039600293FD100288B
:104E80003DD0802418214FF0000C002A2DD0156849
:104E9000002D18BFAC4695691DB129466D1E382DF1
:104EA00003D2157915F0010F02D005B00020F0BD36
:104EB0005569002D18BFAC08976887B1D668602E79
:104EC0001DD31269002A18BF002D18D0CDE9001299
:104ED00002972246614601F09BFF03900FE0D568E0
:104EE000002D04BF1269002A09D103AACDE90012DE
:104EF000A2B2614601F02AFF012818BF0396039869
:104F000005B0F0BD2DE9F041144C0F460546E668AA
:104F10002068001D00F0B2FCB5F1FF3F07D137B1AA
:104F20002068BDE8F041011D0D4800F066BD206815
:104F30003544B5424560206800F1040104D2206C7C
:104F4000BDE8F04100F03CBDE06B00F039FDA06A27
:104F5000A84288BFA562BDE8F0810000E000002003
:104F6000B07900202DE9F041064600F053FD2F4DA9
:104F7000A868401CA86028682D4F10B1686920B34C
:104F800029E02E60A868012808BF002423D100BFB3
:104F900004EB840007EB800000F004FD641C382C57
:104FA000F6D3244800F0FEFC234800F0FBFC234825
:104FB00000F0F8FC224800F0F5FC224800F0F2FC7A
:104FC0001C48E8631430286405E02868F16AC06A68
:104FD000884298BF2E60686A401C68627064F06AFC
:104FE000296988421FD800BF00EB800007EB8000D2
:104FF000311D00F002FD00F02DFD6869002808BF9A
:10500000BDE8F0812868F16AC06A884228BFBDE81F
:10501000F0814FF080500C490860BFF34F8FBFF311
:105020006F8FBDE8F0812861DEE70000E00000201E
:1050300000750020607900207479002088790020B4
:105040009C790020B079002004ED00E01F4E204C38
:10505000DFF88090A6F29C474FF08058606850B30C
:1050600000F0D8FCF068C568281D00F007FCA068B7
:10507000401EA0606068401E606000F0EBFC95F888
:105080005D0058B1012810D0022811D0102080F303
:105090001188BFF34F8FBFF36F8FFEE7286B00F0CF
:1050A000EFFC284600F0ECFC02E0284600F0E8FCAB
:1050B00060680028D4D138680128CFD9C9F80080A9
:1050C000BFF34F8FBFF36F8FC8E700009C790020BC
:1050D000E000002004ED00E02DE9F04F8346086871
:1050E00085B090460E464FF0000900287BD07068CE
:1050F00006F1080A40687060504504BF416871605D
:105100007068C0680390706840687060504504BF64
:10511000416871607068C76809EBC9000BEB8005D6
:10512000002F06BF3D4804683C4604F13400C5E941
:105130000040E06A2861206BE861606CA860E06C68
:105140006861606DA861B8F1050F16D03348016839
:105150008C4204BF002028733FD085F80C80B8F142
:10516000030F3AD1016B491C0163A06A00281CBFE0
:105170000220287301F0FEFF2FE0F4B127480068F9
:10518000844208BF002027D000F044FC60690090F2
:105190002248C16B0291006C019000F05BFC029907
:1051A000009888421CBF0199884214D001461C48CF
:1051B000814219D1A06A70B907E0102080F31188EC
:1051C000BFF34F8FBFF36F8FFEE794F85C000128A9
:1051D00018BF032000D102202873206B0021027821
:1051E000A52A0FD108E015E008460E49884216BFEF
:1051F000002804200120EFE710F8012F01F1010140
:10520000A52AF9D088082884039809F10109874262
:105210007FF479AF05B04846BDE8F08FE00000208C
:10522000B07900209C7900202DE9F04385B08046BC
:1052300001F06CFE2F4C0746A068874228BF002073
:105240003AD2E0680068002831D0E068C068C568DC
:105250000668281D00F012FB296A2846884795F841
:10526000280010F0040F1ED0A8693044B04206D9BF
:105270002D616860291DE06800F0A2FB13E00020AA
:10528000814605B3216861B3CDE90006029501F0BE
:105290002FFE02284FF000031DD00022694620682F
:1052A00001F022FAE8B1E06800680028CDD1D4E925
:1052B0000310C4E903010120C8F80000A76005B08D
:1052C0003846BDE8F083102080F31188BFF34F8F7C
:1052D000BFF36F8FFEE74A466946206801F004FA83
:1052E000E0E7102080F31188BFF34F8FBFF36F8F7B
:1052F000FEE700002401002009484068B0F1FF3FAC
:105300004FF0100080F3118804D0BFF34F8FBFF32C
:105310006F8FFEE7BFF34F8FBFF36F8FFEE7000085
:105320005C010020DFF8F4B2BD4C8EB04FF0805A23
:10533000E0680168002907BF012500260025C06834
:1053400018BF066800F0CAFE05A8FFF76DFF074604
:10535000059800283ED001F00DFF002206A9206824
:1053600001F03AFB0028E3D00698002807DADDE9CF
:105370000801079A904706980028C0F24681089EC7
:10538000706900281CBF301D00F078FA01F0BEFDE6
:105390008046A068804574D2E0680068002871D01B
:1053A000E068C068C5680768281D00F067FA296AC8
:1053B0002846884795F8280010F0040F77D0A86990
:1053C0003844B8425FD92D616860291DE06800F05B
:1053D000F7FA6CE0ADB12069006800280CBF012528
:1053E0000025F11B2A46206800F016FC01F0C2FEE1
:1053F0000028B2D1CBF800A0BFF34F8FBFF36F8F5F
:10540000ABE7BE42EDD801F0B5FEE068C068C56804
:10541000281D00F033FA95F8280010F0040F04BF9F
:1054200020F0010085F828001FD0A8692D613044C4
:105430006860B84207D8A869B91B81423CBF291DE2
:10544000206909D205E0BE4201D9864204D9291D4E
:10545000E06800F0B5FA08E000200346014600903D
:105460003246284601F0BAFF18B1296A2846884713
:1054700073E7102080F31188BFF34F8FBFF36F8F56
:10548000FEE71DE018E0002081462DB3216889B3B6
:10549000CDE90A070C9501F02BFD02284FF000031F
:1054A00022D000220AA9206801F01EF910B3E0689A
:1054B000006800287FF474AFD4E90310C4E9030145
:1054C000C4F8088006980A2853D2DFE800F01C1CB4
:1054D0001C6C73921C1C6C73102080F31188BFF33A
:1054E0004F8FBFF36F8FFEE74A460AA9206801F08D
:1054F000FBF8DBE7FFE7102080F31188BFF34F8F45
:10550000BFF36F8FFEE796F8280040F0010086F8A1
:1055100028000799B069366108447060404505D895
:10552000B069A8EB0101814204D254E041455DD944
:1055300081425BD8316A3046884796F8280010F0DF
:10554000040F62D00799B269002011440546A6B144
:10555000226802B30496CDE9020101F0C9FC0228D9
:105560004FF0000311D0002202A9206801F0BCF81E
:1055700088B14AE000F024FA47E0102080F3118857
:10558000BFF34F8FBFF36F8FFEE72A4602A9206853
:1055900001F0AAF8ECE7102080F31188BFF34F8FD9
:1055A000BFF36F8FFEE796F8280020F0010086F821
:1055B00028002AE096F8280040F0010086F828002C
:1055C0000798B06150B140443661706080450DD39A
:1055D000B069002819D9311D2069CBE7102080F36C
:1055E0001188BFF34F8FBFF36F8FFEE7311DE06867
:1055F000C0E796F8280010F0020F0DBF304620F0EB
:10560000010086F8280000F03BFA002206A9206875
:1056100001F0E2F900287FF4A7AE89E604ED00E08E
:105620002401002070B5044600F0F4F994F94550C7
:10563000002D0DDD606A58B104F1240001F060FD19
:10564000002818BF00F014FC681E45B2002DF1DCE4
:105650004FF0FF3684F8456000F0FCF900F0DAF90D
:1056600094F94450002D0DDD206958B104F110006B
:1056700001F046FD002818BF00F0FAFB681E45B295
:10568000002DF1DC84F84460BDE8704000F0E2B920
:105690002DE9F05F0646002400F020FDDFF874C11C
:1056A00000250CF11802DCF8000008BB5A494FF441
:1056B000705011F0070F06D0C81D20F007015648A2
:1056C000081AC0F5705008440838C2E9001520F0E7
:1056D0000700CCF800004560431A0560C1E90003EB
:1056E000CCF808304FF00040CCF80430CCF814006F
:1056F000DCF814703E427CD1002E7AD006F108030B
:1057000013F0070F0FD003F00700C0F108000344A7
:1057100013F0070F07D0102080F31188BFF34F8FCD
:10572000BFF36F8FFEE7002B63D0DCF80460B34259
:105730009CBF3A4912685CD85068984205D21068FC
:1057400000281CBF11460246F6D1DCF80080424515
:105750004FD0086800F10804106808605068C01A4B
:10576000102833D9D11811F0070F07D0102080F37B
:105770001188BFF34F8FBFF36F8FFEE74860536010
:10578000264B1868884238BF0346FAD3D3F80490F2
:1057900009EB030A8A4503D149684944596019460F
:1057A000D1F8049009EB010A824518BF08600AD1BC
:1057B000404508BFC1F8008005D0406848444860B3
:1057C0001868006808608B4218BF19605168701A29
:1057D000CCF80400DCF80830834288BFCCF808001D
:1057E00041EA0700C2E90050DCF80C00401CCCF88C
:1057F0000C0001F0BFFC14F0070F04BF2046BDE809
:10580000F09F102080F31188BFF34F8FBFF36F8F8D
:10581000FEE700003C0100209C8100205401002094
:105820000449086818B10868026D521C02650868CE
:1058300070470000E00000204FF0807C40F804CC6E
:1058400021F0010140F8081C054B40F80C3C40F8E1
:10585000202C6FF0020240F8242C443870470000DE
:10586000F9520008020A0A7048707047020E0A7066
:10587000020C4A70020A8A70C8707047D0E901327F
:1058800001699A60D0E901235A604A68824204BFE4
:1058900082684A60002202610868401E0860086849
:1058A000704700002DE9F047DFF8A080054600248E
:1058B000D8F8300017463826401CC8F83000D8F811
:1058C0000800814228BFDFF8889039D3761E06EBA6
:1058D000860009EB800104EBC40005EB8000012287
:1058E000FFF7FAFB0444002EF0D104EBC40005EBF3
:1058F00080000222D8F83C10FFF7EEFB044404EBD2
:10590000C40005EB80000222D8F84010FFF7E4FB4A
:10591000044404EBC40005EB800004220D49FFF7AA
:10592000DBFB044404EBC40005EB800003220A49BE
:10593000FFF7D2FB04441FB1084908684968386082
:1059400001F018FC2046BDE8F0870000E0000020D0
:10595000007500209C790020B0790020780000209C
:10596000044908680A688069D26A0968C2F1380285
:105970008A617047E0000020034B036003F1600080
:105980000860802010607047DC7A0020044B0360C0
:1059900003F1600008604FF48070106070470000F1
:1059A0003C7D002000F108014FF0FF32C0E90112F8
:1059B000C1600161002101607047002101617047F1
:1059C00010B40B68B3F1FF3F0CBF026900F108028D
:1059D00008D000BFD2F804C0DCF800409C4298BF59
:1059E0006246F7D953684B6099608A6051600861DC
:1059F0000168491C016010BC704742684A609368A6
:105A00008B6093685960916008610168491C01606E
:105A100070470000102080F31188BFF34F8FBFF351
:105A20006F8F0A494868401C4860012818BF7047BA
:105A30000748006810F0FF0F08BF7047102080F380
:105A40001188BFF34F8FBFF36F8FFEE75C0100201B
:105A500004ED00E00948416839B1491E416018BFB2
:105A60007047002080F311887047102080F3118860
:105A7000BFF34F8FBFF36F8FFEE700005C01002084
:105A8000002808BF704770B5254EA0F1080550F8F2
:105A9000040C7169084207D1102080F31188BFF30C
:105AA0004F8FBFF36F8FFEE72A683AB1102080F363
:105AB0001188BFF34F8FBFF36F8FFEE78843686095
:105AC00000F00CFB68687168164C08447060206830
:105AD000A84238BF0446FAD361680A19AA4203D122
