:020000040800F2
:1000000000C6002071020008D72F00085125000803
:10001000D52F000861110008053C00080000000011
:10002000000000000000000000000000B101000816
:1000300009170008000000000D020008D53600086E
:100040008B0200088B0200088B0200088B0200085C
:100050008B0200088B0200088B0200088B0200084C
:100060008B0200088B0200088B0200088B0200083C
:100070008B0200088B0200088B0200088B0200082C
:100080008B0200088B020008E9090008000000004C
:100090000000000000000000000000008B020008CB
:1000A0008B020008913700088B0200088B020008C1
:1000B0008B0200088B0200088B0200088B020008EC
:1000C0008B0200088B0200088B0200088B020008DC
:1000D0008B020008413900084D390008000000007B
:1000E0008B0200088B0200088B0200080000000051
:1000F0000000000000000000000000008B0200086B
:10010000000000008B0200088B0200088B02000830
:1001100000000000000000000000000000000000DF
:100120008B0200088B0200088B0200088B0200087B
:100130008B0200080000000000000000000000002A
:100140000000000000000000000000008B0200081A
:100150008B0200088B0200088B0200085939000846
:100160008B0200088B020008000000000000000065
:10017000000000000000000000000000000000007F
:10018000000000008B0200080000000000000000DA
:100190008B0200088B020008DFF810D000F0D4FBBF
:1001A00000480047F94E0008AFF3008000C6002069
:1001B0002C4B19680868B0E8F04F80F30988BFF34A
:1001C0006F8F4FF0000080F311887047000000002F
:1001D00008480068006880F308884FF0000080F34A
:1001E000148862B661B6BFF34F8FBFF36F8F00DF25
:1001F00000BF00BF08ED00E0DFF80C00016841F42B
:1002000070010160704700BF88ED00E0EFF30980E6
:10021000BFF36F8F134B1A681EF0100F08BF20ED4D
:10022000108A20E9F04F106009B44FF0100080F3FD
:100230001188BFF34F8FBFF36F8F05F011FF4FF0A1
:10024000000080F3118809BC19680868B0E8F04F15
:100250001EF0100F08BFB0EC108A80F30988BFF3BE
:100260006F8F7047C0000020EFF3058070470000DB
:100270000648804706480047FEE7FEE7FEE7FEE740
:10028000FEE7FEE7FEE7FEE7FEE7FEE78137000850
:10029000990100082DE9F05F0546002092469B4633
:1002A00088460646814640241BE02846414647468C
:1002B000224600F02FF953465A46C01A914110D3F6
:1002C00011461846224600F016F92D1A67EB010870
:1002D0004F4622460120002100F00DF917EB0009DE
:1002E0004E41201EA4F10104DFDC484631462A4677
:1002F0004346BDE8F09F40EA01039B0703D009E0B5
:1003000008C9121F08C0042AFAD203E011F8013B01
:1003100000F8013B521EF9D27047D2B201E000F85A
:10032000012B491EFBD270470022F6E710B5134699
:100330000A4604461946FFF7F0FF204610BD421C4E
:1003400010F8011B0029FBD1801A704710B500225C
:1003500000E0521C835C8C5CA34201D1002BF8D1DD
:10036000D8B2E1B2401A10BD2DE9FE4F81EA030474
:1003700004F0004421F0004100944FF0000B23F002
:10038000004350EA01045ED052EA03045BD0C3F399
:100390000A54C1F30A552C44A4F2F3340194A0FB8F
:1003A0000254C1F3130141F48011C3F3130343F466
:1003B000801301FB024400FB034E840A970A44EABF
:1003C000815447EA8357A4FB076802958D0A05FB11
:1003D00007854FEA932C04FB0C542705029D4FEA36
:1003E000065847EA1637B5EB08056EEB070C870E83
:1003F000920E47EA811742EA8312A7FB0201B6EB8D
:100400000B0164EB00042B0D43EA0C335E1844EB44
:100410001C50DA465146E7FB0201C5F313044FEACC
:100420000B3343EA14534FEA0432019C43EA0603B8
:10043000A4F10C040294009CCDE900B400F0C0F8D3
:1004400003B0BDE8F08F00200146F9E70EB540F299
:10045000334102910021CDE900110A460B4600F01C
:10046000AFF803B000BDC1F30A5210B5C1F31301D8
:1004700040F2FF3341F480119A4201DA002010BDAE
:1004800040F233439A42A2F2334203DC524200F07C
:1004900041F810BD904010BD00F0004230F0004027
:1004A0000AD0C10D01F56071C0F3160042EA015196
:1004B000C20840071143704700200146704701F011
:1004C000004330B421F0004150EA010206D00A0D89
:1004D000A2F56072C1F31301002A02DC30BC0020D7
:1004E0007047440F44EAC104C100E01830BC00EB7F
:1004F000C25000F01FB8202A04DB203A00FA02F1B3
:10050000002070479140C2F1200320FA03F3194301
:1005100090407047202A04DB203A21FA02F00021A3
:10052000704721FA02F3D040C2F120029140084303
:10053000194670470029A8BF7047401C490008BFF2
:1005400020F00100704710B4B0FA80FC00FA0CF003
:1005500050EA010404BF10BC704749B1CCF120043B
:1005600021FA04F411FA0CF118BF012121430843C8
:10057000A3EB0C01CB1D4FEA00614FEA102042BFF4
:10058000002010BC704700EBC35010440029A4BFEA
:1005900010BC7047401C490008BF20F0010010BC8F
:1005A000704710B5141E73F1000408DA401C41F1C5
:1005B000000192185B411A4301D120F0010010BDE7
:1005C0002DE9F04D92469B4611B1B1FA81F202E05D
:1005D000B0FA80F220329046FFF78DFF04460F46B6
:1005E00040EA0A0041EA0B0153465A46084313D039
:1005F000114653EA010019D0C8F140025046FFF7F6
:1006000089FF05460E46504659464246FFF773FF9E
:10061000084305D0012004E020463946BDE8F08DAE
:100620000020054346EAE0762C4337430A986305E9
:10063000E40AA0EB08000022FD0A44EA47540A300D
:1006400002D500200146E9E7010510196941DDE9FD
:10065000084500196941BDE8F04DA2E72DE9FE4FBC
:10066000804681EA0300C00F0C46009021F0004153
:1006700023F00045B8EB0200A94105D240462146CF
:1006800090461C460B46024623F00040104347D0DC
:10069000270DC7F30A00C3F30A510290401A0190D4
:1006A00040286BDAC3F3130040F4801B0098924695
:1006B00020B10023D2EB030A63EB0B0B01985946E0
:1006C000C0F140025046FFF716FF06460D46504661
:1006D0005946019A00F04AF910EB080061410024E4
:1006E00087EA115284EAE7731A4340D0009A62B352
:1006F000019A012A4FEA075215DC001B61EB020147
:100700004FF0004202EA0752CDE90042001C41F5D9
:10071000801132462B46FFF753FF03B0BDE8F08F40
:1007200040462146F9E7001B61EB0201001C41F540
:10073000801300185B412018A2F5001747EB030156
:1007400040EAD570B6196D4111E06D084FEA3606E2
:1007500045EAC0754FEA0752001B61EB0201001C1D
:1007600041F5801149084FEA3000001951413246E5
:100770002B4603B0BDE8F04FFFF713BF00980122EE
:1007800040000023D0EB020263EBE07300982146A7
:100790004FEAE074B8EB000061EB0401E9E783F095
:1007A00000435BE781F0004158E72DE9F04D81EA15
:1007B000030404F0004B21F0004514464FF0000AFA
:1007C00023F0004150EA050220D054EA01021DD076
:1007D000C5F30A570246C5F31303C1F31300C1F36F
:1007E0000A5640F4801543F48013A7EB0608101B4B
:1007F000D64608F2FD3873EB050002D308F1010874
:1008000001E092185B41B8F1000F03DA00200146C5
:10081000BDE8F08D00204FF48011064684460EE0BE
:10082000171B73EB050705D3121B63EB0503064388
:100830004CEA010C49084FEA300092185B4150EA3B
:100840000107EDD152EA030012D082EA040083EAE4
:100850000501084305D0101BAB4106D2012200233D
:1008600006E000224FF0004302E06FF00102531057
:100870001AEB06004CEB085110EB0A0041EB0B01A0
:10088000BDE8F04DFFF78DBE0EB5C10F80EAE070F8
:100890000844CA07002140F233438DE80E000A469F
:1008A0000B46FFF78DFE03B000BD70B5C1F30A52D1
:1008B00001F000450024C1F3130140F2FF3341F47D
:1008C00080119A4201DA002070BD40F233439A420F
:1008D000A2F2334203DC5242FFF71CFE00E09040DC
:1008E0002C43F1D0404270BD30B5041E71F10004BC
:1008F00004DB4FF00044404264EB0101141E73F12D
:10090000000405DB1C464FF00043524263EB040336
:100910008B4208BF824230BD30B5041E71F1000425
:1009200004DB4FF00044404264EB0101141E73F1FC
:10093000000405DB1C464FF00043524263EB040306
:10094000994208BF904230BD064C074D06E0E06872
:1009500040F0010394E8070098471034AC42F6D306
:10096000FFF71EFCF476000814770008202A06DB47
:10097000CB17203A41FA02F043EAE07306E041FA6D
:1009800002F3D040C2F1200291400843194670475B
:1009900070B58C1810F8015B15F0070301D110F841
:1009A000013B2A1106D110F8012B03E010F8016B6E
:1009B00001F8016B5B1EF9D12B0705D40023521EF1
:1009C0000DD401F8013BFAE710F8013BCB1A921C59
:1009D00003E013F8015B01F8015B521EF9D5A14257
:1009E000D8D3002070BD000004484168C1F3401115
:1009F000002902D06FF00201016070470020014021
:100A00002DE9F0470025DFF84480114C4FF40079C0
:100A1000EF1E42464946204602F0D2F9A06840F057
:100A20008040A0606068C0F340100028FAD02760C2
:100A3000A06820F48060A060E06C16FA80F66D1C5F
:100A4000EDB2102DE5D33009BDE8F087010030028A
:100A5000002001400A4C4FF0FF35606B0028FCD0AD
:100A6000294605F067FF0128F7D1064800F068FD28
:100A7000411C03490D224E31022004F003FAECE739
:100A8000000000204803002008B503F09BF8104C3C
:100A90004FF4C87512E0684603F0A2F89DF8000014
:100AA0000A280BD103F05CF801280DD1606B58B116
:100AB00000231A46194605F091FD05E0694600201D
:100AC00004F0B9F90028E6D1284604F026FAF5E743
:100AD000000000202DED028B94B001F025FF01F005
:100AE00045FD01F0D5FD6D4C4FF0FF369FED6C8A52
:100AF000DFF8B0916C4D0DF10C0A002300961A46F8
:100B00000221686C05F068FB8007F6D504E000BFA1
:100B10009DF8480003F03AF912A9012004F08BF97E
:100B20000028F5D1B9F8000000287DD002F000F8C7
:100B3000002007AA0AAB0DAF0DF1400CB3EE000A7E
:100B4000DFED5A0A9FED5A1ADFED5A1A04EB400105
:100B5000B1F9688002EE108A02EB8008B8EEC22A72
:100B600022EE082A22EE002A22EE202A88ED002A10
:100B7000B1F96E8002EE108A03EB8008B8EEC22A4B
:100B800022EE082A22EE012A88ED002AB1F97A80A5
:100B900002EE108A07EB8008B8EEC22A22EE082A7D
:100BA00022EE212A88ED002AB1F874102CF81010DA
:100BB000401C0328CADBB4F98A00B4F88C1040EA60
:100BC0000143B4F98E00B4F8901040EA01420020CD
:100BD0004FEA0A0104EB4007B7F9A27000EE107A61
:100BE00001EB8007401CB8EEC00A042820EE080A7A
:100BF00087ED000AEEDBB9F800704846FF0703D026
:100C0000078827F0010707800788BF0703D50788F3
:100C100027F00207078007887F0703D5078827F09A
:100C200004070780078800E026E03F0703D5078810
:100C300027F0080707800788FF0603D5078827F0F5
:100C4000100707800788BF0603D5078827F020070D
:100C5000078007887F0603D5078827F040070780AD
:100C600000270780CDE90032CDF808A063460DAA21
:100C70000AA907A801F070FE01F06CFC012809D157
:100C800001F0EAFE401C05D000231A461946E86B25
:100C900005F0A4FC062004F040F92EE7786400205B
:100CA000000000389600002000000020CDCC1C4140
:100CB0000000FA440000344308B50F4D4FF0FF37F1
:100CC00002263946E86B05F035FE0128F9D10023EC
:100CD00000961A460321286C05F07EFA8007F0D5AD
:100CE0000024204601F06AFC01F04EFD641CE4B2D1
:100CF0000A2CF6D3E5E7000000000020084D4FF471
:100D000000544FF47A76696924EA010001F4005135
:100D100040EA0140A861304604F0FFF8F3E7000024
:100D2000000802401CB502F063F902F0EDFA02F08F
:100D3000F3F91F4D4FF0FF3605F1480400230096EC
:100D40001A460121686C05F047FAC007F6D02078F2
:100D500068B1012822D0022805D0032803D004F06E
:100D6000D7FE04F0F5FEA08804F0D7F8E6E702F01D
:100D7000EBFA00F043F90F48017C491C017402F0C2
:100D80002BF90128EFD102F0A9FA401CEBD0002387
:100D90001A461946A86B05F021FCE4E7A1786078B3
:100DA00001AA02F017FC01A802F050FCDBE70000EA
:100DB000000000200C5C002008B5114D4FF0FF37FB
:100DC00002263946A86B05F0B5FD0128F9D10023AC
:100DD00000961A460321286C05F0FEF98007F0D52D
:100DE000084802F0BDFA0128EBD10024204602F0A9
:100DF0006DF902F0A7F9641CE4B20A2CF6D3E0E71F
:100E000000000020886B00204FF4FA7004F085F891
:100E100001F0AAFA012830D022A000BF03F0B6F9F1
:100E2000264F274C4FF400764FF47A780021206C3F
:100E300005F048F905463146384602F080F805F0DD
:100E4000010188422AD1142004F067F8314638465F
:100E500002F075F84FF0010188B1206C05F032F90D
:100E60000221206C05F02EF90121606C05F02AF9B1
:100E70000221606C05F026F910E012A0CEE7606C4C
:100E800005F064F90221606C05F060F90121206C25
:100E900005F05CF90221206C05F058F9404604F099
:100EA0003CF8C3E753505020696E6974206661694D
:100EB0006C65642121200D0A00000000000402403E
:100EC0000000002053505020696E697420737563D0
:100ED0006365656465642121200D0A0008B502F090
:100EE00017FB174C4FF4C875E06AC0B1642105F0D8
:100EF00021FD012807D012E0684602F017FB9DF89B
:100F000000000A280FD06946022003F094FF002851
:100F1000F2D100231A461946E06A05F05FFB284625
:100F200003F0FBFFE0E702F0C1FA0128F1D1606BAA
:100F30000028EED000231A46194605F04FFBE8E7DB
:100F40000000002010B5214A0021214804F0B6F825
:100F5000204C1E4A0021606024321F4804F0AEF885
:100F60001A4AA060483200211C4804F0A7F8174A2A
:100F7000E0606C3200211A4804F0A0F8134A2061A6
:100F800090320021174804F099F8104A6061B43299
:100F90000021154804F092F80C4AA061D8320021D3
:100FA000124804F08BF8094AE061FC320021104835
:100FB00004F084F820620F4A00210F4804F07EF804
:100FC0006062BDE81040002004F0CCBED86F00087D
:100FD000FD0C000800000020890A0008DD0E000852
:100FE000550A0008250D0008D50A0008B90D0008AB
:100FF000B90C0008F8700008090E00082DE9F0414E
:101000000024DFF87C80264608EB440718F81450CB
:101010002BE0204602F004FA284600F045FAC820EA
:1010200000BF401E10F0FF00FAD1FFF7E9FC80B2CC
:10103000FFF70CFA9FED131B53EC112BFFF794F9FC
:101040009FED121B53EC112BFFF78EF9FFF70BFAF4
:1010500010495A230A7C12FB03F202EB460249684C
:10106000761C6D1C8852F6B2EDB27878A842D0D2C8
:10107000641CE4B20A2CC7D30120BDE8F081000053
:101080009C7100086666666666664A3F000000005E
:1010900000408F400C5C00202DE9F8430124DFF86C
:1010A00068801A4D002700BF58F82410012003F073
:1010B000FDFE02266F800321342002F0BDFD642076
:1010C00003F02BFF04E000BF9DF8000002F05EFE7D
:1010D0006946012003F0AFFE0028F5D1688830B1E1
:1010E00058F824100AA003F051F8BDE8F883761EE2
:1010F000E0D1641C0A2CD7DB0BA003F047F810A04A
:1011000003F044F8F1E70000C473000894000020E5
:10111000256420626175642066696E642073656E63
:10112000736F720D0A0D0A0063616E206E6F74207A
:1011300066696E642073656E736F720D0A0000003D
:10114000706C6561736520636865636B20796F758A
:101150007220636F6E6E656374696F6E0D0A0000B6
:10116000FEE7000070B501000B484FF001044FF09E
:10117000FF3500684FF0020104D004F0E7FF40B9EA
:1011800006A003E004F09EFF18B90FA002F0FEFFD6
:101190002C46204670BD0000400000204661696C6E
:1011A000656420746F20656E61626C6520626C7589
:1011B00065746F6F7468207472616E736D69737398
:1011C000696F6E200A0D00004661696C65642074C9
:1011D0006F2064697361626C6520626C7565746F01
:1011E0006F7468207472616E736D697373696F6E6A
:1011F000200A0D0010B5012402F0FAFE00B1A41E71
:10120000204610BD70B50124A51E20B1012804D0D0
:10121000022804D007E0062002E0022000E00020BF
:1012200002F03EFE00B12C46204670BD70B5012490
:10123000A51E30B101280BD0022810D0032815D0EC
:1012400018E0022002F0AAFEA0B94FF4165116E0F1
:10125000062002F0A3FE68B94FF4E1310FE0082048
:1012600002F09CFE30B94FF4E12108E0092002F0C1
:1012700095FE10B12C46204670BD4FF4612101202F
:1012800003F014FEF7E770B50124A51E20B1012874
:1012900004D0022804D008E0022003E01E2001E070
:1012A00040F25E2002F026FE00B12C46204670BDC2
:1012B00070B50124A51E10B1012803D005E002F08D
:1012C000D3FE01E002F0B2FE00B12C46204670BD14
:1012D00070B50124A51E20B1012804D0022804D035
:1012E00007E0062002E0092000E00B2002F02CFEBF
:1012F00000B12C46204670BD70B501000B484FF080
:1013000001044FF0FF3500684FF0020104D004F0F3
:101310001DFF40B906A003E004F0D4FE18B90DA0EB
:1013200002F034FF2C46204670BD0000440000202F
:101330004661696C656420746F20656E61626C65DE
:1013400020494D552073616D706C696E67200A0DE0
:10135000000000004661696C656420746F20646958
:101360007361626C6520494D552073616D706C69C5
:101370006E67200A0D00000001F016BF01F086BF65
:1013800070B501000A484FF001044FF0FF350068C6
:10139000214604D004F0DAFE40B906A003E004F0D0
:1013A00091FE18B90DA002F0F1FE2C46204670BD4A
:1013B000440000204661696C656420746F20656E8E
:1013C00061626C6520706C616E7461722073616D16
:1013D000706C696E67200A0D000000004661696C40
:1013E000656420746F2064697361626C6520706C41
:1013F000616E7461722073616D706C696E67200A32
:101400000D0000002DE9F04100F00F07060901244E
:101410003946304601F044FEA51E012801D009A03E
:1014200006E03946304601F0F5FD012804D00BA056
:1014300002F0ACFE2C4602E00FA002F0A7FE204610
:10144000BDE8F08153656C656374696F6E20696EE9
:10145000707574206572726F720000004368616E6F
:101460006765207468652073656C656374696F6E69
:10147000206661696C6564004368616E676520740D
:1014800068652073656C656374696F6E207375633E
:101490006365656400000000884203DB904201DC64
:1014A000012070470020704770B50E4D044600F0D3
:1014B00001020821284601F049FDC4F340024FF41F
:1014C0000041094801F042FDC4F380020121284691
:1014D00001F03CFD2846BDE870400122202101F0CA
:1014E00035BD0000000402400000024028B1012880
:1014F00005D0022805D000207047034870470348F4
:10150000704703487047000000100140004400404D
:101510000014014010B538B1012807D0022807D0C7
:1015200000F0F5F8002010BD024810BD024810BDC3
:10153000024810BD580300207C230020A03F00205B
:1015400070B504460020451E215C712908D1401C5D
:1015500040B20528F8DB00202118097A682904D058
:1015600032A002F013FE284670BD401C40B2052890
:10157000F2DB33A002F00AFE6279A179E079102A49
:1015800004D0202A0AD0302A26D005E0102903D121
:10159000BDE87040FFF7E6BD002070BD10290BD0FC
:1015A00011290DD012290FD0132911D0142901D0DF
:1015B0001529F1D1012070BDBDE87040FFF7E0BEF4
:1015C000BDE87040FFF7D8BEBDE87040FFF71ABF16
:1015D000BDE87040FFF7D2BE10290FD0112911D0FD
:1015E000122913D0132915D0142917D0152919D071
:1015F0001629D1D1BDE87040FFF75ABEBDE8704052
:10160000FFF77ABEBDE87040FFF73DBEBDE8704011
:10161000FFF75EBEBDE87040FFF708BEBDE8704052
:10162000FFF7F0BDBDE87040FFF7E4BD436F6D6D9F
:10163000616E64206572726F72200A0D00000000F6
:10164000526563656976656420636F6D6D616E6474
:10165000200A0D002DE9F04700270425DFF8A080BF
:10166000DFF8A09050383E4601F1060A102845D216
:10167000DFE800F01108130C1517191B1D1F21447A
:101680004444442334240325402702E03D24032519
:101690002E27012613E0302411E037242BE03A24D2
:1016A00029E041240BE0452409E0492407E04D24CA
:1016B00005E0512403E0552401E0D8F82440032A32
:1016C00019D04DB16A0009EB4400FEF714FED8F8BA
:1016D0001420294620469047002E0FD0720009EBB7
:1016E00047005146FEF707FE31463846D8F8142029
:1016F000BDE8F047104703250026E3E7BDE8F08783
:101700006C00002078640020704703F006BC72B6BD
:10171000FEE700002DE9F84FDFF8B8A10022012410
:101720000AF1040B03254FF00F090BF1040E00BF63
:101730000B6804FA02F63340B34273D10F7907F015
:101740000307012F01D0022F16D187684FEA420804
:1017500005FA08FC27EA0C07D1F80CC00CFA08FCC3
:101760004CEA070CC0F808C04768B7430E79C6F3C7
:10177000001696403E4346600E79F643B6070DD0FC
:10178000C768560005FA06FC27EA0C07D1F808C01E
:101790000CFA06FC4CEA070CC0F80CC00E7906F0F7
:1017A0000306022E10D1D60800EB8608D8F8206078
:1017B00057074FEAD76C09FA0CF7BE430F6907FACF
:1017C0000CF73743C8F8207006684FEA420C05FA58
:1017D0000CF7BE430F7907F0030707FA0CF73743FE
:1017E00007604E6816F4403F6DD03B4E376847F4B3
:1017F00080473760366822F0030706F4804600967B
:10180000364E07EB060CDCF8086897073F0F09FA1D
:1018100007F826EA0806DFF8C880404503D14FF0F4
:1018200000081EE04FE0DFF8BC80404502D14FF0D9
:10183000010816E0DFF8B080404502D14FF0020801
:101840000FE0DFF8A880404502D14FF0030808E020
:10185000DFF89C80404502D14FF0040801E04FF0D2
:10186000070808FA07F848EA0608CCF80888DAF802
:1018700000605746D1F804C09E435FEACC3C00D5D7
:101880001E433E60DBF800605F46D1F804C09E4313
:101890005FEA8C3C00D51E433E60DEF80060774670
:1018A000D1F804C09E435FEACC2C00D51E433E60B5
:1018B000084F0C373E68D1F804C09E435FEA8C2C79
:1018C00000D51E433E60521C102AFFF431AFBDE824
:1018D000F88F0000003C01404438024000300140D5
:1018E000000002400004024000080240000C0240D8
:1018F000001002400148806870470000B0000020DE
:10190000024881680278114481607047B00000206D
:101910000B4810B5016841F400710160016841F4A1
:1019200080610160016841F480710160032000F072
:101930008DF80F2000F006F800F03EF8002010BDF2
:10194000003C024010B5014688B00022192000F08A
:101950005DF8192000F04CF813480024016841F0AC
:1019600001010160006805A900F0010006906846C9
:1019700000F018F900F046F90C490D4AB0FBF1F1FE
:101980000C48491E026040F2E732C0E90324C0E976
:10199000011400F031FB10B1012008B010BD054862
:1019A00000F058FBF9E700004438024040420F00C5
:1019B00000000140C45B00200C4882B0016841F483
:1019C00080410160006800F4804000900748001FDB
:1019D000016841F0805101600068002200F08050F1
:1019E00000900F21901E02B000F010B84438024061
:1019F000002809DB00F01F0201219140400980000E
:101A000000F1E020C0F8001170470000F0B40E4B68
:101A10001B680C46C3F30223C3F10705042D00D94C
:101A20000425191D072901D2002300E0DB1E012631
:101A300006FA05F1491E214099409E40761E164047
:101A40003143F0BC02F0F4BB0CED00E0064900F0BD
:101A5000070208684FF6FF03184040EA0220034AD5
:101A600010430860704700000CED00E00000FA052C
:101A70002DE9F0470E46050065D0DFF81481D8F84F
:101A80000000F7B200F00700B04207D288F80070FB
:101A9000D8F8000000F00700B04254D128683D4C4F
:101AA000810712D5400703D5206840F4E05020603C
:101AB0002878000703D5206840F460402060206843
:101AC000A96820F0F000084320602878C0072DD0D6
:101AD000304968680839012812D0022813D0032839
:101AE00011D00968890700292DDA216821F0030146
:101AF00001432160FFF7FEFE814641F2883A0EE085
:101B000009688903EFE709688901ECE7FFF7F2FE4E
:101B1000A0EB0901514502D90320BDE8F0872068F8
:101B2000696800F00C00B0EB810FEFD1D8F800101D
:101B3000404601F00701B14207D90770006800F084
:101B40000700B04201D00120E7E72878400705D51B
:101B50002068E96820F4E0500843206028780007F6
:101B600006D52068296920F4604040EAC100206061
:101B700000F058F82168084AC1F30311515CC840CD
:101B80000649086006480068FFF7DCFE0020C4E74D
:101B9000003C02400838024040750008BC000020AC
:101BA000B40000200F2202600C4A136803F0030304
:101BB0004360136803F0F0038360136803F4E05399
:101BC000C36012684FF4E05303EAD2020261044892
:101BD000006800F007000860704700000838024005
:101BE000003C02400448054900680968044AC1F302
:101BF0008221515CC8407047BC0000200838024078
:101C0000507500080448054900680968044AC1F392
:101C10004231515CC8407047BC0000200838024087
:101C200050750008154810B5006810F00C021448F3
:101C300013D01449042A0FD0082A0ED10F4C241FA8
:101C40002268236802F03F025B0207D52068C0F3D8
:101C50008810A0FB010106E0084610BD2168C1F311
:101C60008811A1FB00010023FEF714FB2168C1F3DA
:101C70000141491C4900B0FBF1F010BD0838024099
:101C80000024F40040787D012DE9F84F04006ED067
:101C90002078DFF84C93C007A9F104054AD009F178
:101CA00004000168C1F38101012908D00068C0F374
:101CB000810002280AD1D9F80000400206D5286820
:101CC000800337D560680028E1D033E06068B0F564
:101CD000803F10D0B0F5A02F286810D020F48030BD
:101CE0002860286820F4802028606068A8B1FFF789
:101CF00001FE06460DE0286840F48030F4E740F429
:101D000080202860F7E700BFFFF7F4FD801B642800
:101D100073D828688003F7D50CE0FFF7EBFD064683
:101D200005E000BFFFF7E6FD801B6428F0D82868B7
:101D30008003F7D42078DFF8AC8280074FF0000AE8
:101D40003ED5A748001D016811F00C0F08D00068AF
:101D5000C0F3810002280BD1D9F80000400207D45B
:101D60002868800716D5E068012800D112E033E129
:101D7000E068B8B10120C8F80000FFF7BBFD0646D7
:101D800005E000BFFFF7B6FD801B0228C0D8286819
:101D90008007F7D52868216920F0F80040EAC100E3
:101DA00028600DE0C8F800A0FFF7A4FD064604E097
:101DB000FFF7A0FD801B02281FD828688007F7D4F2
:101DC0002078000722D5864F87486169703771B146
:101DD00001210160FFF78EFD064604E0FFF78AFD52
:101DE000801B022809D838688007F7D50EE0C0F8B4
:101DF00000A0FFF77FFD064605E082E0FFF77AFDD1
:101E0000801B02287DD838688007F7D420784007E7
:101E100068D5DFF8CCB100270BF13C0BDBF80000F4
:101E2000C0000BD4DBF8001041F08051CBF800105B
:101E3000DBF80000012700F0805000906B4E306806
:101E4000C00510D4306840F480703060FFF752FD58
:101E5000009005E0FFF74EFD0099401A022850D887
:101E60003068C005F6D55E4EA0686C3601280FD0EC
:101E70000528306810D020F001003060306820F074
:101E800004003060A068B8B1FFF734FD00900FE0A7
:101E9000306840F00100F4E740F004003060F7E7FC
:101EA000FFF728FD0099411A41F28830814266D837
:101EB00030688007F4D50EE0FFF71CFD009007E0C6
:101EC000FFF718FD0099411A41F28830814256D837
:101ED00030688007F4D42FB1DBF8001021F0805176
:101EE000CBF80010A069C8B33D49091D0968C1F3CA
:101EF000810102294AD00228504607D0C8F8600064
:101F000000E03CE0FFF7F6FC04463BE04746C8F83B
:101F10006000FFF7EFFC064605E000BFFFF7EAFCB4
:101F2000801B02282BD828688001F7D4D4E9070148
:101F30000843A16A2E4A490802EB0141626A41EA5C
:101F40008211084394F82C1040EA0161C9F800108E
:101F500001203866FFF7CEFC044606E03EE000BFF5
:101F6000FFF7C8FC001B022809D828688001F7D5B4
:101F700034E000BFFFF7BEFC001B022802D903209B
:101F8000BDE8F88F28688001F4D427E00128F7D055
:101F9000D9F80000E26900F4800191421CD1226A64
:101FA00000F03F01914217D147F6C071626A0140CB
:101FB000B1EB821F10D1A26A4FF0FF3300F4403121
:101FC00003EB5202B1EB024F06D194F82C1000F053
:101FD0007060B0EB016F01D00120D1E70020CFE7A6
:101FE0000438024000004742800E47420070004023
:101FF0000000FFFF7047704710B5040003D094F84D
:102000003D0010B107E0012010BD002084F83C0025
:10201000204600F01EF8022084F83D00211D2068B3
:1020200001F0BCFB012084F8460084F83E0084F8EF
:102030003F0084F8400084F8410084F8420084F8AE
:10204000430084F8440084F8450084F83D000020F3
:1020500010BD704790F83D10012901D00120704754
:10206000022180F83D100168CA6842F00102CA608E
:1020700000680E4988420ED0B0F1804F0BD00C4959
:10208000884208D00B49884205D00B49884202D0CB
:102090000A49884204D1816801F00701062903D06A
:1020A000016841F00101016000207047000001401B
:1020B0000004004000080040000C004000400140C7
:1020C000704770B50446006801694FF00005C943C8
:1020D000890715D4C168C943890711D4E91E016174
:1020E00001202077206880698007204602D0FFF712
:1020F000E7FF04E000F098F8204600F096F8257716
:1021000020680169C943490717D4C168C943490711
:1021100013D46FF0040101610220207720688069E8
:1021200010F4407F204602D0FFF7CAFF04E000F021
:102130007BF8204600F079F8257720680169C943CB
:10214000090716D4C168C943090712D46FF0080102
:102150000161042020772068C0698007204602D0F2
:10216000FFF7AEFF04E000F05FF8204600F05DF8F6
:10217000257720680169C943C90617D4C168C943D6
:10218000C90613D46FF01001016108202077206880
:10219000C06910F4407F204602D0FFF791FF04E0B1
:1021A00000F042F8204600F040F8257720680169E9
:1021B000C943C90708D1C168C943C90704D1891EE9
:1021C0000161204600F032F820680169C943090620
:1021D00009D4C168C943090605D46FF080010161C3
:1021E0002046FFF707FF20680169C943490609D463
:1021F000C168C943490605D46FF04001016120461A
:1022000000F01EF820680169C94389060BD4C16833
:10221000C943890607D46FF0200101612046BDE85B
:102220007040FFF7E8BE70BD704770470068034913
:10223000884201D1FFF764BB7047000000000140F5
:10224000704770B5040004D094F83D00002510B12B
:1022500006E0012070BD84F83C50204600F022F8D2
:10226000242084F83D002068C16821F40051C16039
:10227000204601F0DFFA2068016921F490410161F4
:102280002068416921F02A0141612068C16841F458
:102290000051C1602564202084F83D0084F83E0090
:1022A000002070BD704700002DE9F05F21484FF01D
:1022B000FF368246FEF743F8DFF878901E4F09F1AB
:1022C00020091FFA80FB0024A9F13408022002F043
:1022D000A8FD40211848FEF727F858F824100220DE
:1022E00002F0E4FD5A465146022002F0CBFD514671
:1022F00012A001F04BFF642002F00FFE002501E068
:102300006D1CEDB27919022002F095FD0028F7D17D
:1023100009490FA001F03AFF49460748FEF716F8B1
:1023200030B1641CE4B2052CD0D33046BDE8F09F38
:102330000126FAE700740008E6740020436F6D6D13
:10234000616E642073656E643A2573200A0D000087
:10235000436F6D6D616E6420726563656976653A81
:102360002573200A0D0000002DE9F05F5B4A4FF055
:10237000FF35106800287DD06421914604F0DAFA18
:1023800001280AD056A001F001FF00231A46194681
:10239000D9F8000004F022F99DE0FFF785FF01283D
:1023A000F3D1574C2046FDF7CAFF86B204F120074F
:1023B000022002F036FD40215248FDF7B5FF3246BB
:1023C0002146022002F05EFD21464FA001F0DEFE14
:1023D0004FF44878404602F0A0FD0026494C01E049
:1023E000761CF6B2A119022002F025FD0028F7D1D3
:1023F00044494AA001F0CAFE39464248FDF7A6FF0B
:1024000020B94FF4E121022002F050FD3C4E40364D
:102410003046FDF794FF87B206F1200A022002F051
:1024200000FD40213748FDF77FFF3A463146022044
:1024300002F028FD314634A001F0A8FEC346404614
:1024400002F06BFD002601E0761CF6B2A119022015
:1024500002F0F1FC0028F7D12A4930A001F096FEE5
:1024600051462848FDF772FF254EC0363046FDF72D
:1024700066FF00E02CE087B206F12008022002F09F
:10248000D0FC40211F48FDF74FFF3A46314602205D
:1024900002F0F8FC31461CA001F078FE584602F02C
:1024A0003CFD002601E0761CF6B2A119022002F0E4
:1024B000C2FC0028F7D1134918A001F067FE41467D
:1024C0001048FDF743FF00287FF45FAF01255CE76C
:1024D00018A001F05BFE2846BDE8F09F2C0000200C
:1024E0004170706C69636174696F6E20666F7220F1
:1024F0006D75746578206661696C6564200D0A00ED
:1025000040740008E6740020436F6D6D616E6420B6
:1025100073656E643A2573200D0A0000436F6D6D7C
:10252000616E6420726563656976653A2573200D76
:102530000A000000546865206D75746578206E6F20
:10254000742063726561746564200D0A00000000E8
:10255000FEE70000044890F840000A2801D301205B
:102560007047002070470000CC6500201249A1F19F
:1025700044004160783101607831C1607831816018
:1025800078314161783101617831C1613C318161DB
:102590003C314162283101622831C16228318162B7
:1025A00028314163A0310163A031C16328318163C7
:1025B000002180F840107047106600202DE9F05F80
:1025C000304E05463049B06B50F8250003F030FA24
:1025D00005EB45004FEA4009DFF8ACB0DFF8ACA0EE
:1025E00005EB450000240BF10C0B4FEA800800BFFF
:1025F000306808EB840739180AEB8400002202F0E7
:1026000061FCB0680022391820480C3000EB8400CF
:1026100002F058FC3069002239181C48183000EBD1
:10262000840002F04FFCB16909EB4400085A0BEB3F
:10263000440103F0F9F9641CE4B2032CD8D3306AE6
:10264000114950F82500091D03F0F2F9B06A0E494E
:1026500050F82500083103F0EBF90C4F00242D0150
:1026600017F12407316B05EB8400014407EB84006C
:10267000002202F027FC641CE4B2042CF2D3BDE873
:10268000F09F0000CC6500209C00002044730020D7
:1026900010B500203B4B71211954401CC0B20528D5
:1026A000FAD350205871002268209C18521CD2B2D4
:1026B000A075052AF9D3334B00221B339954521CC1
:1026C000D2B2052AFAD351225A7100229C18521C08
:1026D000D2B2A075052AF9D32A4B00223633995479
:1026E000521CD2B2052AFAD352225A7100229C18E7
:1026F000521CD2B2A075052AF9D3224B00225133C5
:102700009954521CD2B2052AFAD353225A7100228C
:102710009C18521CD2B22074052AF9D3194B0022FE
:1027200066339954521CD2B2052AFAD354225A71F4
:1027300000229C18521CD2B2A073052AF9D3114B67
:10274000002279339954521CD2B2052AFAD3552269
:102750005A7100229C18521CD2B2A073052AF9D3D8
:10276000084B00228C339954521CD2B2052AFAD35A
:102770005621597100215A18491CC9B29076052971
:10278000F9D310BD3B74002070B5644D2868002853
:102790007ED0282104F0CEF8012879D16049614C1F
:1027A00000200B18225C401CC0B29A710428F8D398
:1027B0005B4A0020F73A0E18135C401CC0B2B3729B
:1027C0000C28F8D31B225649022002F05BFB544927
:1027D00000201B31225C0B18401CC0B29A710428E7
:1027E000F8D34F4A0020EB3A0E18135C401CC0B2DD
:1027F000B3720C28F8D34A491B221B31022002F085
:1028000041FB474900203631225C0B18401CC0B206
:102810009A710428F8D3424A0020DF3A0E18135C5C
:10282000401CC0B2B3720C28F8D33D491B2236318C
:10283000022002F027FB3A4900205131225C0B189C
:10284000401CC0B29A710428F8D3364A00200C32DA
:102850000E18135C401CC0B2B3720628F8D330497E
:1028600015225131022002F00DFB2D490020663166
:10287000225C0B18401CC0B29A710428F8D3294A74
:102880000020121D0E18135C401CB372C0B200E091
:1028900043E00428F6D3224913226631022002F0D5
:1028A000F1FA1F4900207931225C0B18401CC0B29C
:1028B0009A710428F8D31B4A002008320E18135CC2
:1028C000401CC0B2B3720428F8D3154913227931E1
:1028D000022002F0D7FA124900208C31225C0B183A
:1028E000401CC0B29A710428F8D30D4A0020D33A94
:1028F0000C18135C401CC0B2A3721028F8D308490E
:102900001F228C31022002F0BDFA2868BDE8704019
:1029100000231A46194603F061BE70BD3000002046
:102920003B7400209C00002010B55021002001F0D5
:1029300075F9064801F0AAFA054801F01DFA0548A4
:1029400001F062F9BDE81040FEF7A6BBC9350008EA
:10295000513500080B1700082DE9F0473D4DDDE922
:1029600009A62F680024DDF82090002F6ED0AF68F4
:10297000EFB32F69DFB3AF69CFB300BF00EB8407BC
:10298000D5F800C097ED000A95F8407007EB4707AF
:10299000BF0007EB8407674487ED000A01EB84075B
:1029A000D5F808C097ED000A95F8407007EB470787
:1029B000BF0007EB8407674487ED000A02EB84073A
:1029C000D5F810C097ED000A95F8407007EB47075F
:1029D000BF0007EB8407674487ED000A95F840C005
:1029E00033F814700CEB4C0C4FEA4C0C00E02DE06B
:1029F0000CEB440CD5F81880641CE4B228F80C7079
:102A0000032CBBD395F84020296A5FF0000041F801
:102A1000229095F84020A96A41F822A006EB800197
:102A20002A6B91ED000A95F84010090101EB800135
:102A30001144401CC0B281ED000A0428EED315F801
:102A4000400F401C28700120BDE8F0874FF0FF3098
:102A5000FAE70000CC6500202DE9FF4F334A4FF024
:102A6000FF30D2F804C0BCF1000F5BD0D2F8008078
:102A7000B8F1000F56D0D768002F53D091680029C5
:102A800050D056698A46002E4CD01169002949D091
:102A9000D4698946002C45D09569002D42D0516AF1
:102AA00000293FD0136A002B3CD093460391D26A91
:102AB000002A37D0DBF82810002933D0CDE90021D7
:102AC000DBF83420002A2DD0DBF83010002929D083
:102AD00096460291DBF83C20002A23D0DBF8381020
:102AE00000291FD058469346C0F804A0C0F814909F
:102AF000C0F80C80C5614362019AC262029AC0F8B4
:102B000008C00760066184614263C1630399016282
:102B10000099C0F830E0C0F838B08162002180F838
:102B20004010012004B0BDE8F08F0000CC6500200B
:102B300010B5FEF7DFFE0349CA6B91F8401042F86A
:102B4000210010BDCC6500202DE9F04F6D4C87B001
:102B5000206840F001002060206800F0010005902E
:102B6000206840F0010020602068664E00F00100FF
:102B700014360590306840F0100030603068072748
:102B800000F01000059060154FF002084FF00109A9
:102B90004FF0030A04978DE8010769465A48FEF78B
:102BA000B9FD20150090694604975748FEF7B2FD1D
:102BB000002204212520FEF729FF2520FEF718FF1B
:102BC000524D4FF4E12B0C2300225946284602F0C7
:102BD00014F9286820F040002860286820F02000C0
:102BE0002860E86840F02000E860206840F00100BC
:102BF0002060206800F001000590206840F001008E
:102C00002060206800F001000590301F016841F449
:102C1000003101600068049700F400300590042042
:102C20008DE8010769463848FEF774FD08256946B6
:102C3000354804970095FEF76DFD002202212620FD
:102C4000FEF7E4FE2620FEF7D3FE314F0C230022D0
:102C50004FF4E131384602F0D0F8386820F04000F7
:102C60003860386820F02000386029480C3001684E
:102C700041F020010160206840F0010020602068E0
:102C800000F001000590206840F0010020602068FD
:102C900000F001000590306840F02000306030689E
:102CA000049500F020000590E0148DE801076946C6
:102CB0001548FEF72FFDA0140090694604951248B0
:102CC000FEF728FD002201214720FEF79FFE472046
:102CD000FEF78EFE0F4C0C2300225946204602F0D0
:102CE0008CF8206820F040002060206820F0200050
:102CF000206008480C30016841F02001016007B0F5
:102D0000BDE8F08F30380240000002400010014062
:102D10000044004000140140074B024600209B681D
:102D200013F0010F01D0012070470968536823F4A4
:102D300040330B43536070470020014030B5836837
:102D4000002213F0010F02D00122104630BD8C6822
:102D50000B6823434468054D2C402343436083683C
:102D6000496823F400630B438360EEE7FFFEFFFC3A
:102D700030B54B688468002214F0010F02D00122A4
:102D8000104630BD002B436823F4684301D08C68A3
:102D900023434360D1E9033423438468074D2C4027
:102DA0000D6805F070652C43234383604968C36A4E
:102DB00023F470030B43C362E2E70000FDFCFFC095
:102DC00010B54FF4407494FAA4F401F44073B4FACB
:102DD00084F4E34000EB8300C36A01F01F011F2469
:102DE0008C4002F01F02A3438A401343C36210BD0C
:102DF000044908B50A6802430A6009680140009165
:102E000008BD000030380240F0B50A680F2692FA7B
:102E1000A2F2B2FA82F303248AE001279F4015EA66
:102E200007027DD04D68012D01D0022D1BD18D6888
:102E3000876892FAA2FCBCFA8CFC4FEA4C0C04FAAC
:102E40000CFC27EA0C0792FAA2FCBCFA8CFC4FEAB5
:102E50004C0C05FA0CF52F438760CD684768554345
:102E600097432F4347600F69D0F80CC092FAA2F540
:102E7000B5FA85F54FEA450E04FA0EF52CEA050C75
:102E800092FAA2F5B5FA85F56D00AF404CEA070C51
:102E9000C0F80CC04D68022D33D192FAA2F5B5FAF4
:102EA00085F5082D15D2D1F814C0056A92FAA2F75B
:102EB000B7FA87F7BF0006FA07F7BD4392FAA2F701
:102EC000B7FA87F7BF000CFA07FC45EA0C05056264
:102ED00017E0D1F814E0476A150A95FAA5FCBCFA88
:102EE0008CFC4FEA8C0C06FA0CFC95FAA5F5B5FAA9
:102EF00085F5AD0027EA0C070EFA05FE47EA0E0736
:102F000047624D68076892FAA2FCBCFA8CFC4FEA53
:102F10004C0C04FA0CFE27EA0E0792FAA2F200E02B
:102F200005E0B2FA82F2520095402F4307605B1C25
:102F30000A681546DA407FF470AF0020F0BD0069E2
:102F4000814301D000207047012070470AB18161A0
:102F500070470904FBE7000010B51A4802F02EF88C
:102F6000194CA0621748103002F028F8E0621548AA
:102F7000203002F023F8134A206330320021012070
:102F800002F050F80F4A606340320021012002F045
:102F900049F80C4AA06350320021012002F042F8A7
:102FA000E0630848603001F0C5FF206405487030D8
:102FB00001F0C0FF6064054A0021054802F07EF878
:102FC000206010BD1C71000800000020B46F0008D4
:102FD000450F0008FEE7FEE70448007C0A2801D3FD
:102FE000012070474FF0FF30704700000C5C00205C
:102FF0000749A1F11400416000F56671016000F21B
:103000001C71C1602831816000210174704700008B
:10301000205C00202DE9F041104E07460124306865
:103020008846A51EB8B1C82103F084FC012805D04C
:103030000BA000BF01F0AAF82C4609E010480023BD
:103040001A46477080F802801946306803F0C6FAC5
:103050002046BDE8F0810BA0ECE70000280000202E
:103060004170706C69636174696F6E20666F722065
:103070006D75746578206661696C6564200A0D0061
:1030800048000020546865206D75746578206E6F67
:10309000742063726561746564200A0D000000008D
:1030A00010B54FF0FF330A2809D2074A12F8104032
:1030B0008C4204D802EB40004078884201D2184686
:1030C00010BD012010BD00009C71000870B50546C0
:1030D0000E480F49806850F8250002F0A9FC0D4900
:1030E000C5EB051000EB4000002401EB800501F565
:1030F000E16600BF05EB840106EB8400002201F0CD
:10310000E1FE641CE4B22D2CF4D370BD0C5C0020F5
:1031100098000020886B00200020094971220A5481
:10312000401CC0B20528FAD3402048710020682214
:103130000B18401CC0B283F8BE200528F8D3704796
:103140007873002070B5154C2068002825D0282100
:1031500003F0F0FB012820D1114A124900200D187C
:10316000135C401C80B2AB710428F8D30D4A0020D8
:10317000E83A0D18135C401C80B2AB72B428F8D347
:10318000C3220849022001F07DFE2068BDE870409E
:1031900000231A46194603F021BA70BD3000002002
:1031A0009800002078730020F0B5184F04460125E0
:1031B000386889B0AE1E20B1C82103F0BBFB0128DE
:1031C00003D0354609B02846F0BD114801780329DF
:1031D00013D8047034B1012C06D0022C06D0032C75
:1031E00006D00BE00BA104E00FA102E015A100E066
:1031F0001CA1684600F0DAFF00E0354600231A46BD
:103200001946386803F0EAF9DCE7000028000020DE
:103210004800002041727261792053616D706C69C1
:103220006E676D6F6465000053696E676C65706FE3
:10323000696E742053616D706C696E676D6F646543
:1032400000000000496E737472756374696F6E7369
:103250002041727261792053616D706C696E676D87
:103260006F646500496E737472756374696F6E7311
:103270002053696E676C65706F696E742053616D61
:10328000706C696E676D6F64650000002DE9F04138
:103290000F4E074601243068A51E20B1C82103F057
:1032A00049FB012803D02C462046BDE8F08109489F
:1032B00081880A2904D8084931F81710818000E074
:1032C0002C4600231A461946306803F087F9EBE7CD
:1032D0002800002048000020B0710008094810B5FF
:1032E00042685AB1016849B1D0E90243C0E90021FE
:1032F000C0E9023400210174012010BD4FF0FF30FD
:1033000010BD00000C5C002010B50C4800210C4CD6
:103310000170417081700A218180002220212046A5
:10332000FFF714FE002210212046FFF70FFE0022B7
:10333000A115BDE810400348FFF708BE4800002073
:10334000000402400000024010B5FEF7D3FA034922
:10335000CA68097C42F8210010BD00000C5C002006
:103360002DE9F041264E05462DED088B3068E8B377
:103370009FED248A9FED24AA9FED24BADFED248AD5
:10338000DFED24BA9FED249B0024F7EE00AA4FF452
:10339000E177306830F8140000EE100AF8EE400AC9
:1033A00080EE880AC0EE0A0A70EEEA0A80EE8B0A06
:1033B000F0EE680A50EE080A80EEAB0A20EE400AF2
:1033C00010EE100AFDF768F841EC100B00F040FF1A
:1033D00053EC192B51EC100BFCF7C6FFFDF76FF8FF
:1033E00045F82400641CA4B2BC4200E005E0D0D340
:1033F0000120BDEC088BBDE8F0814FF0FF30F8E70D
:103400000C5C002000007A44295C0F3F00E09245EC
:10341000DB8A2D3F4BC8873E000000C0CC80834034
:103420002DE9F0411F4D204FAE150446052818D256
:1034300004F0010202212846FFF788FDC4F3400290
:1034400029152846FFF782FDC4F38002A9142846F7
:10345000FFF77CFD012210212846FFF777FD0022AF
:103460001AE0441F04F001024FF480412846FFF7A0
:103470006DFDC4F340024FF400412846FFF766FD9E
:10348000C4F3800240212846FFF760FD002210218E
:103490002846FFF75BFD012231463846BDE8F04182
:1034A000FFF754BD000402400000024070B50E4D0D
:1034B000E8880F2804D200F01FF84FF0FF3070BDED
:1034C0000A4E0024E98828680144A4F10E00095C32
:1034D000315507A000F05AFE641CA4B20D2CF1D3A4
:1034E00000F00AF8012070BD6400002048030020AD
:1034F000253032582000000010B5044CA188206807
:10350000FCF712FF0020E08010BD000064000020E6
:103510000548044901604FF4807181800021C18019
:10352000704700004802002064000020017807482E
:10353000C3880268D154C188491C89B2C18082887D
:10354000914201D30021C180704700006400002037
:1035500010B500231B4A1DE03F2822D006DC362888
:103560000ED0392810D03C2806D116E046281CD0B1
:1035700048281ED0542820D0548844F0800406E007
:10358000548844F0010402E0548844F0020454805A
:10359000401C5B1C8B42DFD310BD548844F00804F0
:1035A000F5E7548844F00404F1E7548844F010042B
:1035B000EDE7548844F02004E9E7548844F04004DF
:1035C000E5E70000940000208AB20146012001F0E6
:1035D00059BC000070B50D4614004FF0FF3107D004
:1035E0000A2805D8144A02EB40025278AA4201D2B6
:1035F000084670BDFFF714FF2846FDF755FFC820A9
:1036000000BF401E10F0FF00FAD1FDF7F9F980B2BB
:10361000FCF71CFF9FED091B53EC112BFCF7A4FEDC
:103620009FED081B53EC112BFCF79EFEFCF71BFFD4
:103630002080012070BD00009C71000866666666EF
:1036400066664A3F0000000000408F4010B50088C9
:1036500000EE100AB8EE401A9FED170AC1EE000AFC
:103660009FED161AC0EE811AF7EE000A31EEE01A4D
:10367000DFED131AC1EE210A9FED121A10EE801A27
:10368000DFED110A81EE200A20EE400A10EE100A4A
:10369000FCF702FF41EC100B00F0DAFD9FED0B1B75
:1036A00051EC100B53EC112BFCF75EFEFCF707FFFF
:1036B00000EE100A10BD000000007A44295C0F3FA4
:1036C00000E09245DB8A2D3F4BC8873E000000C0DA
:1036D000CC80834010B54FF0E020006903F078FA09
:1036E000012803D0BDE8104002F074BE10BD0000F8
:1036F00030B593B030216846FCF716FE14210CA8B3
:10370000FCF712FE1C480025016841F08051016061
:10371000006800F0805011901848016841F4404161
:1037200001600068022400F44040119001200090E4
:10373000000401908001CDE9064019200890C820BE
:10374000CDE9090404200B906846FEF79DFA08B104
:1037500072B6FEE70CA90F2081E831004FF48050CB
:10376000CDE90F0503210CA8FEF782F9002801D04E
:1037700072B6FEE713B030BD403802400070004022
:103780000248016841F470010160704788ED00E073
:103790000148FEF796BC0000C45B0020F0B502684B
:1037A0001D4B1E4C9F031E4D1E4E984207D0B84223
:1037B00005D0A04203D0A84201D0B04204D122F0EB
:1037C000700C4A6842EA0C02984210D0B8420ED0FF
:1037D000A0420CD0A8420AD0B04208D0124CA0425D
:1037E00005D0124CA04202D0114CA04203D122F4C9
:1037F0004074CA6822434C6922F08002224302606E
:103800008A68C2620A688262984201D109690163CA
:1038100001214161F0BD00000000014000040040B2
:1038200000080040000C00400040014000440140FE
:103830000048014070B5044600680169E26821F45F
:103840004051114301612169A068E269084361693F
:10385000114308432168CA6849F20C639A43024342
:10386000CA6020684169A26921F440711143416135
:1038700031492068884202D03049884202D1FEF79F
:10388000C1F901E0FEF7AEF9E269002319216425D0
:103890003226B2F5004F626828D0A0FB0101930FD9
:1038A0009200FCF7F7FC0146B0FBF5F06FF0180250
:1038B000504301EB800006EB0010B0FBF5F000F088
:1038C000F002B1FBF5F002EB0012B1FBF5F06FF086
:1038D0001803584301EB800006EB0010B0FBF5F035
:1038E00000F00F0021681044886070BDA0FB01014A
:1038F00092185B41FCF7CEFC0146B0FBF5F00201EB
:10390000B1FBF5F06FF01803584301EB800006EBB4
:10391000C000B0FBF5F000F0F80002EB4002B1FB94
:10392000F5F0584301EB800006EBC000B0FBF5F06A
:1039300000F00700D6E7000000100140001401402D
:10394000014800F00FB8000058030020014800F0C3
:1039500009B800007C230020014800F003B80000F3
:10396000A03F00202DE9F041044600680568C668C4
:1039700041691022EFF3118182F31188BFF34F8F59
:10398000BFF36F8F8846A9064FF0000715D5406832
:10399000E28AA168C0B28854E18A491C8AB2E282F4
:1039A000E1898A4200D3E782628B8A4202D2618B2C
:1039B000491C6183E16901B18847280616D53006A4
:1039C00014D5A08A60B3012084F82000618A606861
:1039D000405C21684860608A401C80B26082A18996
:1039E000884200D36782A08A401EA082680613D551
:1039F000700611D5A08AF0B1618A6068405C2168C8
:103A00004860608A401C80B26082A189884200D3ED
:103A10006782A08A401EA08288F31188BDE8F081E9
:103A20002068C16821F08001C1602068C16841F050
:103A30004001C160DAE72068C16821F04001C1603F
:103A4000EAE7F8B516460F460446002521E002F0E5
:103A50005FF8A08AADF8000002F07AF8A089BDF8FE
:103A6000001088421DD9795D208A6268115402F0E5
:103A70004FF8208A401C80B22082A189884201D35D
:103A800000202082A08A401CA08202F061F86D1CF8
:103A9000ADB2B542DBD32068C16841F08001C1609E
:103AA000F8BDBDF800108842D1D12068C168090670
:103AB000CDD4C16841F08001C160C8E7234910B589
:103AC0002148086001F12400486000F580508860BA
:103AD0004FF480508881C881002008824882C882C3
:103AE000088348838882C86181F820001949184AF0
:103AF0004FF4C0530A6001F124024A6001F22442EB
:103B00008A604FF480628A81CB8108824882C882B1
:103B1000088348838882C86181F820000F490E4CD1
:103B20000C6001F124044C6004F5C0548C608B815E
:103B3000CA8108824882C882088348838882C86113
:103B400081F8200010BD0000001001405803002043
:103B5000004400407C23002000140140A03F0020CE
:103B600070B50E4DE8880F2804D200F01FF84FF012
:103B7000FF3070BD0A4E0024E98828680144A4F192
:103B80000F00095C315507A000F000FB641CA4B2D3
:103B90000D2CF1D300F00AF8012070BD5C0000206C
:103BA00048030020253032582000000010B5044C96
:103BB000A1882068FCF7B8FB0020E08010BD000061
:103BC0005C0000200548044901604FF48071818049
:103BD0000021C18070470000480100205C000020E7
:103BE00001780748C3880268D154C188491C89B24A
:103BF000C1808288914201D30021C18070470000BA
:103C00005C000020FEE7000018B103498861002035
:103C100070476FF0050070476C000020032802D940
:103C20006FF005007047034A106211700020D061E8
:103C3000704700006C0000202DE9FC5F0D46064631
:103C400028446FF0050C90287CD2494C6FF0040991
:103C50002046D4F8208042684FF0FF0A4FF0AA0BAC
:103C60004FF0270EF7B2C6F30721B8F1000F0FD0BF
:103C70004FF6FF7000EA45032046B8F1010F0078C7
:103C800016D0B8F1020F33D0B8F1030F6ED142E075
:103C9000042D6BD8F2B38DF800A08DF801B08DF82B
:103CA00002E08DF804108DF803700521684659E094
:103CB00082B35B1DB3F5807F32D88DF800000320FE
:103CC0008DF80100280A8DF802108DF804008DF897
:103CD00003708DF805500621684600F093FA010A3A
:103CE0008DF806108DF8070008216846626839E0F3
:103CF000032D3BD823696BB18DF800A08DF801B07E
:103D00008DF802E08DF804108DF8037005226946E5
:103D1000984728E017E0E768AFB1B3F5807F03D993
:103D20006FF00300BDE8FC9F4006F1B2000E114A9F
:103D3000B847012817D162692AB10E49002001F560
:103D400080730BE012E04846ECE700BF31F81070DA
:103D500000EB060C401C23F81C7080B2A842F5D37F
:103D600029463046904700206662DBE76046D9E787
:103D70006C0000207863002018B1034948610020DE
:103D800070476FF0050070476C0000202DE9FC4182
:103D90003B4C6169002955D03A49E2698854521C6C
:103DA000E261206A002630B101282FD0022865D0B8
:103DB000032860D162E00878552804D0521E3148AB
:103DC000491CE2613CE00B2A55D30A252D4F002007
:103DD0004FEA000317F803C05B1C6044C0B2AB425B
:103DE000F8D38B7A8342E9D14888ADF800008888FF
:103DF000ADF80200C888ADF804000889ADF80600E7
:103E0000487804226946FDF725FC37E0022A32D9BA
:103E100048780328D2D18878401D904212D888185B
:103E20000D4630F8020C921E47BA91B2154800F0C8
:103E3000E9F9874208D0E269691C521E1148E26123
:103E4000FCF759FABDE8FC81A8780F4B4208002125
:103E5000606A0AE005EB410701EB000CB7F803705C
:103E6000491C7FBA23F81C7089B29142F2D31146E3
:103E70006269904702E0B2F5807FE3D1E661E1E755
:103E80006C000020786300207864002018B103499A
:103E90004860002070476FF0050070476C000020FC
:103EA00070B504460622002100B2FDF7F5FA40B1D4
:103EB0004BF28851692000F0F5F86FF00205A0B9C7
:103EC00002E06FF0050070BD0949086A012801D0C1
:103ED00010B104E0142000E0012089698847A1B2F4
:103EE0001F2000F0DFF80028EDD0284670BD00004C
:103EF0006C00002070B5044640F6FF72012100B24C
:103F0000FDF7CAFA40B14BF28851692000F0CAF8B7
:103F10006FF00205A0B902E06FF0050070BD09491D
:103F2000086A012801D010B104E0142000E001204B
:103F300089698847A1B2022000F0B4F80028EDD0CA
:103F4000284670BD6C00002070B504460D2201218A
:103F500000B2FDF7A1FA40B14BF28851692000F0A0
:103F6000A1F86FF00205A0B902E06FF0050070BD86
:103F70000949086A012801D010B104E0142000E0CA
:103F8000012089698847A1B2032000F08BF800283E
:103F9000EDD0284670BD00006C00002070B50446CE
:103FA0000722012100B2FDF777FA40B14BF28851A8
:103FB000692000F077F86FF00205A0B902E06FF019
:103FC000050070BD0949086A012801D010B104E05C
:103FD000142000E0012089698847A1B2042000F084
:103FE00061F80028EDD0284670BD00006C0000206C
:103FF00010B54BF28851692000F054F86FF00204BC
:1040000080B909490A6A012A01D012B104E01420DA
:1040100000E00120896988470121084600F042F844
:10402000002800D0204610BD6C00002010B54BF2D7
:104030008851692000F036F86FF0020480B9094910
:104040000A6A012A01D012B104E0142000E0012024
:10405000896988470721012000F024F8002800D052
:10406000204610BD6C00002010B54BF2885169202D
:1040700000F018F86FF0020480B909490A6A012AB1
:1040800001D012B104E0142000E0012089698847C2
:104090000021012000F006F8002800D0204610BDC5
:1040A0006C0000202DE9FC476FF0050A90281AD219
:1040B000354CCAB22346D4F82080FF27090A5B6832
:1040C0006FF0040C4FF0AA09C6B2B8F1000F0DD082
:1040D0002546B8F1010F2D7817D0B8F1020F31D075
:1040E000B8F1030F40D05046BDE8FC87DBB38DF834
:1040F00000708DF801908DF802608DF804108DF835
:1041000003200521684698473AE063B306238DF8FB
:1041100000508DF80130000A8DF802008DF804106F
:104120008DF803608DF805201946684600F06AF89E
:10413000010A8DF806108DF80700626808216846AC
:1041400090471DE0236973B18DF800708DF80190E0
:104150008DF802608DF803208DF804100522694661
:10416000284698470CE00DE0A4685CB18DF800206B
:104170008DF80110C1B26806000E02236A46A047FE
:104180000020B1E76046AFE76C0000200FB4054B9C
:1041900010B503A9044A029800F0C4FA10BC5DF8F7
:1041A00014FB0000E94E0008400100200FB4084B4A
:1041B00010B504A902AA039800F0B4FA044602A9B3
:1041C000002000F0DAFC204610BC5DF814FB000073
:1041D0007B4B000803B401984100009850EAC120CD
:1041E00018BF04204A0D18BF40F0010040F2FF72D2
:1041F000B2EB515F08BF40F00200012808BF052064
:1042000002B07047F0B5FF23084E1C46002206F5A9
:10421000807705E0855C5D40735D63407C5D521C8A
:104220008A42F7DB44EA0320F0BD0000C4710008B5
:104230000907090E002804DB00F1E02080F80014D3
:10424000704700F00F0000F1E02080F8141D704767
:1042500070B52DED020B2DED0A8B82B00D98C40FB9
:1042600020F00045AE48854248D3AE48854219D378
:104270000C99C5F31300084309D09DED0C0B02B057
:10428000BDEC0A8B02B0BDE8704000F009BA002C0A
:1042900014BF9FEDA50B9DED0C0B02B0BDEC0A8B7E
:1042A00002B070BD9FEDA20B53EC102B9DED0C0BDB
:1042B00051EC100BFCF730FB0AD2022000F02CFA74
:1042C00002B0BDEC0A8B02B0BDE8704000F0F4B95A
:1042D0009FED990B53EC102B9DED0C0B51EC100B3B
:1042E000FCF702FB0AD2022000F016FA02B0BDEC85
:1042F0000A8B02B0BDE8704000F0EEB990489FED27
:1043000092BBA8425CD29248854219D29148784427
:1043100000EBC40090ED000B53EC102B9DED0C0B4B
:1043200051EC100BFCF73BFA41EC1A0B8A4878442D
:1043300000EBC40090ED009BC4F10100041B36E0CB
:104340009FED870B53EC102B9DED0C0B51EC100BDC
:10435000FCF70AF841EC100B8348784400EBC400EA
:1043600090ED001B51EC100B53EC112BFCF776F980
:10437000FCF79BFA0446FCF787FA41EC180B9FED1B
:104380007C0B53EC102BFBF7EFFF9DED0C1B53EC5C
:10439000112BFCF707FA41EC1A0B9FED770B51EC50
:1043A000180B53EC102BFBF7DFFF41EC190B51EC12
:1043B0001A0B53EC192BFCF7F2F9CDE90C011BE0B9
:1043C0006F48854217D29FED700B53EC102B9DED7B
:1043D0000C0B51EC100BFCF741F953EC1B2BFCF7C9
:1043E0009BFA08D29DED0C0B53EC1B2B51EC100BE0
:1043F000FCF734F96EE000249DED0C0B53EC102B10
:1044000051EC100BFBF7B0FF41EC180B6048052195
:10441000B0EE480AF0EE680A784400F0C5F853ECB4
:10442000182B51EC100BFBF79FFF9DED0C1B53EC71
:10443000112BFCF7B7F941EC180B9FED570B5CB350
:1044400053EC182B51EC100BFCF7A9F99DED0C0B5C
:1044500041EC1C0B53EC182B51EC100BFBF784FFB9
:1044600053EC1C2BFCF7A1F953EC192BFCF79AF930
:1044700053EC1A2BFCF793F953EC1B2BFCF792F936
:10448000CDE900016FF47F70844226DB01EB04501C
:1044900001909DED000B00E753EC102B51EC180B35
:1044A000FCF77DF99DED0C0B41EC190B53EC182B2F
:1044B00051EC100BFBF758FF53EC192BFCF775F977
:1044C0009DED0C1B53EC112BFCF769F953EC1B2BE6
:1044D000FCF768F941EC100BDFE608464FF07A5123
:1044E00001EB04519FED2E0B084453EC102B01906F
:1044F0009DED000B51EC100BFBF736FF0D4645EC24
:10450000100B044651EC100BFFF764FE042808BFA3
:1045100000F0E2F845EC104BBFE6000000000000A0
:10452000422E86400000F07F0000000000000000E6
:10453000EF39FAFE422E864051302DD5104987C002
:10454000422ED63F00000000000000000000F03FB7
:10455000B2A2F03F563200004632000000000000D8
:10456000FE822B654715F73FFA310000000000007E
:104570000000E0FE422EE63F763C7935EF39EA3D19
:104580000000303E000000009C7500883CE4377E4F
:104590006C3100000000000000000000000000403E
:1045A000000000000000700170B504462DED028B84
:1045B0004D1E00EBC500B0EE408AF0EE608A90ED33
:1045C000000B35F0060017D053EC182B51EC100BF4
:1045D000FBF7CAFE41EC100B6D1E04EBC50090ED1D
:1045E000001B51EC100B53EC112BFCF737F841EC8E
:1045F000100B35F00600E7D1022D36D0042D1CD06B
:10460000062D1CBFBDEC028B70BD53EC182B51EC7A
:10461000100BFBF7A9FE94ED0A1B53EC112BFCF7D2
:104620001DF853EC182BFBF79FFE94ED081B53EC81
:10463000112BFCF713F841EC100B53EC182B51EC39
:10464000100BFBF791FE94ED061B53EC112BFCF7BE
:1046500005F853EC182BFBF787FE94ED040B53EC95
:10466000102BFBF7FBFF41EC100B53EC182B51EC1C
:10467000100BFBF779FE94ED021B53EC112BFBF7AB
:10468000EDFF53EC182BFBF76FFE94ED001B53EC82
:10469000112BFBF7E3FFBDEC028B41EC100B70BD5F
:1046A00010B553EC102B51EC100BFBF7D7FF41EC7E
:1046B000100B10BD000000009FED050B10B553EC72
:1046C000102B51EC100BFBF74FFE41EC100B10BD03
:1046D00000000000000000709FED050B10B553ECCA
:1046E000102B51EC100BFBF73FFE41EC100B10BDF3
:1046F000000000000000001002E008C8121F08C1FE
:10470000002AFAD170477047002001E001C1121F52
:10471000002AFBD170470000014908607047000083
:10472000440100202DE9FF4F8DB00F4605460026BD
:1047300006E025280BD0DDE90F1290476D1C761C92
:1047400028780028F5D111B03046BDE8F08F00245C
:10475000A246A1460122E94900E0044315F8013FC1
:10476000203B02FA03F00842F7D128782A2810D01B
:104770006FF02F022878A0F13001092914D80AEB34
:104780008A0102EB410144F0020400EB010A6D1CB6
:10479000F0E701CF5FEA000A03D544F40054CAF100
:1047A000000A44F002046D1C28782E2817D115F851
:1047B000010F44F004042A280ED06FF02F0228784D
:1047C000A0F1300109290AD809EB890102EB410166
:1047D00000EB01096D1CF2E757F8049B6D1C28786B
:1047E0006C280FD006DC4C2817D068280DD06A281A
:1047F00014D104E0742810D07A280FD10DE044F4CD
:1048000000140AE044F4801401E044F44014697890
:10481000814202D104F580146D1C6D1C28786E282D
:104820001ED00CDC632830D004DC00288BD0582844
:1048300011D19FE0642867D069280CD164E0732807
:104840002DD004DC6F2872D0702804D194E0752834
:104850006ED078286DD0DDE90F129047761C4BE1C1
:10486000C4F30250022806D0032809D0042801CF3F
:1048700009D0066040E101CFF117C0E900613BE1DA
:1048800001CF068038E1067036E117F8040B8DF889
:10489000000000208DF80100EB46012003E057F8EE
:1048A00004BB4FF0FF3061074FF0000102D40DE070
:1048B00008F10101884649450FDA8045F8DB1BF80D
:1048C00008100029F4D108E008F10101884681426E
:1048D000FADB1BF808100029F6D1DDE90F23AAEB5B
:1048E00008008146214600F031F9304400EB08060B
:1048F00004E0DDE90F121BF8010B9047B8F1010845
:10490000F7D221464846F2E00A21C4F302524FF0A2
:10491000000B0891022A04D001CFC117032A09D045
:104920000AE0FF1D27F00707F7E8020108E02CE086
:104930001EE01FE000B2C117042A01D140B2C11726
:10494000021E71F1000206DA0023D0EB030063EBD4
:1049500001012D2202E0220504D52B228DF824200E
:10496000012203E0E20701D02022F7E7904653E05E
:104970000A210BE0102109E010214FF0000B44F058
:1049800004044FF00809089103E008214FF0000BE0
:104990000891C4F30252022A04D001CF0021032A55
:1049A00006D006E0FF1D27F00707F7E8020103E045
:1049B00080B2042A00D1C0B24FF0000822072BD5E4
:1049C0002A78702A07D0DDF820C08CF0100C5CEA41
:1049D0000B0C05D00EE040228DF82420012208E0C7
:1049E00050EA010306D030238DF824308DF82520BD
:1049F00002229046089B83F0080353EA0B030BD175
:104A000050EA010201D1620706D530228DF8242038
:104A10004FF00108A9F101092A78582A04D038A2D8
:104A20000B9208AA0A920BE03AA2F9E75B46089AB1
:104A3000FBF730FC0B9B9B5C0A9A521E0A92137088
:104A400050EA0102F2D10A98ADEB000000F1200B10
:104A5000600702D524F4803401E04FF00109D94504
:104A600002DDA9EB0B0000E0002000EB0B0141444C
:104A70000890AAEB010AE00306D4DDE90F232146E2
:104A8000504600F063F806444FF0000908E009A919
:104A900011F80900DDE90F12904709F10109761CB0
:104AA000C145F4DBE0030CD5DDE90F232146504678
:104AB00000F04CF8064404E0DDE90F123020904786
:104AC000761C0899481E08900029F5DC08E00A9831
:104AD0000A990078491C0A91DDE90F129047761C6B
:104AE000BBF10001ABF1010BF1DC21465046DDE9E1
:104AF0000F2300F019F806446D1C21E60928010077
:104B00003031323334353637383961626364656643
:104B10000000000030313233343536373839414205
:104B200043444546000000002DE9F04104460025BD
:104B30001E461746880404D405E039462020B047B5
:104B40006D1C641EF9D52846BDE8F0812DE9F041C1
:104B5000044600251E469046C80301D5302700E0D4
:104B60002027880404D505E041463846B0476D1C2F
:104B7000641EF9D52846BDE8F0810A68531C0B6015
:104B8000107070472DE9F04190B000244FF47A7511
:104B90000B940C94142168460D94FBF7C5FB182167
:104BA00005A80E94FBF7C0FB4A48016841F48071E8
:104BB0000160006800F480700F9046481438016866
:104BC00041F0010101600068022600F001000F9031
:104BD00003200994CDE9056005A93F48FEF714F9C3
:104BE0003E480068C0F30220C0F10701042900D943
:104BF0000421021D072A01D2002000E0C01E4FF050
:104C0000010808FA01F2521E02F003018140080176
:104C1000334981F800044FF0E0214FF48020C1F8BF
:104C20000001304F0B940C940BA938460D94FEF7FD
:104C300085F8CDE90246009401946946384604940B
:104C4000FEF796F8B86840F48060B8604FF44030E2
:104C50000E900EA92448FEF75FF8244A79153846CD
:104C6000FEF7AEF84FF0007090FAA0F1B1FA81F1C2
:104C7000C84007EB8001CA684FF0F87393FAA3F4B9
:104C80004FF44010B4FA84F420FA04F40726A64046
:104C900093FAA3F3B3FA83F3D840B24308FA00F3CC
:104CA0001A43CA60786840F020007860B86840F025
:104CB0000100B860B86810F0010F01D00CA004E04A
:104CC00015B16D1EADB2F5E70EA0FFF75FFA10B09B
:104CD000BDE8F08144380240000002400CED00E0E5
:104CE00012E000E0002001400023014001003002FA
:104CF00041444320656E61626C6520737563636532
:104D00006564000041444320656E61626C65206605
:104D100061696C65640000002DE9F04186B01821DE
:104D20006846FBF701FB0420FEF762F80120FEF75E
:104D30005FF80220FEF75CF84FF4005601250024CE
:104D40000096CDE90154254F0394694638460494F2
:104D5000FEF75AF8BE61CDE90054DFF88480694659
:104D600040460494FEF750F80420CDE900041D4F9E
:104D7000694638460494FEF747F86802CDE9000416
:104D8000694604953846FEF73FF810200326CDE922
:104D90000005CDE90264694604944046FEF734F804
:104DA0004DF27A50CDE90005CDE9026469460494DC
:104DB0003846FEF729F84FF40140CDE90005CDE96A
:104DC0000264694604944046FEF71EF8B903C8F829
:104DD00018100548B86106B0BDE8F081000802402F
:104DE000000002400004024000007AD510B5FEF732
:104DF00065FEBDE81040FDF7A7BE00B591B0CDE956
:104E0000000100200290CDE90302CDE905300790B2
:104E10006846FDF716FA002801D0FCF778FC11B0BF
:104E200000BD10B5FCF776FB002803D00021C1823D
:104E30000183418310BD2DE9F0410E46FCF76AFB6A
:104E400000281BD0044600F063FE678B00F080FE54
:104E50000025AFB1218BA068405C307000F058FE97
:104E6000208B401C80B22083E189884200D32583B7
:104E7000608B401E608300F06BFE0120BDE8F08176
:104E80002846FBE770B514460D46FCF743FB0028A7
:104E900005D022462946BDE87040FEF7D2BD70BD60
:104EA00013B5012201A9FFF7EDFF1CBD10B5FCF7FA
:104EB0001DFB002805D00C23BDE810400022FFF7A1
:104EC0009CBF10BD09683AB1C1700A0A82700A0C11
:104ED0004270090E0170704701700A0A42700A0C94
:104EE0008270090EC170704710B50446C1B200202F
:104EF000FFF7D6FF204610BDFCF70AFDFEF7F8FBD2
:104F0000FFF70AFFFFF772FFFFF73CFE00F028F8FB
:104F1000FEF722F800F036F8FEE710B5EFF3058152
:104F200011B16FF0050403E0002408B100F0F4FEB5
:104F3000204610BD10B54FF00001EFF305826AB9AD
:104F400048B1D0E902202AB1202807D3104601F049
:104F5000E7F802E010B901F0D5F80146084610BDA7
:104F6000EFF3058010B16FF0050070470448016849
:104F700011B14FF0FF3070470121016000207047F0
:104F80001001002010B5EFF3058010B16FF005009F
:104F900010BD08480168012902D04FF0FF3010BD54
:104FA000054A002182F8141D0221016001F00CF86D
:104FB000002010BD100100200BE000E070B5054698
:104FC0004FF00004EFF3058050BB0DB1686800E0BE
:104FD0000020C10701D0012600E0002600071FD4F1
:104FE0006DB1D5E9021021B1502819D31EB10420AA
:104FF00002E020B114E0012001F04AFA05E00EB110
:10500000042000E0012001F038FA040008D00DB1BE
:10501000296800E0002100F01DFE0EB144F00104FB
:10502000204670BDF8B5144603460E464FF0000505
:10503000EFF3058098BB93B39E423DD84CB1A06876
:105040000028E06803D0502836D3012002E008B1E0
:1050500032E00020012B05D010B31846A26801F001
:10506000ECF920E040B1032000900022114601201D
:10507000A36801F03BFA04E003220021012001F0C3
:1050800014FA050018D086B100231A46194601F01B
:10509000A5FA012809D0284600F0F0FD00250BE014
:1050A000184601F0ADF9050006D00CB1216800E00A
:1050B0000021284600F0CEFD2846F8BD2DE9FF412D
:1050C0004FEA01034FF00005EFF30581039549BB5B
:1050D00040B38027182100244AB3166806B134462D
:1050E00096691EB13146761E382E02D21679F60721
:1050F00003D0002004B0BDE8F081566906B1B708BE
:10510000D2F808C0BCF1000F0DD0D5685C2D18D3C3
:1051100012693AB136B18DE806103A46214601F0DF
:105120002CFD03900DE0D6685EB912694AB903AA56
:10513000CDE90012BAB2214601F0F2FC012800D0FC
:1051400003950398D6E700002DE9F041134C0F4674
:105150000546E6682068001D00F072FC681C07D157
:1051600037B12168BDE8F0410D48091D00F0C4BC0D
:1051700020683544B5424560216805D2A06BBDE882
:10518000F041091D00F0A0BC606B091D00F09CFC03
:10519000A06A854200D2A562BDE8F081C00000206F
:1051A000187A00202DE9F041054600F0B1FC2D4CA5
:1051B000A068401CA06020682B4F10B1606930B31C
:1051C0002BE02560A068012827D1002606EB860089
:1051D00007EB800000F06AFC761C382EF6D32348DB
:1051E00000F064FC2148143000F060FC1F482830B7
:1051F00000F05CFC1D483C3000F058FC1B4850306F
:1052000000F054FC194860631430A06305E0206886
:10521000E96AC06A884200D82560606A401C606202
:105220006864E86A2169884200D9206100EB800047
:1052300007EB8000291D00F05FFC00F089FC60692D
:1052400000280CD02068E96AC06A884207D2084961
:105250004FF080500860BFF34F8FBFF36F8FBDE8F2
:10526000F0810000C000002068750020C87900208F
:1052700004ED00E038B500F04BFC104C2068C8B9D4
:105280000F4800F013FC0E48143000F00FFC0C48DF
:10529000E060143020610A4B0020F03B009003F1E5
:1052A000500210210A2001F021F9206010B105A15F
:1052B00000F0D0FCBDE8384000F04ABCFC00002003
:1052C0001C7B0020546D72510000000030B4026C51
:1052D0000B46002A0BD0C1681144C1608468A1420A
:1052E00001D30168C16030BC1846FBF704B830BC7C
:1052F00070472DE9F041856B174604460026026C85
:1053000082B1C7B1E068FAF7F6FFE168206C091ACC
:10531000E1602268914202D2A168081AE060022F7F
:1053200016D017E02068A8B9A06801F0C9FC0646AD
:105330000020A0600EE06068FAF7DDFF216C606875
:1053400008446060A168884204D32068606001E07E
:1053500005B16D1E6D1CA5633046BDE8F08110B52A
:10536000044690F8590058B101280CD002280FD0FB
:10537000102080F31188BFF34F8FBFF36F8FFEE7CC
:10538000206B00F0F9FB2046BDE8104000F0F4BBB4
:1053900010BD000010484FF47051420706D0C01DE8
:1053A0000D4920F00700411AC1F570510B4A002346
:1053B0000144C2E900030839183A21F007011160DD
:1053C0004B600B600B1AC0E9001393604FF0004074
:1053D0005360506170470000FC8100202C010020C8
:1053E000144E154CA6F29C474FF08058DFF84C90B5
:1053F00012E000BF00F08CFBF068C568281D00F0CB
:105400001FFBA068401EA0606068401E606000F046
:105410009FFB2846FFF7A3FF60680028EAD13868A1
:105420000128F9D9C9F80080BFF34F8FBFF36F8F00
:10543000F2E70000047A0020C000002004ED00E044
:10544000002807D00021816001600B460A46C16038
:1054500001F0C4B87047000070B51D46049C51B1FE
:10546000C4F80020C4E90F010121204601F072F8C0
:1054700084F84C5070BD2460F4E700002DE9F05F23
:105480008846DDE90B941546834691009A460A9EAC
:10549000A522206BFAF741FF6FF00301206B01EBAF
:1054A0008501084420F00707780707D0102080F313
:1054B0001188BFF34F8FBFF36F8FFEE70025B8F160
:1054C000000F0FD05FF00000221818F8001082F8CB
:1054D000341018F8001011B1401C1028F4D384F8CF
:1054E000435001E084F83450382E00D33726E6626A
:1054F000C4E91365201D00F0E4FA04F1180000F07F
:10550000E0FA2461C6F138006462A061656584F840
:10551000585052465946384600F070FA2060B9F1AA
:10552000000F01D0C9F80040BDE8F09F30B5114927
:1055300000E011460A688242FBD34B685C18844243
:1055400003D1406818444860084643681C189442D8
:1055500009D1084C183C2468A24209D052681A4468
:1055600042600A6812680260814200D0086030BD63
:105570000460F9E72C01002070B5002441600B4D58
:105580000061914206D8D11A8269914206D2011D6A
:10559000286907E09A4203D2994201D3012403E02B
:1055A000011DE86800F090FA204670BDFC00002064
:1055B00010B5044600F0ACFAA06B28B15FF000040F
:1055C00000F0C6FA204610BD0124F9E730B589B0D5
:1055D0003C4D6EE00498002806DADDE90601059AE4
:1055E00090470498002864DB069C606910B1201D78
:1055F00000F026FA03A800F0D7F8024604980A281B
:1056000057D2DFE800F00505052D334A05052D3397
:1056100094F8280040F0010084F828000599A0695A
:10562000059B01442046FFF7A7FF68B3216A204687
:10563000884794F8280040073BD500200090059843
:10564000A169002342181946204601F07FFCD8B911
:10565000102080F31188BFF34F8FBFF36F8FFEE7E9
:1056600014F8280F20F00100207022E094F82800A0
:1056700040F0010084F828000598A06128B1811845
:1056800013462046FFF778FF13E0102080F31188BF
:10569000BFF34F8FBFF36F8FFEE794F828008107A9
:1056A00003D4204600F068FA03E020F0010084F8FB
:1056B0002800002204A9286801F0A0F8002889D158
:1056C00009B030BDFC0000202DE9FC410F46054625
:1056D00000F0BEFC01A800F067F80446019818B17C
:1056E00001F0A2FBBDE8FC81254EAFB13069006836
:1056F000D0B30027291B3A46306800F0EBFA01F0DE
:1057000093FB0028EED11F494FF080500860BFF393
:105710004F8FBFF36F8FE5E7A542EBD801F084FB15
:10572000F0682746C068C468201D00F089F994F825
:105730002800410719D5A0692B4641193A46204651
:10574000FFF71AFFA8B100200346014600902A4641
:10575000204601F0FBFB60B9102080F31188BFF3F5
:105760004F8FBFF36F8FFEE707E020F0010084F852
:105770002800216A20468847B4E70127BAE70000DD
:10578000FC00002004ED00E00648416B096829B1E7
:10579000416BC968C9684968816270474FF0FF3141
:1057A000FAE70000C000002070B5054601F01EFABF
:1057B000064E0446B068844203D200F009F8012086
:1057C00000E0002028602046B46070BDFC0000208E
:1057D000F8B5194D20E0C068C4680668201D00F0C7
:1057E0002FF9216A2046884794F82800400713D5EE
:1057F000A0693044B04206D924616060211DE86888
:1058000000F062F908E000200346014600903246AD
:10581000204601F09BFB38B1E86801680029DAD125
:105820002969C5E90310F8BD102080F31188BFF382
:105830004F8FBFF36F8FFEE7FC00002008484068E1
:10584000401C4FF0100080F3118804D0BFF34F8F3D
:10585000BFF36F8FFEE7BFF34F8FBFF36F8FFEE78E
:10586000340100200346002012B1994302D0704752
:105870000B42FCD001207047074CE068016841B141
:10588000C0680021D0F80000FFF71EFFFFF79EFE62
:10589000F3E701210020F7E7FC0000202DE9F041AB
:1058A000044600F035F994F9455004F1240609E066
:1058B000606A48B1304601F07FFA08B100F0A2FA00
:1058C0006D1E6DB2002DF3DC4FF0FF3684F845609D
:1058D00000F03EF900F01CF994F9445004F110076F
:1058E00009E0206948B1384601F066FA08B100F0D5
:1058F00089FA6D1E6DB2002DF3DC84F84460BDE8BA
:10590000F04100F025B900002DE9F04105460027DF
:1059100000F09EFB324E306808B9FFF73BFD70691E
:1059200005424ED1C5B3083568070ED005F0070013
:10593000C0F108000544680707D0102080F31188E3
:10594000BFF34F8FBFF36F8FFEE72DB370688542B3
:1059500037D82348183001460C6801E020460C4631
:105960006168A94202D221680029F7D131688C42CE
:1059700027D007682168016060680837411B10293B
:105980000FD96019420708D0102080F31188BFF3A7
:105990004F8FBFF36F8FFEE713E041606560FFF745
:1059A000C5FD61687068401A7060B268904200D2AC
:1059B000B060706901430020C4E90001F068401C38
:1059C000F06001F031FA780707D0102080F31188D9
:1059D000BFF34F8FBFF36F8FFEE73846BDE8F0810E
:1059E000140100200449086818B10868026D521CAF
:1059F0000265086870470000C000002010B5031F52
:105A00004FF080741C601B1F21F001011960191FE9
:105A1000044B0B6014390A60091F6FF0020244380E
:105A20000A6010BD3D580008020A0A7048707047AD
:105A3000020E0A70020C4A70020A8A70C87070471F
:105A4000D0E9013201699A60D0E901235A604A68BD
:105A5000824201D182684A60002202610868401EC9
:105A60000860086870470000044908680A6880698F
:105A7000D26A0968C2F138028A617047C00000200A
:105A8000034B036003F15C000860802010607047E6
:105A9000447B0020044B036003F15C0008604FF47A
:105AA0008070106070470000A07D002000F10801A8
:105AB0004FF0FF32C0E90112C160016100210160B5
:105AC000704700210161704730B50B685A1C02D045
:105AD00000F1080202E0026904E0224654682568E9
