:020000040800F2
:10000000B8A4002071020008472E0008472000080D
:10001000452E00085D1000081D3900080000000092
:10002000000000000000000000000000B101000816
:10003000A9140008000000000D020008393400086F
:100040008B0200088B0200088B0200088B0200085C
:100050008B0200088B0200088B0200088B0200084C
:100060008B0200088B0200088B0200088B0200083C
:100070008B0200088B0200088B0200088B0200082C
:100080008B0200088B020008C50900080000000070
:100090000000000000000000000000008B020008CB
:1000A0008B020008F53400088B0200088B02000860
:1000B000013500088B0200088B0200088B02000843
:1000C0008B0200088B0200088B0200088B020008DC
:1000D0008B020008A9360008B536000800000000B1
:1000E0008B0200088B0200088B0200080000000051
:1000F0000000000000000000000000008B0200086B
:10010000000000008B0200088B0200088B02000830
:1001100000000000000000000000000000000000DF
:100120008B0200088B0200088B0200088B0200087B
:100130008B0200080000000000000000000000002A
:100140000000000000000000000000008B0200081A
:100150008B0200088B0200088B020008C1360008E1
:100160008B0200088B020008000000000000000065
:10017000000000000000000000000000000000007F
:10018000000000008B0200080000000000000000DA
:100190008B0200088B020008DFF810D000F000FC92
:1001A00000480047D54A0008AFF30080B8A40020FB
:1001B0002C4B19680868B0E8F04F80F30988BFF34A
:1001C0006F8F4FF0000080F311887047000000002F
:1001D00008480068006880F308884FF0000080F34A
:1001E000148862B661B6BFF34F8FBFF36F8F00DF25
:1001F00000BF00BF08ED00E0DFF80C00016841F42B
:1002000070010160704700BF88ED00E0EFF30980E6
:10021000BFF36F8F134B1A681EF0100F08BF20ED4D
:10022000108A20E9F04F106009B44FF0500080F3BD
:100230001188BFF34F8FBFF36F8F05F093FD4FF021
:10024000000080F3118809BC19680868B0E8F04F15
:100250001EF0100F08BFB0EC108A80F30988BFF3BE
:100260006F8F7047A0000020EFF3058070470000FB
:100270000648804706480047FEE7FEE7FEE7FEE740
:10028000FEE7FEE7FEE7FEE7FEE7FEE7E5340008EF
:10029000990100082DE9F05F0546002092469B4633
:1002A00088460646814640241BE02846414647468C
:1002B000224600F038FA53465A46C01A914110D3EC
:1002C00011461846224600F01FFA2D1A67EB010866
:1002D0004F4622460120002100F016FA17EB0009D4
:1002E0004E41201EA4F10104DFDC484631462A4677
:1002F0004346BDE8F09F40EA01039B0703D009E0B5
:1003000008C9121F08C0042AFAD203E011F8013B01
:1003100000F8013B521EF9D27047D2B201E000F85A
:10032000012B491EFBD270470022F6E710B5134699
:100330000A4604461946FFF7F0FF204610BD2DE996
:10034000FE4F804681EA0300C00F0C46009021F06A
:10035000004123F00045B8EB0200A94105D2404618
:10036000214690461C460B46024623F000401043AF
:1003700047D0270DC7F30A00C3F30A510290401A71
:10038000019040286BDAC3F3130040F4801B0098FF
:10039000924620B10023D2EB030A63EB0B0B0198CA
:1003A0005946C0F14002504600F0AEF906460D46EF
:1003B00050465946019A00F0C6F910EB0800614119
:1003C000002487EA115284EAE7731A4340D0009A66
:1003D00062B3019A012A4FEA075215DC001B61EB58
:1003E00002014FF0004202EA0752CDE90042001C30
:1003F00041F5801132462B4600F0FDF903B0BDE80F
:10040000F08F40462146F9E7001B61EB0201001C1A
:1004100041F5801300185B412018A2F5001747EB47
:10042000030140EAD570B6196D4111E06D084FEA3D
:10043000360645EAC0754FEA0752001B61EB020120
:10044000001C41F5801149084FEA30000019514164
:1004500032462B4603B0BDE8F04F00F0BDB900981E
:10046000012240000023D0EB020263EBE07300980E
:1004700021464FEAE074B8EB000061EB0401E9E7C4
:1004800083F000435BE781F0004158E72DE9FE4F20
:1004900081EA030404F0004421F0004100944FF08D
:1004A000000B23F0004350EA01045ED052EA03043B
:1004B0005BD0C3F30A54C1F30A552C44A4F2F334BD
:1004C0000194A0FB0254C1F3130141F48011C3F362
:1004D000130343F4801301FB024400FB034E840A20
:1004E000970A44EA815447EA8357A4FB07680295B8
:1004F0008D0A05FB07854FEA932C04FB0C54270556
:10050000029D4FEA065847EA1637B5EB08056EEB31
:10051000070C870E920E47EA811742EA8312A7FB67
:100520000201B6EB0B0164EB00042B0D43EA0C3324
:100530005E1844EB1C50DA465146E7FB0201C5F356
:1005400013044FEA0B3343EA14534FEA0432019C7D
:1005500043EA0603A4F10C040294009CCDE900B424
:1005600000F049F903B0BDE8F08F00200146F9E73B
:100570000EB5C10F80EAE0700844CA07002140F2BE
:1005800033438DE80E000A460B4600F034F903B001
:1005900000BD0EB540F2334102910021CDE90011BA
:1005A0000A460B4600F027F903B000BD70B5C1F351
:1005B0000A5201F000450024C1F3130140F2FF3359
:1005C00041F480119A4201DA002070BD40F23343B9
:1005D0009A42A2F2334203DC524200F0A4F800E057
:1005E00090402C43F1D0404270BDC1F30A5210B587
:1005F000C1F3130140F2FF3341F480119A4201DA52
:10060000002010BD40F233439A42A2F2334203DC91
:10061000524200F088F810BD904010BD00F000423A
:1006200030F000400AD0C10D01F56071C0F3160032
:1006300042EA0151C20840071143704700200146B9
:100640007047000030B5041E71F1000404DB4FF068
:100650000044404264EB0101141E73F1000405DB09
:100660001C464FF00043524263EB04038B4208BF29
:10067000824230BD30B5041E71F1000404DB4FF03E
:100680000044404264EB0101141E73F1000405DBD9
:100690001C464FF00043524263EB0403994208BFEB
:1006A000904230BD01F0004330B421F0004150EAE7
:1006B000010206D00A0DA2F56072C1F31301002AEF
:1006C00002DC30BC00207047440F44EAC104C10082
:1006D000E01830BC00EBC25000F047B830B50B4614
:1006E000014600202022012409E021FA02F59D4262
:1006F00005D303FA02F5491B04FA02F52844151E36
:10070000A2F10102F1DC30BD202A04DB203A00FA1C
:1007100002F1002070479140C2F1200320FA03F358
:10072000194390407047202A04DB203A21FA02F056
:100730000021704721FA02F3D040C2F1200291401B
:10074000084319467047202A06DBCB17203A41FAA6
:1007500002F043EAE07306E041FA02F3D040C2F14E
:10076000200291400843194670470029A8BF7047EE
:10077000401C490008BF20F00100704710B4B0FAD7
:1007800080FC00FA0CF050EA010404BF10BC704772
:1007900049B1CCF1200421FA04F411FA0CF118BF8C
:1007A000012121430843A3EB0C01CB1D4FEA00615B
:1007B0004FEA102042BF002010BC704700EBC3502E
:1007C00010440029A4BF10BC7047401C490008BF5A
:1007D00020F0010010BC704710B5141E73F1000426
:1007E00008DA401C41F1000192185B411A4301D123
:1007F00020F0010010BD2DE9F04D92469B4611B14D
:10080000B1FA81F202E0B0FA80F220329046FFF7AE
:100810007BFF04460F4640EA0A0041EA0B015346BB
:100820005A46084313D0114653EA010019D0C8F1C3
:1008300040025046FFF777FF05460E4650465946A0
:100840004246FFF761FF084305D0012004E020463F
:100850003946BDE8F08D0020054346EAE0762C439A
:1008600037430A986305E40AA0EB08000022FD0A5A
:1008700044EA47540A3002D500200146E9E7010561
:1008800010196941DDE9084500196941BDE8F04DDD
:10089000A2E72DE9F04D81EA030404F0004B21F0BA
:1008A000004514464FF0000A23F0004150EA0502CB
:1008B00020D054EA01021DD0C5F30A570246C5F301
:1008C0001303C1F31300C1F30A5640F4801543F437
:1008D0008013A7EB0608101BD64608F2FD3873EB11
:1008E000050002D308F1010801E092185B41B8F15C
:1008F000000F03DA00200146BDE8F08D00204FF420
:100900008011064684460EE0171B73EB050705D3DE
:10091000121B63EB050306434CEA010C49084FEA3E
:10092000300092185B4150EA0107EDD152EA030012
:1009300012D082EA040083EA0501084305D0101BA7
:10094000AB4106D20122002306E000224FF0004313
:1009500002E06FF0010253101AEB06004CEB085155
:1009600010EB0A0041EB0B01BDE8F04DFFF734BF7F
:10097000C1F30A52C1F3130140F2FF3341F4801175
:100980009A4202DA00200146704740F233439A420D
:10099000A2F2334202DC5242FFF7C5BEFFF7B4BEFB
:1009A000064C074D06E0E06840F0010394E80700BC
:1009B00098471034AC42F6D3FFF7F2FBAC72000854
:1009C000CC72000804484168C1F34011002902D0EC
:1009D0006FF0020101607047002001402DE9F047EF
:1009E0000025DFF84480114C4FF40079EF1E424699
:1009F0004946204601F03AFFA06840F08040A060E0
:100A00006068C0F340100028FAD02760A06820F486
:100A10008060A060E06C16FA80F66D1CEDB2082DC7
:100A2000E5D3F008BDE8F087010030020020014066
:100A3000074C4FF0FF35606A0028FCD0294605F0CE
:100A400049FE0128F7D1034800F074FCF3E70000E9
:100A500000000020280200200EB5284D4FF0FF3680
:100A6000002300961A460321A86A05F037FA80078A
:100A700040D53346002201A9286B04F08FF808BB4B
:100A80009DF8040010B101281DD033E01C4802F08D
:100A90006BFB01282ED100242746204602F04AFA9B
:100AA0008DF8087000231A4602A9686B04F0D4F888
:100AB0000523002201A9A86B04F070F8641CE4B2BD
:100AC0000A2CEAD316E000240127204601F0F0FAB0
:100AD0008DF8087000231A4602A9686B04F0BCF870
:100AE0000523002201A9A86B04F058F8641CE4B2A5
:100AF0000A2CEAD30A2004F091FFB1E7000000209D
:100B0000804A002008B502F0E9FE104C4FF4C87589
:100B100012E0684602F0F0FE9DF800000A280BD1B2
:100B200001F0B0FF01280DD1606A58B100231A46C8
:100B3000194605F0D5FB05E06946002003F06FFF7C
:100B40000028E6D1284603F0D8FFF5E70000002092
:100B50002DED028B96B001208DF8500001F03AFC8B
:100B600001F07EFA6C4C4FF0FF369FED6C8ADFF897
:100B7000B0A16C4D0DF10C09002300961A4602211C
:100B8000E86A05F0ABF98007F6D503E09DF854005C
:100B900002F088FF15A9012003F041FF0028F5D1DC
:100BA000BAF8000000287DD001F018FD002009AA45
:100BB0000CAB0FAF0DF1480CB3EE000ADFED5A1A83
:100BC000DFED5A0A9FED5A2A04EB4001B1F9688023
:100BD00001EE108A02EB8008B8EEC11A21EE081A65
:100BE00021EE001A21EE211A88ED001AB1F96E806B
:100BF00001EE108A03EB8008B8EEC11A21EE081A44
:100C000021EE201A88ED001AB1F97A8001EE108ADF
:100C100007EB8008B8EEC11A21EE081A21EE021A7D
:100C200088ED001AB1F874102CF81010401C03283D
:100C3000CADBB4F98A00B4F88C104FEA090240EA22
:100C40000148B4F98E00B4F8901040EA0147002042
:100C500004EB4001B1F9A21000EE101A02EB800182
:100C6000401CB8EEC00A042820EE080A81ED000AF4
:100C7000EEDBBAF800105046C90703D0018821F016
:100C8000010101800188890703D5018821F0020153
:100C900001800188490703D5018821F00401018002
:100CA000018800E01CE0090703D5018821F0080154
:100CB00001800188C90603D5018821F01001018057
:100CC0000188890603D5018821F02001018001886F
:100CD000490603D5018821F04001018000210180EF
:100CE000CDE9008712AB0FAA0CA909A8CDF808908E
:100CF00001F088FB01F0A8F9012809D101F002FCFC
:100D0000401C05D000231A4614A9286B03F0A4FF49
:100D1000052004F083FE2FE7704300200000003818
:100D20007600002000000020CDCC1C410000FA44D9
:100D3000000034430A4D4FF400544FF47A76696949
:100D400024EA010001F4005140EA0140A861304664
:100D500003F0D3FE04F05EFD04F07CFDEFE700003D
:100D6000000802400EB500208DF8080002F078F867
:100D700002F0E4F9214D4FF0FF3605F13C04002369
:100D800000961A460121E86A05F0A8F8C007F6D0D7
:100D9000207868B1012822D0022805D0032803D08A
:100DA00004F038FD04F056FDA08803F0A6FEE6E747
:100DB00002F0CEF900F0A0F81148017C491C017442
:100DC00002F042F80128EFD102F0A2F9401CEBD06A
:100DD00000231A4602A9286B03F03EFFE4E7A1783E
:100DE000607801AA02F0A8FA01A802F0E1FABDF8C1
:100DF000041004A002F0E0FED6E70000000000208E
:100E0000043B0020766F6C746167653A2564206D41
:100E100056200D0A0000000010B51B4A00211B4897
:100E200003F0CEFF1A4C184A0021606024321948A2
:100E300003F0C6FF144AA06048320021164803F0B0
:100E4000BFFF114AE0606C320021144803F0B8FF84
:100E50000D4A206190320021114803F0B1FF0A4A87
:100E60006061B43200210F4803F0AAFF064AA06176
:100E7000D83200210C4803F0A3FFE061BDE8104028
:100E8000002004F0F1BD0000786D0008350D000869
:100E900000000020050B0008310A0008650D00085D
:100EA000510B0008590A0008AD0E00081CB50025BA
:100EB000104C4FF0FF3701263B46002201A9606B22
:100EC00003F06CFE0028F7D19DF8040060B1012802
:100ED000F2D101F057F98DF8006000231A466946F7
:100EE000A06B03F0B9FEE7E702F04AF88DF8005076
:100EF000F3E70000000000202DE9F0410024DFF8B6
:100F00007C80264608EB440718F814502BE0204656
:100F100002F08AF9284600F0C1F9F02000BF401E17
:100F200010F0FF00FAD1FFF759FD80B2FFF731FB57
:100F30009FED131B53EC112BFFF7A8FA9FED121B2B
:100F400053EC112BFFF7A2FAFFF74FFB10495A237E
:100F50000A7C12FB03F202EB46024968761C6D1C08
:100F60008852F6B2EDB27878A842D0D2641CE4B2CE
:100F70000A2CC7D30120BDE8F0810000FC6E0008F8
:100F80006666666666664A3F0000000000408F4065
:100F9000043B00202DE9F8430124DFF868801A4D56
:100FA000002700BF58F82410012003F06DFD022631
:100FB0006F800321342002F0CBFC642003F09DFD00
:100FC00004E000BF9DF8000002F06CFD69460120BE
:100FD00003F025FD0028F5D1688830B158F82410B9
:100FE0000AA002F0E9FDBDE8F883761EE0D1641C9A
:100FF0000A2CD7DB0BA002F0DFFD10A002F0DCFD15
:10100000F1E70000247100087400002025642062CC
:101010006175642066696E642073656E736F720D0E
:101020000A0D0A0063616E206E6F742066696E643B
:101030002073656E736F720D0A000000706C65613D
:10104000736520636865636B20796F757220636FC9
:101050006E6E656374696F6E0D0A0000FEE7000036
:1010600001000B4810B500684FF001044FF0020179
:1010700004D004F0EDFE40B906A003E004F0A4FEA5
:1010800018B90FA002F098FD0024204610BD000002
:10109000280000204661696C656420746F20656ECD
:1010A00061626C6520626C7565746F6F7468207422
:1010B00072616E736D697373696F6E200A0D000043
:1010C0004661696C656420746F2064697361626C49
:1010D0006520626C7565746F6F7468207472616EE0
:1010E000736D697373696F6E200A0D0001000B4800
:1010F00010B500684FF001044FF0020104D004F075
:10110000A7FE40B906A003E004F05EFE18B90DA0EA
:1011100002F052FD0024204610BD00002C000020EB
:101120004661696C656420746F20656E61626C65F0
:1011300020494D552073616D706C696E67200A0DF2
:10114000000000004661696C656420746F2064696A
:101150007361626C6520494D552073616D706C69D7
:101160006E67200A0D00000001F03CBF01F0AABF2D
:10117000010010B509484FF001042146006804D071
:1011800004F066FE40B906A003E004F01DFE18B9A5
:101190000DA002F011FD0024204610BD2C000020FF
:1011A0004661696C656420746F20656E61626C6570
:1011B00020706C616E7461722073616D706C696E09
:1011C00067200A0D000000004661696C65642074A8
:1011D0006F2064697361626C6520706C616E74610C
:1011E000722073616D706C696E67200A0D000000DB
:1011F00070B5050900F00F060124324629460DA0FE
:1012000002F0DAFC3146284601F07EFE012801D0CA
:101210000DA006E03146284601F034FE012804D036
:101220000FA002F0C9FC002402E014A002F0C4FCEC
:10123000204670BD726F773A256420636F6C756DC0
:101240006E3A25640000000053656C656374696F35
:101250006E20696E707574206572726F7200000086
:101260004368616E6765207468652073656C6563AB
:1012700074696F6E206661696C6564004368616EB5
:101280006765207468652073656C656374696F6E4B
:1012900020737563636565640000000070B50E4DD2
:1012A000044600F001020821284601F011FCC4F3B5
:1012B00040024FF40041094801F00AFCC4F38002E7
:1012C0000121284601F004FC2846BDE870400122B7
:1012D000202101F0FDBB000000040240000002409C
:1012E00028B1012805D0022805D000207047034806
:1012F00070470348704703487047000000100140E2
:10130000004400400014014010B538B1012807D056
:10131000022807D000F0CBF8002010BD024810BD15
:10132000024810BD024810BD38020020640E0020A3
:101330009022002010B5024601200021841E535C3B
:10134000712B08D1491CC9B20529F8D300215318C3
:101350001B7A682B04D022A002F02EFC204610BD80
:10136000491CC9B20529F2D353799179D279102B4E
:1013700006D0202B0DD0302BF1D110292BD006E038
:10138000102904D1BDE810401046FFF769BE0020C7
:1013900010BD10290BD011290ED0122911D01329FC
:1013A00014D0142901D01529F1D1012010BDBDE8B8
:1013B00010401046FFF7DCBEBDE810401046FFF7B6
:1013C000D3BEBDE810401046FFF712BFBDE8104085
:1013D0001046FFF7CBBEBDE810401046FFF786BEB3
:1013E000436F6D6D616E64206572726F72200A0DBD
:1013F000000000002DE9F04700270425DFF8A08059
:10140000DFF8A09050383E4601F1060A102845D278
:10141000DFE800F01108130C1517191B1D1F2144DC
:101420004444442334240325402702E03D2403257B
:101430002E27012613E0302411E037242BE03A2434
:1014400029E041240BE0452409E0492407E04D242C
:1014500005E0512403E0552401E0D8F82440032A94
:1014600019D04DB16A0009EB4400FEF744FFD8F8EB
:101470001420294620469047002E0FD0720009EB19
:1014800047005146FEF737FF31463846D8F814205A
:10149000BDE8F047104703250026E3E7BDE8F087E5
:1014A0004C00002070430020704703F026BB72B64A
:1014B000FEE700002DE9F84FDFF8B8A10022012473
:1014C0000AF1040B03254FF00F090BF1040E00BFC6
:1014D0000B6804FA02F63340B34273D10F7907F078
:1014E0000307012F01D0022F16D187684FEA420867
:1014F00005FA08FC27EA0C07D1F80CC00CFA08FC26
:101500004CEA070CC0F808C04768B7430E79C6F329
:10151000001696403E4346600E79F643B6070DD05E
:10152000C768560005FA06FC27EA0C07D1F808C080
:101530000CFA06FC4CEA070CC0F80CC00E7906F059
:101540000306022E10D1D60800EB8608D8F82060DA
:1015500057074FEAD76C09FA0CF7BE430F6907FA31
:101560000CF73743C8F8207006684FEA420C05FABA
:101570000CF7BE430F7907F0030707FA0CF7374360
:1015800007604E6816F4403F6DD03B4E376847F415
:1015900080473760366822F0030706F480460096DD
:1015A000364E07EB060CDCF8086897073F0F09FA80
:1015B00007F826EA0806DFF8C880404503D14FF057
:1015C00000081EE04FE0DFF8BC80404502D14FF03C
:1015D000010816E0DFF8B080404502D14FF0020864
:1015E0000FE0DFF8A880404502D14FF0030808E083
:1015F000DFF89C80404502D14FF0040801E04FF035
:10160000070808FA07F848EA0608CCF80888DAF864
:1016100000605746D1F804C09E435FEACC3C00D539
:101620001E433E60DBF800605F46D1F804C09E4375
:101630005FEA8C3C00D51E433E60DEF800607746D2
:10164000D1F804C09E435FEACC2C00D51E433E6017
:10165000084F0C373E68D1F804C09E435FEA8C2CDB
:1016600000D51E433E60521C102AFFF431AFBDE886
:10167000F88F0000003C0140443802400030014037
:10168000000002400004024000080240000C02403A
:101690000010024001488068704700009000002060
:1016A00002488168027811448160704790000020F0
:1016B0000B4810B5016841F400710160016841F404
:1016C00080610160016841F480710160032000F0D5
:1016D0008DF80F2000F006F800F03EF8002010BD55
:1016E000003C024010B5014688B00022192000F0ED
:1016F0005DF8192000F04CF813480024016841F00F
:1017000001010160006805A900F00100069068462B
:1017100000F018F900F046F90C490D4AB0FBF1F160
:101720000C48491E026040F2E732C0E90324C0E9D8
:10173000011400F031FB10B1012008B010BD0548C4
:1017400000F058FBF9E700004438024040420F0027
:1017500000000140BC3A00200C4882B0016841F40E
:1017600080410160006800F4804000900748001F3D
:10177000016841F0805101600068002200F0805053
:1017800000900F21901E02B000F010B844380240C3
:10179000002809DB00F01F02012191404009800070
:1017A00000F1E020C0F8001170470000F0B40E4BCB
:1017B0001B680C46C3F30223C3F10705042D00D9AF
:1017C0000425191D072901D2002300E0DB1E012694
:1017D00006FA05F1491E214099409E40761E1640AA
:1017E0003143F0BC02F03ABA0CED00E0064900F0DB
:1017F000070208684FF6FF03184040EA0220034A38
:1018000010430860704700000CED00E00000FA058E
:101810002DE9F0470E46050065D0DFF81481D8F8B1
:101820000000F7B200F00700B04207D288F800705D
:10183000D8F8000000F00700B04254D128683D4CB1
:10184000810712D5400703D5206840F4E05020609E
:101850002878000703D5206840F4604020602068A5
:10186000A96820F0F000084320602878C0072DD038
:10187000304968680839012812D0022813D003289B
:1018800011D00968890700292DDA216821F00301A8
:1018900001432160FFF7FEFE814641F2883A0EE0E7
:1018A00009688903EFE709688901ECE7FFF7F2FEB1
:1018B000A0EB0901514502D90320BDE8F08720685B
:1018C000696800F00C00B0EB810FEFD1D8F8001080
:1018D000404601F00701B14207D90770006800F0E7
:1018E0000700B04201D00120E7E72878400705D57E
:1018F0002068E96820F4E050084320602878000759
:1019000006D52068296920F4604040EAC1002060C3
:1019100000F058F82168084AC1F30311515CC8402F
:101920000649086006480068FFF7DCFE0020C4E7AF
:10193000003C0240083802404C7100089C00002026
:10194000940000200F2202600C4A136803F0030386
:101950004360136803F0F0038360136803F4E053FB
:10196000C36012684FF4E05303EAD20202610448F4
:10197000006800F007000860704700000838024067
:10198000003C02400448054900680968044AC1F364
:101990008221515CC84070479C00002008380240FA
:1019A0005C7100080448054900680968044AC1F3ED
:1019B0004231515CC84070479C000020083802400A
:1019C0005C710008154810B5006810F00C0214484E
:1019D00013D01449042A0FD0082A0ED10F4C241F0B
:1019E0002268236802F03F025B0207D52068C0F33B
:1019F0008810A0FB010106E0084610BD2168C1F374
:101A00008811A1FB00010023FEF744FC2168C1F30B
:101A10000141491C4900B0FBF1F010BD08380240FB
:101A20000024F40040787D012DE9F84F04006ED0C9
:101A30002078DFF84C93C007A9F104054AD009F1DA
:101A400004000168C1F38101012908D00068C0F3D6
:101A5000810002280AD1D9F80000400206D5286882
:101A6000800337D560680028E1D033E06068B0F5C6
:101A7000803F10D0B0F5A02F286810D020F480301F
:101A80002860286820F4802028606068A8B1FFF7EB
:101A900001FE06460DE0286840F48030F4E740F48B
:101AA00080202860F7E700BFFFF7F4FD801B642863
:101AB00073D828688003F7D50CE0FFF7EBFD0646E6
:101AC00005E000BFFFF7E6FD801B6428F0D828681A
:101AD0008003F7D42078DFF8AC8280074FF0000A4B
:101AE0003ED5A748001D016811F00C0F08D0006812
:101AF000C0F3810002280BD1D9F80000400207D4BE
:101B00002868800716D5E068012800D112E033E18B
:101B1000E068B8B10120C8F80000FFF7BBFD064639
:101B200005E000BFFFF7B6FD801B0228C0D828687B
:101B30008007F7D52868216920F0F80040EAC10045
:101B400028600DE0C8F800A0FFF7A4FD064604E0F9
:101B5000FFF7A0FD801B02281FD828688007F7D454
:101B60002078000722D5864F87486169703771B1A8
:101B700001210160FFF78EFD064604E0FFF78AFDB4
:101B8000801B022809D838688007F7D50EE0C0F816
:101B900000A0FFF77FFD064605E082E0FFF77AFD33
:101BA000801B02287DD838688007F7D4207840074A
:101BB00068D5DFF8CCB100270BF13C0BDBF8000057
:101BC000C0000BD4DBF8001041F08051CBF80010BE
:101BD000DBF80000012700F0805000906B4E306869
:101BE000C00510D4306840F480703060FFF752FDBB
:101BF000009005E0FFF74EFD0099401A022850D8EA
:101C00003068C005F6D55E4EA0686C3601280FD04E
:101C10000528306810D020F001003060306820F0D6
:101C200004003060A068B8B1FFF734FD00900FE009
:101C3000306840F00100F4E740F004003060F7E75E
:101C4000FFF728FD0099411A41F28830814266D899
:101C500030688007F4D50EE0FFF71CFD009007E028
:101C6000FFF718FD0099411A41F28830814256D899
:101C700030688007F4D42FB1DBF8001021F08051D8
:101C8000CBF80010A069C8B33D49091D0968C1F32C
:101C9000810102294AD00228504607D0C8F86000C6
:101CA00000E03CE0FFF7F6FC04463BE04746C8F89E
:101CB0006000FFF7EFFC064605E000BFFFF7EAFC17
:101CC000801B02282BD828688001F7D4D4E90701AB
:101CD0000843A16A2E4A490802EB0141626A41EABF
:101CE0008211084394F82C1040EA0161C9F80010F1
:101CF00001203866FFF7CEFC044606E03EE000BF58
:101D0000FFF7C8FC001B022809D828688001F7D516
:101D100034E000BFFFF7BEFC001B022802D90320FD
:101D2000BDE8F88F28688001F4D427E00128F7D0B7
:101D3000D9F80000E26900F4800191421CD1226AC6
:101D400000F03F01914217D147F6C071626A01402D
:101D5000B1EB821F10D1A26A4FF0FF3300F4403183
:101D600003EB5202B1EB024F06D194F82C1000F0B5
:101D70007060B0EB016F01D00120D1E70020CFE708
:101D80000438024000004742800E47420070004085
:101D90000000FFFF7047704710B5040003D094F8AF
:101DA0003D0010B107E0012010BD002084F83C0088
:101DB000204600F01EF8022084F83D00211D206816
:101DC00001F0A0FB012084F8460084F83E0084F86E
:101DD0003F0084F8400084F8410084F8420084F811
:101DE000430084F8440084F8450084F83D00002056
:101DF00010BD704790F83D10012901D001207047B7
:101E0000022180F83D100168CA6842F00102CA60F0
:101E100000680E4988420ED0B0F1804F0BD00C49BB
:101E2000884208D00B49884205D00B49884202D02D
:101E30000A49884204D1816801F00701062903D0CC
:101E4000016841F00101016000207047000001407D
:101E50000004004000080040000C00400040014029
:101E6000704770B50446006801694FF00005C9432A
:101E7000890715D4C168C943890711D4E91E0161D6
:101E800001202077206880698007204602D0FFF774
:101E9000E7FF04E000F098F8204600F096F8257778
:101EA00020680169C943490717D4C168C943490774
:101EB00013D46FF00401016102202077206880694B
:101EC00010F4407F204602D0FFF7CAFF04E000F084
:101ED0007BF8204600F079F8257720680169C9432E
:101EE000090716D4C168C943090712D46FF0080165
:101EF0000161042020772068C0698007204602D055
:101F0000FFF7AEFF04E000F05FF8204600F05DF858
:101F1000257720680169C943C90617D4C168C94338
:101F2000C90613D46FF010010161082020772068E2
:101F3000C06910F4407F204602D0FFF791FF04E013
:101F400000F042F8204600F040F82577206801694B
:101F5000C943C90708D1C168C943C90704D1891E4B
:101F60000161204600F032F820680169C943090682
:101F700009D4C168C943090605D46FF08001016125
:101F80002046FFF707FF20680169C943490609D4C5
:101F9000C168C943490605D46FF04001016120467C
:101FA00000F01EF820680169C94389060BD4C16896
:101FB000C943890607D46FF0200101612046BDE8BE
:101FC0007040FFF7E8BE70BD704770470068034976
:101FD000884201D1FFF764BB704700000000014058
:101FE000704770B5040004D094F83D00002510B18E
:101FF00006E0012070BD84F83C50204600F022F835
:10200000242084F83D002068C16821F40051C1609B
:10201000204601F0C3FA2068016921F49041016172
:102020002068416921F02A0141612068C16841F4BA
:102030000051C1602564202084F83D0084F83E00F2
:10204000002070BD7047FEE7044890F840000A2861
:1020500001D301207047002070470000C4440020D5
:102060001249A1F144004160783101607831C160CA
:102070007831816078314161783101617831C161B5
:102080003C3181613C314162283101622831C162B9
:102090002831816228314163A0310163A031C163DD
:1020A00028318163002180F84010704708450020E6
:1020B0002DE9F05F304E05463049B06B50F82500F1
:1020C00003F038FB05EB45004FEA4009DFF8ACB000
:1020D000DFF8ACA005EB450000240BF10C0B4FEA38
:1020E000800800BF306808EB840739180AEB8400C9
:1020F000002202F0D5FCB0680022391820480C30CC
:1021000000EB840002F0CCFC3069002239181C4836
:10211000183000EB840002F0C3FCB16909EB440005
:10212000085A0BEB440103F001FB641CE4B2032CDE
:10213000D8D3306A114950F82500091D03F0FAFA86
:10214000B06A0E4950F82500083103F0F3FA0C4F3D
:1021500000242D0117F12407316B05EB84000144A5
:1021600007EB8400002202F09BFC641CE4B2042C08
:10217000F2D3BDE8F09F0000C44400207C000020A2
:102180003C5200202DE9F041002190487124445434
:10219000491CC9B20529FAD3502141718C4D002147
:1021A00043186A5C491CC9B29A710429F8D3874A5A
:1021B0000021F73A4618535C491CC9B2B3720C2986
:1021C000F8D3002168264218491CC9B29675052922
:1021D000F9D31B227D49022002F048FC7B480021F4
:1021E0001B304454491CC9B20529FAD3512141710D
:1021F000002143186A5C491CC9B29A710429F8D3BA
:10220000724A0021EB3A4718535C491CC9B2BB72B1
:102210000C29F8D300214218491CC9B2967505292A
:10222000F9D36A491B221B31022002F01FFC6748C8
:10223000002136304454491CC9B20529FAD3522131
:102240004171002143186A5C491CC9B29A71042982
:10225000F8D35E4A0021DF3A4718535C491CC9B2E3
:10226000BB720C29F8D300214218491CC9B29675DB
:102270000529F9D355491B223631022002F0F6FB1D
:102280005249002051310C54401CC0B20528FAD3E9
:102290005320487100200B182A5C401CC0B29A7170
:1022A0000428F8D34A4A00200C320F18135C401C53
:1022B000C0B2BB720628F8D300200A18401CC0B276
:1022C00016740528F9D3414915225131022002F034
:1022D000CDFB3E48002166304454491CC9B2052953
:1022E000FAD354214171002143186A5C491CC9B2D8
:1022F0009A710429F8D3364A0021121D4718535CFD
:10230000491CC9B2BB720429F8D300214218491CE8
:10231000C9B296730529F9D32C49132266310220DC
:1023200002F0A4FB2949002079310C54401CC0B2B2
:102330000528FAD35520487100200B182A5C401C50
:10234000C0B29A710428F8D3214A002008320F182D
:10235000135C401CC0B2BB720428F8D300200A18DA
:10236000401CC0B296730528F9D31849132279315D
:10237000022002F07BFB154900208C310C54401CDC
:10238000C0B20528FAD35620487100200B182A5CE9
:10239000401CC0B29A710428F8D30C4A0020D33AEA
:1023A0000C18135C401CC0B2A3721028F8D3002094
:1023B0000A18401CC0B296760528F9D3BDE8F04152
:1023C00002491F228C31022002F050BB33530020FF
:1023D0007C00002010B55021002001F0ABFA064827
:1023E00001F0E0FB054801F053FB054801F098FAC5
:1023F000BDE81040FEF7CEBD2D330008B532000811
:10240000AB1400082DE9F0473D4DDDE909A62F6822
:102410000024DDF82090002F6ED0AF68EFB32F6955
:10242000DFB3AF69CFB300BF00EB8407D5F800C0BE
:1024300097ED000A95F8407007EB4707BF0007EBE0
:102440008407674487ED000A01EB8407D5F808C0CC
:1024500097ED000A95F8407007EB4707BF0007EBC0
:102460008407674487ED000A02EB8407D5F810C0A3
:1024700097ED000A95F8407007EB4707BF0007EBA0
:102480008407674487ED000A95F840C033F814705C
:102490000CEB4C0C4FEA4C0C00E02DE00CEB440C28
:1024A000D5F81880641CE4B228F80C70032CBBD358
:1024B00095F84020296A5FF0000041F8229095F8D5
:1024C0004020A96A41F822A006EB80012A6B91ED19
:1024D000000A95F84010090101EB80011144401CED
:1024E000C0B281ED000A0428EED315F8400F401C5D
:1024F00028700120BDE8F0874FF0FF30FAE70000B8
:10250000C44400202DE9FF4F334A4FF0FF30D2F88A
:1025100004C0BCF1000F5BD0D2F80080B8F1000F0E
:1025200056D0D768002F53D09168002950D05669F3
:102530008A46002E4CD01169002949D0D4698946B9
:10254000002C45D09569002D42D0516A00293FD01A
:10255000136A002B3CD093460391D26A002A37D0ED
:10256000DBF82810002933D0CDE90021DBF8342036
:10257000002A2DD0DBF83010002929D09646029190
:10258000DBF83C20002A23D0DBF8381000291FD0CC
:1025900058469346C0F804A0C0F81490C0F80C80C8
:1025A000C5614362019AC262029AC0F808C007601E
:1025B000066184614263C163039901620099C0F8B6
:1025C00030E0C0F838B08162002180F8401001206E
:1025D00004B0BDE8F08F0000C444002010B5FFF740
:1025E00059F80349CA6B91F8401042F8210010BD18
:1025F000C44400202DE9F04F6D4C87B0206840F0B6
:1026000001002060206800F001000590206840F083
:10261000010020602068664E00F00100143605902D
:10262000306840F0100030603068072700F010007C
:10263000059060154FF002084FF001094FF0030AB2
:1026400004978DE8010769465A48FEF733FF2015C5
:102650000090694604975748FEF72CFF012200219D
:102660002520FFF7A3F82520FFF792F8524D4FF4ED
:10267000E12B0C2300225946284602F0BCF92868B9
:1026800020F040002860286820F020002860E868DA
:1026900040F02000E860206840F0010020602068E1
:1026A00000F001000590206840F0010020602068E3
:1026B00000F001000590301F016841F40031016015
:1026C0000068049700F40030059004208DE80107AD
:1026D00069463848FEF7EEFE0825694635480497F6
:1026E0000095FEF7E7FE022200212620FFF75EF8A4
:1026F0002620FFF74DF8314F042300224FF4E1313B
:10270000384602F078F9386820F0400038603868C0
:1027100020F02000386029480C30016841F0200189
:102720000160206840F001002060206800F0010096
:102730000590206840F001002060206800F0010052
:102740000590306840F0200030603068049500F05B
:1027500020000590E0148DE8010769461548FEF752
:10276000A9FEA0140090694604951248FEF7A2FE47
:10277000032200214720FFF719F84720FFF708F848
:102780000F4C0C2300225946204602F034F92068F1
:1027900020F040002060206820F0200020600848E1
:1027A0000C30016841F02001016007B0BDE8F08FF6
:1027B0003038024000000240001001400044004058
:1027C00000140140074B024600209B6813F0010FE4
:1027D00001D0012070470968536823F440330B434C
:1027E000536070470020014030B58368002213F029
:1027F000010F02D00122104630BD8C680B682343C4
:102800004468054D2C40234343608368496823F4A2
:1028100000630B438360EEE7FFFEFFFC30B54B68BF
:102820008468002214F0010F02D00122104630BD4E
:10283000002B436823F4684301D08C682343436032
:10284000D1E9033423438468074D2C400D6805F01B
:1028500070652C43234383604968C36A23F4700383
:102860000B43C362E2E70000FDFCFFC010B54FF46C
:10287000407494FAA4F401F44073B4FA84F4E3408D
:1028800000EB8300C36A01F01F011F248C4002F09B
:102890001F02A3438A401343C36210BD044908B515
:1028A0000A6802430A6009680140009108BD0000FF
:1028B00030380240F0B50A680F2692FAA2F2B2FA56
:1028C00082F303248AE001279F4015EA07027DD0A6
:1028D0004D68012D01D0022D1BD18D68876892FAB9
:1028E000A2FCBCFA8CFC4FEA4C0C04FA0CFC27EA64
:1028F0000C0792FAA2FCBCFA8CFC4FEA4C0C05FACD
:102900000CF52F438760CD684768554397432F43A5
:1029100047600F69D0F80CC092FAA2F5B5FA85F5B8
:102920004FEA450E04FA0EF52CEA050C92FAA2F5D0
:10293000B5FA85F56D00AF404CEA070CC0F80CC045
:102940004D68022D33D192FAA2F5B5FA85F5082D1E
:1029500015D2D1F814C0056A92FAA2F7B7FA87F730
:10296000BF0006FA07F7BD4392FAA2F7B7FA87F756
:10297000BF000CFA07FC45EA0C05056217E0D1F828
:1029800014E0476A150A95FAA5FCBCFA8CFC4FEADC
:102990008C0C06FA0CFC95FAA5F5B5FA85F5AD0098
:1029A00027EA0C070EFA05FE47EA0E0747624D6854
:1029B000076892FAA2FCBCFA8CFC4FEA4C0C04FAB1
:1029C0000CFE27EA0E0792FAA2F200E005E0B2FA46
:1029D00082F2520095402F4307605B1C0A6815463F
:1029E000DA407FF470AF0020F0BD0000F0B502685F
:1029F0001D4B1E4C9F031E4D1E4E984207D0B842E1
:102A000005D0A04203D0A84201D0B04205D1D1F8F0
:102A100004C022F0700242EA0C02984210D0B84280
:102A20000ED0A0420CD0A8420AD0B04208D0124C1E
:102A3000A04205D0114CA04202D0114CA04203D1BB
:102A4000CC6822F44072224302608A68C2620A881B
:102A50008262984201D109690163416941F0010133
:102A600041610020F0BD0000000001400004004072
:102A700000080040000C00400040014000440140BC
:102A80000048014070B50E4DE8880F2804D200F0D0
:102A900019FF4FF0FF3070BD0A4E0024E988286806
:102AA0000144A4F10F00095C315507A001F084F83E
:102AB000641CA4B20D2CF1D300F004FF012070BD02
:102AC0004400002028020020253032582000000059
:102AD0000AB1816170470904FBE700002DE9F0416C
:102AE00090B000244FF47A750B940C94142168462E
:102AF0000D94FDF719FC182105A80E94FDF714FCA0
:102B00004A48016841F480710160006800F48070F7
:102B10000F9046481438016841F0010101600068D7
:102B2000022600F001000F9003200994CDE9056012
:102B300005A93F48FFF7BEFE3E480068C0F30220EB
:102B4000C0F10701042900D90421021D072A01D27E
:102B5000002000E0C01E4FF0010808FA01F2521EEA
:102B600002F0050181400801334981F800044FF06B
:102B7000E0214FF48020C1F80001304F0B940C94F9
:102B80000BA938460D94FFF72FFECDE902460094BD
:102B90000194694638460494FFF740FEB86840F453
:102BA0008060B8604FF440300E900EA92448FFF7C3
:102BB00009FE244A79153846FFF758FE4FF0007099
:102BC00090FAA0F1B1FA81F1C84007EB8001CA6820
:102BD0004FF0F87393FAA3F44FF44010B4FA84F46E
:102BE00020FA04F40726A64093FAA3F3B3FA83F37A
:102BF000D840B24308FA00F31A43CA60786840F03C
:102C000020007860B86840F00100B860B86810F043
:102C1000010F01D00CA004E015B16D1EADB2F5E7B7
:102C20000EA000F0C9FF10B0BDE8F08144380240AA
:102C3000000002400CED00E012E000E00020014046
:102C4000002301400100300241444320656E61626F
:102C50006C652073756363656564000041444320BF
:102C6000656E61626C65206661696C656400000078
:102C700010B5194802F024F8184C174A00212062B8
:102C80001032012002F050F860621348203001F049
:102C900041FFA0621048303001F03CFF0E4AE06274
:102CA000403201210A2001F0ABFF0B4A2063583269
:102CB00001210A2001F0A4FF074A6063703201215C
:102CC0000A2001F09DFFA063054A0021054802F09B
:102CD00077F8206010BD0000746E0008000000202E
:102CE000546D0008190E00082DE9F04186B0182136
:102CF0006846FDF719FB0420FFF7D0FD0120FFF720
:102D0000CDFD0220FFF7CAFD4FF400560125002437
:102D10000096CDE901541C4F03946946384604944B
:102D2000FFF7C8FDBE61CDE90054DFF86080694659
:102D300040460494FFF7BEFD0420CDE90004144F83
:102D4000694638460494FFF7B5FD4DF27A500326E4
:102D5000CDE90005CDE90264694604943846FFF7E1
:102D6000A9FD4FF40140CDE90005CDE902646946B3
:102D700004944046FFF79EFDB903C8F818100548B3
:102D8000B86106B0BDE8F0810008024000000240D2
:102D90000004024000007AD510B586B014216846C0
:102DA000FDF7C2FA2448016841F0010101600068A2
:102DB00000F00100059021480068C0F30220C0F136
:102DC0000701042900D90421021D072A01D200208D
:102DD00000E0C01E01228A40521E02F0050181401F
:102DE000174A0020090182F800144FF0E0224FF04A
:102DF0008051C2F80011ADF8000040F2F311CDE9A6
:102E000001014FF08044039069462046FFF7EEFD34
:102E1000206820F080002060A06844F20701884309
:102E2000A060606820F070006060A06820F0800002
:102E3000A06006B010BD0000403802400CED00E07C
:102E40001CE000E0FEE7FEE70448007C0A2801D30E
:102E5000012070474FF0FF3070470000043B002016
:102E60000749A1F11400416000F56671016000F2AC
:102E70001C71C1602831816000210174704700001D
:102E8000183B00202DE9F0410E4D07460E462868FC
:102E90000124A8B1C82103F01DFC012804D00AA018
:102EA00000F08AFE002408E00F4800231A4647700D
:102EB00086701946286803F013FA2046BDE8F081B1
:102EC0000AA0EDE7200000204170706C6963617416
:102ED000696F6E20666F72206D757465782066610B
:102EE000696C6564200A0D003C0000205468652070
:102EF0006D75746578206E6F74206372656174659A
:102F000064200A0D0000000010B54FF0FF330A28BE
:102F100009D2074A12F810408C4204D802EB400054
:102F20004078884201D2184610BD012010BD000033
:102F3000FC6E000870B505460E480F49806850F8D1
:102F4000250002F0F7FB0D49C5EB051000EB400032
:102F5000002401EB800501F5E16600BF05EB84016B
:102F600006EB8400002201F09BFD641CE4B22D2CD2
:102F7000F4D370BD043B002078000020804A00207C
:102F800030B40021154871224254491C89B20529E8
:102F9000FAD340214171124A00214418535C491C64
:102FA00089B2A3710429F8D30C4A0021E83A4418E5
:102FB000535C491C89B2A372B429F8D3002168225A
:102FC0004318491C89B283F8BE200529F8D3C322CF
:102FD00030BC0249022001F049BD000070520020BF
:102FE0007800002070B5174E044688B0306801257F
:102FF00020B1C82103F06EFB012803D0002508B0E2
:10300000284670BD10480178032913D8047034B1E4
:10301000012C06D0022C06D0032C06D00BE00BA10D
:1030200004E00FA102E015A100E01CA1684600F039
:10303000D3FD00E0002500231A461946306803F04E
:103040004FF9DCE7200000203C0000204172726153
:10305000792053616D706C696E676D6F64650000F7
:1030600053696E676C65706F696E742053616D7023
:103070006C696E676D6F646500000000496E737463
:1030800072756374696F6E73204172726179205337
:10309000616D706C696E676D6F646500496E737405
:1030A00072756374696F6E732053696E676C6570B7
:1030B0006F696E742053616D706C696E676D6F64BB
:1030C0006500000070B50F4D06460124286820B148
:1030D000C82103F0FFFA012802D00024204670BD69
:1030E000094881880A2904D8084931F816108180D6
:1030F00000E0002400231A461946286803F0F0F87F
:10310000ECE70000200000203C000020106F0008C9
:10311000094810B542685AB1016849B1D0E9024383
:10312000C0E90021C0E9023400210174012010BD72
:103130004FF0FF3010BD0000043B00200348002189
:103140000170417081700A21818070473C0000202D
:1031500010B5FEF79FFA0349CA68097C42F82100BE
:1031600010BD0000043B00202DE9F041264E05462D
:103170002DED088B3068E8B39FED248A9FED24AADB
:103180009FED24BADFED248ADFED24BA9FED249B66
:103190000024F7EE00AA4FF4E177306830F814000D
:1031A00000EE100AF8EE400A80EE880AC0EE0A0A25
:1031B00070EEEA0A80EE8B0AF0EE680A50EE080A1A
:1031C00080EEAB0A20EE400A10EE100AFDF726FA58
:1031D00041EC100B00F054FD53EC192B51EC100B8B
:1031E000FDF754F9FDF75EFA45F82400641CA4B21B
:1031F000BC4200E005E0D0D30120BDEC088BBDE867
:10320000F0814FF0FF30F8E7043B002000007A44E3
:10321000295C0F3F00E09245DB8A2D3F4BC8873E7B
:10322000000000C0CC8083402DE9F0411F4D204FAD
:10323000AE150446052818D204F0010202212846E2
:10324000FFF746FCC4F3400229152846FFF740FC6F
:10325000C4F38002A9142846FFF73AFC012210218A
:103260002846FFF735FC00221AE0441F04F0010253
:103270004FF480412846FFF72BFCC4F340024FF483
:1032800000412846FFF724FCC4F380024021284671
:10329000FFF71EFC002210212846FFF719FC01222F
:1032A00031463846BDE8F041FFF712BC0004024049
:1032B0000000024010B500231B4A1DE03F2822D029
:1032C00006DC36280ED0392810D03C2806D116E06E
:1032D00046281CD048281ED0542820D0548844F0BA
:1032E000800406E0548844F0010402E0548844F06D
:1032F00002045480401C5B1C8B42DFD310BD5488F9
:1033000044F00804F5E7548844F00404F1E75488D5
:1033100044F01004EDE7548844F02004E9E75488B1
:1033200044F04004E5E70000740000208AB2014642
:10333000012001F09BBB000070B50D4614004FF05A
:10334000FF3107D00A2805D8144A02EB4002527810
:10335000AA4201D2084670BDFFF766FF2846FDF776
:103360009DFFF02000BF401E10F0FF00FAD1FDF7D6
:1033700035FB80B2FDF70DF99FED091B53EC112BC6
:10338000FDF784F89FED081B53EC112BFDF77EF839
:10339000FDF72BF92080012070BD0000FC6E0008B5
:1033A0006666666666664A3F0000000000408F4021
:1033B00010B5008800EE100AB8EE401A9FED170A0B
:1033C000C1EE000A9FED161AC0EE811AF7EE000A50
:1033D00031EEE01ADFED131AC1EE210A9FED121A49
:1033E00010EE801ADFED110A81EE200A20EE400A6D
:1033F00010EE100AFDF712F941EC100B00F040FC42
:103400009FED0B1B51EC100B53EC112BFDF73EF80D
:10341000FDF748F900EE100A10BD000000007A44E4
:10342000295C0F3F00E09245DB8A2D3F4BC8873E69
:10343000000000C0CC80834010B54FF0E020006950
:1034400003F096FA012803D0BDE8104002F044BE14
:1034500010BD000030B593B030216846FCF764FF22
:1034600014210CA8FCF760FF1C480025016841F0FE
:1034700080510160006800F0805011901848016888
:1034800041F4404101600068022400F44040119082
:1034900001200090000401908001CDE90640192030
:1034A0000890C820CDE9090404200B906846FEF777
:1034B000BBFA08B172B6FEE70CA90F2081E8310013
:1034C0004FF48050CDE90F0503210CA8FEF7A0F9B9
:1034D000002801D072B6FEE713B030BD403802407C
:1034E000007000400248016841F4700101607047BB
:1034F00088ED00E00148FEF7B4BC0000BC3A0020B3
:1035000070470000F0B502681D4B1E4C9F031E4D16
:103510001E4E984207D0B84205D0A04203D0A84220
:1035200001D0B04204D122F0700C4A6842EA0C0289
:10353000984210D0B8420ED0A0420CD0A8420AD077
:10354000B04208D0124CA04205D0124CA04202D08A
:10355000114CA04203D122F44074CA6822434C6942
:1035600022F08002224302608A68C2620A68826294
:10357000984201D10969016301214161F0BD000058
:10358000000001400004004000080040000C004022
:1035900000400140004401400048014070B504462D
:1035A00000680169E26821F4405111430161216919
:1035B000A068E26908436169114308432168CA6849
:1035C00049F20C639A430243CA6020684169A269C8
:1035D00021F440711143416131492068884202D091
:1035E0003049884202D1FEF7DDF901E0FEF7CAF961
:1035F000E2690023192164253226B2F5004F626882
:1036000028D0A0FB0101930F9200FCF743FE014676
:10361000B0FBF5F06FF01802504301EB800006EBB1
:103620000010B0FBF5F000F0F002B1FBF5F002EB9A
:103630000012B1FBF5F06FF01803584301EB800066
:1036400006EB0010B0FBF5F000F00F00216810440D
:10365000886070BDA0FB010192185B41FCF71AFE67
:103660000146B0FBF5F00201B1FBF5F06FF0180375
:10367000584301EB800006EBC000B0FBF5F000F012
:10368000F80002EB4002B1FBF5F0584301EB80007B
:1036900006EBC000B0FBF5F000F00700D6E7000035
:1036A0000010014000140140014800F00FB8000074
:1036B00038020020014800F009B80000640E002024
:1036C000014800F003B80000902200202DE9F041ED
:1036D000044600680568C7684169A9064FF00006FE
:1036E00015D54068E28AA168C0B28854E18A491CB5
:1036F0008AB2E282E1898A4200D3E682628B8A4200
:1037000002D2618B491C6183616A01B18847280636
:1037100016D5380614D5A08A50B3012084F82800A5
:10372000618A6068405C21684860608A401C80B2A1
:103730006082A189884200D36682A08A401EA0824E
:10374000680613D5780611D5A08AE0B1618A606851
:10375000405C21684860608A401C80B26082A18918
:10376000884200D36682A08A401EA082BDE8F08114
:103770002068C16821F08001C1602068C16841F003
:103780004001C160DCE72068C16821F04001C160F0
:10379000206A00B1804784F82860E7E7F8B516464C
:1037A0000F460446002521E002F034F8A08AADF867
:1037B000000002F04FF8A089BDF8001088421DD922
:1037C000795D208A6268115402F024F8208A401C36
:1037D00080B22082A189884201D300202082A08A61
:1037E000401CA08202F036F86D1CADB2B542DBD3AE
:1037F0002068C16841F08001C160F8BDBDF80010CB
:103800008842D1D12068C1680906CDD4C16841F091
:103810008001C160C8E70000264925484FF4806256
:10382000086001F12C00486000F5806088608A81A2
:103830005000C881002008824882C88208834883DB
:103840008882C8610862486281F8280001F62C412C
:10385000194B0B6001F12C034B6001F22C438B6080
:103860008A819300CB8108824882C882088348837A
:103870008882C8610862486281F8280010490F4BAD
:103880000B6001F12C034B6003F5A0538B604FF4E8
:10389000A0538B81CA8108824882C88208834883EA
:1038A0008882C8610862486281F828007047000079
:1038B0000010014038020020004400400014014084
:1038C0009022002010B5044CA1882068FCF72CFD44
:1038D0000020E08010BD000044000020054804499D
:1038E00001604FF4807181800021C1807047000029
:1038F000280100204400002001780748C38802689E
:10390000D154C188491C89B2C1808288914201D3B7
:103910000021C1807047000044000020FEE7000045
:1039200018B103498861002070476FF005007047A7
:103930004C000020032802D96FF005007047034AAD
:10394000106211700020D061704700004C00002010
:103950002DE9FC5F0D46064628446FF0050C9028C3
:103960007CD2494C6FF004092046D4F8208042688C
:103970004FF0FF0A4FF0AA0B4FF0270EF7B2C6F335
:103980000721B8F1000F0FD04FF6FF7000EA450392
:103990002046B8F1010F007816D0B8F1020F33D0ED
:1039A000B8F1030F6ED142E0042D6BD8F2B38DF85D
:1039B00000A08DF801B08DF802E08DF804108DF8AC
:1039C00003700521684659E082B35B1DB3F5807F23
:1039D00032D88DF8000003208DF80100280A8DF8F8
:1039E00002108DF804008DF803708DF80550062143
:1039F000684600F01DF9010A8DF806108DF80700E1
:103A000008216846626839E0032D3BD823696BB111
:103A10008DF800A08DF801B08DF802E08DF804104B
:103A20008DF8037005226946984728E017E0E7689B
:103A3000AFB1B3F5807F03D96FF00300BDE8FC9F01
:103A40004006F1B2000E114AB847012817D1626949
:103A50002AB10E49002001F580730BE012E04846C0
:103A6000ECE700BF31F8107000EB060C401C23F8A7
:103A70001C7080B2A842F5D32946304690470020FA
:103A80006662DBE76046D9E74C0000207042002008
:103A900018B103494861002070476FF00500704776
:103AA0004C0000202DE9FC413B4C6169002955D0B8
:103AB0003A49E2698854521CE261206A002630B11A
:103AC00001282FD0022865D0032860D162E0087851
:103AD000552804D0521E3148491CE2613CE00B2AB3
:103AE00055D30A252D4F00204FEA000317F803C0D5
:103AF0005B1C6044C0B2AB42F8D38B7A8342E9D1FD
:103B00004888ADF800008888ADF80200C888ADF894
:103B100004000889ADF80600487804226946FDF7DC
:103B200069FC37E0022A32D948780328D2D1887854
:103B3000401D904212D888180D4630F8020C921E93
:103B400047BA91B2154800F073F8874208D0E2698D
:103B5000691C521E1148E261FCF7CDFBBDE8FC81F7
:103B6000A8780F4B42080021606A0AE005EB410784
:103B700001EB000CB7F80370491C7FBA23F81C70E6
:103B800089B29142F2D311466269904702E0B2F5E0
:103B9000807FE3D1E661E1E74C0000207042002025
:103BA0007043002018B103494860002070476FF04F
:103BB000050070474C0000200FB4054B10B503A959
:103BC000044A029800F088FB10BC5DF814FB00006A
:103BD000C54A0008200100200FB4084B10B504A905
:103BE00002AA039800F078FB044602A9002000F026
:103BF000F6FE204610BC5DF814FB0000DF4900080B
:103C000003B401984100009850EAC12018BF042075
:103C10004A0D18BF40F0010040F2FF72B2EB515F55
:103C200008BF40F00200012808BF052002B070471D
:103C3000F0B5FF23084E1C46002206F5807705E00C
:103C4000855C5D40735D63407C5D521C8A42F7DB9E
:103C500044EA0320F0BD0000246F00080907090EA4
:103C6000002804DB00F1E02080F80014704700F029
:103C70000F0000F1E02080F8141D704700000000E4
:103C800070B52DED020B2DED0A8B82B00D98C40F8F
:103C900020F00045AE48854248D3AE48854219D34E
:103CA0000C99C5F31300084309D09DED0C0B02B02D
:103CB000BDEC0A8B02B0BDE8704000F009BA002CE0
:103CC00014BF9FEDA50B9DED0C0B02B0BDEC0A8B54
:103CD00002B070BD9FEDA20B53EC102B9DED0C0BB1
:103CE00051EC100BFCF7C6FC0AD2022000F02CFAB3
:103CF00002B0BDEC0A8B02B0BDE8704000F0F4B930
:103D00009FED990B53EC102B9DED0C0B51EC100B10
:103D1000FCF798FC0AD2022000F016FA02B0BDECC3
:103D20000A8B02B0BDE8704000F0EEB990489FEDFC
:103D300092BBA8425CD29248854219D291487844FD
:103D400000EBC40090ED000B53EC102B9DED0C0B21
:103D500051EC100BFCF794FB41EC1A0B8A487844A9
:103D600000EBC40090ED009BC4F10100041B36E0A1
:103D70009FED870B53EC102B9DED0C0B51EC100BB2
:103D8000FCF784FB41EC100B8348784400EBC40043
:103D900090ED001B51EC100B53EC112BFCF7CFFAFC
:103DA000FCF704FC0446FCF7E3FB41EC180B9FED29
:103DB0007C0B53EC102BFCF769FB9DED0C1B53ECBB
:103DC000112BFCF760FB41EC1A0B9FED770B51ECCC
:103DD000180B53EC102BFCF759FB41EC190B51EC71
:103DE0001A0B53EC192BFCF74BFBCDE90C011BE034
:103DF0006F48854217D29FED700B53EC102B9DED51
:103E00000C0B51EC100BFCF79AFA53EC1B2BFCF744
:103E100031FC08D29DED0C0B53EC1B2B51EC100B1D
:103E2000FCF78DFA6EE000249DED0C0B53EC102B8B
:103E300051EC100BFCF72AFB41EC180B60480521F4
:103E4000B0EE480AF0EE680A784400F0C5F853EC8A
:103E5000182B51EC100BFCF719FB9DED0C1B53ECD0
:103E6000112BFCF710FB41EC180B9FED570B5CB3CB
:103E700053EC182B51EC100BFCF702FB9DED0C0BD7
:103E800041EC1C0B53EC182B51EC100BFCF7FEFA19
:103E900053EC1C2BFCF7FDFC53EC192BFCF7F3FA4D
:103EA00053EC1A2BFCF7ECFA53EC1B2BFCF7EBFA58
:103EB000CDE900016FF47F70844226DB01EB0450F2
:103EC00001909DED000B00E753EC102B51EC180B0B
:103ED000FCF7D6FA9DED0C0B41EC190B53EC182BAB
:103EE00051EC100BFCF7D2FA53EC192BFCF7D1FC78
:103EF0009DED0C1B53EC112BFCF7C2FA53EC1B2B62
:103F0000FCF7C1FA41EC100BDFE608464FF07A519E
:103F100001EB04519FED2E0B084453EC102B019044
:103F20009DED000B51EC100BFCF7B0FA0D4645EC83
:103F3000100B044651EC100BFFF762FE042808BF7B
:103F400000F0E2F845EC104BBFE600000000000076
:103F5000422E86400000F07F0000000000000000BC
:103F6000EF39FAFE422E864051302DD5104987C0D8
:103F7000422ED63F00000000000000000000F03F8D
:103F8000B2A2F03F363400002634000000000000EA
:103F9000FE822B654715F73FDA3300000000000072
:103FA0000000E0FE422EE63F763C7935EF39EA3DEF
:103FB0000000303E000000009C7500883CE4377E25
:103FC0004C33000000000000000000000000004032
:103FD000000000000000700170B504462DED028B5A
:103FE0004D1E00EBC500B0EE408AF0EE608A90ED09
:103FF000000B35F0060017D053EC182B51EC100BCA
:10400000FCF744FA41EC100B6D1E04EBC50090ED7B
:10401000001B51EC100B53EC112BFCF790F941EC09
:10402000100B35F00600E7D1022D36D0042D1CD040
:10403000062D1CBFBDEC028B70BD53EC182B51EC50
:10404000100BFCF723FA94ED0A1B53EC112BFCF731
:1040500076F953EC182BFCF719FA94ED081B53EC86
:10406000112BFCF76CF941EC100B53EC182B51ECB5
:10407000100BFCF70BFA94ED061B53EC112BFCF71D
:104080005EF953EC182BFCF701FA94ED040B53EC9A
:10409000102BFCF754F941EC100B53EC182B51EC9E
:1040A000100BFCF7F3F994ED021B53EC112BFCF70A
:1040B00046F953EC182BFCF7E9F994ED001B53EC8F
:1040C000112BFCF73CF9BDEC028B41EC100B70BDE1
:1040D00010B553EC102B51EC100BFCF730F941EC00
:1040E000100B10BD000000009FED050B10B553EC48
:1040F000102B51EC100BFCF7C9F941EC100B10BD63
:1041000000000000000000709FED050B10B553EC9F
:10411000102B51EC100BFCF7B9F941EC100B10BD52
:10412000000000000000001002E008C8121F08C1D3
:10413000002AFAD170477047002001E001C1121F28
:10414000002AFBD170470000014908607047000059
:10415000240100202DE9FF5F82B00021DDE9043059
:10416000020DDDF840B0034318D044F61050A2F21F
:10417000FF3242431514119801281FD0A5EB0B0004
:10418000401C5FEA000A4FF000064E4FDFF83891FE
:10419000B046504615D5CAF1000413E01198012429
:1041A0004AA3012801D16FEA0B010298119AC0E9D4
:1041B0000031C0E9024206B0BDE8F09FCBF100003B
:1041C000DFE704460021404A491842EB0450CDE99C
:1041D000001012E0E00707D032463B464046494611
:1041E000FCF754F98046894632463B46104619464C
:1041F000FCF74CF906460F466410002CEAD1DDE9C5
:104200000401DDE90023BAF1000F06DAFCF73EF9FC
:1042100042464B46FCF73AF905E0FCF73AFB4246CA
:104220004B46FCF736FB04460E460022284BFCF7B3
:1042300021FA03D84FF0FF30014607E00022254B5A
:1042400020463146FCF77BF8FCF792FB102409E08E
:10425000002C0ADB0A220023FCF71CF8039B3032F7
:104260001A55641E50EA0102F2D1641C039AC4F18B
:1042700011031444119A012A03D0012208430DD1DD
:104280000AE0084304D000204FF0110B119072E7B0
:10429000A3EB0B056D1E0DE05B4504DD4FF0000246
:1042A00005F1010504E003DA4FF00002A5F1010574
:1042B000002AECD002981199C0E90231C0E900450A
:1042C00079E70000000014400000F03F30000000DB
:1042D0000000F0430000E03F2DE9FF4F95B09A4603
:1042E000884606460025EEE1252877D1002427469A
:1042F000F94A0121039400E0044316F8013F203BF2
:1043000001FA03F01042F7D130782A2811D06FF06B
:104310002F033078A0F13002092A16D8039A44F00E
:10432000020402EB820203EB42021044761C03906B
:10433000EFE758F8042B0392002A03DA504244F4C2
:104340000054039044F00204761C30782E2816D1D5
:1043500016F8010F44F004042A280DD06FF02F0244
:104360003078A0F13003092B09D807EB870302EB63
:104370004303C718761CF3E758F8047B761C3078A3
:104380006C280FD006DC4C2817D068280DD06A287E
:1043900014D104E0742810D07A280FD10DE044F431
:1043A00000140AE044F4801401E044F440147278EC
:1043B000824202D104F58014761C761C307866287F
:1043C0000BD013DC582877D009DC002875D045289D
:1043D000F6D04628F4D047281AD193E118E0632894
:1043E00035D0642879D0652812D18BE1702873D03C
:1043F00008DC6728F1D069286FD06E280DD06F28AF
:1044000006D1ACE073282CD0752874D0782853D00E
:104410005246179990476D1C54E1C4F3025002288C
:1044200009D003280DD0D8F8001004280DD00D6055
:1044300008F1040846E1D8F80010EA17C1E9005273
:10444000F6E7D8F800100D80F2E70D70F0E718F8E5
:10445000041B8DF8001000208DF80100EB460120B0
:1044600003E058F804BB4FF0FF3061074FF0000144
:1044700002D40DE009F101018946B9420FDA814504
:10448000F8DB1BF809100029F4D108E009F101015B
:1044900089468142FADB1BF809100029F6D10398FE
:1044A0005346A0EB090721463846179A00F080FAD8
:1044B000284400EB090507E044E008E10DE01BF8A3
:1044C000010B524617999047B9F10109F7D25346AB
:1044D00021463846179AF2E039E00A21C4F3025225
:1044E0004FF0000B0091022A06D058F8040BC117B8
:1044F000032A09D00AE023E008F1070020F00702B0
:10450000F2E80201904605E000B2C117042A01D189
:1045100040B2C117002906DA0A460021404261EB89
:1045200002012D2202E0220504D52B228DF8042061
:10453000012203E0E20701D02022F7E7914657E08D
:104540000A2100E010214FF0000B00910BE0102138
:104550004FF0000B44F004040827009103E008200A
:104560004FF0000B0090C4F30252022A05D058F815
:10457000040B0021032A08D008E008F1070020F00E
:104580000702F2E80201904603E080B2042A00D15B
:10459000C0B24FF0000922072AD53278702A07D01E
:1045A000DDF800C08CF0100C5CEA0B0C05D00EE0BE
:1045B00040228DF80420012208E050EA010306D0D1
:1045C00030238DF804308DF8052002229146009B9F
:1045D00083F0080353EA0B030AD150EA010201D128
:1045E000620705D530228DF804204FF001097F1EA7
:1045F0003278582A04D039A20C920CAA02920BE00D
:104600003BA2F9E75B46009AFBF744FE0C9B9B5CE0
:10461000029A521E0292137050EA0102F2D10298DD
:1046200004A9081A00F1200B600702D524F4803495
:1046300000E001275F4502DDA7EB0B0000E0002052
:1046400000EB0B01009003984944401A0390E003EB
:1046500006D453462146179A039800F0A9F9054459
:10466000002706E001A85246C05D179990476D1CCF
:104670007F1C4F45F6DBE0030CD553462146179AC5
:10468000039800F095F9054404E03020524617994C
:1046900090476D1C0099481E00900029F5DC08E049
:1046A0000298029952460078491C02911799904746
:1046B0006D1CBBF10001ABF1010BF1DC5BE100F023
:1046C00065F90544761C307800287FF40DAE19B0EA
:1046D0002846BDE8F08F0000092801003031323350
:1046E000343536373839616263646566000000002E
:1046F0003031323334353637383941424344454618
:1047000000000000600700D4062708F1070020F031
:104710000700F0E80223804603F0004C5FEA0C003B
:1047200001D097A009E0200501D596A005E0E0079B
:1047300001D095A001E0AFF24C001390307823F047
:10474000004365280CD006DC452809D046281DD03A
:1047500047287FD13BE0662818D067287AD136E019
:104760000021112F01DB112000E0781CCDE90001B0
:1047700004A90CA8FFF7EEFCDDE90D010C9A4FF03F
:10478000000B07F10109109200914EE04FF000403C
:104790000097CDE9011004A90CA8FFF7DBFCDDE9C7
:1047A0000D020C9B0F994FF0000B91461093009255
:1047B00011B9791C00EB0109B7EB090003D4C0F172
:1047C000FF3B07F10109A9EB0700019042E0012F2F
:1047D00000DA01270021112F01DD112000E0384609
:1047E000CDE9000104A90CA8FFF7B4FCDDE90D0137
:1047F0000C9A00914FF0000BB946109221070FD48C
:10480000009A4A4503DA914601E0A9F10109B9F19C
:10481000010F05DD109AA9F10101515C3029F4D096
:10482000B84202DA10F1040F03DA0121CDE90110D8
:1048300010E0002803DC8344A9EB000102E0411CE6
:10484000494500DD8946A0EB0B00401C01904FF06C
:1048500000400290200705D40198484502DB4FF044
:10486000FF30019000208DF84B0002980DF14B07AE
:10487000B0F1004F25D002200C902B200D90029813
:1048800000280CDA404202902D200D9007E00A210A
:104890000298FBF723FF3031029007F8011D0C99B5
:1048A000481E0C900029F2DC02980028EFD1791EF6
:1048B0000D980870307800F0200040F0450007F8AF
:1048C000020D11A8C01BC01D02901398007800B102
:1048D000012000EB0901019801EBE071029801440D
:1048E0000398401A401E0390E00306D45346214625
:1048F000179A039800F05CF805441398007818B1F3
:104900005246179990476D1CE00323D55346214624
:10491000179A039800F04CF805441BE0BBF1000F18
:1049200007DB0098584504DD1098179910F80B0024
:1049300001E0179930205246904701980BF1010B86
:10494000401E05F10105019004D12E205246179911
:1049500090476D1CB9F10001A9F10109DEDC05E009
:1049600017F8010B5246179990476D1C0299481E83
:1049700002900029F4DC53462146179A03989EE6DC
:104980002D0000002B000000200000002DE9F04168
:10499000044600251E461746880404D405E039461F
:1049A0002020B0476D1C641EF9D52846BDE8F08173
:1049B0002DE9F041044600251E469046C80301D566
:1049C000302700E02027880404D505E0414638461A
:1049D000B0476D1C641EF9D52846BDE8F0810A6811
:1049E000531C0B601070704710B5FEF715FFBDE843
:1049F0001040FDF7FFBD00B591B0CDE900010020EA
:104A00000290CDE90302CDE9053007906846FDF735
:104A1000E8FA002801D0FCF74AFD11B000BD2DE9ED
:104A2000F0410E46FCF770FC00281BD0044600F055
:104A3000F1FE678B00F00EFF0025AFB1218BA0685F
:104A4000405C307000F0E6FE208B401C80B220837A
:104A5000E189884200D32583608B401E608300F08B
:104A6000F9FE0120BDE8F0812846FBE770B5144649
:104A70000D46FCF749FC002805D022462946BDE832
:104A80007040FEF78BBE70BD10B5FCF729FC002806
:104A900005D00C23BDE810400022FFF7ACBF10BDCD
:104AA00009683AB1C1700A0A82700A0C4270090E94
:104AB0000170704701700A0A42700A0C8270090E78
:104AC000C1707047024948600A685206FCD57047B9
:104AD00000100140FCF7ECFDFEF7BCFCFEF704F90A
:104AE000FFF782FFFDF7FAFFFEF756F900F028F80E
:104AF000FEF7BEF800F036F8FEE710B5EFF30581DB
:104B000011B16FF0050403E0002408B100F086FF46
:104B1000204610BD10B54FF00001EFF305826AB9D1
:104B200048B1D0E902202AB1202807D3104601F06D
:104B300079F902E010B901F067F90146084610BDA5
:104B4000EFF3058010B16FF005007047044801686D
:104B500011B14FF0FF307047012101600020704714
:104B6000F000002010B5EFF3058010B16FF00500E4
:104B700010BD08480168012902D04FF0FF3010BD78
:104B8000054A002182F8141D0221016001F09EF8FF
:104B9000002010BDF00000200BE000E0F8B51D463D
:104BA0006FF003026FF002064FF00004EFF305838D
:104BB000A3B1F0B1E9B1E5B9002200926A4601F073
:104BC0003BFD012817D10098B0B10C494FF080503F
:104BD0000860BFF34F8FBFF36F8F0DE048B141B155
:104BE0002A4601F08DFC012806D025B16FF00104A2
:104BF00002E0144600E034462046F8BD04ED00E033
:104C0000F8B514464FF00005EFF3058212BB08B368
:104C100001B3A4B1D4E9023263B1502A1AD3226994
:104C2000C2B1676900FB01F6B74213D3009501F0EA
:104C3000DFFA07E072B9226962B9626952B90022EB
:104C400001F0B5FA050005D00CB1216800E00021A3
:104C500000F082FE2846F8BDF8B51D466FF003024D
:104C60006FF002064FF00004EFF30583ABB100B321
:104C7000F9B1F5B90022134600926A4601F0E0FB53
:104C8000012818D10098B8B10C494FF08050086045
:104C9000BFF34F8FBFF36F8F0EE050B149B10023C8
:104CA0002A4601F01DFB012806D025B16FF0010452
:104CB00002E0144600E034462046F8BD04ED00E072
:104CC00070B505464FF00004EFF3058050BB0DB101
:104CD000686800E00020C10701D0012600E000263E
:104CE00000071FD46DB1D5E9021021B1502819D3A6
:104CF0001EB1042002E020B114E0012001F04AFAC4
:104D000005E00EB1042000E0012001F038FA0400B3
:104D100008D00DB1296800E0002100F01DFE0EB1A1
:104D200044F00104204670BDF8B5144603460E4613
:104D30004FF00005EFF3058098BB93B39E423DD83A
:104D40004CB1A0680028E06803D0502836D3012079
:104D500002E008B132E00020012B05D010B3184664
:104D6000A26801F0ECF920E040B10320009000229D
:104D700011460120A36801F03BFA04E00322002160
:104D8000012001F014FA050018D086B100231A465C
:104D9000194601F0A5FA012809D0284600F0F0FDD7
:104DA00000250BE0184601F0ADF9050006D00CB166
:104DB000216800E00021284600F0CEFD2846F8BD1D
:104DC0002DE9FF414FEA01034FF00005EFF30581A4
:104DD000039549BB40B38027182100244AB31668C5
:104DE00006B1344696691EB13146761E382E02D27F
:104DF0001679F60703D0002004B0BDE8F0815669AB
:104E000006B1B708D2F808C0BCF1000F0DD0D568C4
:104E10005C2D18D312693AB136B18DE806103A46C6
:104E2000214601F07AFD03900DE0D6685EB9126963
:104E30004AB903AACDE90012BAB2214601F040FDF9
:104E4000012800D003950398D6E700002DE9F04132
:104E5000134C0F460546E6682068001D00F072FC02
:104E6000681C07D137B12168BDE8F0410D48091D24
:104E700000F0C4BC20683544B5424560216805D2C5
:104E8000A06BBDE8F041091D00F0A0BC606B091DDE
:104E900000F09CFCA06A854200D2A562BDE8F081CA
:104EA000A0000020D05800202DE9F041054600F078
:104EB000B1FC2D4CA068401CA06020682B4F10B1A5
:104EC000606930B32BE02560A068012827D1002657
:104ED00006EB860007EB800000F06AFC761C382E9B
:104EE000F6D3234800F064FC2148143000F060FC45
:104EF0001F48283000F05CFC1D483C3000F058FC96
:104F00001B48503000F054FC194860631430A06313
:104F100005E02068E96AC06A884200D82560606AB6
:104F2000401C60626864E86A2169884200D9206197
:104F300000EB800007EB8000291D00F05FFC00F013
:104F400089FC606900280CD02068E96AC06A884240
:104F500007D208494FF080500860BFF34F8FBFF36E
:104F60006F8FBDE8F0810000A000002020540020D9
:104F70008058002004ED00E038B500F04BFC104CE8
:104F80002068C8B90F4800F013FC0E48143000F038
:104F90000FFC0C48E060143020610A4B0020F03B0D
:104FA000009003F1500210210A2001F021F9206045
:104FB00010B105A100F0D0FCBDE8384000F04ABCBB
:104FC000DC000020D4590020546D72510000000014
:104FD00030B4026C0B46002A0BD0C1681144C1608A
:104FE0008468A14201D30168C16030BC1846FBF758
:104FF00082B930BC70472DE9F041856B17460446F5
:105000000026026C82B1C7B1E068FBF774F9E16871
:10501000206C091AE1602268914202D2A168081A44
:10502000E060022F16D017E02068A8B9A06801F050
:1050300017FD06460020A0600EE06068FBF75BF9F4
:10504000216C606808446060A168884204D32068CD
:10505000606001E005B16D1E6D1CA5633046BDE8C2
:10506000F08110B5044690F8590058B101280CD0D1
:1050700002280FD0502080F31188BFF34F8FBFF369
:105080006F8FFEE7206B00F0F9FB2046BDE8104073
:1050900000F0F4BB10BD000010484FF470514207FF
:1050A00006D0C01D0D4920F00700411AC1F570510E
:1050B0000B4A00230144C2E900030839183A21F0E1
:1050C000070111604B600B600B1AC0E9001393607D
:1050D0004FF000405360506170470000B460002002
:1050E0000C010020144E154CA6F29C474FF080583E
:1050F000DFF84C9012E000BF00F08CFBF068C56850
:10510000281D00F01FFBA068401EA0606068401EC4
:10511000606000F09FFB2846FFF7A3FF606800284F
:10512000EAD138680128F9D9C9F80080BFF34F8F58
:10513000BFF36F8FF2E70000BC580020A0000020F2
:1051400004ED00E0002807D00021816001600B46DB
:105150000A46C16001F0C4B87047000070B51D4632
:10516000049C51B1C4F80020C4E90F01012120467C
:1051700001F072F884F84C5070BD2460F4E7000030
:105180002DE9F05F8846DDE90B94154683469100D2
:105190009A460A9EA522206BFBF7BFF86FF0030129
:1051A000206B01EB8501084420F00707780707D042
:1051B000502080F31188BFF34F8FBFF36F8FFEE74E
:1051C0000025B8F1000F0FD05FF00000221818F88A
:1051D000001082F8341018F8001011B1401C10288B
:1051E000F4D384F8435001E084F83450382E00D3CF
:1051F0003726E662C4E91365201D00F0E4FA04F1E5
:10520000180000F0E0FA2461C6F138006462A06181
:10521000656584F8585052465946384600F070FA91
:105220002060B9F1000F01D0C9F80040BDE8F09F3F
:1052300030B5114900E011460A688242FBD34B6841
:105240005C18844203D140681844486008464368AB
:105250001C18944209D1084C183C2468A24209D079
:1052600052681A4442600A6812680260814200D0A3
:10527000086030BD0460F9E70C01002070B500241F
:1052800041600B4D0061914206D8D11A826991426A
:1052900006D2011D286907E09A4203D2994201D340
:1052A000012403E0011DE86800F090FA204670BD7B
:1052B000DC00002010B5044600F0ACFAA06B28B169
:1052C0005FF0000400F0C6FA204610BD0124F9E7A3
:1052D00030B589B03C4D6EE00498002806DADDE96F
:1052E0000601059A90470498002864DB069C6069D3
:1052F00010B1201D00F026FA03A800F0D7F80246EE
:1053000004980A2857D2DFE800F00505052D334A36
:1053100005052D3394F8280040F0010084F828009A
:105320000599A069059B01442046FFF7A7FF68B3D4
:10533000216A2046884794F8280040073BD5002082
:1053400000900598A169002342181946204601F0F3
:10535000CDFCD8B9502080F31188BFF34F8FBFF335
:105360006F8FFEE714F8280F20F00100207022E074
:1053700094F8280040F0010084F828000598A06106
:1053800028B1811813462046FFF778FF13E050201C
:1053900080F31188BFF34F8FBFF36F8FFEE794F850
:1053A0002800810703D4204600F068FA03E020F0CB
:1053B000010084F82800002204A9286801F0A0F860
:1053C000002889D109B030BDDC0000202DE9FC4166
:1053D0000F46054600F0BEFC01A800F067F8044641
:1053E000019818B101F0F0FBBDE8FC81254EAFB18A
:1053F00030690068D0B30027291B3A46306800F0B6
:10540000EBFA01F0E1FB0028EED11F494FF080508C
:105410000860BFF34F8FBFF36F8FE5E7A542EBD86E
:1054200001F0D2FBF0682746C068C468201D00F078
:1054300089F994F82800410719D5A0692B4641192C
:105440003A462046FFF71AFFA8B10020034601465E
:1054500000902A46204601F049FC60B9502080F3B4
:105460001188BFF34F8FBFF36F8FFEE707E020F087
:10547000010084F82800216A20468847B4E7012704
:10548000BAE70000DC00002004ED00E00648416BB4
:10549000096829B1416BC968C96849688162704768
:1054A0004FF0FF31FAE70000A000002070B505467C
:1054B00001F06CFA064E0446B068844203D200F054
:1054C00009F8012000E0002028602046B46070BD8B
:1054D000DC000020F8B5194D20E0C068C4680668FB
:1054E000201D00F02FF9216A2046884794F82800F3
:1054F000400713D5A0693044B04206D924616060EA
:10550000211DE86800F062F908E00020034601462A
:1055100000903246204601F0E9FB38B1E8680168A6
:105520000029DAD12969C5E90310F8BD502080F3BC
:105530001188BFF34F8FBFF36F8FFEE7DC000020B1
:1055400008484068401C4FF0500080F3118804D098
:10555000BFF34F8FBFF36F8FFEE7BFF34F8FBFF3E4
:105560006F8FFEE7140100200346002012B199431B
:1055700002D070470B42FCD001207047074CE06816
:10558000016841B1C0680021D0F80000FFF71EFF9C
:10559000FFF79EFEF3E701210020F7E7DC00002083
:1055A0002DE9F041044600F035F994F9455004F135
:1055B000240609E0606A48B1304601F0CDFA08B12E
:1055C00000F0A2FA6D1E6DB2002DF3DC4FF0FF3635
:1055D00084F8456000F03EF900F01CF994F944505D
:1055E00004F1100709E0206948B1384601F0B4FA27
:1055F00008B100F089FA6D1E6DB2002DF3DC84F85D
:105600004460BDE8F04100F025B900002DE9F0410B
:105610000546002700F09EFB324E306808B9FFF7C0
:105620003BFD706905424ED1C5B3083568070ED001
:1056300005F00700C0F108000544680707D05020B6
:1056400080F31188BFF34F8FBFF36F8FFEE72DB349
:105650007068854237D82348183001460C6801E04D
:1056600020460C466168A94202D221680029F7D180
:1056700031688C4227D0076821680160606808376C
:10568000411B10290FD96019420708D0502080F320
:105690001188BFF34F8FBFF36F8FFEE713E04160B8
:1056A0006560FFF7C5FD61687068401A7060B26898
:1056B000904200D2B060706901430020C4E900014B
:1056C000F068401CF06001F07FFA780707D05020A6
:1056D00080F31188BFF34F8FBFF36F8FFEE738461B
:1056E000BDE8F081F40000200449086818B108689A
:1056F000026D521C0265086870470000A00000207F
:1057000010B5031F4FF080741C601B1F21F00101B6
:105710001960191F044B0B6014390A60091F6FF0E0
:10572000020244380A6010BD41550008020A0A709E
:1057300048707047020E0A70020C4A70020A8A70A2
:10574000C8707047D0E9013201699A60D0E901233D
:105750005A604A68824201D182684A60002202612E
:105760000868401E0860086870470000044908681F
:105770000A688069D26A0968C2F138028A61704792
:10578000A0000020034B036003F15C000860802050
:1057900010607047FC590020044B036003F15C006B
:1057A00008604FF48070106070470000585C002063
:1057B00000F108014FF0FF32C0E90112C160016140
:1057C00000210160704700210161704730B50B680E
:1057D0005A1C02D000F1080202E0026904E02246ED
:1057E000546825689D42FAD953684B6099608A6075
:1057F000516008610168491C016030BD42684A601F
:1058000093688B6093685960916008610168491CD6
:1058100001607047502080F31188BFF34F8FBFF3B2
:105820006F8F0A494868401C486001280CD108481D
:10583000006810F0FF0F07D0502080F31188BFF3ED
:105840004F8FBFF36F8FFEE77047000014010020F9
:1058500004ED00E00849486828B1401E486001D1C5
:1058600080F311887047502080F31188BFF34F8F69
:10587000BFF36F8FFEE700001401002070B5002811
:105880002AD0164DA0F1080460686969084207D162
:10589000502080F31188BFF34F8FBFF36F8FFEE767
:1058A00022683AB1502080F31188BFF34F8FBFF3C5
:1058B0006F8FFEE78843606000F04CFA60686968AB
:1058C000084468602046FFF7B3FC2869401C286143
:1058D000BDE8704001F078B970BD0000F400002010
:1058E0004FF0E02000210161816105494FF47A7297
:1058F0000968B1FBF2F1491E41610721016170475E
:105900009C00002010B5FAF7AFFC114910280ED307
:1059100000F1E02090F8F0030A78904207D250207E
:1059200080F31188BFF34F8FBFF36F8FFEE70948F5
:105930000068896800F4E060884207D9502080F34D
:105940001188BFF34F8FBFF36F8FFEE710BD0000CC
:10595000140100200CED00E010B5084B002200BF40
:1059600053F832401CB1521C082AF9D310BD43F839
:10597000321003EBC201486010BD0000E05300206C
:1059800010B504000AD000F013F894F8460000287F
:105990000CD12046BDE81040FFF770BF502080F3C7
:1059A0001188BFF34F8FBFF36F8FFEE710BD00006C
:1059B000084A002102EBC1035B68834206D1002044
:1059C00042F8310002EBC10148607047491C0829C8
:1059D000F0D37047E053002070B515460E460446DC
:1059E000FFF718FF94F944100020491C01D184F8F6
:1059F000440094F94510491C01D184F84500FFF793
:105A000029FFA06B28B92A46314604F1240000F092
:105A100099F82046BDE87040FFF7C2BD10B50200FE
:105A200014D00F48006B38B1502080F31188BFF3B9
:105A30004F8FBFF36F8FFEE700F08CF90021104607
:105A4000FFF704FA01F0C0F8002807D105494FF02C
:105A500080500860BFF34F8FBFF36F8F10BD000001
:105A6000A000002004ED00E070B50546FFF7D2FE6F
:105A70001E4C05B92568281DFFF764FEA86A18B1F9
:105A800005F11800FFF75EFE606A401C6062206846
:105A9000854207D1291D1648FFF7B0FE6068401CFB
:105AA000606007E0A068401EA0602846FFF7D9FAB2
:105AB000FFF7ECFCFFF7CEFE6069002814D02068E9
:105AC000854211D1206B38B1502080F31188BFF38B
:105AD0004F8FBFF36F8FFEE706494FF0805008608D
