:020000040800F2
:10000000B859002011030008A72D0008D5260008C4
:10001000A52D0008BD1400083D33000800000000B5
:100020000000000000000000000000005102000875
:100030001515000800000000AD020008952F00080B
:100040002B0300082B0300082B0300082B030008D8
:100050002B0300082B0300082B0300082B030008C8
:100060002B0300082B0300082B0300082B030008B8
:100070002B0300082B0300082B0300082B030008A8
:100080002B0300082B0300082912000800000000C1
:100090000000000000000000000000002B0300082A
:1000A0002B030008513000082B0300082B03000825
:1000B0005D3000082B0300082B0300082B03000809
:1000C0002B0300082B0300082B0300082B03000858
:1000D0002B0300082533000831330008000000001E
:1000E0002B0300082B0300082B030008000000006E
:1000F0000000000000000000000000002B030008CA
:10010000000000002B0300082B0300082B0300084D
:1001100000000000000000000000000000000000DF
:100120002B0300082B0300082B0300082B030008F7
:100130002B03000800000000000000000000000089
:100140000000000000000000000000002B03000879
:100150002B0300082B0300082B0300082B030008C7
:100160002B0300082B030008000000000000000023
:10017000000000000000000000000000000000007F
:10018000000000002B030008000000000000000039
:100190002B0300082B03000800F002F800F049F8D8
:1001A0000AA090E8000C82448344AAF10107DA45D2
:1001B00001D100F03EF8AFF2090EBAE80F0013F0DB
:1001C000010F18BFFB1A43F0010318473851000014
:1001D00058510000103A24BF78C878C1FAD85207A5
:1001E00024BF30C830C144BF04680C6070470000B1
:1001F0000023002400250026103A28BF78C1FBD830
:10020000520728BF30C148BF0B607047642900F017
:100210005781002070471FB504F0A6FF9DE803003A
:1002200000F0D4FD00F0DAFA1FBD10B500F03FFB7E
:1002300010BD00F0A2FB1146FFF7EDFF03F09CF8A4
:1002400000F092FD03B4FFF7F0FF03BC00F050FF95
:100250002C4B19680868B0E8F04F80F30988BFF3A9
:100260006F8F4FF0000080F311887047000000008E
:1002700008480068006880F308884FF0000080F3A9
:10028000148862B661B6BFF34F8FBFF36F8F00DF84
:1002900000BF00BF08ED00E0DFF80C00016841F48A
:1002A00070010160704700BF88ED00E0EFF3098046
:1002B000BFF36F8F134B1A681EF0100F08BF20EDAD
:1002C000108A20E9F04F106009B44FF0500080F31D
:1002D0001188BFF34F8FBFF36F8F03F0F9FF4FF01B
:1002E000000080F3118809BC19680868B0E8F04F75
:1002F0001EF0100F08BFB0EC108A80F30988BFF31E
:100300006F8F704728000020EFF3058070470000D2
:100310000948804709480047FEE7FEE7FEE7FEE799
:10032000FEE7FEE7FEE7FEE7FEE7FEE704480549D5
:10033000054A064B7047000041300008990100084B
:10034000B8530020B8590020B8550020B8550020F7
:1003500053EA020C00F069802DE9F04B4FF00006E3
:10036000002B1FBFB3FA83F503FA05F424FA05F650
:100370005E4012BF1643B2FA82F502FA05F4C5F1E7
:1003800020051EBF22FA05FC44EA0C04203556EA7B
:10039000044C4FEA144418BF641C4FF000084FF09F
:1003A0000009904271EB030C39D3002919BFB1FA4F
:1003B00081F701FA07F6B0FA80F700FA07F6C7F1FD
:1003C00020071EBF20FA07FC46EA0C062037B6FBC2
:1003D000F4FCA7EB0507103F07F01F0BCBF120063D
:1003E0000CFA0BFB2CFA06F644BFB3460026202F6E
:1003F000A4BF5E464FF0000B5BEA060C08BF4FF04F
:10040000010B19EB0B09ABFB027C48EB0608C01B88
:1004100006FB02CC0BFB03CC71EB0C01C1E70B46D6
:10042000024641464846BDE8F08B13B54FF0000048
:100430004FF00001AFF30080BDE81C4070470000A2
:100440000FB4044910B503AA029800F045F910BC96
:100450005DF814FBB05200202DE9F0410E46044631
:10046000002020622046E168884730B3252805D067
:10047000D4E901219047206A401CF2E7E168204658
:1004800000278847050018D0A5F14100192802D897
:1004900020354FF400673246294620462760FFF793
:1004A000B5FE40B1012804D0F61D26F00706083637
:1004B000D8E7361DD6E72846DAE7206ABDE8F0819E
:1004C0002DE9F0410646002410687529314616A52D
:1004D00010D0AFF30080002802DA404213A507E0F5
:1004E00031688A0701D512A502E0490704D511A594
:1004F000012401E0AFF3008000210A2206F1240765
:1005000009E0B0FBF2FCB0FBF2F302FB1C00303060
:1005100078541846491C0028F3D123462A46304611
:10052000BDE8F04100F07FB8000000002D000000A1
:100530002B00000020000000032A40F2308010F061
:10054000030C00F0158011F8013BBCF1020F62446E
:1005500098BF11F801CB00F8013B38BF11F8013BFF
:10056000A2F1040298BF00F801CB38BF00F8013BAC
:1005700011F0030300F0C280083AC0F0088051F87F
:10058000043B083A51F804CBA0E80810F5E7121D27
:100590005CBF51F8043B40F8043BAFF30080D20746
:1005A00024BF11F8013B11F801CB48BF11F8012B12
:1005B00024BF00F8013B00F801CB48BF00F8012B35
:1005C000704702F0FF0343EA032242EA024200F0CE
:1005D000C9B84FF0000200B513469446964620393C
:1005E00022BFA0E80C50A0E80C50B1F12001BFF4EC
:1005F000F7AF090728BFA0E80C5048BF0CC05DF852
:1006000004EB890028BF40F8042B08BF704748BF9F
:1006100020F8022B11F0804F18BF00F8012B704713
:100620007047704770472DE9F0470D46994692464E
:10063000044600F124080168880604D5E06921F029
:100640001001216000E00120A84201DD471B00E00D
:100650000027A1697A1902EB0900081AA061207825
:10066000C00602D42046AFF30080002608E0D4E99B
:1006700001211AF806009047206A401C761C20626F
:100680004E45F4DB2078C0060AD52046AFF3008043
:1006900006E0D4E9012130209047206A401C206206
:1006A000381EA7F10107F4DC07E0D4E9012118F8AE
:1006B00005009047206A401C2062281EA5F1010514
:1006C000F3DC2046AFF300802078000602D502203C
:1006D000BDE8F0870120FBE7074B70B50D467B4472
:1006E00000F065F80446284600F074F810B14FF0A9
:1006F000FF3070BD204670BD7D2C000010B5203A43
:10070000C0F00B80B1E81850203AA0E81850B1E8CA
:100710001850A0E81850BFF4F5AF5FEA027C24BF80
:10072000B1E81850A0E8185044BF18C918C0BDE877
:1007300010405FEA827C24BF51F8043B40F8043B40
:1007400008BF7047D20728BF31F8023B48BF11F8F5
:10075000012B28BF20F8023B48BF00F8012B70474F
:100760004FF000020429C0F0128010F0030C3FF497
:1007700032AFCCF1040CBCF1020F18BF00F8012B12
:10078000A8BF20F8022BA1EB0C01FFF724BF5FEA02
:10079000C17C24BF00F8012B00F8012B48BF00F8F2
:1007A000012B704701694A1C02610878704700B547
:1007B0008FB0CDE901310021059105497944CDE99A
:1007C000031011466846FFF747FE0FB000BD00005A
:1007D000E5FFFFFF007B00F08000704710B5424846
:1007E0005421FFF7F6FE41485421FFF7F2FE40483E
:1007F0005421FFF7EEFE3F493B483C4A3F4B08601F
:100800003D490A603A491960531C0365481C10654C
:10081000012008653B48344A39A1784400F008FAC1
:1008200020B9384878440A3800F0A7FA37482F4AE8
:1008300035A1784400F0FCF920B9344878440A38EE
:1008400000F09BFA32482A4A2FA1784400F0F0F9D0
:1008500020B92F4878440A3800F08FFA4023224804
:10086000DC000021224600F0BFF920B12548784481
:10087000543800F082FA1D4822464023002100F03F
:10088000B3F920B121487844543800F076FA18487A
:1008900022461023002100F0A7F9002806D01C48AA
:1008A0007844BDE81040563800F067BA10BD1048D3
:1008B00070B5006D20F001040B4800F02FFA0B48D2
:1008C00000F02CFA0A4800F029FA09E0206D20F027
:1008D0000105204600F022FA204600F073F82C466D
:1008E000002CF3D170BD00005C520020B0520020FB
:1008F00004530020A8000020AC000020B00000201D
:1009000072000000664A000077000000524A0000B2
:100910003E4A00000EB5CDE9000100F0C9FB02908F
:1009200069460120ABBE0EBD08B5694600900220A5
:10093000ABBE08BD1FB58DE8070069460520ABBEFC
:1009400004B010BD1FB58DE80F0069460620ABBE90
:10095000F6E708B5694600900920ABBE08BD1CB596
:10096000CDE9000169460A20ABBE1CBD704708B541
:10097000694600900C20ABBE08BD754600F004FA35
:10098000AE4605006946534620F00700854618B07C
:1009900020B5FFF7CBFCBDE820404FF000064FF03C
:1009A00000074FF000084FF0000B21F00701AC46A4
:1009B000ACE8C009ACE8C009ACE8C009ACE8C009C3
:1009C0008D46704770B50446051F00F0E3F90068D6
:1009D000002C14BF446870BD002C18BFAC423CBF53
:1009E00020466468F8D301680A18AA4218BF456017
:1009F00003D12A6805461144016028684119A142C3
:100A00001CBF6C6070BD6168696021680844286023
:100A100070BD2DE9F04705460C46C86820F420104B
:100A200040F48000C860800602D5084600F0FFFA56
:100A3000E06841F282014FF0FF390140022903D002
:100A4000204600F09DFAB5E000F42041B1F5004FDA
:100A50000FD1C00306D56168E06A884200D8084615
:100A6000606006E02069E06260606069FFF77FFF18
:100A7000A061A0680022EEB200280DDAE1688B05C3
:100A80000AD4C043A06041F490302260E060606806
:100A9000411C61600670A5E0E0689046226040F469
:100AA0000050E060206968BB6069FFF752FF0127D2
:100AB00004F12405A0B1A08910F4407F08D0E069BA
:100AC00000F0B3F9206118B1E06840F4006016E06E
:100AD000E7612561E06820F4407040F480600EE03A
:100AE000E06900F0A2F900282061F1D0E06840F44C
:100AF000006010F4407FE06002D140F48070E0605C
:100B000020696060E06825696FF0010AC1051FD5A2
:100B10006168E06A884200D80846411B04D022463A
:100B2000284600F037FAF0BBE068010203D5E56221
:100B3000C4E9015854E0691CE1626160E16940F474
:100B40008030491EC4E9021030462E70BDE8F0879F
:100B5000010202D500F480320AE06068411C616045
:100B60000670E0680A2E40F48030E06006D0002273
:100B7000E16A6068814203D90B4602E00122F7E78F
:100B80000346A7895B1B7F0503D4E7699F4200DD0D
:100B9000E2B1814200D80146E5620F1AC4E901586A
:100BA000002B09DD00E005E022461946284600F04A
:100BB000F1F908B14846C9E747B1A069E562656047
:100BC000C01BA061E06840F01000E060E068000237
:100BD00008D56168A069E562491B08446560A061A9
:100BE0005046B3E73046B1E770B5C468A50713D0E7
:100BF000650211D4B2F5807F09D0B2F5007F06D02E
:100C0000B2F5806F08D1012300F1240106E05D1EDA
:100C10006FF07F46B54201D3012070BD0161C36111
:100C2000416024F470611143C160002070BD000078
:100C30002DE9F0410C4607461646104600F06EF8C6
:100C40002078611C61280AD0722802D077283CD114
:100C500002E00125002405E00225042402E0082426
:100C600048F2020511F8010B2B2806D0622809D0A2
:100C700011F8010C74280AD00BE045F0030544F08C
:100C80000204EFE745F0040544F00104EAE744F00C
:100C9000100438462146FFF73DFE411C15D00021C7
:100CA000316171604FF40071F560F161706120078E
:100CB00004D530460222002100F0E6F8306D40F005
:100CC000010030653046BDE8F0810020FBE72DE9EA
:100CD000F0410D460646104C206DC10704D0410876
:100CE00004D020F00104F7E722460EE0542000F083
:100CF0009CF807000ED0206D47F0010108435421F5
:100D000020653846FFF765FC3A4629463046BDE87F
:100D1000F0418DE70020D6E75C5200202DE9F04736
:100D200004464FF000094FF0FF37C568D4E9048648
:100D3000A80707D0204600F057F93046FFF7F4FD2A
:100D4000002802DA3846BDE8F087280502D540467B
:100D5000FFF738FE4C212046FFF73BFC206D20F0CA
:100D6000010020654846EEE710B50446AFF3008069
:100D70002046BDE81040FFF765BA10B500F07EF9D7
:100D8000BDE8104000F074B9004870475853002087
:100D9000704700000048704760530020704770475C
:100DA0007047704738B504460A4600206946AFF3DD
:100DB0000080002808BF38BD02460099204600F098
:100DC000A4F9012038BD012000F0F3B9F8B5AFF364
:100DD0000080054600200C46102000BF0646A819DA
:100DE000A0420DD9324669460020AFF300800700CB
:100DF00008BF00F0DEF90098A04218BF0546C419EC
:100E0000FFF7C8FF05600746F01D20F007004619F0
:100E1000284600F073F9B44208BFF8BDA21B314662
:100E20003868BDE8F84000F070B970B50646FFF7C5
:100E3000B1FF056806F10B0020F00704B4429CBF27
:100E4000002070BD2B466A68BAB11068A04210D36A
:100E500004F1080188423CBF5068586007D35168CC
:100E6000101941601168091B016058601460101D61
:100E700070BD13465268002AE7D121462846FFF785
:100E800091FF0028DED170BD2DE9F04104461646E1
:100E90000D464769007B80072ED03846FFF759FD85
:100EA00050BB3EB3012E02D0022E25D104E02046D5
:100EB00000F045F905441DE03846FFF758FDE168AC
:100EC000002841F01001E16005DA204600F058F8F2
:100ED0000120BDE8F081C9030BD56268E16A914247
:100EE00000D81146A26911442269891A814200DDA5
:100EF00008460544002D01DA0220EAE7E16A60684D
:100F0000E268814206D29103E06203D522F4003107
:100F100041F01002A6690027AE4213DCE16A81426B
:100F200001D90B4600E0034603EB060C2369ACEB4A
:100F3000030CAC4506DD814201D98C4600E08446B5
:100F40009C4505D1A760276042F02000A5620DE016
:100F5000AD1BE669AE1B8142A66000D90846C01AE7
:100F6000281A20605819606022F0200003490840C8
:100F7000E060002084F84870ABE70000BFCFD7FFE7
:100F8000C16821F4001141F08001C160002181603D
:100F9000016070472DE9F047814614460E464FF038
:100FA000FF383248D5685769054209D03846A169EB
:100FB000FFF7D5FC002811DB2C48C0430540E56055
:100FC0002B46324649463846FFF7B4FCA16920F06B
:100FD0000042B21A11440028A16103D02046FFF755
:100FE000CFFF4046BDE8F08770B504460569C06A8A
:100FF0006168884200D80846E16821F42011E16068
:10100000C90312D5A84208D02246411B2846FFF743
:10101000C1FF10B14FF0FF3070BD0020E562C4E9A0
:101020000150E06820F48030E060002070BD10B511
:101030000446C06820F02000E060A16AA0698842F0
:101040000DD02046FFF7D0FFE06820F4405040F07C
:101050001000E060A06AA0612069E062606044F274
:101060004001E0688843E06010BD0000100002000D
:10107000002801D000F03CB87047000010B50146D0
:1010800002A000F07DF8012010BD00005349475236
:10109000545245443A2052656469726563743A203B
:1010A00063616E2774206F70656E3A200000000047
:1010B00010B5431C02E010F8011B71B18107FAD191
:1010C0004FF0013202C88C1A8C4314EAC211F9D0D5
:1010D000C01A0A0603D0C01E10BDC01A10BD0A04F3
:1010E00001D0801E10BD0902FCD0401E10BD0000C2
:1010F00001491820ABBEFEE7260002000021016076
:10110000C0E90110704710207047034640688C46C4
:10111000002818BF88423CBF03464068F8D31868CF
:101120001844884207D00CF1030020F00700001D8E
:10113000411A521A0146081D0A60FFF743BC10B558
:101140000146C268900703D0900607D5886A0AE076
:1011500000F03EF801210160881E10BD8B694868CF
:1011600018440B69C01A91F848301BB191F8491026
:10117000401A10BD1103FCD50028FADD401E10BD39
:1011800070B505460C460A2000E06D1C00F018F80A
:1011900035B128780028F8D102E0641C00F010F87E
:1011A00014B120780028F8D1BDE870400A2000F082
:1011B00007B810B500F010F8BDE81040FFF758BFB1
:1011C00008B569468DF800000320ABBE08BD0000DD
:1011D000004870475853002010B5012805D0002161
:1011E00003A0FFF7CDFF012010BD09A1F8E7000023
:1011F00053494752544D454D3A204F7574206F6600
:101200002068656170206D656D6F72790000000067
:101210003A2048656170206D656D6F727920636F4B
:10122000727275707465640004484168C1F34011BE
:10123000002902D06FF002010160704700200140D8
:101240002DE9F041124F134C00254FF400783A4637
:101250004146204601F094FAA06840F08040A0602A
:101260006068C0F340100028FAD06FF002002060E0
:10127000A06820F48060A060E06C16FA80F06D1C1D
:10128000EDB286B2042DE2D3B008BDE8F0810000D3
:101290000100300200200140012002F086F8FBE747
:1012A000012002F082F8FBE7084D4FF400544FF4A0
:1012B0007A76696924EA010001F4005140EA0140AC
:1012C000A861304602F071F8F3E700000008024020
:1012D0001CB501F0A1FD224C4FF0FF360023009613
:1012E0001A460121206903F049F8C007F6D0002012
:1012F0000346024600900F21606903F03FF8C107E2
:1013000010D000F099F801F04FFD012823D115A06D
:10131000FFF796F801F092FD00281CD018A0FFF707
:101320008FF818E081070BD5290EC5F3074001AAF5
:1013300001F0E2FDBDF8041019A0FFF781F80AE002
:10134000410708D4000706D402F0C6FD19A0FFF734
:1013500077F802F0E1FD142002F027F8BEE7000064
:1013600000000020506C616E7461722077726974A5
:101370006520627566662066756C6C200A0D00003B
:10138000506C616E74617220627566662073776955
:101390007463682073756363656564200A0D0000DB
:1013A000766F6C746167653A2564206D56200A0D6E
:1013B000000000005468652073616D706C696E6791
:1013C000206D6F646520697320696E636F7272654A
:1013D00063746C79207365740A0D000010B5104AAF
:1013E0000021104802F066F80F4C0D4A00216060A1
:1013F00024320E4802F05EF8094AA060483200210B
:101400000B4802F057F8064AA0606C3200210948E8
:1014100002F050F8A060BDE81040002002F05ABE73
:1014200098510008A9120008000000209912000835
:10143000D1120008A11200082DE9F0410024DFF8C4
:101440006C80274608EB440618F8145024E0204628
:1014500001F01EFD284600F041F8052000BF401EA7
:1014600010F0FF00FAD1FFF7EBFE03F06CFD9FEDEB
:10147000101B53EC112B03F079FD03F037FD0E49DF
:101480000A7C496802EB8202920002EB4702885212
:1014900000F016F86D1CEDB27078A842D7D2641C2B
:1014A000E4B20A2CCED30120BDE8F08158520008E6
:1014B0006666666666664A3F1C020020FEE700001C
:1014C00004482021816110218161034980158861D0
:1014D000704700000004024000000240C1070822DB
:1014E000C90E8A4009498A61C0F340024FF40043A3
:1014F00012019340064A9361C0F38000012200016B
:1015000082408A614FF400108861704700040240F5
:1015100000000240704772B6FEE72DE9F041044634
:10152000876D00F045F9064694F83500002502283D
:1015300006D08020606584F834500120BDE8F08139
:101540002068016821F0160101602068416921F0DE
:1015500080014161206C08B9A06C20B1206801684D
:1015600021F0080101602068016821F0010101609B
:101570000CE000F01DF9801B052807D920206065CC
:10158000032084F8350084F83450D7E720680068D9
:10159000C007EED194F85C103F208840B86001206D
:1015A00084F8350084F834500020C7E790F83510EF
:1015B000022903D08021416501207047052180F870
:1015C00035100068016821F00101016000207047BA
:1015D0002DE9F84FDFF8B8A1002201240AF1040B2D
:1015E00003254FF00F090BF1040E00BF0B6804FA3E
:1015F00002F63340B34273D10F7907F00307012F8E
:1016000001D0022F16D187684FEA420805FA08FC7C
:1016100027EA0C07D1F80CC00CFA08FC4CEA070CBE
:10162000C0F808C04768B7430E79C6F30016964065
:101630003E4346600E79F643B6070DD0C7685600A4
:1016400005FA06FC27EA0C07D1F808C00CFA06FCDC
:101650004CEA070CC0F80CC00E7906F00306022E07
:1016600010D1D60800EB8608D8F8206057074FEA5B
:10167000D76C09FA0CF7BE430F6907FA0CF737432A
:10168000C8F8207006684FEA420C05FA0CF7BE4312
:101690000F7907F0030707FA0CF7374307604E6826
:1016A00016F4403F6DD03B4E376847F480473760B3
:1016B000366822F0030706F480460096364E07EBA4
:1016C000060CDCF8086897073F0F09FA07F826EAC6
:1016D0000806DFF8C880404503D14FF000081EE03F
:1016E0004FE0DFF8BC80404502D14FF0010816E022
:1016F000DFF8B080404502D14FF002080FE0DFF87C
:10170000A880404502D14FF0030808E0DFF89C8034
:10171000404502D14FF0040801E04FF0070808FAF5
:1017200007F848EA0608CCF80888DAF80060574657
:10173000D1F804C09E435FEACC3C00D51E433E6016
:10174000DBF800605F46D1F804C09E435FEA8C3C42
:1017500000D51E433E60DEF800607746D1F804C035
:101760009E435FEACC2C00D51E433E60084F0C37E9
:101770003E68D1F804C09E435FEA8C2C00D51E431E
:101780003E60521C102AFFF431AFBDE8F88F000014
:10179000003C01404438024000300140000002405B
:1017A0000004024000080240000C02400010024009
:1017B00001488068704700001800002070B50400E0
:1017C00025D094F83D00002520B984F83C502046EF
:1017D00000F0B8F8242084F83D002068016821F06A
:1017E000010101602068016841F400410160206846
:1017F000016821F40041016000F04CFA4D4A616833
:10180000914201D84C4900E04C49884201D2012064
:1018100070BD4B492368B0FBF1F15E6826F03F06CE
:101820000E435E606368934206D94FF49673594342
:101830004FF47A73B1FBF3F12368491C1E6A26F05A
:101840003F06314319626168914210D84900401E39
:10185000B0FBF1F2521CC2F30B02042A01D20420A5
:1018600022E0B0FBF1F0401CC0F30B001CE0A268CA
:10187000F2B301EBC10303EB0116431EB3FBF6F316
:101880005B1C43F480431B0549D092B301EBC102BA
:1018900002EB0111401EB0FBF1F0401CC0F30B0045
:1018A00040F4804040F400402168CA694CF6FF7360
:1018B0009A431043C861D4E90710014320680268C5
:1018C00022F0C00211430160D4E903010143206802
:1018D000826848F2FF339A4311438160D4E90501DD
:1018E00008432168CA6822F0FF021043C86001E083
:1018F0000EE016E02068016841F0010101602564F6
:10190000202084F83D00256384F83E50002070BDFF
:1019100001EB4106431EB3FBF6F35B1CB3E701206A
:10192000C2E701EB4101401EB0FBF1F0401CC0F3E7
:101930000B00B7E7A086010080841E0000093D006F
:1019400040420F0010B586B0044614216846FEF7E9
:1019500040FE14492068884221D1134800210268C2
:1019600042F002020260006800F0020005904FF4AD
:10197000C07000901220CDE90101032003900420E3
:10198000049069460948FFF723FE074810300168B4
:1019900041F400110160006800F40010059006B0E9
:1019A00010BD0000005400403038024000040240E6
:1019B0000248816802781144816070471800002055
:1019C0000B4810B5016841F400710160016841F4F1
:1019D00080610160016841F480710160032000F0C2
:1019E0008DF80F2000F006F800F03EF8002010BD42
:1019F000003C024010B5014688B00022192000F0DA
:101A00005DF8192000F04CF813480024016841F0FB
:101A100001010160006805A900F001000690684618
:101A200000F018F900F046F90C490D4AB0FBF1F14D
:101A30000C48491E026040F2E732C0E90324C0E9C5
:101A4000011400F031FB10B1012008B010BD0548B1
:101A500000F058FBF9E700004438024040420F0014
:101A600000000140D40100200C4882B0016841F41C
:101A700080410160006800F4804000900748001F2A
:101A8000016841F0805101600068002200F0805040
:101A900000900F21901E02B000F010B844380240B0
:101AA000002809DB00F01F0201219140400980005D
:101AB00000F1E020C0F8001170470000F0B40E4BB8
:101AC0001B680C46C3F30223C3F10705042D00D99C
:101AD0000425191D072901D2002300E0DB1E012681
:101AE00006FA05F1491E214099409E40761E164097
:101AF0003143F0BC01F023BC0CED00E0064900F0DE
:101B0000070208684FF6FF03184040EA0220034A24
:101B100010430860704700000CED00E00000FA057B
:101B20002DE9F0470E46050065D0DFF81481D8F89E
:101B30000000F7B200F00700B04207D288F800704A
:101B4000D8F8000000F00700B04254D128683D4C9E
:101B5000810712D5400703D5206840F4E05020608B
:101B60002878000703D5206840F460402060206892
:101B7000A96820F0F000084320602878C0072DD025
:101B8000304968680839012812D0022813D0032888
:101B900011D00968890700292DDA216821F0030195
:101BA00001432160FFF704FE814641F2883A0EE0CE
:101BB00009688903EFE709688901ECE7FFF7F8FD99
:101BC000A0EB0901514502D90320BDE8F087206848
:101BD000696800F00C00B0EB810FEFD1D8F800106D
:101BE000404601F00701B14207D90770006800F0D4
:101BF0000700B04201D00120E7E72878400705D56B
:101C00002068E96820F4E050084320602878000745
:101C100006D52068296920F4604040EAC1002060B0
:101C200000F058F82168084AC1F30311515CC8401C
:101C30000649086006480068FFF7DCFE0020C4E79C
:101C4000003C0240083802406C520008240000208A
:101C50001C0000200F2202600C4A136803F00303EB
:101C60004360136803F0F0038360136803F4E053E8
:101C7000C36012684FF4E05303EAD20202610448E1
:101C8000006800F007000860704700000838024054
:101C9000003C02400448054900680968044AC1F351
:101CA0008221515CC840704724000020083802405F
:101CB0007C5200080448054900680968044AC1F3D9
:101CC0004231515CC840704724000020083802406F
:101CD0007C520008154810B5006810F00C0214483A
:101CE00013D01449042A0FD0082A0ED10F4C241FF8
:101CF0002268236802F03F025B0207D52068C0F328
:101D00008810A0FB010106E0084610BD2168C1F360
:101D10008811A1FB00010023FEF71AFB2168C1F323
:101D20000141491C4900B0FBF1F010BD08380240E8
:101D30000024F40040787D012DE9F84F04006ED0B6
:101D40002078DFF84C93C007A9F104054AD009F1C7
:101D500004000168C1F38101012908D00068C0F3C3
:101D6000810002280AD1D9F80000400206D528686F
:101D7000800337D560680028E1D033E06068B0F5B3
:101D8000803F10D0B0F5A02F286810D020F480300C
:101D90002860286820F4802028606068A8B1FFF7D8
:101DA00007FD06460DE0286840F48030F4E740F473
:101DB00080202860F7E700BFFFF7FAFC801B64284B
:101DC00073D828688003F7D50CE0FFF7F1FC0646CE
:101DD00005E000BFFFF7ECFC801B6428F0D8286802
:101DE0008003F7D42078DFF8AC8280074FF0000A38
:101DF0003ED5A748001D016811F00C0F08D00068FF
:101E0000C0F3810002280BD1D9F80000400207D4AA
:101E10002868800716D5E068012800D112E033E178
:101E2000E068B8B10120C8F80000FFF7C1FC064621
:101E300005E000BFFFF7BCFC801B0228C0D8286863
:101E40008007F7D52868216920F0F80040EAC10032
:101E500028600DE0C8F800A0FFF7AAFC064604E0E1
:101E6000FFF7A6FC801B02281FD828688007F7D43C
:101E70002078000722D5864F87486169703771B195
:101E800001210160FFF794FC064604E0FFF790FC97
:101E9000801B022809D838688007F7D50EE0C0F803
:101EA00000A0FFF785FC064605E082E0FFF780FC16
:101EB000801B02287DD838688007F7D42078400737
:101EC00068D5DFF8CCB100270BF13C0BDBF8000044
:101ED000C0000BD4DBF8001041F08051CBF80010AB
:101EE000DBF80000012700F0805000906B4E306856
:101EF000C00510D4306840F480703060FFF758FCA3
:101F0000009005E0FFF754FC0099401A022850D8D1
:101F10003068C005F6D55E4EA0686C3601280FD03B
:101F20000528306810D020F001003060306820F0C3
:101F300004003060A068B8B1FFF73AFC00900FE0F1
:101F4000306840F00100F4E740F004003060F7E74B
:101F5000FFF72EFC0099411A41F28830814266D881
:101F600030688007F4D50EE0FFF722FC009007E010
:101F7000FFF71EFC0099411A41F28830814256D881
:101F800030688007F4D42FB1DBF8001021F08051C5
:101F9000CBF80010A069C8B33D49091D0968C1F319
:101FA000810102294AD00228504607D0C8F86000B3
:101FB00000E03CE0FFF7FCFB04463BE04746C8F886
:101FC0006000FFF7F5FB064605E000BFFFF7F0FBFA
:101FD000801B02282BD828688001F7D4D4E9070198
:101FE0000843A16A2E4A490802EB0141626A41EAAC
:101FF0008211084394F82C1040EA0161C9F80010DE
:1020000001203866FFF7D4FB044606E03EE000BF3F
:10201000FFF7CEFB001B022809D828688001F7D5FE
:1020200034E000BFFFF7C4FB001B022802D90320E5
:10203000BDE8F88F28688001F4D427E00128F7D0A4
:10204000D9F80000E26900F4800191421CD1226AB3
:1020500000F03F01914217D147F6C071626A01401A
:10206000B1EB821F10D1A26A4FF0FF3300F4403170
:1020700003EB5202B1EB024F06D194F82C1000F0A2
:102080007060B0EB016F01D00120D1E70020CFE7F5
:102090000438024000004742800E47420070004072
:1020A0000000FFFF7047704710B5040003D094F89C
:1020B0003D0010B107E0012010BD002084F83C0075
:1020C000204600F01EF8022084F83D00211D206803
:1020D00000F0C6FF012084F8460084F83E0084F832
:1020E0003F0084F8400084F8410084F8420084F8FE
:1020F000430084F8440084F8450084F83D00002043
:1021000010BD704790F83D10012901D001207047A3
:10211000022180F83D100168CA6842F00102CA60DD
:1021200000680E4988420ED0B0F1804F0BD00C49A8
:10213000884208D00B49884205D00B49884202D01A
:102140000A49884204D1816801F00701062903D0B9
:10215000016841F00101016000207047000001406A
:102160000004004000080040000C00400040014016
:10217000704770B50446006801694FF00005C94317
:10218000890715D4C168C943890711D4E91E0161C3
:1021900001202077206880698007204602D0FFF761
:1021A000E7FF04E000F098F8204600F096F8257765
:1021B00020680169C943490717D4C168C943490761
:1021C00013D46FF004010161022020772068806938
:1021D00010F4407F204602D0FFF7CAFF04E000F071
:1021E0007BF8204600F079F8257720680169C9431B
:1021F000090716D4C168C943090712D46FF0080152
:102200000161042020772068C0698007204602D041
:10221000FFF7AEFF04E000F05FF8204600F05DF845
:10222000257720680169C943C90617D4C168C94325
:10223000C90613D46FF010010161082020772068CF
:10224000C06910F4407F204602D0FFF791FF04E000
:1022500000F042F8204600F040F825772068016938
:10226000C943C90708D1C168C943C90704D1891E38
:102270000161204600F032F820680169C94309066F
:1022800009D4C168C943090605D46FF08001016112
:102290002046FFF707FF20680169C943490609D4B2
:1022A000C168C943490605D46FF040010161204669
:1022B00000F01EF820680169C94389060BD4C16883
:1022C000C943890607D46FF0200101612046BDE8AB
:1022D0007040FFF7E8BE70BD704770470068034963
:1022E000884201D1FFF764BB704700000000014045
:1022F0007047704770470000F8B5016804460868E9
:10230000CA684B6910F00F0F4FF0000559D003F069
:10231000010602F49077374365D0C10705D0D10597
:1023200003D5216C41F001012164410705D5D9078E
:1023300003D0216C41F002012164810705D5D90742
:1023400003D0216C41F004012164010707D502F09C
:102350002001314303D0216C41F008012164216C3C
:1023600000293AD0800604D5900602D5204600F018
:10237000F2FE20684069216CC0F38010090700D488
:1023800060B3204600F0C0FE20684069400621D5B9
:102390002068143050E8001F21F0400140E800128E
:1023A000002AF5D1A06BA8B16C490165A06BFFF7BD
:1023B000FDF8002811D0A06B016D01B0BDE8F04020
:1023C000084783060FD593060DD52046BDE8F84093
:1023D00000F0C1BE2046FFF78DFFF8BD2046FFF795
:1023E00089FF2564F8BD266B2023012E79D1C6060E
:1023F00077D5D60675D508684868009048694006C4
:1024000040D5A16B086840680004000CEAD0A28D9A
:102410008242E7D9E085C869B0F5807F2DD0206879
:102420000C3050E8001F21F4807140E80012002AAF
:10243000F5D12068143050E8001F21F0010140E878
:102440000012002AF5D12068143050E8001F21F056
:10245000400140E80012002AF5D184F83E3025639F
:1024600020680C3050E8001F21F0100140E80012F5
:10247000002AF5D1A06BFFF750F8A08DE18D401A2E
:1024800081B229E0A08DE18D401A81B2E08D002853
:10249000A8D00029A6D020680C3050E8002F22F4E4
:1024A000907240E80026002EF5D12068143050E8E4
:1024B000002F22F0010240E80026002EF5D184F81A
:1024C0003E30256320680C3050E8002F22F01002C7
:1024D00040E80023002BF5D12046FFF70AFFF8BDA6
:1024E000FFE705062BD5150629D594F83D002128D0
:1024F000F5D1A068B0F5805F01D12069B0B1206A44
:10250000411C2162216800784860E08C401E000474
:10251000000CE084E3D12068C16821F08001C16033
:102520002068C16841F04001C160D8E7206A008896
:10253000C0F308004860206A801C2062E5E740067E
:10254000CDD55006CBD5CA68204622F04002CA60DD
:1025500084F83D3000F0BDF8C1E70000F930000814
:1025600070B5040004D094F83D00002510B106E0D9
:10257000012070BD84F83C50204600F023F8242050
:1025800084F83D002068C16821F40051C1602046F4
:1025900000F042FE2068016921F490410161206849
:1025A000416921F02A0141612068C16841F400516C
:1025B000C1602564202084F83D0084F83E0000209E
:1025C00070BD0000F0B587B0044614216846FEF7E0
:1025D00000F83B49DFF8E4C027680022384B143983
:1025E000022403250726374867451FD11F6847F097
:1025F00010071F601B6803F0100305930B6843F07E
:1026000001030B60096802AF01F001010591690245
:10261000CDE9001487E864006946FEF7D9FF00227F
:1026200005212520FFF74AFA252024E0DFF898C08D
:10263000674524D1224B1B1F1F6847F400371F60DA
:102640001B6803F4003305930B6843F001030B6030
:10265000096802AB01F0010105910C21CDE90014DC
:1026600083E864006946FEF7B3FF002205212620B7
:10267000FFF724FA2620FFF713FA07B0F0BD134E38
:10268000B742FAD11E6846F020061E601B6803F0B0
:10269000200305930B6843F001030B600968029265
:1026A00001F0010105914FF4C051CDE9001408215A
:1026B000CDE903516946FEF78BFFDEE700100140CC
:1026C0004438024000000240004400400014014031
:1026D00070477047FEE70000074B024600209B68EA
:1026E00013F0010F01D0012070470968536823F4EB
:1026F00040330B43536070470020014030B583687E
:10270000002213F0010F02D00122104630BD8C6868
:102710000B6823434468054D2C4023434360836882
:10272000496823F400630B438360EEE7FFFEFFFC80
:1027300030B54B688468002214F0010F02D00122EA
:10274000104630BD002B436823F4684301D08C68E9
:1027500023434360D1E9033423438468074D2C406D
:102760000D6805F070652C43234383604968C36A94
:1027700023F470030B43C362E2E70000FDFCFFC0DB
:1027800010B54FF4407494FAA4F401F44073B4FA11
:1027900084F4E34000EB8300C36A01F01F011F24AF
:1027A0008C4002F01F02A3438A401343C36210BD52
:1027B000044908B50A6802430A60096801400091AB
:1027C00008BD000030380240F0B50A680F2692FAC2
:1027D000A2F2B2FA82F303248AE001279F4015EAAD
:1027E00007027DD04D68012D01D0022D1BD18D68CF
:1027F000876892FAA2FCBCFA8CFC4FEA4C0C04FAF3
:102800000CFC27EA0C0792FAA2FCBCFA8CFC4FEAFB
:102810004C0C05FA0CF52F438760CD68476855438B
:1028200097432F4347600F69D0F80CC092FAA2F586
:10283000B5FA85F54FEA450E04FA0EF52CEA050CBB
:1028400092FAA2F5B5FA85F56D00AF404CEA070C97
:10285000C0F80CC04D68022D33D192FAA2F5B5FA3A
:1028600085F5082D15D2D1F814C0056A92FAA2F7A1
:10287000B7FA87F7BF0006FA07F7BD4392FAA2F747
:10288000B7FA87F7BF000CFA07FC45EA0C050562AA
:1028900017E0D1F814E0476A150A95FAA5FCBCFACE
:1028A0008CFC4FEA8C0C06FA0CFC95FAA5F5B5FAEF
:1028B00085F5AD0027EA0C070EFA05FE47EA0E077C
:1028C00047624D68076892FAA2FCBCFA8CFC4FEA9A
:1028D0004C0C04FA0CFE27EA0E0792FAA2F200E072
:1028E00005E0B2FA82F2520095402F4307605B1C6C
:1028F0000A681546DA407FF470AF0020F0BD000092
:10290000F0B502681D4B1E4C9F031E4D1E4E984293
:1029100007D0B84205D0A04203D0A84201D0B042AF
:1029200005D1D1F804C022F0700242EA0C029842AC
:1029300010D0B8420ED0A0420CD0A8420AD0B0426B
:1029400008D0124CA04205D0114CA04202D0114C2C
:10295000A04203D1CC6822F44072224302608A680C
:10296000C2620A888262984201D1096901634169A1
:1029700041F0010141610020F0BD00000000014074
:102980000004004000080040000C004000400140EE
:1029900000440140004801402DE9F04190B000247E
:1029A0004FF47A750B940C94142168460D94FDF73E
:1029B00010FE182105A80E94FDF70BFE4A48016889
:1029C00041F480710160006800F480700F90464807
:1029D0001438016841F0010101600068022600F02E
:1029E00001000F9003200994CDE9056005A93F4837
:1029F000FFF7EAFE3E480068C0F30220C0F107017D
:102A0000042900D90421021D072A01D2002000E078
:102A1000C01E4FF0010808FA01F2521E02F0050133
:102A200081400801334981F800044FF0E0214FF460
:102A30008020C1F80001304F0B940C940BA938464C
:102A40000D94FFF75BFECDE90246009401946946C0
:102A500038460494FFF76CFEB86840F48060B860B4
:102A60004FF440300E900EA92448FFF735FE244A5B
:102A700079153846FFF784FE4FF0007090FAA0F108
:102A8000B1FA81F1C84007EB8001CA684FF0F873D2
:102A900093FAA3F44FF44010B4FA84F420FA04F447
:102AA0000726A64093FAA3F3B3FA83F3D840B243C0
:102AB00008FA00F31A43CA60786840F02000786092
:102AC000B86840F00100B860B86810F0010F01D09C
:102AD0000CA004E015B16D1EADB2F5E70EA0FDF738
:102AE000AFFC10B0BDE8F081443802400000024065
:102AF0000CED00E012E000E0002001400023014066
:102B00000100300241444320656E61626C652073B0
:102B1000756363656564000041444320656E6162CE
:102B20006C65206661696C656400000010B50B4837
:102B300000F08CFC0A4C094A0021E060B43A0948D4
:102B400000F0B8FC20600548103000F03BFC20612C
:102B50000248203000F036FC606110BD28520008A9
:102B600000000020DD130008F0B587B0182168468A
:102B7000FDF72FFD0420FFF71BFE0120FFF718FED5
:102B80000220FFF715FE4FF40050009001250024AD
:102B9000CDE901541A4E0394694630460494FFF778
:102BA00013FE6807B061CDE90054164E6946304601
:102BB0000494FFF709FE0420CDE90004124F694692
:102BC00038460494FFF700FE4DF27A500090CDE9AC
:102BD00001540394694638460494FFF7F5FD4FF419
:102BE00001400090CDE901540394694630460494B5
:102BF000FFF7EAFDB803B0610448B86107B0F0BD63
:102C000000080240000002400004024000007AD5A3
:102C10000D4810B50B4901600C49416000214FF48B
:102C200080428160C0E9031241618161C16101623A
:102C3000FEF7C4FD002803D0BDE81040FEF76BBCD2
:102C400010BD000000540040B4000020A086010028
:102C500010B586B014216846FDF7BBFC2448016816
:102C600041F001010160006800F001000590214879
:102C70000068C0F30220C0F10701042900D9042133
:102C8000021D072A01D2002000E0C01E01228A4056
:102C9000521E02F005018140174A0020090182F806
:102CA00000144FF0E0224FF08051C2F80011ADF84F
:102CB000000040F2F311CDE901014FF08044039090
:102CC00069462046FFF71CFE206820F08000206047
:102CD000A06844F207018843A060606820F070009B
:102CE0006060A06820F08000A06006B010BD000009
:102CF000403802400CED00E01CE000E00C4810B54C
:102D00000A4901604FF4E1314160002181600C22E9
:102D1000C160C0E904128161C161FFF721FC002894
:102D200003D0BDE81040FEF7F6BB10BD0010014017
:102D3000080100200C4810B50A4901604FF4E13148
:102D40004160002181600C22C160C0E904128161F0
:102D5000C161FFF705FC002803D0BDE81040FEF775
:102D6000DABB10BD004400404C0100200C4810B5F7
:102D70000A4901604FF4E1314160002181600C2279
:102D8000C160C0E904128161C161FFF7E9FB00285D
:102D900003D0BDE81040FEF7BEBB10BD00140140DB
:102DA00090010020FEE7FEE710B5094C09A0217C48
:102DB000FDF746FB207C0A2805D00AA0FDF740FB62
:102DC0004FF0FF3010BD0EA0FDF73AFB012010BD03
:102DD0001C020020416D6F756E743A2564200A0D47
:102DE00000000000506C616E74617220627566664E
:102DF0006572206E6F74206F766572666C6F7700F7
:102E0000506C616E74617220627566666572206FC7
:102E1000766572666C6F77000749A1F11400416016
:102E200000F56671016000F21C71C160283181609B
:102E30000021017470470000300200200A4810B5DC
:102E400042685AB1016849B1D0E90243C0E90021A2
:102E5000C0E9023400210174012010BD03A0FDF778
:102E6000EFFA4FF0FF3010BD1C0200205265616484
:102E70002077726974652062756666657220706F6E
:102E8000696E746572206572726F72200A0D00009F
:102E900030B5174910248D15164B05280ED2C007E2
:102EA0000222C00E82408A610A1582408A618A1419
:102EB00082408A61D80088619D6130BD401FC5078E
:102EC0004FF48042ED0EAA408A61C0F340024FF4F5
:102ED0000045120195408D61C0F380004022000141
:102EE00082408A618C614FF08070986130BD000033
:102EF000000402400000024070B514000D464FF07F
:102F0000FF360DD00A2805D8114901EB4001497858
:102F1000A94207D20FA000BFFDF792FA304670BD5C
:102F200014A0F9E7FFF7B4FF2846FEF7D7FAFEF73B
:102F300087F902F008F89FED151B53EC112B02F0F6
:102F400015F801F0D3FF2080FEF7BAFA012070BD1A
:102F500058520008496E76616C696420726F772060
:102F6000616E6420636F6C756D6E2076616C756543
:102F700000000000496E76616C6964206D656D6FBC
:102F800072792061646472657373000066666666B8
:102F900066664A3F10B54FF0E020006901F0F0FD91
:102FA000012803D0BDE8104001F0E6BA10BD0000D2
:102FB00030B593B030216846FDF70BFB14210CA807
:102FC000FDF707FB1C480025016841F080510160B6
:102FD000006800F0805011901848016841F44041A9
:102FE00001600068022400F440401190012000902C
:102FF000000401908001CDE9064019200890C82006
:10300000CDE9090404200B906846FEF795FE08B14F
:1030100072B6FEE70CA90F2081E831004FF4805012
:10302000CDE90F0503210CA8FEF77AFD002801D099
:1030300072B6FEE713B030BD403802400070004069
:103040000248016841F470010160704788ED00E0BA
:103050000148FFF78EB80000D4010020704700003F
:10306000F0B502681D4B1E4C9F031E4D1E4E98422C
:1030700007D0B84205D0A04203D0A84201D0B04248
:1030800004D122F0700C4A6842EA0C02984210D037
:10309000B8420ED0A0420CD0A8420AD0B04208D00C
:1030A000124CA04205D0124CA04202D0114CA042BA
:1030B00003D122F44074CA6822434C6922F0800292
:1030C000224302608A68C2620A688262984201D121
:1030D0000969016301214161F0BD00000000014068
:1030E0000004004000080040000C00400040014087
:1030F000004401400048014010B5806B0021C185AB
:10310000C184FFF7F7F810BD01680C3151E8002FBA
:1031100022F4907241E80023002BF5D101681431AC
:1031200051E8002F22F0010241E80023002BF5D1E5
:10313000016B012909D101680C3151E8002F22F0FF
:10314000100241E80023002BF5D1202180F83E1029
:1031500000210163704708B590F83E10222901D084
:10316000022008BD82684FF480539A4201D1016960
:1031700021B1816A9A421BD04AB10AE00268816A91
:103180005268C2F308020A80816A891C08E0026959
:1031900072B10268526802F07F020A70816A491CAB
:1031A0008162C18D491E0904090CC18503D019E053
:1031B00002685268F1E70168CA6822F02002CA601A
:1031C0000168CA6822F48072CA6001684A6922F004
:1031D00001024A61202180F83E10016B012903D0D1
:1031E000FFF776FA002008BD0021016301680C3169
:1031F00051E8002F22F0100241E80023002BF5D106
:1032000001680A68D20602D50A6849680091818D72
:10321000FFF76FF8E6E7000070B504460068016943
:10322000E26821F44051114301612169A068E2691B
:1032300008436169114308432168CA6849F20C6375
:103240009A430243CA6020684169A26921F440712F
:103250001143416131492068884202D03049884297
:1032600002D1FEF727FD01E0FEF714FDE26900231D
:10327000192164253226B2F5004F626828D0A0FBE0
:103280000101930F9200FDF763F80146B0FBF5F0E2
:103290006FF01802504301EB800006EB0010B0FB0A
:1032A000F5F000F0F002B1FBF5F002EB0012B1FB1B
:1032B000F5F06FF01803584301EB800006EB0010A7
:1032C000B0FBF5F000F00F0021681044886070BD7D
:1032D000A0FB010192185B41FDF73AF80146B0FBF3
:1032E000F5F00201B1FBF5F06FF01803584301EB64
:1032F000800006EBC000B0FBF5F000F0F80002EB38
:103300004002B1FBF5F0584301EB800006EBC00032
:10331000B0FBF5F000F00700D6E700000010014018
:10332000001401400148FEF7E7BF0000080100203B
:103330000148FEF7E1BF00004C010020FEE709074D
:10334000090E002804DB00F1E02080F8001470472B
:1033500000F00F0000F1E02080F8141D70478A682B
:10336000002A01DCFDF755BB521E8A604A68C0B2D4
:10337000531C4B6010707047FEF722FBFFF718FEDE
:10338000FFF7F2FBFFF708FBFFF762FCFFF7B6FC65
:10339000FFF7D0FCFFF73CFCFFF7E8FC00F028F853
:1033A000FFF7C4FB00F036F8FEE710B5EFF3058138
:1033B00011B16FF0050403E0002408B100F064FED1
:1033C000204610BD10B54FF00001EFF305826AB939
:1033D00048B1D0E902202AB1202807D3104600F0D6
:1033E000B7FF02E010B900F0A5FF0146084610BD86
:1033F000EFF3058010B16FF00500704704480168D5
:1034000011B14FF0FF30704701210160002070477B
:103410007800002010B5EFF3058010B16FF00500C3
:1034200010BD08480168012902D04FF0FF3010BDDF
:10343000054A002182F8141D0221016000F0FCFE03
:10344000002010BD780000200BE000E070B50546BC
:103450004FF00004EFF3058050BB0DB1686800E049
:103460000020C10701D0012600E0002600071FD47C
:103470006DB1D5E9021021B1502819D31EB1042035
:1034800002E020B114E0012001F097F805E00EB150
:10349000042000E0012001F085F8040008D00DB1FF
:1034A000296800E0002100F0B9FD0EB144F00104EC
:1034B000204670BD2DE9FF414FEA01034FF00005A2
:1034C000EFF30581039549BB40B380271821002401
:1034D0004AB3166806B1344696691EB13146761E67
:1034E000382E02D21679F60703D0002004B0BDE8CA
:1034F000F081566906B1B708D2F808C0BCF1000FD8
:103500000DD0D5685C2D18D312693AB136B18DE86B
:1035100006103A46214601F008FB03900DE0D668FC
:103520005EB912694AB903AACDE90012BAB22146BE
:1035300001F0CEFA012800D003950398D6E70000E9
:103540002DE9F041134C0F460546E6682068001D42
:1035500000F05AFC681C07D137B12168BDE8F04182
:103560000D48091D00F0ACBC20683544B5424560EB
:10357000216805D2A06BBDE8F041091D00F088BCB0
:10358000606B091D00F084FCA06A854200D2A56230
:10359000BDE8F08128000020780E00202DE9F041E0
:1035A000054600F099FC2D4CA068401CA0602068E6
:1035B0002B4F10B1606930B32BE02560A068012863
:1035C00027D1002606EB860007EB800000F052FCB6
:1035D000761C382EF6D3234800F04CFC21481430DA
:1035E00000F048FC1F48283000F044FC1D483C30E7
:1035F00000F040FC1B48503000F03CFC1948606370
:103600001430A06305E02068E96AC06A884200D8E7
:103610002560606A401C60626864E86A21698842CB
:1036200000D9206100EB800007EB8000291D00F02D
:1036300047FC00F071FC606900280CD02068E96A42
:10364000C06A884207D208494FF080500860BFF333
:103650004F8FBFF36F8FBDE8F0810000280000207E
:10366000C8090020280E002004ED00E038B500F065
:1036700033FC104C2068C8B90F4800F0FBFB0E4823
:10368000143000F0F7FB0C48E060143020610A4B66
:103690000020F03B009003F1500210210A2000F0BE
:1036A000BAFF206010B105A100F0B8FCBDE83840B9
:1036B00000F032BC640000207C0F0020546D725179
:1036C0000000000030B4026C0B46002A0BD0C16829
:1036D0001144C1608468A14201D30168C16030BC5B
:1036E0001846FCF729BF30BC70472DE9F041856BC7
:1036F000174604460026026C82B1C7B1E068FCF7A9
:103700001BFFE168206C091AE1602268914202D235
:10371000A168081AE060022F16D017E02068A8B947
:10372000A06801F0A5FA06460020A0600EE06068DF
:10373000FCF702FF216C606808446060A168884261
:1037400004D32068606001E005B16D1E6D1CA563A7
:103750003046BDE8F08110B5044690F8590058B1E4
:1037600001280CD002280FD0502080F31188BFF31D
:103770004F8FBFF36F8FFEE7206B00F0E1FB204619
:10378000BDE8104000F0DCBB10BD000010484FF455
:103790007051420706D0C01D0D4920F00700411AA4
:1037A000C1F570510B4A00230144C2E900030839F6
:1037B000183A21F0070111604B600B600B1AC0E949
:1037C000001393604FF00040536050617047000059
:1037D0005C16002094000020144E154CA6F29C4765
:1037E0004FF08058DFF84C9012E000BF00F074FBFF
:1037F000F068C568281D00F007FBA068401EA060A7
:103800006068401E606000F087FB2846FFF7A3FF5A
:1038100060680028EAD138680128F9D9C9F8008021
:10382000BFF34F8FBFF36F8FF2E70000640E0020ED
:103830002800002004ED00E0002807D0002181606E
:1038400001600B460A46C16000F05CBF7047000093
:1038500070B51D46049C51B1C4F80020C4E90F01A5
:103860000121204600F00AFF84F84C5070BD24600E
:10387000F4E700002DE9F05F8846DDE90B9415467A
:10388000834691009A460A9EA522206BFCF799FE7A
:103890006FF00301206B01EB8501084420F007075E
:1038A000780707D0502080F31188BFF34F8FBFF304
:1038B0006F8FFEE70025B8F1000F0FD05FF000001A
:1038C000221818F8001082F8341018F8001011B1FE
:1038D000401C1028F4D384F8435001E084F834509D
:1038E000382E00D33726E662C4E91365201D00F0A8
:1038F000CCFA04F1180000F0C8FA2461C6F13800CF
:103900006462A061656584F858505246594638464D
:1039100000F064FA2060B9F1000F01D0C9F800404E
:10392000BDE8F09F30B5114900E011460A688242B7
:10393000FBD34B685C18844203D14068184448604C
:10394000084643681C18944209D1084C183C246866
:10395000A24209D052681A4442600A6812680260A2
:10396000814200D0086030BD0460F9E79400002077
:1039700070B5002441600B4D0061914206D8D11A08
:103980008269914206D2011D286907E09A4203D25A
:10399000994201D3012403E0011DE86800F078FAA0
:1039A000204670BD6400002010B5044600F094FA73
:1039B000A06B28B15FF0000400F0AEFA204610BD05
:1039C0000124F9E730B589B03C4D6EE00498002839
:1039D00006DADDE90601059A90470498002864DBC1
:1039E000069C606910B1201D00F00EFA03A800F0DB
:1039F000D7F8024604980A2857D2DFE800F00505F8
:103A0000052D334A05052D3394F8280040F00100B8
:103A100084F828000599A069059B01442046FFF71A
:103A2000A7FF68B3216A2046884794F8280040071A
:103A30003BD5002000900598A16900234218194643
:103A4000204601F01FFAD8B9502080F31188BFF347
:103A50004F8FBFF36F8FFEE714F8280F20F001009F
:103A6000207022E094F8280040F0010084F828003B
:103A70000598A06128B1811813462046FFF778FF0A
:103A800013E0502080F31188BFF34F8FBFF36F8F87
:103A9000FEE794F82800810703D4204600F050FA8E
:103AA00003E020F0010084F82800002204A928681F
:103AB00000F038FF002889D109B030BD6400002033
:103AC0002DE9FC410F46054600F0FAFB01A800F085
:103AD00067F80446019818B101F042F9BDE8FC818D
:103AE000254EAFB130690068D0B30027291B3A4694
:103AF000306800F0A7FA01F033F90028EED11F4931
:103B00004FF080500860BFF34F8FBFF36F8FE5E732
:103B1000A542EBD801F024F9F0682746C068C468D4
:103B2000201D00F071F994F82800410719D5A0690B
:103B30002B4641193A462046FFF71AFFA8B100204C
:103B40000346014600902A46204601F09BF960B9E1
:103B5000502080F31188BFF34F8FBFF36F8FFEE7C4
:103B600007E020F0010084F82800216A20468847F9
:103B7000B4E70127BAE700006400002004ED00E08C
:103B80000648416B096829B1416BC968C968496831
:103B9000816270474FF0FF31FAE7000028000020F3
:103BA00070B5054600F0FAFF064E0446B068844240
:103BB00003D200F009F8012000E000202860204630
:103BC000B46070BD64000020F8B5194D20E0C068F5
:103BD000C4680668201D00F017F9216A204688474E
:103BE00094F82800400713D5A0693044B04206D9A4
:103BF00024616060211DE86800F04AF908E00020B7
:103C00000346014600903246204601F03BF938B1A8
:103C1000E86801680029DAD12969C5E90310F8BD0F
:103C2000502080F31188BFF34F8FBFF36F8FFEE7F3
:103C30006400002008484068401C4FF0500080F3AA
:103C4000118804D0BFF34F8FBFF36F8FFEE7BFF330
:103C50004F8FBFF36F8FFEE79C00002003460020CC
:103C600012B1994302D070470B42FCD0012070473B
:103C7000074CE068016841B1C0680021D0F800003D
:103C8000FFF71EFFFFF79EFEF3E701210020F7E795
:103C9000640000202DE9F041044600F01DF994F97C
:103CA000455004F1240609E0606A48B1304601F04D
:103CB0001FF808B100F05EFA6D1E6DB2002DF3DC46
:103CC0004FF0FF3684F8456000F026F900F004F963
:103CD00094F9445004F1100709E0206948B13846CE
:103CE00001F006F808B100F045FA6D1E6DB2002D26
:103CF000F3DC84F84460BDE8F04100F00DB9000049
:103D00002DE9F0410546002700F0DAFA324E30681E
:103D100008B9FFF73BFD706905424ED1C5B30835C0
:103D200068070ED005F00700C0F1080005446807D9
:103D300007D0502080F31188BFF34F8FBFF36F8FF0
:103D4000FEE72DB37068854237D823481830014606
:103D50000C6801E020460C466168A94202D2216845
:103D60000029F7D131688C4227D0076821680160AB
:103D700060680837411B10290FD96019420708D025
:103D8000502080F31188BFF34F8FBFF36F8FFEE792
:103D900013E041606560FFF7C5FD61687068401A17
:103DA0007060B268904200D2B06070690143002038
:103DB000C4E90001F068401CF06000F0D1FF780712
:103DC00007D0502080F31188BFF34F8FBFF36F8F60
:103DD000FEE73846BDE8F0817C00002010B5031FE7
:103DE0004FF080741C601B1F21F001011960191F26
:103DF000044B0B6014390A60091F6FF0020244384B
:103E00000A6010BD353C0008D0E9013201699A60B2
:103E1000D0E901235A604A68824201D182684A602F
:103E2000002202610868401E0860086870470000B0
:103E3000044908680A688069D26A0968C2F13802D0
:103E40008A61704728000020034B036003F15C0087
:103E50000860802010607047A40F0020044B0360AE
:103E600003F15C0008604FF4807010607047000040
:103E70000012002000F108014FF0FF32C0E90112EA
:103E8000C16001610021016070470021016170473C
:103E900030B50B685A1C02D000F1080202E002693A
:103EA00004E02246546825689D42FAD953684B6065
:103EB00099608A60516008610168491C016030BDE9
:103EC00042684A6093688B609368596091600861AA
:103ED0000168491C01607047502080F31188BFF3CE
:103EE0004F8FBFF36F8F0A494868401C4860012814
:103EF0000CD10848006810F0FF0F07D0502080F365
:103F00001188BFF34F8FBFF36F8FFEE7704700003C
:103F10009C00002004ED00E00849486828B1401EDC
:103F2000486001D180F311887047502080F31188D8
:103F3000BFF34F8FBFF36F8FFEE700009C000020A0
:103F400070B500282AD0164DA0F108046068696990
:103F5000084207D1502080F31188BFF34F8FBFF381
:103F60006F8FFEE722683AB1502080F31188BFF3CB
:103F70004F8FBFF36F8FFEE78843606000F0A0F9BA
:103F800060686968084468602046FFF7CBFC2869D0
:103F9000401C2861BDE8704000F0E2BE70BD00002A
:103FA0007C0000204FF0E020002101618161054983
:103FB0004FF47A720968B1FBF2F1491E41610721A1
:103FC000016170472400002010B5FCF79DF91149EC
:103FD00010280ED300F1E02090F8F0030A78904208
:103FE00007D2502080F31188BFF34F8FBFF36F8F3C
:103FF000FEE709480068896800F4E060884207D954
:10400000502080F31188BFF34F8FBFF36F8FFEE70F
:1040100010BD00009C0000200CED00E010B5084B26
:10402000002200BF53F832401CB1521C082AF9D3B9
:1040300010BD43F8321003EBC201486010BD000010
:104040008809002070B515460E460446FFF744FF68
:1040500094F944100020491C01D184F8440094F9DB
:104060004510491C01D184F84500FFF755FFA06BAE
:1040700028B92A46314604F1240000F099F8204678
:10408000BDE87040FFF706BE10B5020014D00F481F
:10409000006B38B1502080F31188BFF34F8FBFF30E
:1040A0006F8FFEE700F00CF900211046FFF748FA89
:1040B00000F056FE002807D105494FF080500860F7
:1040C000BFF34F8FBFF36F8F10BD0000280000209B
:1040D00004ED00E070B50546FFF7FEFE1E4C05B985
:1040E0002568281DFFF790FEA86A18B105F1180091
:1040F000FFF78AFE606A401C60622068854207D133
:10410000291D1648FFF7DCFE6068401C606007E070
:10411000A068401EA0602846FFF71DFBFFF730FD9A
:10412000FFF7FAFE6069002814D02068854211D19B
:10413000206B38B1502080F31188BFF34F8FBFF34D
:104140006F8FFEE706494FF080500860BFF34F8F36
:10415000BFF36F8F70BD000028000020640E0020A8
:1041600004ED00E002490A6A0260C96841607047D4
:104170002800002001490120C86170472800002064
:1041800010B50C4650B1094909681831FFF780FE97
:104190002046BDE810400121FFF7D2B9502080F33E
:1041A0001188BFF34F8FBFF36F8FFEE72800002009
:1041B00070B514460D4668B10A4909681831FFF711
:1041C0007FFE0CB14FF0FF3521462846BDE8704018
:1041D000FFF7B6B9502080F31188BFF34F8FBFF3BC
:1041E0006F8FFEE72800002010B51446030011D0A1
:1041F0001048026BB2B1026841F000419161016860
:1042000018461831FFF75CFE2046BDE8104001213A
:10421000FFF796B9502080F31188BFF34F8FBFF39B
:104220006F8FFEE7502080F31188BFF34F8FBFF3ED
:104230006F8FFEE72800002030B587B0002403947C
:1042400005AA04A903A80494FFF7FEFDDDE9030114
:104250000094CDE90110002315A11748059A00F03C
:1042600064FC164D0028E8621FD000F0DBFD012839
:1042700009D0401C19D1502080F31188BFF34F8F13
:10428000BFF36F8FFEE7502080F31188BFF34F8F8D
:10429000BFF36F8F4FF0FF30A86201206861EC60C0
:1042A00007B0BDE8304000F0EDB807B030BD000009
:1042B00049444C4500000000D93700082800002080
:1042C0000248016B491C0163704700002800002070
:1042D000164810B5016B11B10121C16110BD00215B
:1042E000C1610169124A01E0B9B1491E01EB8103C4
:1042F00052F82330002BF7D001EB810302EB83024D
:1043000002F1080453685B685360A34201D15B6803
:104310005360DA680260016110BD502080F311889B
:10432000BFF34F8FBFF36F8FFEE700002800002020
:10433000C809002070B52020FFF7E2FC040005D07A
:104340000025201D2560FFF795FD2577204670BDCF
:1043500038B558B120210446002000912060201D6E
:10436000FFF788FD01202077204638BD502080F3DC
:104370001188BFF34F8FBFF36F8FFEE72DE9F04732
:104380009A46DDF8209090460D4604004FF0000755
:1043900009D0280E0FD0502080F31188BFF34F8F23
:1043A000BFF36F8FFEE7502080F31188BFF34F8F6C
:1043B000BFF36F8FFEE71DB100F0E2FB40B112E0EA
:1043C000502080F31188BFF34F8FBFF36F8FFEE74C
:1043D000B9F1000F07D0502080F31188BFF34F8F41
:1043E000BFF36F8FFEE7FFF76BFF26685246294643
:1043F0003046FFF733FC30B1B8F1000F1AD0206817
:10440000A843206016E0B9F1000F13D0B8F1000FF7
:1044100001D04FF08077BAF1000F01D047F08067EC
:1044200045EA07014A46201DFFF7DEFE00F098FC32
:1044300018B10AE000F094FC1FE011494FF08050E1
:104440000860BFF34F8FBFF36F8FFFF7F1FC064695
:10445000800110D4FFF740FD2668524629463046B9
:10446000FFF7FCFB28B1B8F1000F02D02068A84389
:104470002060FFF751FD26F07F463046BDE8F0870B
:1044800004ED00E01CB537480168374A914207D176
:10449000502080F31188BFF34F8FBFF36F8FFEE77B
:1044A00000683149491E884207D1502080F31188A5
:1044B000BFF34F8FBFF36F8FFEE72C490878019051
:1044C000FF20087008788DF800009DF800009DF826
:1044D000002000F0F000904207D0502080F31188B7
:1044E000BFF34F8FBFF36F8FFEE79DF80000204CA6
:1044F00000F0500020700720A06005E09DF800202B
:1045000052008DF80020401E9DF800201206F5D4C0
:10451000A060032807D0502080F31188BFF34F8F8D
:10452000BFF36F8FFEE74FF44070A06001980870F2
:104530000C482030016841F470010160016841F0CD
:1045400070410160FFF72EFD00206060FBF7A4FEC4
:104550000848016841F040410160FBF789FE0020F6
:104560001CBD000000ED00E071C20F4100E400E05E
:104570009C00002034EF00E010B5502080F311883B
:10458000BFF34F8FBFF36F8F00F00EFB18B10449DC
:104590004FF080500860002080F3118810BD0000AB
:1045A00004ED00E010B502460021012000F012F8F1
:1045B0000446FFF741F9204610BD38B50B460022EE
:1045C00000901146012000F026F80446FFF734F968
:1045D000204638BDF8B517460E46050013D005FB3A
:1045E00006F05030FFF78CFB04000AD0002084F85E
:1045F000460004F150023B46314628460094FFF73E
:1046000027F92046F8BD502080F31188BFF34F8F63
:10461000BFF36F8FFEE738B5049D18B153B1CAB12F
:1046200081B120E0502080F31188BFF34F8FBFF39A
:104630006F8FFEE7502080F31188BFF34F8FBFF3D9
:104640006F8FFEE7502080F31188BFF34F8FBFF3C9
:104650006F8FFEE739B1502080F31188BFF34F8F81
:10466000BFF36F8FFEE750241C46012384F84630C9
:104670002B460094FFF7ECF8204638BD70B50D4688
:10468000040025D0FFF728FCD4E90F20216802FBA5
:104690000011A1600021A163216861600A46D4E98C
:1046A0000F01401E00FB0121E16021464FF0FF3069
:1046B00001F8440F487004F110008DB1FFF7DAFBE8
:1046C00004F12400FFF7D6FBFFF726FC012070BDA4
:1046D000502080F31188BFF34F8FBFF36F8FFEE739
:1046E00021690029F0D000F003FB0028ECD0044938
:1046F0004FF080500860BFF34F8FBFF36F8FE3E739
:1047000004ED00E02DE9FF4782B01D468A464FF0D8
:104710000008040003D0BAF1000F08D011E05020C7
:1047200080F31188BFF34F8FBFF36F8FFEE7206CCC
:1047300038B1502080F31188BFF34F8FBFF36F8FD4
:10474000FEE7022D0AD1E06B012807D0502080F34C
:104750001188BFF34F8FBFF36F8FFEE700F010FAA1
:104760003F4F4FF000094FF0805648B9049838B1D8
:10477000502080F31188BFF34F8FBFF36F8FFEE798
:10478000FFF7AAFBA06BE16B884207D3022D05D08F
:104790000498D0B1B8F1000F1AD01EE02A46514655
:1047A0002046FEF7A2FF616A19B104F1240000F06F
:1047B0009FFA20B13E60BFF34F8FBFF36F8FFFF7BB
:1047C000ABFB012006B0BDE8F087FFF7A5FB22E0B8
:1047D0006846FFF7C7FC4FF00108FFF79DFBFFF7A6
:1047E0006FFDFFF779FB94F94400401C01D184F878
:1047F000449094F94500401C01D184F84590FFF79E
:104800008BFB04A9684600F029F930B12046FFF778
:1048100041FA00F0A5FA0020D4E7FFF75DFBA06B9A
:10482000E16B884213D1FFF777FB04F11000049984
:10483000FFF7A6FC2046FFF72DFA00F091FA0028BA
:104840009ED13E60BFF34F8FBFF36F8F98E7FFF7A6
:1048500063FB2046FFF71EFA00F082FA90E70000A3
:1048600004ED00E02DE9F0471F469046894604001C
:1048700003D0B9F1000F08D011E0502080F3118867
:10488000BFF34F8FBFF36F8FFEE7206C38B150201E
:1048900080F31188BFF34F8FBFF36F8FFEE7022FB6
:1048A0000AD1E06B012807D0502080F31188BFF3B4
:1048B0004F8FBFF36F8FFEE7FFF786FB5020EFF3BC
:1048C000118680F31188BFF34F8FBFF36F8FA06BFA
:1048D000E16B884206D3022F04D0002086F31188B2
:1048E000BDE8F08794F94550A06B3A46494620460A
:1048F000FEF7FBFE681C04D06D1C84F845500120B7
:10490000ECE7606A0028FAD004F1240000F0F0F926
:104910000028F4D0B8F1000FF1D00121C8F8001040
:10492000EDE700002DE9F747002683B08A46040032
:1049300003D0BAF1000F08D011E0502080F31188A5
:10494000BFF34F8FBFF36F8FFEE7206C38B150205D
:1049500080F31188BFF34F8FBFF36F8FFEE700F036
:104960000FF9DFF8F4804FF000094FF0805748B995
:10497000059838B1502080F31188BFF34F8FBFF3F3
:104980006F8FFEE7FFF7A8FAA56BC5B15146204629
:10499000FEF798FE6D1EA563206950B104F110006A
:1049A00000F0A6F928B1C8F80070BFF34F8FBFF32D
:1049B0006F8FFFF7B1FA012006B0BDE8F0870598C8
:1049C00008B11EB106E0FFF7A7FA27E06846FFF737
:1049D000C9FB0126FFF7A0FAFFF772FCFFF77CFA8C
:1049E00094F94400401C01D184F8449094F94500A6
:1049F000401C01D184F84590FFF78EFA05A968465E
:104A000000F02CF8002820460AD0FFF743F900F008
:104A1000A7F92046FEF7C8FF0028B3D00020CBE757
:104A2000FEF7C2FF90B104F124000599FFF7A8FB3F
:104A30002046FFF72FF900F093F90028A2D1C8F81B
:104A40000070BFF34F8FBFF36F8F9BE72046FFF7D8
:104A500021F900F085F995E704ED00E02DE9F0413A
:104A60000C46050011D0C4B1FFF736FA174BDA68CF
:104A70006E682068911B471C17D02F681B6A9F42E5
:104A800019D0964217D8012410E0502080F31188E5
:104A9000BFF34F8FBFF36F8FFEE7502080F3118875
:104AA000BFF34F8FBFF36F8FFEE70024FFF734FA99
:104AB0002046BDE8F081884205D9401A206028468A
:104AC000FFF750FBF1E700202060DCE72800002022
:104AD0002DE9FF5F8346DDE90E87994616468A4633
:104AE0009000FFF70DF905001CD05C20FFF708F9D6
:104AF000040014D00020256384F85900CDE9024059
:104B0000CDE900874B46324651465846FEF7B2FE85
:104B10002046FEF743FD012004B0BDE8F09F284683
:104B2000FFF70EFA4FF0FF30F6E7F0B585B0DDE99C
:104B30000B640A9DA6B1DCB15C27009726630226B0
:104B400084F85960002604AFCDE90246CDE900574C
:104B5000FEF790FE2046FEF721FD049805B0F0BD5B
:104B6000502080F31188BFF34F8FBFF36F8FFEE7A4
:104B7000502080F31188BFF34F8FBFF36F8FFEE794
:104B80000548416919B1006B18B100207047012038
:104B90007047022070470000280000200148C068CC
:104BA00070470000280000202DE9F0412E4C00271E
:104BB000206B28B1A069401CA0613846BDE8F08197
:104BC000E668761CE66013D1606B006838B150204F
:104BD00080F31188BFF34F8FBFF36F8FFEE7606BD9
:104BE000A16B6163A063206A401C2062FEF7C8FFCE
:104BF000A06ADFF87880864209D3606B0068A0B1B4
:104C0000606BC068C5686868864211D2A06220687F
:104C1000C06A00EB800158F82100012800D9012763
:104C2000E0690028C9D00127C7E74FF0FF30EDE762
:104C3000281DFFF7E9F8A86A18B105F11800FFF779
:104C4000E3F8E86A2169884200D9206100EB80011D
:104C500008EB8100291DFFF733F9E86A2168C96A6A
:104C60008842CAD30127C8E728000020C8090020CD
:104C700070B504004FF0000133D01B4D286884420A
:104C800007D0502080F31188BFF34F8FBFF36F8F91
:104C9000FEE7206D38B1401E2065E36CE26A9A425F
:104CA0001FD040B11DE0502080F31188BFF34F8F1B
:104CB000BFF36F8FFEE7201DFFF7A6F8E06CE06200
:104CC000C0F13800A061E06A2969884200D92861F2
:104CD000064900EB800001EB8000211DFFF7F0F892
:104CE0000121084670BD000028000020C8090020EE
:104CF00070B5C068C46854B104F118000646FFF7E7
:104D000083F8144D286B50B13146134815E05020FC
:104D100080F31188BFF34F8FBFF36F8FFEE7201D25
:104D2000FFF772F8E06A2969884200D928610B49C7
:104D300000EB800001EB8000211DFFF7C1F8E06A65
:104D40002968C96A884202D90120E86170BD002043
:104D500070BD000028000020500E0020C80900206F
:104D60002DE9F0472C4D00242746286B38B1FFF77A
:104D7000B3F8286B401E2863286B40B146E05020F2
:104D800080F31188BFF34F8FBFF36F8FFEE7A968E1
:104D9000224E0120D1B3A6F5916980463068E0B17A
:104DA000F068C46804F11800FFF72EF8201DFFF723
:104DB0002BF8E06A2969884200D9286100EB80015C
:104DC00009EB8100211DFFF77BF8E06A2968C96AB9
:104DD0008842E3D3C5F81C80E0E70CB1FEF7D0FEB3
:104DE000AC694CB14FEA0806FFF7DEFE00B1EE6198
:104DF000641EF9D10020A861E86938B1084901278B
:104E000038070860BFF34F8FBFF36F8FFFF784F849
:104E10003846BDE8F087000028000020500E002032
:104E200004ED00E010B586B0FEF720FC114C2068C0
:104E3000B8B100200390049005AA04A903A8FFF7C5
:104E40000DF8DDE9032102208DE8070000230AA107
:104E50000B48059AFFF769FE606010B106B00120AB
:104E600010BD502080F31188BFF34F8FBFF36F8FB9
:104E7000FEE7000064000020546D7220537663004A
:104E8000713C00082DE9FF411E46134602000A9DB1
:104E90004FF0000016D0144C2768002F0FD0CDE93A
:104EA00000130292062917DAFFF76AFE02284FF074
:104EB00000030FD0002269462068FFF723FC04B0EE
:104EC000BDE8F081502080F31188BFF34F8FBFF30E
:104ED0006F8FFEE72A46EEE70023324669463846E2
:104EE000FFF7C0FCEBE70000640000204FEA11531D
:104EF000A3F58063D3F11E03A8BFD3F1200C08DB18
:104F00004FF0004242EAC12252EA505232FA03F014
:104F1000704709420BD4102BC4BF0020704703F523
:104F2000787CBCF1FF3F05D04FF0FF3070474FF069
:104F30000000704770B500F0C3F800BF49922480AC
:104F400000207047F0E7B0FA80F310FA03F10AD0BE
:104F5000C3F11D0303F580634FEA41504FEA03524A
:104F600002EBD12170474FF000007047DFF848C1D5
:104F700070B51CEA111E1EBF1CEA13159EEA0C0F29
:104F800095EA0C0F00F06F8081EA030423EA4C13CA
:104F90004EEAD47E21EA4C1141F4801143F480138F
:104FA000AE44A1FB024CA0FB0365AEF17F7E361937
:104FB00055EB0C05A1FB034C4CF10003A0FB021CBC
:104FC00016EB0C06654153F10003094218BF46F089
:104FD000010613F4007F0BD14FEA03314FEA05308D
:104FE000340341EA155140EA16506FF003020AE01B
:104FF0004FEAC3214FEAC520F40241EA555140EA85
:1050000056506FF0020202EB2E4201EB025585EA88
:10501000CE710AD05FEA440C18BF24F0004450F16E
:10502000000041F1000120EAD47040F2FE7C6245AC
:1050300000D270BDA84214BF4FF080444FF04044EE
:10504000002E08BF0024BEF1806FA8BFA1F1C041AF
:10505000BDE8704080F282804FF0000001F1C04155
:1050600001F0004170479EEA0C0F0CEA131518BFBF
:1050700095EA0C0F06D04FF0000081EA030E0EF007
:10508000004170BD00F01CF88900013E00F007B837
:1050900000F009B84FEA430C5FEA5C5C08D081EA93
:1050A000030100F05BB84FEA410C5FEA5C5CF6D1AB
:1050B0004FF00000014970470000FF070000F87F33
:1050C0000EF1020E2EF0030E5EF8046B364205D48C
:1050D000012A43EB030515F5001F12D8012841EB07
:1050E000010C1CF5001F0CD80ED14FEAD17C15F530
:1050F000001F0CEB4C0C0CF1020C08BF4CEBD37CEA
:1051000004E04FF0080C01E04FEAD37C0CEB4C05B7
:1051100026FA05F606F00706B6F1040C06D20EEBE9
:10512000860CBDE870404CF0010C6047DFE80CF0E5
:10513000090B02024FF000414FF00000A1F50021E1
:1051400070BD19461046012851EB010418BFD4F573
:10515000001484BF002001F0004170BD0808A0F5D4
:1051600000114FEA310170474FF04070E1EE100A34
:1051700070470000F8520008000000000000000026
:105180000000000000000000000200001800000005
:1051900000000000000000009C5200080000000019
:1051A00000000000000000000000000000020000FD
:1051B000180000000000000000000000E852000895
:1051C00000000000000000000000000000000000DF
:1051D00000020000080000000000000000000000C5
:1051E000B4520008000000000000000000000000B1
:1051F000000000000004000030000000000000007B
:1052000000000000A852000800000000000000009C
:105210000000000000000000000400003100000059
:105220000000000000000000905200080000000094
:105230000000000000000000D8520008000000003C
:105240000000000000000000C45200080000000040
:105250000000000000000000000200030003000343
:105260000003000400050005010502050000000020
:105270000000000001020304060708090000000006
:10528000010203043A7474003A7474003A747400AE
:105290006D794D7574657830310000005461736B21
:1052A0005F4C4544000000005461736B5F494D55ED
:1052B000000000005461736B5F506C616E7461722A
:1052C00000000000506C616E7461724D6F64654542
:1052D00076656E740000000053616D706C696E67D6
:1052E0004576656E740000005461736B5F446562BF
:1052F00075675573617274005461736B5F537461A9
:10530000727400002453000800000020B400000064
:10531000D4010008D8530008B4000020045900004C
:10532000F001000800000000000000000000000084
:10533000000000000000000000000000010000006C
:1053400010000000000000000024F4000000000035
:10535000000000000000000000000000000000004D
:10536000000000000000000000000000000000003D
:10537000000000000000000000000000000000002D
:10538000000000000000000000000000000000001D
:10539000000000000000000000000000000000000D
:1053A00000000000000000000000000000000000FD
:1053B00000000000000000000000000000000000ED
:1053C00000000000AAAAAAAA000000000000000035
:0853D0000000000000000000D5
:040000050800019955
:00000001FF
